{
	"contracts/Reporter.sol": {
		"Reporter": {
			"abi": [
				{
					"inputs": [
						{
							"internalType": "address",
							"name": "addr",
							"type": "address"
						}
					],
					"stateMutability": "nonpayable",
					"type": "constructor"
				},
				{
					"anonymous": false,
					"inputs": [
						{
							"indexed": true,
							"internalType": "address",
							"name": "previousOwner",
							"type": "address"
						},
						{
							"indexed": true,
							"internalType": "address",
							"name": "newOwner",
							"type": "address"
						}
					],
					"name": "OwnershipTransferred",
					"type": "event"
				},
				{
					"anonymous": false,
					"inputs": [
						{
							"indexed": false,
							"internalType": "bytes32",
							"name": "questionID",
							"type": "bytes32"
						},
						{
							"indexed": false,
							"internalType": "bytes",
							"name": "ancillaryData",
							"type": "bytes"
						},
						{
							"indexed": false,
							"internalType": "uint256",
							"name": "resolutionTime",
							"type": "uint256"
						},
						{
							"indexed": false,
							"internalType": "address",
							"name": "rewardToken",
							"type": "address"
						},
						{
							"indexed": false,
							"internalType": "uint256",
							"name": "reward",
							"type": "uint256"
						},
						{
							"indexed": false,
							"internalType": "uint256",
							"name": "proposalBond",
							"type": "uint256"
						},
						{
							"indexed": false,
							"internalType": "bool",
							"name": "earlyResolutionEnabled",
							"type": "bool"
						}
					],
					"name": "questionInitialized",
					"type": "event"
				},
				{
					"anonymous": false,
					"inputs": [
						{
							"indexed": false,
							"internalType": "bytes32",
							"name": "questionID",
							"type": "bytes32"
						},
						{
							"indexed": false,
							"internalType": "uint256",
							"name": "outcomeSlotCount",
							"type": "uint256"
						}
					],
					"name": "questionPrepared",
					"type": "event"
				},
				{
					"anonymous": false,
					"inputs": [
						{
							"indexed": false,
							"internalType": "bytes32",
							"name": "questionID",
							"type": "bytes32"
						},
						{
							"indexed": false,
							"internalType": "uint256",
							"name": "price",
							"type": "uint256"
						}
					],
					"name": "questionSettled",
					"type": "event"
				},
				{
					"inputs": [],
					"name": "conditionalTokens",
					"outputs": [
						{
							"internalType": "contract IConditionalTokens",
							"name": "",
							"type": "address"
						}
					],
					"stateMutability": "view",
					"type": "function"
				},
				{
					"inputs": [
						{
							"internalType": "bytes32",
							"name": "questionID",
							"type": "bytes32"
						},
						{
							"internalType": "bytes",
							"name": "ancillaryData",
							"type": "bytes"
						},
						{
							"internalType": "uint256",
							"name": "resolutionTime",
							"type": "uint256"
						},
						{
							"internalType": "address",
							"name": "rewardToken",
							"type": "address"
						},
						{
							"internalType": "uint256",
							"name": "reward",
							"type": "uint256"
						},
						{
							"internalType": "uint256",
							"name": "proposalBond",
							"type": "uint256"
						},
						{
							"internalType": "bool",
							"name": "earlyResolutionEnabled",
							"type": "bool"
						},
						{
							"internalType": "uint256",
							"name": "outcomeSlotCount",
							"type": "uint256"
						}
					],
					"name": "initializeAndPrepare",
					"outputs": [],
					"stateMutability": "nonpayable",
					"type": "function"
				},
				{
					"inputs": [
						{
							"internalType": "bytes32",
							"name": "questionID",
							"type": "bytes32"
						},
						{
							"internalType": "bytes",
							"name": "ancillaryData",
							"type": "bytes"
						},
						{
							"internalType": "uint256",
							"name": "resolutionTime",
							"type": "uint256"
						},
						{
							"internalType": "address",
							"name": "rewardToken",
							"type": "address"
						},
						{
							"internalType": "uint256",
							"name": "reward",
							"type": "uint256"
						},
						{
							"internalType": "uint256",
							"name": "proposalBond",
							"type": "uint256"
						},
						{
							"internalType": "bool",
							"name": "earlyResolutionEnabled",
							"type": "bool"
						}
					],
					"name": "initializeQuestion",
					"outputs": [],
					"stateMutability": "nonpayable",
					"type": "function"
				},
				{
					"inputs": [
						{
							"internalType": "bytes32",
							"name": "questionID",
							"type": "bytes32"
						}
					],
					"name": "isInitialized",
					"outputs": [
						{
							"internalType": "bool",
							"name": "",
							"type": "bool"
						}
					],
					"stateMutability": "view",
					"type": "function"
				},
				{
					"inputs": [],
					"name": "owner",
					"outputs": [
						{
							"internalType": "address",
							"name": "",
							"type": "address"
						}
					],
					"stateMutability": "view",
					"type": "function"
				},
				{
					"inputs": [
						{
							"internalType": "bytes32",
							"name": "questionID",
							"type": "bytes32"
						},
						{
							"internalType": "uint256",
							"name": "outcomeSlotCount",
							"type": "uint256"
						}
					],
					"name": "prepareQuestion",
					"outputs": [],
					"stateMutability": "nonpayable",
					"type": "function"
				},
				{
					"inputs": [
						{
							"internalType": "bytes32",
							"name": "",
							"type": "bytes32"
						}
					],
					"name": "questions",
					"outputs": [
						{
							"internalType": "uint256",
							"name": "result",
							"type": "uint256"
						},
						{
							"internalType": "uint256",
							"name": "resolutionTime",
							"type": "uint256"
						},
						{
							"internalType": "uint256",
							"name": "reward",
							"type": "uint256"
						},
						{
							"internalType": "uint256",
							"name": "proposalBond",
							"type": "uint256"
						},
						{
							"internalType": "uint256",
							"name": "settled",
							"type": "uint256"
						},
						{
							"internalType": "uint256",
							"name": "requestTimestamp",
							"type": "uint256"
						},
						{
							"internalType": "uint256",
							"name": "adminResolutionTimestamp",
							"type": "uint256"
						},
						{
							"internalType": "bool",
							"name": "earlyResolutionEnabled",
							"type": "bool"
						},
						{
							"internalType": "bool",
							"name": "resolved",
							"type": "bool"
						},
						{
							"internalType": "bool",
							"name": "paused",
							"type": "bool"
						},
						{
							"internalType": "address",
							"name": "rewardToken",
							"type": "address"
						},
						{
							"internalType": "bytes",
							"name": "ancillaryData",
							"type": "bytes"
						}
					],
					"stateMutability": "view",
					"type": "function"
				},
				{
					"inputs": [],
					"name": "renounceOwnership",
					"outputs": [],
					"stateMutability": "nonpayable",
					"type": "function"
				},
				{
					"inputs": [
						{
							"internalType": "bytes32",
							"name": "questionID",
							"type": "bytes32"
						},
						{
							"internalType": "uint256",
							"name": "price",
							"type": "uint256"
						}
					],
					"name": "settleQuestion",
					"outputs": [],
					"stateMutability": "nonpayable",
					"type": "function"
				},
				{
					"inputs": [
						{
							"internalType": "address",
							"name": "newOwner",
							"type": "address"
						}
					],
					"name": "transferOwnership",
					"outputs": [],
					"stateMutability": "nonpayable",
					"type": "function"
				}
			],
			"devdoc": {
				"kind": "dev",
				"methods": {
					"owner()": {
						"details": "Returns the address of the current owner."
					},
					"renounceOwnership()": {
						"details": "Leaves the contract without owner. It will not be possible to call `onlyOwner` functions anymore. Can only be called by the current owner. NOTE: Renouncing ownership will leave the contract without an owner, thereby removing any functionality that is only available to the owner."
					},
					"transferOwnership(address)": {
						"details": "Transfers ownership of the contract to a new account (`newOwner`). Can only be called by the current owner."
					}
				},
				"version": 1
			},
			"evm": {
				"assembly": "    /* \"contracts/Reporter.sol\":228:5043  contract Reporter is Ownable{... */\n  mstore(0x40, 0xa0)\n    /* \"contracts/Reporter.sol\":2023:2118  constructor(address addr) public{... */\n  callvalue\n  dup1\n  iszero\n  tag_1\n  jumpi\n  0x00\n  dup1\n  revert\ntag_1:\n  pop\n  mload(0x40)\n  sub(codesize, bytecodeSize)\n  dup1\n  bytecodeSize\n  dup4\n  codecopy\n  dup2\n  dup2\n  add\n  0x40\n  mstore\n  dup2\n  add\n  swap1\n  tag_2\n  swap2\n  swap1\n  tag_3\n  jump\t// in\ntag_2:\n    /* \"https://github.com/OpenZeppelin/openzeppelin-contracts/blob/master/contracts/access/Ownable.sol\":936:968  _transferOwnership(_msgSender()) */\n  tag_7\n    /* \"https://github.com/OpenZeppelin/openzeppelin-contracts/blob/master/contracts/access/Ownable.sol\":955:967  _msgSender() */\n  tag_8\n    /* \"https://github.com/OpenZeppelin/openzeppelin-contracts/blob/master/contracts/access/Ownable.sol\":955:965  _msgSender */\n  shl(0x20, tag_9)\n    /* \"https://github.com/OpenZeppelin/openzeppelin-contracts/blob/master/contracts/access/Ownable.sol\":955:967  _msgSender() */\n  0x20\n  shr\n  jump\t// in\ntag_8:\n    /* \"https://github.com/OpenZeppelin/openzeppelin-contracts/blob/master/contracts/access/Ownable.sol\":936:954  _transferOwnership */\n  shl(0x20, tag_10)\n    /* \"https://github.com/OpenZeppelin/openzeppelin-contracts/blob/master/contracts/access/Ownable.sol\":936:968  _transferOwnership(_msgSender()) */\n  0x20\n  shr\n  jump\t// in\ntag_7:\n    /* \"contracts/Reporter.sol\":2105:2109  addr */\n  dup1\n    /* \"contracts/Reporter.sol\":2066:2110  conditionalTokens = IConditionalTokens(addr) */\n  0xffffffffffffffffffffffffffffffffffffffff\n  and\n  0x80\n  dup2\n  0xffffffffffffffffffffffffffffffffffffffff\n  and\n  dup2\n  mstore\n  pop\n  pop\n    /* \"contracts/Reporter.sol\":2023:2118  constructor(address addr) public{... */\n  pop\n    /* \"contracts/Reporter.sol\":228:5043  contract Reporter is Ownable{... */\n  jump(tag_12)\n    /* \"https://github.com/OpenZeppelin/openzeppelin-contracts/blob/master/contracts/utils/Context.sol\":640:736  function _msgSender() internal view virtual returns (address) {... */\ntag_9:\n    /* \"https://github.com/OpenZeppelin/openzeppelin-contracts/blob/master/contracts/utils/Context.sol\":693:700  address */\n  0x00\n    /* \"https://github.com/OpenZeppelin/openzeppelin-contracts/blob/master/contracts/utils/Context.sol\":719:729  msg.sender */\n  caller\n    /* \"https://github.com/OpenZeppelin/openzeppelin-contracts/blob/master/contracts/utils/Context.sol\":712:729  return msg.sender */\n  swap1\n  pop\n    /* \"https://github.com/OpenZeppelin/openzeppelin-contracts/blob/master/contracts/utils/Context.sol\":640:736  function _msgSender() internal view virtual returns (address) {... */\n  swap1\n  jump\t// out\n    /* \"https://github.com/OpenZeppelin/openzeppelin-contracts/blob/master/contracts/access/Ownable.sol\":2433:2620  function _transferOwnership(address newOwner) internal virtual {... */\ntag_10:\n    /* \"https://github.com/OpenZeppelin/openzeppelin-contracts/blob/master/contracts/access/Ownable.sol\":2506:2522  address oldOwner */\n  0x00\n    /* \"https://github.com/OpenZeppelin/openzeppelin-contracts/blob/master/contracts/access/Ownable.sol\":2525:2531  _owner */\n  dup1\n  0x00\n  swap1\n  sload\n  swap1\n  0x0100\n  exp\n  swap1\n  div\n  0xffffffffffffffffffffffffffffffffffffffff\n  and\n    /* \"https://github.com/OpenZeppelin/openzeppelin-contracts/blob/master/contracts/access/Ownable.sol\":2506:2531  address oldOwner = _owner */\n  swap1\n  pop\n    /* \"https://github.com/OpenZeppelin/openzeppelin-contracts/blob/master/contracts/access/Ownable.sol\":2550:2558  newOwner */\n  dup2\n    /* \"https://github.com/OpenZeppelin/openzeppelin-contracts/blob/master/contracts/access/Ownable.sol\":2541:2547  _owner */\n  0x00\n  dup1\n    /* \"https://github.com/OpenZeppelin/openzeppelin-contracts/blob/master/contracts/access/Ownable.sol\":2541:2558  _owner = newOwner */\n  0x0100\n  exp\n  dup2\n  sload\n  dup2\n  0xffffffffffffffffffffffffffffffffffffffff\n  mul\n  not\n  and\n  swap1\n  dup4\n  0xffffffffffffffffffffffffffffffffffffffff\n  and\n  mul\n  or\n  swap1\n  sstore\n  pop\n    /* \"https://github.com/OpenZeppelin/openzeppelin-contracts/blob/master/contracts/access/Ownable.sol\":2604:2612  newOwner */\n  dup2\n    /* \"https://github.com/OpenZeppelin/openzeppelin-contracts/blob/master/contracts/access/Ownable.sol\":2573:2613  OwnershipTransferred(oldOwner, newOwner) */\n  0xffffffffffffffffffffffffffffffffffffffff\n  and\n    /* \"https://github.com/OpenZeppelin/openzeppelin-contracts/blob/master/contracts/access/Ownable.sol\":2594:2602  oldOwner */\n  dup2\n    /* \"https://github.com/OpenZeppelin/openzeppelin-contracts/blob/master/contracts/access/Ownable.sol\":2573:2613  OwnershipTransferred(oldOwner, newOwner) */\n  0xffffffffffffffffffffffffffffffffffffffff\n  and\n  0x8be0079c531659141344cd1fd0a4f28419497f9722a3daafe3b4186f6b6457e0\n  mload(0x40)\n  mload(0x40)\n  dup1\n  swap2\n  sub\n  swap1\n  log3\n    /* \"https://github.com/OpenZeppelin/openzeppelin-contracts/blob/master/contracts/access/Ownable.sol\":2496:2620  {... */\n  pop\n    /* \"https://github.com/OpenZeppelin/openzeppelin-contracts/blob/master/contracts/access/Ownable.sol\":2433:2620  function _transferOwnership(address newOwner) internal virtual {... */\n  pop\n  jump\t// out\n    /* \"#utility.yul\":88:205   */\ntag_16:\n    /* \"#utility.yul\":197:198   */\n  0x00\n    /* \"#utility.yul\":194:195   */\n  dup1\n    /* \"#utility.yul\":187:199   */\n  revert\n    /* \"#utility.yul\":334:460   */\ntag_18:\n    /* \"#utility.yul\":371:378   */\n  0x00\n    /* \"#utility.yul\":411:453   */\n  0xffffffffffffffffffffffffffffffffffffffff\n    /* \"#utility.yul\":404:409   */\n  dup3\n    /* \"#utility.yul\":400:454   */\n  and\n    /* \"#utility.yul\":389:454   */\n  swap1\n  pop\n    /* \"#utility.yul\":334:460   */\n  swap2\n  swap1\n  pop\n  jump\t// out\n    /* \"#utility.yul\":466:562   */\ntag_19:\n    /* \"#utility.yul\":503:510   */\n  0x00\n    /* \"#utility.yul\":532:556   */\n  tag_28\n    /* \"#utility.yul\":550:555   */\n  dup3\n    /* \"#utility.yul\":532:556   */\n  tag_18\n  jump\t// in\ntag_28:\n    /* \"#utility.yul\":521:556   */\n  swap1\n  pop\n    /* \"#utility.yul\":466:562   */\n  swap2\n  swap1\n  pop\n  jump\t// out\n    /* \"#utility.yul\":568:690   */\ntag_20:\n    /* \"#utility.yul\":641:665   */\n  tag_30\n    /* \"#utility.yul\":659:664   */\n  dup2\n    /* \"#utility.yul\":641:665   */\n  tag_19\n  jump\t// in\ntag_30:\n    /* \"#utility.yul\":634:639   */\n  dup2\n    /* \"#utility.yul\":631:666   */\n  eq\n    /* \"#utility.yul\":621:684   */\n  tag_31\n  jumpi\n    /* \"#utility.yul\":680:681   */\n  0x00\n    /* \"#utility.yul\":677:678   */\n  dup1\n    /* \"#utility.yul\":670:682   */\n  revert\n    /* \"#utility.yul\":621:684   */\ntag_31:\n    /* \"#utility.yul\":568:690   */\n  pop\n  jump\t// out\n    /* \"#utility.yul\":696:839   */\ntag_21:\n    /* \"#utility.yul\":753:758   */\n  0x00\n    /* \"#utility.yul\":784:790   */\n  dup2\n    /* \"#utility.yul\":778:791   */\n  mload\n    /* \"#utility.yul\":769:791   */\n  swap1\n  pop\n    /* \"#utility.yul\":800:833   */\n  tag_33\n    /* \"#utility.yul\":827:832   */\n  dup2\n    /* \"#utility.yul\":800:833   */\n  tag_20\n  jump\t// in\ntag_33:\n    /* \"#utility.yul\":696:839   */\n  swap3\n  swap2\n  pop\n  pop\n  jump\t// out\n    /* \"#utility.yul\":845:1196   */\ntag_3:\n    /* \"#utility.yul\":915:921   */\n  0x00\n    /* \"#utility.yul\":964:966   */\n  0x20\n    /* \"#utility.yul\":952:961   */\n  dup3\n    /* \"#utility.yul\":943:950   */\n  dup5\n    /* \"#utility.yul\":939:962   */\n  sub\n    /* \"#utility.yul\":935:967   */\n  slt\n    /* \"#utility.yul\":932:1051   */\n  iszero\n  tag_35\n  jumpi\n    /* \"#utility.yul\":970:1049   */\n  tag_36\n  tag_16\n  jump\t// in\ntag_36:\n    /* \"#utility.yul\":932:1051   */\ntag_35:\n    /* \"#utility.yul\":1090:1091   */\n  0x00\n    /* \"#utility.yul\":1115:1179   */\n  tag_37\n    /* \"#utility.yul\":1171:1178   */\n  dup5\n    /* \"#utility.yul\":1162:1168   */\n  dup3\n    /* \"#utility.yul\":1151:1160   */\n  dup6\n    /* \"#utility.yul\":1147:1169   */\n  add\n    /* \"#utility.yul\":1115:1179   */\n  tag_21\n  jump\t// in\ntag_37:\n    /* \"#utility.yul\":1105:1179   */\n  swap2\n  pop\n    /* \"#utility.yul\":1061:1189   */\n  pop\n    /* \"#utility.yul\":845:1196   */\n  swap3\n  swap2\n  pop\n  pop\n  jump\t// out\n    /* \"contracts/Reporter.sol\":228:5043  contract Reporter is Ownable{... */\ntag_12:\n  mload(0x80)\n  codecopy(0x00, dataOffset(sub_0), dataSize(sub_0))\n  0x00\n  assignImmutable(\"0xa3bcf8af6929b66d6da7ee355c48fd1cf926fd090bc75a4dcbf7bd8e365645e3\")\n  return(0x00, dataSize(sub_0))\nstop\n\nsub_0: assembly {\n        /* \"contracts/Reporter.sol\":228:5043  contract Reporter is Ownable{... */\n      mstore(0x40, 0x80)\n      callvalue\n      dup1\n      iszero\n      tag_1\n      jumpi\n      0x00\n      dup1\n      revert\n    tag_1:\n      pop\n      jumpi(tag_2, lt(calldatasize, 0x04))\n      shr(0xe0, calldataload(0x00))\n      dup1\n      0xbd2e454a\n      gt\n      tag_13\n      jumpi\n      dup1\n      0xbd2e454a\n      eq\n      tag_8\n      jumpi\n      dup1\n      0xc4bd8191\n      eq\n      tag_9\n      jumpi\n      dup1\n      0xde0ea612\n      eq\n      tag_10\n      jumpi\n      dup1\n      0xf2fde38b\n      eq\n      tag_11\n      jumpi\n      dup1\n      0xf7b637bb\n      eq\n      tag_12\n      jumpi\n      jump(tag_2)\n    tag_13:\n      dup1\n      0x5bd9e299\n      eq\n      tag_3\n      jumpi\n      dup1\n      0x715018a6\n      eq\n      tag_4\n      jumpi\n      dup1\n      0x8da5cb5b\n      eq\n      tag_5\n      jumpi\n      dup1\n      0x95addb90\n      eq\n      tag_6\n      jumpi\n      dup1\n      0xb329504f\n      eq\n      tag_7\n      jumpi\n    tag_2:\n      0x00\n      dup1\n      revert\n        /* \"contracts/Reporter.sol\":263:316  IConditionalTokens public immutable conditionalTokens */\n    tag_3:\n      tag_14\n      tag_15\n      jump\t// in\n    tag_14:\n      mload(0x40)\n      tag_16\n      swap2\n      swap1\n      tag_17\n      jump\t// in\n    tag_16:\n      mload(0x40)\n      dup1\n      swap2\n      sub\n      swap1\n      return\n        /* \"https://github.com/OpenZeppelin/openzeppelin-contracts/blob/master/contracts/access/Ownable.sol\":1831:1932  function renounceOwnership() public virtual onlyOwner {... */\n    tag_4:\n      tag_18\n      tag_19\n      jump\t// in\n    tag_18:\n      stop\n        /* \"https://github.com/OpenZeppelin/openzeppelin-contracts/blob/master/contracts/access/Ownable.sol\":1201:1286  function owner() public view virtual returns (address) {... */\n    tag_5:\n      tag_20\n      tag_21\n      jump\t// in\n    tag_20:\n      mload(0x40)\n      tag_22\n      swap2\n      swap1\n      tag_23\n      jump\t// in\n    tag_22:\n      mload(0x40)\n      dup1\n      swap2\n      sub\n      swap1\n      return\n        /* \"contracts/Reporter.sol\":1578:1627  mapping(bytes32 => QuestionData) public questions */\n    tag_6:\n      tag_24\n      0x04\n      dup1\n      calldatasize\n      sub\n      dup2\n      add\n      swap1\n      tag_25\n      swap2\n      swap1\n      tag_26\n      jump\t// in\n    tag_25:\n      tag_27\n      jump\t// in\n    tag_24:\n      mload(0x40)\n      tag_28\n      swap13\n      swap12\n      swap11\n      swap10\n      swap9\n      swap8\n      swap7\n      swap6\n      swap5\n      swap4\n      swap3\n      swap2\n      swap1\n      tag_29\n      jump\t// in\n    tag_28:\n      mload(0x40)\n      dup1\n      swap2\n      sub\n      swap1\n      return\n        /* \"contracts/Reporter.sol\":3318:3565  function prepareQuestion(bytes32 questionID, uint outcomeSlotCount) public onlyOwner {... */\n    tag_7:\n      tag_30\n      0x04\n      dup1\n      calldatasize\n      sub\n      dup2\n      add\n      swap1\n      tag_31\n      swap2\n      swap1\n      tag_32\n      jump\t// in\n    tag_31:\n      tag_33\n      jump\t// in\n    tag_30:\n      stop\n        /* \"contracts/Reporter.sol\":4384:4894  function initializeAndPrepare(... */\n    tag_8:\n      tag_34\n      0x04\n      dup1\n      calldatasize\n      sub\n      dup2\n      add\n      swap1\n      tag_35\n      swap2\n      swap1\n      tag_36\n      jump\t// in\n    tag_35:\n      tag_37\n      jump\t// in\n    tag_34:\n      stop\n        /* \"contracts/Reporter.sol\":3573:4231  function settleQuestion(bytes32 questionID, uint price) external onlyOwner {... */\n    tag_9:\n      tag_38\n      0x04\n      dup1\n      calldatasize\n      sub\n      dup2\n      add\n      swap1\n      tag_39\n      swap2\n      swap1\n      tag_32\n      jump\t// in\n    tag_39:\n      tag_40\n      jump\t// in\n    tag_38:\n      stop\n        /* \"contracts/Reporter.sol\":2126:3310  function initializeQuestion(... */\n    tag_10:\n      tag_41\n      0x04\n      dup1\n      calldatasize\n      sub\n      dup2\n      add\n      swap1\n      tag_42\n      swap2\n      swap1\n      tag_43\n      jump\t// in\n    tag_42:\n      tag_44\n      jump\t// in\n    tag_41:\n      stop\n        /* \"https://github.com/OpenZeppelin/openzeppelin-contracts/blob/master/contracts/access/Ownable.sol\":2081:2279  function transferOwnership(address newOwner) public virtual onlyOwner {... */\n    tag_11:\n      tag_45\n      0x04\n      dup1\n      calldatasize\n      sub\n      dup2\n      add\n      swap1\n      tag_46\n      swap2\n      swap1\n      tag_47\n      jump\t// in\n    tag_46:\n      tag_48\n      jump\t// in\n    tag_45:\n      stop\n        /* \"contracts/Reporter.sol\":4241:4376  function isInitialized(bytes32 questionID) public view returns (bool){... */\n    tag_12:\n      tag_49\n      0x04\n      dup1\n      calldatasize\n      sub\n      dup2\n      add\n      swap1\n      tag_50\n      swap2\n      swap1\n      tag_26\n      jump\t// in\n    tag_50:\n      tag_51\n      jump\t// in\n    tag_49:\n      mload(0x40)\n      tag_52\n      swap2\n      swap1\n      tag_53\n      jump\t// in\n    tag_52:\n      mload(0x40)\n      dup1\n      swap2\n      sub\n      swap1\n      return\n        /* \"contracts/Reporter.sol\":263:316  IConditionalTokens public immutable conditionalTokens */\n    tag_15:\n      immutable(\"0xa3bcf8af6929b66d6da7ee355c48fd1cf926fd090bc75a4dcbf7bd8e365645e3\")\n      dup2\n      jump\t// out\n        /* \"https://github.com/OpenZeppelin/openzeppelin-contracts/blob/master/contracts/access/Ownable.sol\":1831:1932  function renounceOwnership() public virtual onlyOwner {... */\n    tag_19:\n        /* \"https://github.com/OpenZeppelin/openzeppelin-contracts/blob/master/contracts/access/Ownable.sol\":1094:1107  _checkOwner() */\n      tag_55\n        /* \"https://github.com/OpenZeppelin/openzeppelin-contracts/blob/master/contracts/access/Ownable.sol\":1094:1105  _checkOwner */\n      tag_56\n        /* \"https://github.com/OpenZeppelin/openzeppelin-contracts/blob/master/contracts/access/Ownable.sol\":1094:1107  _checkOwner() */\n      jump\t// in\n    tag_55:\n        /* \"https://github.com/OpenZeppelin/openzeppelin-contracts/blob/master/contracts/access/Ownable.sol\":1895:1925  _transferOwnership(address(0)) */\n      tag_58\n        /* \"https://github.com/OpenZeppelin/openzeppelin-contracts/blob/master/contracts/access/Ownable.sol\":1922:1923  0 */\n      0x00\n        /* \"https://github.com/OpenZeppelin/openzeppelin-contracts/blob/master/contracts/access/Ownable.sol\":1895:1913  _transferOwnership */\n      tag_59\n        /* \"https://github.com/OpenZeppelin/openzeppelin-contracts/blob/master/contracts/access/Ownable.sol\":1895:1925  _transferOwnership(address(0)) */\n      jump\t// in\n    tag_58:\n        /* \"https://github.com/OpenZeppelin/openzeppelin-contracts/blob/master/contracts/access/Ownable.sol\":1831:1932  function renounceOwnership() public virtual onlyOwner {... */\n      jump\t// out\n        /* \"https://github.com/OpenZeppelin/openzeppelin-contracts/blob/master/contracts/access/Ownable.sol\":1201:1286  function owner() public view virtual returns (address) {... */\n    tag_21:\n        /* \"https://github.com/OpenZeppelin/openzeppelin-contracts/blob/master/contracts/access/Ownable.sol\":1247:1254  address */\n      0x00\n        /* \"https://github.com/OpenZeppelin/openzeppelin-contracts/blob/master/contracts/access/Ownable.sol\":1273:1279  _owner */\n      dup1\n      0x00\n      swap1\n      sload\n      swap1\n      0x0100\n      exp\n      swap1\n      div\n      0xffffffffffffffffffffffffffffffffffffffff\n      and\n        /* \"https://github.com/OpenZeppelin/openzeppelin-contracts/blob/master/contracts/access/Ownable.sol\":1266:1279  return _owner */\n      swap1\n      pop\n        /* \"https://github.com/OpenZeppelin/openzeppelin-contracts/blob/master/contracts/access/Ownable.sol\":1201:1286  function owner() public view virtual returns (address) {... */\n      swap1\n      jump\t// out\n        /* \"contracts/Reporter.sol\":1578:1627  mapping(bytes32 => QuestionData) public questions */\n    tag_27:\n      mstore(0x20, 0x01)\n      dup1\n      0x00\n      mstore\n      keccak256(0x00, 0x40)\n      0x00\n      swap2\n      pop\n      swap1\n      pop\n      dup1\n      0x00\n      add\n      sload\n      swap1\n      dup1\n      0x01\n      add\n      sload\n      swap1\n      dup1\n      0x02\n      add\n      sload\n      swap1\n      dup1\n      0x03\n      add\n      sload\n      swap1\n      dup1\n      0x04\n      add\n      sload\n      swap1\n      dup1\n      0x05\n      add\n      sload\n      swap1\n      dup1\n      0x06\n      add\n      sload\n      swap1\n      dup1\n      0x07\n      add\n      0x00\n      swap1\n      sload\n      swap1\n      0x0100\n      exp\n      swap1\n      div\n      0xff\n      and\n      swap1\n      dup1\n      0x07\n      add\n      0x01\n      swap1\n      sload\n      swap1\n      0x0100\n      exp\n      swap1\n      div\n      0xff\n      and\n      swap1\n      dup1\n      0x07\n      add\n      0x02\n      swap1\n      sload\n      swap1\n      0x0100\n      exp\n      swap1\n      div\n      0xff\n      and\n      swap1\n      dup1\n      0x07\n      add\n      0x03\n      swap1\n      sload\n      swap1\n      0x0100\n      exp\n      swap1\n      div\n      0xffffffffffffffffffffffffffffffffffffffff\n      and\n      swap1\n      dup1\n      0x08\n      add\n      dup1\n      sload\n      tag_61\n      swap1\n      tag_62\n      jump\t// in\n    tag_61:\n      dup1\n      0x1f\n      add\n      0x20\n      dup1\n      swap2\n      div\n      mul\n      0x20\n      add\n      mload(0x40)\n      swap1\n      dup2\n      add\n      0x40\n      mstore\n      dup1\n      swap3\n      swap2\n      swap1\n      dup2\n      dup2\n      mstore\n      0x20\n      add\n      dup3\n      dup1\n      sload\n      tag_63\n      swap1\n      tag_62\n      jump\t// in\n    tag_63:\n      dup1\n      iszero\n      tag_64\n      jumpi\n      dup1\n      0x1f\n      lt\n      tag_65\n      jumpi\n      0x0100\n      dup1\n      dup4\n      sload\n      div\n      mul\n      dup4\n      mstore\n      swap2\n      0x20\n      add\n      swap2\n      jump(tag_64)\n    tag_65:\n      dup3\n      add\n      swap2\n      swap1\n      0x00\n      mstore\n      keccak256(0x00, 0x20)\n      swap1\n    tag_66:\n      dup2\n      sload\n      dup2\n      mstore\n      swap1\n      0x01\n      add\n      swap1\n      0x20\n      add\n      dup1\n      dup4\n      gt\n      tag_66\n      jumpi\n      dup3\n      swap1\n      sub\n      0x1f\n      and\n      dup3\n      add\n      swap2\n    tag_64:\n      pop\n      pop\n      pop\n      pop\n      pop\n      swap1\n      pop\n      dup13\n      jump\t// out\n        /* \"contracts/Reporter.sol\":3318:3565  function prepareQuestion(bytes32 questionID, uint outcomeSlotCount) public onlyOwner {... */\n    tag_33:\n        /* \"https://github.com/OpenZeppelin/openzeppelin-contracts/blob/master/contracts/access/Ownable.sol\":1094:1107  _checkOwner() */\n      tag_68\n        /* \"https://github.com/OpenZeppelin/openzeppelin-contracts/blob/master/contracts/access/Ownable.sol\":1094:1105  _checkOwner */\n      tag_56\n        /* \"https://github.com/OpenZeppelin/openzeppelin-contracts/blob/master/contracts/access/Ownable.sol\":1094:1107  _checkOwner() */\n      jump\t// in\n    tag_68:\n        /* \"contracts/Reporter.sol\":3414:3431  conditionalTokens */\n      immutable(\"0xa3bcf8af6929b66d6da7ee355c48fd1cf926fd090bc75a4dcbf7bd8e365645e3\")\n        /* \"contracts/Reporter.sol\":3414:3448  conditionalTokens.prepareCondition */\n      0xffffffffffffffffffffffffffffffffffffffff\n      and\n      0xd96ee754\n        /* \"contracts/Reporter.sol\":3457:3461  this */\n      address\n        /* \"contracts/Reporter.sol\":3464:3474  questionID */\n      dup5\n        /* \"contracts/Reporter.sol\":3476:3492  outcomeSlotCount */\n      dup5\n        /* \"contracts/Reporter.sol\":3414:3493  conditionalTokens.prepareCondition(address(this), questionID, outcomeSlotCount) */\n      mload(0x40)\n      dup5\n      0xffffffff\n      and\n      0xe0\n      shl\n      dup2\n      mstore\n      0x04\n      add\n      tag_70\n      swap4\n      swap3\n      swap2\n      swap1\n      tag_71\n      jump\t// in\n    tag_70:\n      0x00\n      mload(0x40)\n      dup1\n      dup4\n      sub\n      dup2\n      0x00\n      dup8\n      dup1\n      extcodesize\n      iszero\n      dup1\n      iszero\n      tag_72\n      jumpi\n      0x00\n      dup1\n      revert\n    tag_72:\n      pop\n      gas\n      call\n      iszero\n      dup1\n      iszero\n      tag_74\n      jumpi\n      returndatasize\n      0x00\n      dup1\n      returndatacopy\n      revert(0x00, returndatasize)\n    tag_74:\n      pop\n      pop\n      pop\n      pop\n        /* \"contracts/Reporter.sol\":3511:3557  questionPrepared(questionID, outcomeSlotCount) */\n      0x5bd1f2593524341b2e3186f40ff9de45976455b8580c80deae7e3a6e1387e774\n        /* \"contracts/Reporter.sol\":3528:3538  questionID */\n      dup3\n        /* \"contracts/Reporter.sol\":3540:3556  outcomeSlotCount */\n      dup3\n        /* \"contracts/Reporter.sol\":3511:3557  questionPrepared(questionID, outcomeSlotCount) */\n      mload(0x40)\n      tag_75\n      swap3\n      swap2\n      swap1\n      tag_76\n      jump\t// in\n    tag_75:\n      mload(0x40)\n      dup1\n      swap2\n      sub\n      swap1\n      log1\n        /* \"contracts/Reporter.sol\":3318:3565  function prepareQuestion(bytes32 questionID, uint outcomeSlotCount) public onlyOwner {... */\n      pop\n      pop\n      jump\t// out\n        /* \"contracts/Reporter.sol\":4384:4894  function initializeAndPrepare(... */\n    tag_37:\n        /* \"https://github.com/OpenZeppelin/openzeppelin-contracts/blob/master/contracts/access/Ownable.sol\":1094:1107  _checkOwner() */\n      tag_78\n        /* \"https://github.com/OpenZeppelin/openzeppelin-contracts/blob/master/contracts/access/Ownable.sol\":1094:1105  _checkOwner */\n      tag_56\n        /* \"https://github.com/OpenZeppelin/openzeppelin-contracts/blob/master/contracts/access/Ownable.sol\":1094:1107  _checkOwner() */\n      jump\t// in\n    tag_78:\n        /* \"contracts/Reporter.sol\":4706:4826  initializeQuestion(questionID, ancillaryData, resolutionTime, rewardToken, reward, proposalBond, earlyResolutionEnabled) */\n      tag_80\n        /* \"contracts/Reporter.sol\":4725:4735  questionID */\n      dup9\n        /* \"contracts/Reporter.sol\":4737:4750  ancillaryData */\n      dup9\n        /* \"contracts/Reporter.sol\":4752:4766  resolutionTime */\n      dup9\n        /* \"contracts/Reporter.sol\":4768:4779  rewardToken */\n      dup9\n        /* \"contracts/Reporter.sol\":4781:4787  reward */\n      dup9\n        /* \"contracts/Reporter.sol\":4789:4801  proposalBond */\n      dup9\n        /* \"contracts/Reporter.sol\":4803:4825  earlyResolutionEnabled */\n      dup9\n        /* \"contracts/Reporter.sol\":4706:4724  initializeQuestion */\n      tag_44\n        /* \"contracts/Reporter.sol\":4706:4826  initializeQuestion(questionID, ancillaryData, resolutionTime, rewardToken, reward, proposalBond, earlyResolutionEnabled) */\n      jump\t// in\n    tag_80:\n        /* \"contracts/Reporter.sol\":4841:4886  prepareQuestion(questionID, outcomeSlotCount) */\n      tag_81\n        /* \"contracts/Reporter.sol\":4857:4867  questionID */\n      dup9\n        /* \"contracts/Reporter.sol\":4869:4885  outcomeSlotCount */\n      dup3\n        /* \"contracts/Reporter.sol\":4841:4856  prepareQuestion */\n      tag_33\n        /* \"contracts/Reporter.sol\":4841:4886  prepareQuestion(questionID, outcomeSlotCount) */\n      jump\t// in\n    tag_81:\n        /* \"contracts/Reporter.sol\":4384:4894  function initializeAndPrepare(... */\n      pop\n      pop\n      pop\n      pop\n      pop\n      pop\n      pop\n      pop\n      jump\t// out\n        /* \"contracts/Reporter.sol\":3573:4231  function settleQuestion(bytes32 questionID, uint price) external onlyOwner {... */\n    tag_40:\n        /* \"https://github.com/OpenZeppelin/openzeppelin-contracts/blob/master/contracts/access/Ownable.sol\":1094:1107  _checkOwner() */\n      tag_83\n        /* \"https://github.com/OpenZeppelin/openzeppelin-contracts/blob/master/contracts/access/Ownable.sol\":1094:1105  _checkOwner */\n      tag_56\n        /* \"https://github.com/OpenZeppelin/openzeppelin-contracts/blob/master/contracts/access/Ownable.sol\":1094:1107  _checkOwner() */\n      jump\t// in\n    tag_83:\n        /* \"contracts/Reporter.sol\":3667:3692  isInitialized(questionID) */\n      tag_85\n        /* \"contracts/Reporter.sol\":3681:3691  questionID */\n      dup3\n        /* \"contracts/Reporter.sol\":3667:3680  isInitialized */\n      tag_51\n        /* \"contracts/Reporter.sol\":3667:3692  isInitialized(questionID) */\n      jump\t// in\n    tag_85:\n        /* \"contracts/Reporter.sol\":3659:3725  require(isInitialized(questionID), \"Question must be initialized\") */\n      tag_86\n      jumpi\n      mload(0x40)\n      0x08c379a000000000000000000000000000000000000000000000000000000000\n      dup2\n      mstore\n      0x04\n      add\n      tag_87\n      swap1\n      tag_88\n      jump\t// in\n    tag_87:\n      mload(0x40)\n      dup1\n      swap2\n      sub\n      swap1\n      revert\n    tag_86:\n        /* \"contracts/Reporter.sol\":3763:3772  questions */\n      0x01\n        /* \"contracts/Reporter.sol\":3763:3784  questions[questionID] */\n      0x00\n        /* \"contracts/Reporter.sol\":3773:3783  questionID */\n      dup4\n        /* \"contracts/Reporter.sol\":3763:3784  questions[questionID] */\n      dup2\n      mstore\n      0x20\n      add\n      swap1\n      dup2\n      mstore\n      0x20\n      add\n      0x00\n      keccak256\n        /* \"contracts/Reporter.sol\":3763:3799  questions[questionID].resolutionTime */\n      0x01\n      add\n      sload\n        /* \"contracts/Reporter.sol\":3744:3759  block.timestamp */\n      timestamp\n        /* \"contracts/Reporter.sol\":3744:3799  block.timestamp >= questions[questionID].resolutionTime */\n      lt\n      iszero\n        /* \"contracts/Reporter.sol\":3736:3800  require(block.timestamp >= questions[questionID].resolutionTime) */\n      tag_89\n      jumpi\n      0x00\n      dup1\n      revert\n    tag_89:\n        /* \"contracts/Reporter.sol\":3811:3844  QuestionData storage questionData */\n      0x00\n        /* \"contracts/Reporter.sol\":3847:3856  questions */\n      0x01\n        /* \"contracts/Reporter.sol\":3847:3868  questions[questionID] */\n      0x00\n        /* \"contracts/Reporter.sol\":3857:3867  questionID */\n      dup5\n        /* \"contracts/Reporter.sol\":3847:3868  questions[questionID] */\n      dup2\n      mstore\n      0x20\n      add\n      swap1\n      dup2\n      mstore\n      0x20\n      add\n      0x00\n      keccak256\n        /* \"contracts/Reporter.sol\":3811:3868  QuestionData storage questionData = questions[questionID] */\n      swap1\n      pop\n        /* \"contracts/Reporter.sol\":3896:3897  1 */\n      0x01\n        /* \"contracts/Reporter.sol\":3887:3892  price */\n      dup3\n        /* \"contracts/Reporter.sol\":3887:3897  price == 1 */\n      eq\n        /* \"contracts/Reporter.sol\":3887:3911  price == 1 || price == 0 */\n      dup1\n      tag_90\n      jumpi\n      pop\n        /* \"contracts/Reporter.sol\":3910:3911  0 */\n      0x00\n        /* \"contracts/Reporter.sol\":3901:3906  price */\n      dup3\n        /* \"contracts/Reporter.sol\":3901:3911  price == 0 */\n      eq\n        /* \"contracts/Reporter.sol\":3887:3911  price == 1 || price == 0 */\n    tag_90:\n        /* \"contracts/Reporter.sol\":3879:3912  require(price == 1 || price == 0) */\n      tag_91\n      jumpi\n      0x00\n      dup1\n      revert\n    tag_91:\n        /* \"contracts/Reporter.sol\":3946:3958  block.number */\n      number\n        /* \"contracts/Reporter.sol\":3923:3935  questionData */\n      dup2\n        /* \"contracts/Reporter.sol\":3923:3943  questionData.settled */\n      0x04\n      add\n        /* \"contracts/Reporter.sol\":3923:3958  questionData.settled = block.number */\n      dup2\n      swap1\n      sstore\n      pop\n        /* \"contracts/Reporter.sol\":3991:3996  price */\n      dup2\n        /* \"contracts/Reporter.sol\":3969:3981  questionData */\n      dup2\n        /* \"contracts/Reporter.sol\":3969:3988  questionData.result */\n      0x00\n      add\n        /* \"contracts/Reporter.sol\":3969:3996  questionData.result = price */\n      dup2\n      swap1\n      sstore\n      pop\n        /* \"contracts/Reporter.sol\":4007:4030  uint256[] memory payout */\n      0x00\n        /* \"contracts/Reporter.sol\":4047:4048  2 */\n      0x02\n        /* \"contracts/Reporter.sol\":4033:4049  new uint256[](2) */\n      0xffffffffffffffff\n      dup2\n      gt\n      iszero\n      tag_92\n      jumpi\n      tag_93\n      tag_94\n      jump\t// in\n    tag_93:\n    tag_92:\n      mload(0x40)\n      swap1\n      dup1\n      dup3\n      mstore\n      dup1\n      0x20\n      mul\n      0x20\n      add\n      dup3\n      add\n      0x40\n      mstore\n      dup1\n      iszero\n      tag_95\n      jumpi\n      dup2\n      0x20\n      add\n      0x20\n      dup3\n      mul\n      dup1\n      calldatasize\n      dup4\n      calldatacopy\n      dup1\n      dup3\n      add\n      swap2\n      pop\n      pop\n      swap1\n      pop\n    tag_95:\n      pop\n        /* \"contracts/Reporter.sol\":4007:4049  uint256[] memory payout = new uint256[](2) */\n      swap1\n      pop\n        /* \"contracts/Reporter.sol\":4076:4077  1 */\n      0x01\n        /* \"contracts/Reporter.sol\":4060:4066  payout */\n      dup2\n        /* \"contracts/Reporter.sol\":4067:4072  price */\n      dup5\n        /* \"contracts/Reporter.sol\":4060:4073  payout[price] */\n      dup2\n      mload\n      dup2\n      lt\n      tag_96\n      jumpi\n      tag_97\n      tag_98\n      jump\t// in\n    tag_97:\n    tag_96:\n      0x20\n      mul\n      0x20\n      add\n      add\n        /* \"contracts/Reporter.sol\":4060:4077  payout[price] = 1 */\n      dup2\n      dup2\n      mstore\n      pop\n      pop\n        /* \"contracts/Reporter.sol\":4108:4109  0 */\n      0x00\n        /* \"contracts/Reporter.sol\":4088:4094  payout */\n      dup2\n        /* \"contracts/Reporter.sol\":4099:4104  price */\n      dup5\n        /* \"contracts/Reporter.sol\":4095:4096  1 */\n      0x01\n        /* \"contracts/Reporter.sol\":4095:4104  1 - price */\n      tag_99\n      swap2\n      swap1\n      tag_100\n      jump\t// in\n    tag_99:\n        /* \"contracts/Reporter.sol\":4088:4105  payout[1 - price] */\n      dup2\n      mload\n      dup2\n      lt\n      tag_101\n      jumpi\n      tag_102\n      tag_98\n      jump\t// in\n    tag_102:\n    tag_101:\n      0x20\n      mul\n      0x20\n      add\n      add\n        /* \"contracts/Reporter.sol\":4088:4109  payout[1 - price] = 0 */\n      dup2\n      dup2\n      mstore\n      pop\n      pop\n        /* \"contracts/Reporter.sol\":4120:4137  conditionalTokens */\n      immutable(\"0xa3bcf8af6929b66d6da7ee355c48fd1cf926fd090bc75a4dcbf7bd8e365645e3\")\n        /* \"contracts/Reporter.sol\":4120:4151  conditionalTokens.reportPayouts */\n      0xffffffffffffffffffffffffffffffffffffffff\n      and\n      0xc49298ac\n        /* \"contracts/Reporter.sol\":4152:4162  questionID */\n      dup6\n        /* \"contracts/Reporter.sol\":4164:4170  payout */\n      dup4\n        /* \"contracts/Reporter.sol\":4120:4171  conditionalTokens.reportPayouts(questionID, payout) */\n      mload(0x40)\n      dup4\n      0xffffffff\n      and\n      0xe0\n      shl\n      dup2\n      mstore\n      0x04\n      add\n      tag_103\n      swap3\n      swap2\n      swap1\n      tag_104\n      jump\t// in\n    tag_103:\n      0x00\n      mload(0x40)\n      dup1\n      dup4\n      sub\n      dup2\n      0x00\n      dup8\n      dup1\n      extcodesize\n      iszero\n      dup1\n      iszero\n      tag_105\n      jumpi\n      0x00\n      dup1\n      revert\n    tag_105:\n      pop\n      gas\n      call\n      iszero\n      dup1\n      iszero\n      tag_107\n      jumpi\n      returndatasize\n      0x00\n      dup1\n      returndatacopy\n      revert(0x00, returndatasize)\n    tag_107:\n      pop\n      pop\n      pop\n      pop\n        /* \"contracts/Reporter.sol\":4189:4223  questionSettled(questionID, price) */\n      0xb3183c4422f634e5730744ddd8285ac3123ca1ab9582adf68a141630c232d721\n        /* \"contracts/Reporter.sol\":4205:4215  questionID */\n      dup5\n        /* \"contracts/Reporter.sol\":4217:4222  price */\n      dup5\n        /* \"contracts/Reporter.sol\":4189:4223  questionSettled(questionID, price) */\n      mload(0x40)\n      tag_108\n      swap3\n      swap2\n      swap1\n      tag_76\n      jump\t// in\n    tag_108:\n      mload(0x40)\n      dup1\n      swap2\n      sub\n      swap1\n      log1\n        /* \"contracts/Reporter.sol\":3648:4231  {... */\n      pop\n      pop\n        /* \"contracts/Reporter.sol\":3573:4231  function settleQuestion(bytes32 questionID, uint price) external onlyOwner {... */\n      pop\n      pop\n      jump\t// out\n        /* \"contracts/Reporter.sol\":2126:3310  function initializeQuestion(... */\n    tag_44:\n        /* \"https://github.com/OpenZeppelin/openzeppelin-contracts/blob/master/contracts/access/Ownable.sol\":1094:1107  _checkOwner() */\n      tag_110\n        /* \"https://github.com/OpenZeppelin/openzeppelin-contracts/blob/master/contracts/access/Ownable.sol\":1094:1105  _checkOwner */\n      tag_56\n        /* \"https://github.com/OpenZeppelin/openzeppelin-contracts/blob/master/contracts/access/Ownable.sol\":1094:1107  _checkOwner() */\n      jump\t// in\n    tag_110:\n        /* \"contracts/Reporter.sol\":2417:2442  isInitialized(questionID) */\n      tag_112\n        /* \"contracts/Reporter.sol\":2431:2441  questionID */\n      dup8\n        /* \"contracts/Reporter.sol\":2417:2430  isInitialized */\n      tag_51\n        /* \"contracts/Reporter.sol\":2417:2442  isInitialized(questionID) */\n      jump\t// in\n    tag_112:\n        /* \"contracts/Reporter.sol\":2416:2442  !isInitialized(questionID) */\n      iszero\n        /* \"contracts/Reporter.sol\":2408:2476  require(!isInitialized(questionID), \"Question has been initialized\") */\n      tag_113\n      jumpi\n      mload(0x40)\n      0x08c379a000000000000000000000000000000000000000000000000000000000\n      dup2\n      mstore\n      0x04\n      add\n      tag_114\n      swap1\n      tag_115\n      jump\t// in\n    tag_114:\n      mload(0x40)\n      dup1\n      swap2\n      sub\n      swap1\n      revert\n    tag_113:\n        /* \"contracts/Reporter.sol\":2512:2513  0 */\n      0x00\n        /* \"contracts/Reporter.sol\":2495:2509  resolutionTime */\n      dup6\n        /* \"contracts/Reporter.sol\":2495:2513  resolutionTime > 0 */\n      gt\n        /* \"contracts/Reporter.sol\":2487:2565  require(resolutionTime > 0, \"Invalid resolution time, must be greater than 0\") */\n      tag_116\n      jumpi\n      mload(0x40)\n      0x08c379a000000000000000000000000000000000000000000000000000000000\n      dup2\n      mstore\n      0x04\n      add\n      tag_117\n      swap1\n      tag_118\n      jump\t// in\n    tag_117:\n      mload(0x40)\n      dup1\n      swap2\n      sub\n      swap1\n      revert\n    tag_116:\n        /* \"contracts/Reporter.sol\":2602:3071  QuestionData({... */\n      mload(0x40)\n      dup1\n      0x0180\n      add\n      0x40\n      mstore\n      dup1\n        /* \"contracts/Reporter.sol\":2638:2642  1000 */\n      0x03e8\n        /* \"contracts/Reporter.sol\":2602:3071  QuestionData({... */\n      dup2\n      mstore\n      0x20\n      add\n        /* \"contracts/Reporter.sol\":2716:2730  resolutionTime */\n      dup7\n        /* \"contracts/Reporter.sol\":2602:3071  QuestionData({... */\n      dup2\n      mstore\n      0x20\n      add\n        /* \"contracts/Reporter.sol\":2792:2798  reward */\n      dup5\n        /* \"contracts/Reporter.sol\":2602:3071  QuestionData({... */\n      dup2\n      mstore\n      0x20\n      add\n        /* \"contracts/Reporter.sol\":2827:2839  proposalBond */\n      dup4\n        /* \"contracts/Reporter.sol\":2602:3071  QuestionData({... */\n      dup2\n      mstore\n      0x20\n      add\n        /* \"contracts/Reporter.sol\":2982:2983  0 */\n      0x00\n        /* \"contracts/Reporter.sol\":2602:3071  QuestionData({... */\n      dup2\n      mstore\n      0x20\n      add\n        /* \"contracts/Reporter.sol\":3016:3017  0 */\n      0x00\n        /* \"contracts/Reporter.sol\":2602:3071  QuestionData({... */\n      dup2\n      mstore\n      0x20\n      add\n        /* \"contracts/Reporter.sol\":3058:3059  0 */\n      0x00\n        /* \"contracts/Reporter.sol\":2602:3071  QuestionData({... */\n      dup2\n      mstore\n      0x20\n      add\n        /* \"contracts/Reporter.sol\":2878:2900  earlyResolutionEnabled */\n      dup3\n        /* \"contracts/Reporter.sol\":2602:3071  QuestionData({... */\n      iszero\n      iszero\n      dup2\n      mstore\n      0x20\n      add\n        /* \"contracts/Reporter.sol\":2925:2930  false */\n      0x00\n        /* \"contracts/Reporter.sol\":2602:3071  QuestionData({... */\n      iszero\n      iszero\n      dup2\n      mstore\n      0x20\n      add\n        /* \"contracts/Reporter.sol\":2953:2958  false */\n      0x00\n        /* \"contracts/Reporter.sol\":2602:3071  QuestionData({... */\n      iszero\n      iszero\n      dup2\n      mstore\n      0x20\n      add\n        /* \"contracts/Reporter.sol\":2758:2769  rewardToken */\n      dup6\n        /* \"contracts/Reporter.sol\":2602:3071  QuestionData({... */\n      0xffffffffffffffffffffffffffffffffffffffff\n      and\n      dup2\n      mstore\n      0x20\n      add\n        /* \"contracts/Reporter.sol\":2672:2685  ancillaryData */\n      dup8\n        /* \"contracts/Reporter.sol\":2602:3071  QuestionData({... */\n      dup2\n      mstore\n      pop\n        /* \"contracts/Reporter.sol\":2578:2587  questions */\n      0x01\n        /* \"contracts/Reporter.sol\":2578:2599  questions[questionID] */\n      0x00\n        /* \"contracts/Reporter.sol\":2588:2598  questionID */\n      dup10\n        /* \"contracts/Reporter.sol\":2578:2599  questions[questionID] */\n      dup2\n      mstore\n      0x20\n      add\n      swap1\n      dup2\n      mstore\n      0x20\n      add\n      0x00\n      keccak256\n        /* \"contracts/Reporter.sol\":2578:3071  questions[questionID] = QuestionData({... */\n      0x00\n      dup3\n      add\n      mload\n      dup2\n      0x00\n      add\n      sstore\n      0x20\n      dup3\n      add\n      mload\n      dup2\n      0x01\n      add\n      sstore\n      0x40\n      dup3\n      add\n      mload\n      dup2\n      0x02\n      add\n      sstore\n      0x60\n      dup3\n      add\n      mload\n      dup2\n      0x03\n      add\n      sstore\n      0x80\n      dup3\n      add\n      mload\n      dup2\n      0x04\n      add\n      sstore\n      0xa0\n      dup3\n      add\n      mload\n      dup2\n      0x05\n      add\n      sstore\n      0xc0\n      dup3\n      add\n      mload\n      dup2\n      0x06\n      add\n      sstore\n      0xe0\n      dup3\n      add\n      mload\n      dup2\n      0x07\n      add\n      exp(0x0100, 0x00)\n      dup2\n      sload\n      dup2\n      0xff\n      mul\n      not\n      and\n      swap1\n      dup4\n      iszero\n      iszero\n      mul\n      or\n      swap1\n      sstore\n      pop\n      0x0100\n      dup3\n      add\n      mload\n      dup2\n      0x07\n      add\n      exp(0x0100, 0x01)\n      dup2\n      sload\n      dup2\n      0xff\n      mul\n      not\n      and\n      swap1\n      dup4\n      iszero\n      iszero\n      mul\n      or\n      swap1\n      sstore\n      pop\n      0x0120\n      dup3\n      add\n      mload\n      dup2\n      0x07\n      add\n      exp(0x0100, 0x02)\n      dup2\n      sload\n      dup2\n      0xff\n      mul\n      not\n      and\n      swap1\n      dup4\n      iszero\n      iszero\n      mul\n      or\n      swap1\n      sstore\n      pop\n      0x0140\n      dup3\n      add\n      mload\n      dup2\n      0x07\n      add\n      exp(0x0100, 0x03)\n      dup2\n      sload\n      dup2\n      0xffffffffffffffffffffffffffffffffffffffff\n      mul\n      not\n      and\n      swap1\n      dup4\n      0xffffffffffffffffffffffffffffffffffffffff\n      and\n      mul\n      or\n      swap1\n      sstore\n      pop\n      0x0160\n      dup3\n      add\n      mload\n      dup2\n      0x08\n      add\n      swap1\n      dup2\n      tag_119\n      swap2\n      swap1\n      tag_120\n      jump\t// in\n    tag_119:\n      pop\n      swap1\n      pop\n      pop\n        /* \"contracts/Reporter.sol\":3089:3302  questionInitialized(... */\n      0xd5c72ec44c541ed614eaa50893d69a3391e85723fd2b7c078275329029caedc6\n        /* \"contracts/Reporter.sol\":3123:3133  questionID */\n      dup8\n        /* \"contracts/Reporter.sol\":3148:3161  ancillaryData */\n      dup8\n        /* \"contracts/Reporter.sol\":3176:3190  resolutionTime */\n      dup8\n        /* \"contracts/Reporter.sol\":3205:3216  rewardToken */\n      dup8\n        /* \"contracts/Reporter.sol\":3231:3237  reward */\n      dup8\n        /* \"contracts/Reporter.sol\":3252:3264  proposalBond */\n      dup8\n        /* \"contracts/Reporter.sol\":3279:3301  earlyResolutionEnabled */\n      dup8\n        /* \"contracts/Reporter.sol\":3089:3302  questionInitialized(... */\n      mload(0x40)\n      tag_121\n      swap8\n      swap7\n      swap6\n      swap5\n      swap4\n      swap3\n      swap2\n      swap1\n      tag_122\n      jump\t// in\n    tag_121:\n      mload(0x40)\n      dup1\n      swap2\n      sub\n      swap1\n      log1\n        /* \"contracts/Reporter.sol\":2126:3310  function initializeQuestion(... */\n      pop\n      pop\n      pop\n      pop\n      pop\n      pop\n      pop\n      jump\t// out\n        /* \"https://github.com/OpenZeppelin/openzeppelin-contracts/blob/master/contracts/access/Ownable.sol\":2081:2279  function transferOwnership(address newOwner) public virtual onlyOwner {... */\n    tag_48:\n        /* \"https://github.com/OpenZeppelin/openzeppelin-contracts/blob/master/contracts/access/Ownable.sol\":1094:1107  _checkOwner() */\n      tag_124\n        /* \"https://github.com/OpenZeppelin/openzeppelin-contracts/blob/master/contracts/access/Ownable.sol\":1094:1105  _checkOwner */\n      tag_56\n        /* \"https://github.com/OpenZeppelin/openzeppelin-contracts/blob/master/contracts/access/Ownable.sol\":1094:1107  _checkOwner() */\n      jump\t// in\n    tag_124:\n        /* \"https://github.com/OpenZeppelin/openzeppelin-contracts/blob/master/contracts/access/Ownable.sol\":2189:2190  0 */\n      0x00\n        /* \"https://github.com/OpenZeppelin/openzeppelin-contracts/blob/master/contracts/access/Ownable.sol\":2169:2191  newOwner != address(0) */\n      0xffffffffffffffffffffffffffffffffffffffff\n      and\n        /* \"https://github.com/OpenZeppelin/openzeppelin-contracts/blob/master/contracts/access/Ownable.sol\":2169:2177  newOwner */\n      dup2\n        /* \"https://github.com/OpenZeppelin/openzeppelin-contracts/blob/master/contracts/access/Ownable.sol\":2169:2191  newOwner != address(0) */\n      0xffffffffffffffffffffffffffffffffffffffff\n      and\n      sub\n        /* \"https://github.com/OpenZeppelin/openzeppelin-contracts/blob/master/contracts/access/Ownable.sol\":2161:2234  require(newOwner != address(0), \"Ownable: new owner is the zero address\") */\n      tag_126\n      jumpi\n      mload(0x40)\n      0x08c379a000000000000000000000000000000000000000000000000000000000\n      dup2\n      mstore\n      0x04\n      add\n      tag_127\n      swap1\n      tag_128\n      jump\t// in\n    tag_127:\n      mload(0x40)\n      dup1\n      swap2\n      sub\n      swap1\n      revert\n    tag_126:\n        /* \"https://github.com/OpenZeppelin/openzeppelin-contracts/blob/master/contracts/access/Ownable.sol\":2244:2272  _transferOwnership(newOwner) */\n      tag_129\n        /* \"https://github.com/OpenZeppelin/openzeppelin-contracts/blob/master/contracts/access/Ownable.sol\":2263:2271  newOwner */\n      dup2\n        /* \"https://github.com/OpenZeppelin/openzeppelin-contracts/blob/master/contracts/access/Ownable.sol\":2244:2262  _transferOwnership */\n      tag_59\n        /* \"https://github.com/OpenZeppelin/openzeppelin-contracts/blob/master/contracts/access/Ownable.sol\":2244:2272  _transferOwnership(newOwner) */\n      jump\t// in\n    tag_129:\n        /* \"https://github.com/OpenZeppelin/openzeppelin-contracts/blob/master/contracts/access/Ownable.sol\":2081:2279  function transferOwnership(address newOwner) public virtual onlyOwner {... */\n      pop\n      jump\t// out\n        /* \"contracts/Reporter.sol\":4241:4376  function isInitialized(bytes32 questionID) public view returns (bool){... */\n    tag_51:\n        /* \"contracts/Reporter.sol\":4305:4309  bool */\n      0x00\n        /* \"contracts/Reporter.sol\":4367:4368  0 */\n      dup1\n        /* \"contracts/Reporter.sol\":4328:4337  questions */\n      0x01\n        /* \"contracts/Reporter.sol\":4328:4349  questions[questionID] */\n      0x00\n        /* \"contracts/Reporter.sol\":4338:4348  questionID */\n      dup5\n        /* \"contracts/Reporter.sol\":4328:4349  questions[questionID] */\n      dup2\n      mstore\n      0x20\n      add\n      swap1\n      dup2\n      mstore\n      0x20\n      add\n      0x00\n      keccak256\n        /* \"contracts/Reporter.sol\":4328:4364  questions[questionID].resolutionTime */\n      0x01\n      add\n      sload\n        /* \"contracts/Reporter.sol\":4328:4368  questions[questionID].resolutionTime > 0 */\n      gt\n        /* \"contracts/Reporter.sol\":4321:4368  return questions[questionID].resolutionTime > 0 */\n      swap1\n      pop\n        /* \"contracts/Reporter.sol\":4241:4376  function isInitialized(bytes32 questionID) public view returns (bool){... */\n      swap2\n      swap1\n      pop\n      jump\t// out\n        /* \"https://github.com/OpenZeppelin/openzeppelin-contracts/blob/master/contracts/access/Ownable.sol\":1359:1489  function _checkOwner() internal view virtual {... */\n    tag_56:\n        /* \"https://github.com/OpenZeppelin/openzeppelin-contracts/blob/master/contracts/access/Ownable.sol\":1433:1445  _msgSender() */\n      tag_132\n        /* \"https://github.com/OpenZeppelin/openzeppelin-contracts/blob/master/contracts/access/Ownable.sol\":1433:1443  _msgSender */\n      tag_133\n        /* \"https://github.com/OpenZeppelin/openzeppelin-contracts/blob/master/contracts/access/Ownable.sol\":1433:1445  _msgSender() */\n      jump\t// in\n    tag_132:\n        /* \"https://github.com/OpenZeppelin/openzeppelin-contracts/blob/master/contracts/access/Ownable.sol\":1422:1445  owner() == _msgSender() */\n      0xffffffffffffffffffffffffffffffffffffffff\n      and\n        /* \"https://github.com/OpenZeppelin/openzeppelin-contracts/blob/master/contracts/access/Ownable.sol\":1422:1429  owner() */\n      tag_134\n        /* \"https://github.com/OpenZeppelin/openzeppelin-contracts/blob/master/contracts/access/Ownable.sol\":1422:1427  owner */\n      tag_21\n        /* \"https://github.com/OpenZeppelin/openzeppelin-contracts/blob/master/contracts/access/Ownable.sol\":1422:1429  owner() */\n      jump\t// in\n    tag_134:\n        /* \"https://github.com/OpenZeppelin/openzeppelin-contracts/blob/master/contracts/access/Ownable.sol\":1422:1445  owner() == _msgSender() */\n      0xffffffffffffffffffffffffffffffffffffffff\n      and\n      eq\n        /* \"https://github.com/OpenZeppelin/openzeppelin-contracts/blob/master/contracts/access/Ownable.sol\":1414:1482  require(owner() == _msgSender(), \"Ownable: caller is not the owner\") */\n      tag_135\n      jumpi\n      mload(0x40)\n      0x08c379a000000000000000000000000000000000000000000000000000000000\n      dup2\n      mstore\n      0x04\n      add\n      tag_136\n      swap1\n      tag_137\n      jump\t// in\n    tag_136:\n      mload(0x40)\n      dup1\n      swap2\n      sub\n      swap1\n      revert\n    tag_135:\n        /* \"https://github.com/OpenZeppelin/openzeppelin-contracts/blob/master/contracts/access/Ownable.sol\":1359:1489  function _checkOwner() internal view virtual {... */\n      jump\t// out\n        /* \"https://github.com/OpenZeppelin/openzeppelin-contracts/blob/master/contracts/access/Ownable.sol\":2433:2620  function _transferOwnership(address newOwner) internal virtual {... */\n    tag_59:\n        /* \"https://github.com/OpenZeppelin/openzeppelin-contracts/blob/master/contracts/access/Ownable.sol\":2506:2522  address oldOwner */\n      0x00\n        /* \"https://github.com/OpenZeppelin/openzeppelin-contracts/blob/master/contracts/access/Ownable.sol\":2525:2531  _owner */\n      dup1\n      0x00\n      swap1\n      sload\n      swap1\n      0x0100\n      exp\n      swap1\n      div\n      0xffffffffffffffffffffffffffffffffffffffff\n      and\n        /* \"https://github.com/OpenZeppelin/openzeppelin-contracts/blob/master/contracts/access/Ownable.sol\":2506:2531  address oldOwner = _owner */\n      swap1\n      pop\n        /* \"https://github.com/OpenZeppelin/openzeppelin-contracts/blob/master/contracts/access/Ownable.sol\":2550:2558  newOwner */\n      dup2\n        /* \"https://github.com/OpenZeppelin/openzeppelin-contracts/blob/master/contracts/access/Ownable.sol\":2541:2547  _owner */\n      0x00\n      dup1\n        /* \"https://github.com/OpenZeppelin/openzeppelin-contracts/blob/master/contracts/access/Ownable.sol\":2541:2558  _owner = newOwner */\n      0x0100\n      exp\n      dup2\n      sload\n      dup2\n      0xffffffffffffffffffffffffffffffffffffffff\n      mul\n      not\n      and\n      swap1\n      dup4\n      0xffffffffffffffffffffffffffffffffffffffff\n      and\n      mul\n      or\n      swap1\n      sstore\n      pop\n        /* \"https://github.com/OpenZeppelin/openzeppelin-contracts/blob/master/contracts/access/Ownable.sol\":2604:2612  newOwner */\n      dup2\n        /* \"https://github.com/OpenZeppelin/openzeppelin-contracts/blob/master/contracts/access/Ownable.sol\":2573:2613  OwnershipTransferred(oldOwner, newOwner) */\n      0xffffffffffffffffffffffffffffffffffffffff\n      and\n        /* \"https://github.com/OpenZeppelin/openzeppelin-contracts/blob/master/contracts/access/Ownable.sol\":2594:2602  oldOwner */\n      dup2\n        /* \"https://github.com/OpenZeppelin/openzeppelin-contracts/blob/master/contracts/access/Ownable.sol\":2573:2613  OwnershipTransferred(oldOwner, newOwner) */\n      0xffffffffffffffffffffffffffffffffffffffff\n      and\n      0x8be0079c531659141344cd1fd0a4f28419497f9722a3daafe3b4186f6b6457e0\n      mload(0x40)\n      mload(0x40)\n      dup1\n      swap2\n      sub\n      swap1\n      log3\n        /* \"https://github.com/OpenZeppelin/openzeppelin-contracts/blob/master/contracts/access/Ownable.sol\":2496:2620  {... */\n      pop\n        /* \"https://github.com/OpenZeppelin/openzeppelin-contracts/blob/master/contracts/access/Ownable.sol\":2433:2620  function _transferOwnership(address newOwner) internal virtual {... */\n      pop\n      jump\t// out\n        /* \"https://github.com/OpenZeppelin/openzeppelin-contracts/blob/master/contracts/utils/Context.sol\":640:736  function _msgSender() internal view virtual returns (address) {... */\n    tag_133:\n        /* \"https://github.com/OpenZeppelin/openzeppelin-contracts/blob/master/contracts/utils/Context.sol\":693:700  address */\n      0x00\n        /* \"https://github.com/OpenZeppelin/openzeppelin-contracts/blob/master/contracts/utils/Context.sol\":719:729  msg.sender */\n      caller\n        /* \"https://github.com/OpenZeppelin/openzeppelin-contracts/blob/master/contracts/utils/Context.sol\":712:729  return msg.sender */\n      swap1\n      pop\n        /* \"https://github.com/OpenZeppelin/openzeppelin-contracts/blob/master/contracts/utils/Context.sol\":640:736  function _msgSender() internal view virtual returns (address) {... */\n      swap1\n      jump\t// out\n        /* \"#utility.yul\":7:133   */\n    tag_140:\n        /* \"#utility.yul\":44:51   */\n      0x00\n        /* \"#utility.yul\":84:126   */\n      0xffffffffffffffffffffffffffffffffffffffff\n        /* \"#utility.yul\":77:82   */\n      dup3\n        /* \"#utility.yul\":73:127   */\n      and\n        /* \"#utility.yul\":62:127   */\n      swap1\n      pop\n        /* \"#utility.yul\":7:133   */\n      swap2\n      swap1\n      pop\n      jump\t// out\n        /* \"#utility.yul\":139:199   */\n    tag_141:\n        /* \"#utility.yul\":167:170   */\n      0x00\n        /* \"#utility.yul\":188:193   */\n      dup2\n        /* \"#utility.yul\":181:193   */\n      swap1\n      pop\n        /* \"#utility.yul\":139:199   */\n      swap2\n      swap1\n      pop\n      jump\t// out\n        /* \"#utility.yul\":205:347   */\n    tag_142:\n        /* \"#utility.yul\":255:264   */\n      0x00\n        /* \"#utility.yul\":288:341   */\n      tag_216\n        /* \"#utility.yul\":306:340   */\n      tag_217\n        /* \"#utility.yul\":315:339   */\n      tag_218\n        /* \"#utility.yul\":333:338   */\n      dup5\n        /* \"#utility.yul\":315:339   */\n      tag_140\n      jump\t// in\n    tag_218:\n        /* \"#utility.yul\":306:340   */\n      tag_141\n      jump\t// in\n    tag_217:\n        /* \"#utility.yul\":288:341   */\n      tag_140\n      jump\t// in\n    tag_216:\n        /* \"#utility.yul\":275:341   */\n      swap1\n      pop\n        /* \"#utility.yul\":205:347   */\n      swap2\n      swap1\n      pop\n      jump\t// out\n        /* \"#utility.yul\":353:479   */\n    tag_143:\n        /* \"#utility.yul\":403:412   */\n      0x00\n        /* \"#utility.yul\":436:473   */\n      tag_220\n        /* \"#utility.yul\":467:472   */\n      dup3\n        /* \"#utility.yul\":436:473   */\n      tag_142\n      jump\t// in\n    tag_220:\n        /* \"#utility.yul\":423:473   */\n      swap1\n      pop\n        /* \"#utility.yul\":353:479   */\n      swap2\n      swap1\n      pop\n      jump\t// out\n        /* \"#utility.yul\":485:637   */\n    tag_144:\n        /* \"#utility.yul\":561:570   */\n      0x00\n        /* \"#utility.yul\":594:631   */\n      tag_222\n        /* \"#utility.yul\":625:630   */\n      dup3\n        /* \"#utility.yul\":594:631   */\n      tag_143\n      jump\t// in\n    tag_222:\n        /* \"#utility.yul\":581:631   */\n      swap1\n      pop\n        /* \"#utility.yul\":485:637   */\n      swap2\n      swap1\n      pop\n      jump\t// out\n        /* \"#utility.yul\":643:826   */\n    tag_145:\n        /* \"#utility.yul\":756:819   */\n      tag_224\n        /* \"#utility.yul\":813:818   */\n      dup2\n        /* \"#utility.yul\":756:819   */\n      tag_144\n      jump\t// in\n    tag_224:\n        /* \"#utility.yul\":751:754   */\n      dup3\n        /* \"#utility.yul\":744:820   */\n      mstore\n        /* \"#utility.yul\":643:826   */\n      pop\n      pop\n      jump\t// out\n        /* \"#utility.yul\":832:1106   */\n    tag_17:\n        /* \"#utility.yul\":951:955   */\n      0x00\n        /* \"#utility.yul\":989:991   */\n      0x20\n        /* \"#utility.yul\":978:987   */\n      dup3\n        /* \"#utility.yul\":974:992   */\n      add\n        /* \"#utility.yul\":966:992   */\n      swap1\n      pop\n        /* \"#utility.yul\":1002:1099   */\n      tag_226\n        /* \"#utility.yul\":1096:1097   */\n      0x00\n        /* \"#utility.yul\":1085:1094   */\n      dup4\n        /* \"#utility.yul\":1081:1098   */\n      add\n        /* \"#utility.yul\":1072:1078   */\n      dup5\n        /* \"#utility.yul\":1002:1099   */\n      tag_145\n      jump\t// in\n    tag_226:\n        /* \"#utility.yul\":832:1106   */\n      swap3\n      swap2\n      pop\n      pop\n      jump\t// out\n        /* \"#utility.yul\":1112:1208   */\n    tag_146:\n        /* \"#utility.yul\":1149:1156   */\n      0x00\n        /* \"#utility.yul\":1178:1202   */\n      tag_228\n        /* \"#utility.yul\":1196:1201   */\n      dup3\n        /* \"#utility.yul\":1178:1202   */\n      tag_140\n      jump\t// in\n    tag_228:\n        /* \"#utility.yul\":1167:1202   */\n      swap1\n      pop\n        /* \"#utility.yul\":1112:1208   */\n      swap2\n      swap1\n      pop\n      jump\t// out\n        /* \"#utility.yul\":1214:1332   */\n    tag_147:\n        /* \"#utility.yul\":1301:1325   */\n      tag_230\n        /* \"#utility.yul\":1319:1324   */\n      dup2\n        /* \"#utility.yul\":1301:1325   */\n      tag_146\n      jump\t// in\n    tag_230:\n        /* \"#utility.yul\":1296:1299   */\n      dup3\n        /* \"#utility.yul\":1289:1326   */\n      mstore\n        /* \"#utility.yul\":1214:1332   */\n      pop\n      pop\n      jump\t// out\n        /* \"#utility.yul\":1338:1560   */\n    tag_23:\n        /* \"#utility.yul\":1431:1435   */\n      0x00\n        /* \"#utility.yul\":1469:1471   */\n      0x20\n        /* \"#utility.yul\":1458:1467   */\n      dup3\n        /* \"#utility.yul\":1454:1472   */\n      add\n        /* \"#utility.yul\":1446:1472   */\n      swap1\n      pop\n        /* \"#utility.yul\":1482:1553   */\n      tag_232\n        /* \"#utility.yul\":1550:1551   */\n      0x00\n        /* \"#utility.yul\":1539:1548   */\n      dup4\n        /* \"#utility.yul\":1535:1552   */\n      add\n        /* \"#utility.yul\":1526:1532   */\n      dup5\n        /* \"#utility.yul\":1482:1553   */\n      tag_147\n      jump\t// in\n    tag_232:\n        /* \"#utility.yul\":1338:1560   */\n      swap3\n      swap2\n      pop\n      pop\n      jump\t// out\n        /* \"#utility.yul\":1566:1641   */\n    tag_148:\n        /* \"#utility.yul\":1599:1605   */\n      0x00\n        /* \"#utility.yul\":1632:1634   */\n      0x40\n        /* \"#utility.yul\":1626:1635   */\n      mload\n        /* \"#utility.yul\":1616:1635   */\n      swap1\n      pop\n        /* \"#utility.yul\":1566:1641   */\n      swap1\n      jump\t// out\n        /* \"#utility.yul\":1647:1764   */\n    tag_149:\n        /* \"#utility.yul\":1756:1757   */\n      0x00\n        /* \"#utility.yul\":1753:1754   */\n      dup1\n        /* \"#utility.yul\":1746:1758   */\n      revert\n        /* \"#utility.yul\":1770:1887   */\n    tag_150:\n        /* \"#utility.yul\":1879:1880   */\n      0x00\n        /* \"#utility.yul\":1876:1877   */\n      dup1\n        /* \"#utility.yul\":1869:1881   */\n      revert\n        /* \"#utility.yul\":1893:1970   */\n    tag_151:\n        /* \"#utility.yul\":1930:1937   */\n      0x00\n        /* \"#utility.yul\":1959:1964   */\n      dup2\n        /* \"#utility.yul\":1948:1964   */\n      swap1\n      pop\n        /* \"#utility.yul\":1893:1970   */\n      swap2\n      swap1\n      pop\n      jump\t// out\n        /* \"#utility.yul\":1976:2098   */\n    tag_152:\n        /* \"#utility.yul\":2049:2073   */\n      tag_238\n        /* \"#utility.yul\":2067:2072   */\n      dup2\n        /* \"#utility.yul\":2049:2073   */\n      tag_151\n      jump\t// in\n    tag_238:\n        /* \"#utility.yul\":2042:2047   */\n      dup2\n        /* \"#utility.yul\":2039:2074   */\n      eq\n        /* \"#utility.yul\":2029:2092   */\n      tag_239\n      jumpi\n        /* \"#utility.yul\":2088:2089   */\n      0x00\n        /* \"#utility.yul\":2085:2086   */\n      dup1\n        /* \"#utility.yul\":2078:2090   */\n      revert\n        /* \"#utility.yul\":2029:2092   */\n    tag_239:\n        /* \"#utility.yul\":1976:2098   */\n      pop\n      jump\t// out\n        /* \"#utility.yul\":2104:2243   */\n    tag_153:\n        /* \"#utility.yul\":2150:2155   */\n      0x00\n        /* \"#utility.yul\":2188:2194   */\n      dup2\n        /* \"#utility.yul\":2175:2195   */\n      calldataload\n        /* \"#utility.yul\":2166:2195   */\n      swap1\n      pop\n        /* \"#utility.yul\":2204:2237   */\n      tag_241\n        /* \"#utility.yul\":2231:2236   */\n      dup2\n        /* \"#utility.yul\":2204:2237   */\n      tag_152\n      jump\t// in\n    tag_241:\n        /* \"#utility.yul\":2104:2243   */\n      swap3\n      swap2\n      pop\n      pop\n      jump\t// out\n        /* \"#utility.yul\":2249:2578   */\n    tag_26:\n        /* \"#utility.yul\":2308:2314   */\n      0x00\n        /* \"#utility.yul\":2357:2359   */\n      0x20\n        /* \"#utility.yul\":2345:2354   */\n      dup3\n        /* \"#utility.yul\":2336:2343   */\n      dup5\n        /* \"#utility.yul\":2332:2355   */\n      sub\n        /* \"#utility.yul\":2328:2360   */\n      slt\n        /* \"#utility.yul\":2325:2444   */\n      iszero\n      tag_243\n      jumpi\n        /* \"#utility.yul\":2363:2442   */\n      tag_244\n      tag_149\n      jump\t// in\n    tag_244:\n        /* \"#utility.yul\":2325:2444   */\n    tag_243:\n        /* \"#utility.yul\":2483:2484   */\n      0x00\n        /* \"#utility.yul\":2508:2561   */\n      tag_245\n        /* \"#utility.yul\":2553:2560   */\n      dup5\n        /* \"#utility.yul\":2544:2550   */\n      dup3\n        /* \"#utility.yul\":2533:2542   */\n      dup6\n        /* \"#utility.yul\":2529:2551   */\n      add\n        /* \"#utility.yul\":2508:2561   */\n      tag_153\n      jump\t// in\n    tag_245:\n        /* \"#utility.yul\":2498:2561   */\n      swap2\n      pop\n        /* \"#utility.yul\":2454:2571   */\n      pop\n        /* \"#utility.yul\":2249:2578   */\n      swap3\n      swap2\n      pop\n      pop\n      jump\t// out\n        /* \"#utility.yul\":2584:2661   */\n    tag_154:\n        /* \"#utility.yul\":2621:2628   */\n      0x00\n        /* \"#utility.yul\":2650:2655   */\n      dup2\n        /* \"#utility.yul\":2639:2655   */\n      swap1\n      pop\n        /* \"#utility.yul\":2584:2661   */\n      swap2\n      swap1\n      pop\n      jump\t// out\n        /* \"#utility.yul\":2667:2785   */\n    tag_155:\n        /* \"#utility.yul\":2754:2778   */\n      tag_248\n        /* \"#utility.yul\":2772:2777   */\n      dup2\n        /* \"#utility.yul\":2754:2778   */\n      tag_154\n      jump\t// in\n    tag_248:\n        /* \"#utility.yul\":2749:2752   */\n      dup3\n        /* \"#utility.yul\":2742:2779   */\n      mstore\n        /* \"#utility.yul\":2667:2785   */\n      pop\n      pop\n      jump\t// out\n        /* \"#utility.yul\":2791:2881   */\n    tag_156:\n        /* \"#utility.yul\":2825:2832   */\n      0x00\n        /* \"#utility.yul\":2868:2873   */\n      dup2\n        /* \"#utility.yul\":2861:2874   */\n      iszero\n        /* \"#utility.yul\":2854:2875   */\n      iszero\n        /* \"#utility.yul\":2843:2875   */\n      swap1\n      pop\n        /* \"#utility.yul\":2791:2881   */\n      swap2\n      swap1\n      pop\n      jump\t// out\n        /* \"#utility.yul\":2887:2996   */\n    tag_157:\n        /* \"#utility.yul\":2968:2989   */\n      tag_251\n        /* \"#utility.yul\":2983:2988   */\n      dup2\n        /* \"#utility.yul\":2968:2989   */\n      tag_156\n      jump\t// in\n    tag_251:\n        /* \"#utility.yul\":2963:2966   */\n      dup3\n        /* \"#utility.yul\":2956:2990   */\n      mstore\n        /* \"#utility.yul\":2887:2996   */\n      pop\n      pop\n      jump\t// out\n        /* \"#utility.yul\":3002:3100   */\n    tag_158:\n        /* \"#utility.yul\":3053:3059   */\n      0x00\n        /* \"#utility.yul\":3087:3092   */\n      dup2\n        /* \"#utility.yul\":3081:3093   */\n      mload\n        /* \"#utility.yul\":3071:3093   */\n      swap1\n      pop\n        /* \"#utility.yul\":3002:3100   */\n      swap2\n      swap1\n      pop\n      jump\t// out\n        /* \"#utility.yul\":3106:3274   */\n    tag_159:\n        /* \"#utility.yul\":3189:3200   */\n      0x00\n        /* \"#utility.yul\":3223:3229   */\n      dup3\n        /* \"#utility.yul\":3218:3221   */\n      dup3\n        /* \"#utility.yul\":3211:3230   */\n      mstore\n        /* \"#utility.yul\":3263:3267   */\n      0x20\n        /* \"#utility.yul\":3258:3261   */\n      dup3\n        /* \"#utility.yul\":3254:3268   */\n      add\n        /* \"#utility.yul\":3239:3268   */\n      swap1\n      pop\n        /* \"#utility.yul\":3106:3274   */\n      swap3\n      swap2\n      pop\n      pop\n      jump\t// out\n        /* \"#utility.yul\":3280:3587   */\n    tag_160:\n        /* \"#utility.yul\":3348:3349   */\n      0x00\n        /* \"#utility.yul\":3358:3471   */\n    tag_255:\n        /* \"#utility.yul\":3372:3378   */\n      dup4\n        /* \"#utility.yul\":3369:3370   */\n      dup2\n        /* \"#utility.yul\":3366:3379   */\n      lt\n        /* \"#utility.yul\":3358:3471   */\n      iszero\n      tag_257\n      jumpi\n        /* \"#utility.yul\":3457:3458   */\n      dup1\n        /* \"#utility.yul\":3452:3455   */\n      dup3\n        /* \"#utility.yul\":3448:3459   */\n      add\n        /* \"#utility.yul\":3442:3460   */\n      mload\n        /* \"#utility.yul\":3438:3439   */\n      dup2\n        /* \"#utility.yul\":3433:3436   */\n      dup5\n        /* \"#utility.yul\":3429:3440   */\n      add\n        /* \"#utility.yul\":3422:3461   */\n      mstore\n        /* \"#utility.yul\":3394:3396   */\n      0x20\n        /* \"#utility.yul\":3391:3392   */\n      dup2\n        /* \"#utility.yul\":3387:3397   */\n      add\n        /* \"#utility.yul\":3382:3397   */\n      swap1\n      pop\n        /* \"#utility.yul\":3358:3471   */\n      jump(tag_255)\n    tag_257:\n        /* \"#utility.yul\":3489:3495   */\n      dup4\n        /* \"#utility.yul\":3486:3487   */\n      dup2\n        /* \"#utility.yul\":3483:3496   */\n      gt\n        /* \"#utility.yul\":3480:3581   */\n      iszero\n      tag_258\n      jumpi\n        /* \"#utility.yul\":3569:3570   */\n      0x00\n        /* \"#utility.yul\":3560:3566   */\n      dup5\n        /* \"#utility.yul\":3555:3558   */\n      dup5\n        /* \"#utility.yul\":3551:3567   */\n      add\n        /* \"#utility.yul\":3544:3571   */\n      mstore\n        /* \"#utility.yul\":3480:3581   */\n    tag_258:\n        /* \"#utility.yul\":3329:3587   */\n      pop\n        /* \"#utility.yul\":3280:3587   */\n      pop\n      pop\n      pop\n      jump\t// out\n        /* \"#utility.yul\":3593:3695   */\n    tag_161:\n        /* \"#utility.yul\":3634:3640   */\n      0x00\n        /* \"#utility.yul\":3685:3687   */\n      0x1f\n        /* \"#utility.yul\":3681:3688   */\n      not\n        /* \"#utility.yul\":3676:3678   */\n      0x1f\n        /* \"#utility.yul\":3669:3674   */\n      dup4\n        /* \"#utility.yul\":3665:3679   */\n      add\n        /* \"#utility.yul\":3661:3689   */\n      and\n        /* \"#utility.yul\":3651:3689   */\n      swap1\n      pop\n        /* \"#utility.yul\":3593:3695   */\n      swap2\n      swap1\n      pop\n      jump\t// out\n        /* \"#utility.yul\":3701:4061   */\n    tag_162:\n        /* \"#utility.yul\":3787:3790   */\n      0x00\n        /* \"#utility.yul\":3815:3853   */\n      tag_261\n        /* \"#utility.yul\":3847:3852   */\n      dup3\n        /* \"#utility.yul\":3815:3853   */\n      tag_158\n      jump\t// in\n    tag_261:\n        /* \"#utility.yul\":3869:3939   */\n      tag_262\n        /* \"#utility.yul\":3932:3938   */\n      dup2\n        /* \"#utility.yul\":3927:3930   */\n      dup6\n        /* \"#utility.yul\":3869:3939   */\n      tag_159\n      jump\t// in\n    tag_262:\n        /* \"#utility.yul\":3862:3939   */\n      swap4\n      pop\n        /* \"#utility.yul\":3948:4000   */\n      tag_263\n        /* \"#utility.yul\":3993:3999   */\n      dup2\n        /* \"#utility.yul\":3988:3991   */\n      dup6\n        /* \"#utility.yul\":3981:3985   */\n      0x20\n        /* \"#utility.yul\":3974:3979   */\n      dup7\n        /* \"#utility.yul\":3970:3986   */\n      add\n        /* \"#utility.yul\":3948:4000   */\n      tag_160\n      jump\t// in\n    tag_263:\n        /* \"#utility.yul\":4025:4054   */\n      tag_264\n        /* \"#utility.yul\":4047:4053   */\n      dup2\n        /* \"#utility.yul\":4025:4054   */\n      tag_161\n      jump\t// in\n    tag_264:\n        /* \"#utility.yul\":4020:4023   */\n      dup5\n        /* \"#utility.yul\":4016:4055   */\n      add\n        /* \"#utility.yul\":4009:4055   */\n      swap2\n      pop\n        /* \"#utility.yul\":3791:4061   */\n      pop\n        /* \"#utility.yul\":3701:4061   */\n      swap3\n      swap2\n      pop\n      pop\n      jump\t// out\n        /* \"#utility.yul\":4067:5563   */\n    tag_29:\n        /* \"#utility.yul\":4470:4474   */\n      0x00\n        /* \"#utility.yul\":4508:4511   */\n      0x0180\n        /* \"#utility.yul\":4497:4506   */\n      dup3\n        /* \"#utility.yul\":4493:4512   */\n      add\n        /* \"#utility.yul\":4485:4512   */\n      swap1\n      pop\n        /* \"#utility.yul\":4522:4593   */\n      tag_266\n        /* \"#utility.yul\":4590:4591   */\n      0x00\n        /* \"#utility.yul\":4579:4588   */\n      dup4\n        /* \"#utility.yul\":4575:4592   */\n      add\n        /* \"#utility.yul\":4566:4572   */\n      dup16\n        /* \"#utility.yul\":4522:4593   */\n      tag_155\n      jump\t// in\n    tag_266:\n        /* \"#utility.yul\":4603:4675   */\n      tag_267\n        /* \"#utility.yul\":4671:4673   */\n      0x20\n        /* \"#utility.yul\":4660:4669   */\n      dup4\n        /* \"#utility.yul\":4656:4674   */\n      add\n        /* \"#utility.yul\":4647:4653   */\n      dup15\n        /* \"#utility.yul\":4603:4675   */\n      tag_155\n      jump\t// in\n    tag_267:\n        /* \"#utility.yul\":4685:4757   */\n      tag_268\n        /* \"#utility.yul\":4753:4755   */\n      0x40\n        /* \"#utility.yul\":4742:4751   */\n      dup4\n        /* \"#utility.yul\":4738:4756   */\n      add\n        /* \"#utility.yul\":4729:4735   */\n      dup14\n        /* \"#utility.yul\":4685:4757   */\n      tag_155\n      jump\t// in\n    tag_268:\n        /* \"#utility.yul\":4767:4839   */\n      tag_269\n        /* \"#utility.yul\":4835:4837   */\n      0x60\n        /* \"#utility.yul\":4824:4833   */\n      dup4\n        /* \"#utility.yul\":4820:4838   */\n      add\n        /* \"#utility.yul\":4811:4817   */\n      dup13\n        /* \"#utility.yul\":4767:4839   */\n      tag_155\n      jump\t// in\n    tag_269:\n        /* \"#utility.yul\":4849:4922   */\n      tag_270\n        /* \"#utility.yul\":4917:4920   */\n      0x80\n        /* \"#utility.yul\":4906:4915   */\n      dup4\n        /* \"#utility.yul\":4902:4921   */\n      add\n        /* \"#utility.yul\":4893:4899   */\n      dup12\n        /* \"#utility.yul\":4849:4922   */\n      tag_155\n      jump\t// in\n    tag_270:\n        /* \"#utility.yul\":4932:5005   */\n      tag_271\n        /* \"#utility.yul\":5000:5003   */\n      0xa0\n        /* \"#utility.yul\":4989:4998   */\n      dup4\n        /* \"#utility.yul\":4985:5004   */\n      add\n        /* \"#utility.yul\":4976:4982   */\n      dup11\n        /* \"#utility.yul\":4932:5005   */\n      tag_155\n      jump\t// in\n    tag_271:\n        /* \"#utility.yul\":5015:5088   */\n      tag_272\n        /* \"#utility.yul\":5083:5086   */\n      0xc0\n        /* \"#utility.yul\":5072:5081   */\n      dup4\n        /* \"#utility.yul\":5068:5087   */\n      add\n        /* \"#utility.yul\":5059:5065   */\n      dup10\n        /* \"#utility.yul\":5015:5088   */\n      tag_155\n      jump\t// in\n    tag_272:\n        /* \"#utility.yul\":5098:5165   */\n      tag_273\n        /* \"#utility.yul\":5160:5163   */\n      0xe0\n        /* \"#utility.yul\":5149:5158   */\n      dup4\n        /* \"#utility.yul\":5145:5164   */\n      add\n        /* \"#utility.yul\":5136:5142   */\n      dup9\n        /* \"#utility.yul\":5098:5165   */\n      tag_157\n      jump\t// in\n    tag_273:\n        /* \"#utility.yul\":5175:5242   */\n      tag_274\n        /* \"#utility.yul\":5237:5240   */\n      0x0100\n        /* \"#utility.yul\":5226:5235   */\n      dup4\n        /* \"#utility.yul\":5222:5241   */\n      add\n        /* \"#utility.yul\":5213:5219   */\n      dup8\n        /* \"#utility.yul\":5175:5242   */\n      tag_157\n      jump\t// in\n    tag_274:\n        /* \"#utility.yul\":5252:5319   */\n      tag_275\n        /* \"#utility.yul\":5314:5317   */\n      0x0120\n        /* \"#utility.yul\":5303:5312   */\n      dup4\n        /* \"#utility.yul\":5299:5318   */\n      add\n        /* \"#utility.yul\":5290:5296   */\n      dup7\n        /* \"#utility.yul\":5252:5319   */\n      tag_157\n      jump\t// in\n    tag_275:\n        /* \"#utility.yul\":5329:5403   */\n      tag_276\n        /* \"#utility.yul\":5398:5401   */\n      0x0140\n        /* \"#utility.yul\":5387:5396   */\n      dup4\n        /* \"#utility.yul\":5383:5402   */\n      add\n        /* \"#utility.yul\":5373:5380   */\n      dup6\n        /* \"#utility.yul\":5329:5403   */\n      tag_147\n      jump\t// in\n    tag_276:\n        /* \"#utility.yul\":5451:5460   */\n      dup2\n        /* \"#utility.yul\":5445:5449   */\n      dup2\n        /* \"#utility.yul\":5441:5461   */\n      sub\n        /* \"#utility.yul\":5435:5438   */\n      0x0160\n        /* \"#utility.yul\":5424:5433   */\n      dup4\n        /* \"#utility.yul\":5420:5439   */\n      add\n        /* \"#utility.yul\":5413:5462   */\n      mstore\n        /* \"#utility.yul\":5479:5556   */\n      tag_277\n        /* \"#utility.yul\":5551:5555   */\n      dup2\n        /* \"#utility.yul\":5541:5548   */\n      dup5\n        /* \"#utility.yul\":5479:5556   */\n      tag_162\n      jump\t// in\n    tag_277:\n        /* \"#utility.yul\":5471:5556   */\n      swap1\n      pop\n        /* \"#utility.yul\":4067:5563   */\n      swap14\n      swap13\n      pop\n      pop\n      pop\n      pop\n      pop\n      pop\n      pop\n      pop\n      pop\n      pop\n      pop\n      pop\n      pop\n      jump\t// out\n        /* \"#utility.yul\":5569:5691   */\n    tag_163:\n        /* \"#utility.yul\":5642:5666   */\n      tag_279\n        /* \"#utility.yul\":5660:5665   */\n      dup2\n        /* \"#utility.yul\":5642:5666   */\n      tag_154\n      jump\t// in\n    tag_279:\n        /* \"#utility.yul\":5635:5640   */\n      dup2\n        /* \"#utility.yul\":5632:5667   */\n      eq\n        /* \"#utility.yul\":5622:5685   */\n      tag_280\n      jumpi\n        /* \"#utility.yul\":5681:5682   */\n      0x00\n        /* \"#utility.yul\":5678:5679   */\n      dup1\n        /* \"#utility.yul\":5671:5683   */\n      revert\n        /* \"#utility.yul\":5622:5685   */\n    tag_280:\n        /* \"#utility.yul\":5569:5691   */\n      pop\n      jump\t// out\n        /* \"#utility.yul\":5697:5836   */\n    tag_164:\n        /* \"#utility.yul\":5743:5748   */\n      0x00\n        /* \"#utility.yul\":5781:5787   */\n      dup2\n        /* \"#utility.yul\":5768:5788   */\n      calldataload\n        /* \"#utility.yul\":5759:5788   */\n      swap1\n      pop\n        /* \"#utility.yul\":5797:5830   */\n      tag_282\n        /* \"#utility.yul\":5824:5829   */\n      dup2\n        /* \"#utility.yul\":5797:5830   */\n      tag_163\n      jump\t// in\n    tag_282:\n        /* \"#utility.yul\":5697:5836   */\n      swap3\n      swap2\n      pop\n      pop\n      jump\t// out\n        /* \"#utility.yul\":5842:6316   */\n    tag_32:\n        /* \"#utility.yul\":5910:5916   */\n      0x00\n        /* \"#utility.yul\":5918:5924   */\n      dup1\n        /* \"#utility.yul\":5967:5969   */\n      0x40\n        /* \"#utility.yul\":5955:5964   */\n      dup4\n        /* \"#utility.yul\":5946:5953   */\n      dup6\n        /* \"#utility.yul\":5942:5965   */\n      sub\n        /* \"#utility.yul\":5938:5970   */\n      slt\n        /* \"#utility.yul\":5935:6054   */\n      iszero\n      tag_284\n      jumpi\n        /* \"#utility.yul\":5973:6052   */\n      tag_285\n      tag_149\n      jump\t// in\n    tag_285:\n        /* \"#utility.yul\":5935:6054   */\n    tag_284:\n        /* \"#utility.yul\":6093:6094   */\n      0x00\n        /* \"#utility.yul\":6118:6171   */\n      tag_286\n        /* \"#utility.yul\":6163:6170   */\n      dup6\n        /* \"#utility.yul\":6154:6160   */\n      dup3\n        /* \"#utility.yul\":6143:6152   */\n      dup7\n        /* \"#utility.yul\":6139:6161   */\n      add\n        /* \"#utility.yul\":6118:6171   */\n      tag_153\n      jump\t// in\n    tag_286:\n        /* \"#utility.yul\":6108:6171   */\n      swap3\n      pop\n        /* \"#utility.yul\":6064:6181   */\n      pop\n        /* \"#utility.yul\":6220:6222   */\n      0x20\n        /* \"#utility.yul\":6246:6299   */\n      tag_287\n        /* \"#utility.yul\":6291:6298   */\n      dup6\n        /* \"#utility.yul\":6282:6288   */\n      dup3\n        /* \"#utility.yul\":6271:6280   */\n      dup7\n        /* \"#utility.yul\":6267:6289   */\n      add\n        /* \"#utility.yul\":6246:6299   */\n      tag_164\n      jump\t// in\n    tag_287:\n        /* \"#utility.yul\":6236:6299   */\n      swap2\n      pop\n        /* \"#utility.yul\":6191:6309   */\n      pop\n        /* \"#utility.yul\":5842:6316   */\n      swap3\n      pop\n      swap3\n      swap1\n      pop\n      jump\t// out\n        /* \"#utility.yul\":6322:6439   */\n    tag_165:\n        /* \"#utility.yul\":6431:6432   */\n      0x00\n        /* \"#utility.yul\":6428:6429   */\n      dup1\n        /* \"#utility.yul\":6421:6433   */\n      revert\n        /* \"#utility.yul\":6445:6562   */\n    tag_166:\n        /* \"#utility.yul\":6554:6555   */\n      0x00\n        /* \"#utility.yul\":6551:6552   */\n      dup1\n        /* \"#utility.yul\":6544:6556   */\n      revert\n        /* \"#utility.yul\":6568:6748   */\n    tag_94:\n        /* \"#utility.yul\":6616:6693   */\n      0x4e487b7100000000000000000000000000000000000000000000000000000000\n        /* \"#utility.yul\":6613:6614   */\n      0x00\n        /* \"#utility.yul\":6606:6694   */\n      mstore\n        /* \"#utility.yul\":6713:6717   */\n      0x41\n        /* \"#utility.yul\":6710:6711   */\n      0x04\n        /* \"#utility.yul\":6703:6718   */\n      mstore\n        /* \"#utility.yul\":6737:6741   */\n      0x24\n        /* \"#utility.yul\":6734:6735   */\n      0x00\n        /* \"#utility.yul\":6727:6742   */\n      revert\n        /* \"#utility.yul\":6754:7035   */\n    tag_167:\n        /* \"#utility.yul\":6837:6864   */\n      tag_292\n        /* \"#utility.yul\":6859:6863   */\n      dup3\n        /* \"#utility.yul\":6837:6864   */\n      tag_161\n      jump\t// in\n    tag_292:\n        /* \"#utility.yul\":6829:6835   */\n      dup2\n        /* \"#utility.yul\":6825:6865   */\n      add\n        /* \"#utility.yul\":6967:6973   */\n      dup2\n        /* \"#utility.yul\":6955:6965   */\n      dup2\n        /* \"#utility.yul\":6952:6974   */\n      lt\n        /* \"#utility.yul\":6931:6949   */\n      0xffffffffffffffff\n        /* \"#utility.yul\":6919:6929   */\n      dup3\n        /* \"#utility.yul\":6916:6950   */\n      gt\n        /* \"#utility.yul\":6913:6975   */\n      or\n        /* \"#utility.yul\":6910:6998   */\n      iszero\n      tag_293\n      jumpi\n        /* \"#utility.yul\":6978:6996   */\n      tag_294\n      tag_94\n      jump\t// in\n    tag_294:\n        /* \"#utility.yul\":6910:6998   */\n    tag_293:\n        /* \"#utility.yul\":7018:7028   */\n      dup1\n        /* \"#utility.yul\":7014:7016   */\n      0x40\n        /* \"#utility.yul\":7007:7029   */\n      mstore\n        /* \"#utility.yul\":6797:7035   */\n      pop\n        /* \"#utility.yul\":6754:7035   */\n      pop\n      pop\n      jump\t// out\n        /* \"#utility.yul\":7041:7170   */\n    tag_168:\n        /* \"#utility.yul\":7075:7081   */\n      0x00\n        /* \"#utility.yul\":7102:7122   */\n      tag_296\n      tag_148\n      jump\t// in\n    tag_296:\n        /* \"#utility.yul\":7092:7122   */\n      swap1\n      pop\n        /* \"#utility.yul\":7131:7164   */\n      tag_297\n        /* \"#utility.yul\":7159:7163   */\n      dup3\n        /* \"#utility.yul\":7151:7157   */\n      dup3\n        /* \"#utility.yul\":7131:7164   */\n      tag_167\n      jump\t// in\n    tag_297:\n        /* \"#utility.yul\":7041:7170   */\n      swap2\n      swap1\n      pop\n      jump\t// out\n        /* \"#utility.yul\":7176:7483   */\n    tag_169:\n        /* \"#utility.yul\":7237:7241   */\n      0x00\n        /* \"#utility.yul\":7327:7345   */\n      0xffffffffffffffff\n        /* \"#utility.yul\":7319:7325   */\n      dup3\n        /* \"#utility.yul\":7316:7346   */\n      gt\n        /* \"#utility.yul\":7313:7369   */\n      iszero\n      tag_299\n      jumpi\n        /* \"#utility.yul\":7349:7367   */\n      tag_300\n      tag_94\n      jump\t// in\n    tag_300:\n        /* \"#utility.yul\":7313:7369   */\n    tag_299:\n        /* \"#utility.yul\":7387:7416   */\n      tag_301\n        /* \"#utility.yul\":7409:7415   */\n      dup3\n        /* \"#utility.yul\":7387:7416   */\n      tag_161\n      jump\t// in\n    tag_301:\n        /* \"#utility.yul\":7379:7416   */\n      swap1\n      pop\n        /* \"#utility.yul\":7471:7475   */\n      0x20\n        /* \"#utility.yul\":7465:7469   */\n      dup2\n        /* \"#utility.yul\":7461:7476   */\n      add\n        /* \"#utility.yul\":7453:7476   */\n      swap1\n      pop\n        /* \"#utility.yul\":7176:7483   */\n      swap2\n      swap1\n      pop\n      jump\t// out\n        /* \"#utility.yul\":7489:7643   */\n    tag_170:\n        /* \"#utility.yul\":7573:7579   */\n      dup3\n        /* \"#utility.yul\":7568:7571   */\n      dup2\n        /* \"#utility.yul\":7563:7566   */\n      dup4\n        /* \"#utility.yul\":7550:7580   */\n      calldatacopy\n        /* \"#utility.yul\":7635:7636   */\n      0x00\n        /* \"#utility.yul\":7626:7632   */\n      dup4\n        /* \"#utility.yul\":7621:7624   */\n      dup4\n        /* \"#utility.yul\":7617:7633   */\n      add\n        /* \"#utility.yul\":7610:7637   */\n      mstore\n        /* \"#utility.yul\":7489:7643   */\n      pop\n      pop\n      pop\n      jump\t// out\n        /* \"#utility.yul\":7649:8059   */\n    tag_171:\n        /* \"#utility.yul\":7726:7731   */\n      0x00\n        /* \"#utility.yul\":7751:7816   */\n      tag_304\n        /* \"#utility.yul\":7767:7815   */\n      tag_305\n        /* \"#utility.yul\":7808:7814   */\n      dup5\n        /* \"#utility.yul\":7767:7815   */\n      tag_169\n      jump\t// in\n    tag_305:\n        /* \"#utility.yul\":7751:7816   */\n      tag_168\n      jump\t// in\n    tag_304:\n        /* \"#utility.yul\":7742:7816   */\n      swap1\n      pop\n        /* \"#utility.yul\":7839:7845   */\n      dup3\n        /* \"#utility.yul\":7832:7837   */\n      dup2\n        /* \"#utility.yul\":7825:7846   */\n      mstore\n        /* \"#utility.yul\":7877:7881   */\n      0x20\n        /* \"#utility.yul\":7870:7875   */\n      dup2\n        /* \"#utility.yul\":7866:7882   */\n      add\n        /* \"#utility.yul\":7915:7918   */\n      dup5\n        /* \"#utility.yul\":7906:7912   */\n      dup5\n        /* \"#utility.yul\":7901:7904   */\n      dup5\n        /* \"#utility.yul\":7897:7913   */\n      add\n        /* \"#utility.yul\":7894:7919   */\n      gt\n        /* \"#utility.yul\":7891:8003   */\n      iszero\n      tag_306\n      jumpi\n        /* \"#utility.yul\":7922:8001   */\n      tag_307\n      tag_166\n      jump\t// in\n    tag_307:\n        /* \"#utility.yul\":7891:8003   */\n    tag_306:\n        /* \"#utility.yul\":8012:8053   */\n      tag_308\n        /* \"#utility.yul\":8046:8052   */\n      dup5\n        /* \"#utility.yul\":8041:8044   */\n      dup3\n        /* \"#utility.yul\":8036:8039   */\n      dup6\n        /* \"#utility.yul\":8012:8053   */\n      tag_170\n      jump\t// in\n    tag_308:\n        /* \"#utility.yul\":7732:8059   */\n      pop\n        /* \"#utility.yul\":7649:8059   */\n      swap4\n      swap3\n      pop\n      pop\n      pop\n      jump\t// out\n        /* \"#utility.yul\":8078:8416   */\n    tag_172:\n        /* \"#utility.yul\":8133:8138   */\n      0x00\n        /* \"#utility.yul\":8182:8185   */\n      dup3\n        /* \"#utility.yul\":8175:8179   */\n      0x1f\n        /* \"#utility.yul\":8167:8173   */\n      dup4\n        /* \"#utility.yul\":8163:8180   */\n      add\n        /* \"#utility.yul\":8159:8186   */\n      slt\n        /* \"#utility.yul\":8149:8271   */\n      tag_310\n      jumpi\n        /* \"#utility.yul\":8190:8269   */\n      tag_311\n      tag_165\n      jump\t// in\n    tag_311:\n        /* \"#utility.yul\":8149:8271   */\n    tag_310:\n        /* \"#utility.yul\":8307:8313   */\n      dup2\n        /* \"#utility.yul\":8294:8314   */\n      calldataload\n        /* \"#utility.yul\":8332:8410   */\n      tag_312\n        /* \"#utility.yul\":8406:8409   */\n      dup5\n        /* \"#utility.yul\":8398:8404   */\n      dup3\n        /* \"#utility.yul\":8391:8395   */\n      0x20\n        /* \"#utility.yul\":8383:8389   */\n      dup7\n        /* \"#utility.yul\":8379:8396   */\n      add\n        /* \"#utility.yul\":8332:8410   */\n      tag_171\n      jump\t// in\n    tag_312:\n        /* \"#utility.yul\":8323:8410   */\n      swap2\n      pop\n        /* \"#utility.yul\":8139:8416   */\n      pop\n        /* \"#utility.yul\":8078:8416   */\n      swap3\n      swap2\n      pop\n      pop\n      jump\t// out\n        /* \"#utility.yul\":8422:8544   */\n    tag_173:\n        /* \"#utility.yul\":8495:8519   */\n      tag_314\n        /* \"#utility.yul\":8513:8518   */\n      dup2\n        /* \"#utility.yul\":8495:8519   */\n      tag_146\n      jump\t// in\n    tag_314:\n        /* \"#utility.yul\":8488:8493   */\n      dup2\n        /* \"#utility.yul\":8485:8520   */\n      eq\n        /* \"#utility.yul\":8475:8538   */\n      tag_315\n      jumpi\n        /* \"#utility.yul\":8534:8535   */\n      0x00\n        /* \"#utility.yul\":8531:8532   */\n      dup1\n        /* \"#utility.yul\":8524:8536   */\n      revert\n        /* \"#utility.yul\":8475:8538   */\n    tag_315:\n        /* \"#utility.yul\":8422:8544   */\n      pop\n      jump\t// out\n        /* \"#utility.yul\":8550:8689   */\n    tag_174:\n        /* \"#utility.yul\":8596:8601   */\n      0x00\n        /* \"#utility.yul\":8634:8640   */\n      dup2\n        /* \"#utility.yul\":8621:8641   */\n      calldataload\n        /* \"#utility.yul\":8612:8641   */\n      swap1\n      pop\n        /* \"#utility.yul\":8650:8683   */\n      tag_317\n        /* \"#utility.yul\":8677:8682   */\n      dup2\n        /* \"#utility.yul\":8650:8683   */\n      tag_173\n      jump\t// in\n    tag_317:\n        /* \"#utility.yul\":8550:8689   */\n      swap3\n      swap2\n      pop\n      pop\n      jump\t// out\n        /* \"#utility.yul\":8695:8811   */\n    tag_175:\n        /* \"#utility.yul\":8765:8786   */\n      tag_319\n        /* \"#utility.yul\":8780:8785   */\n      dup2\n        /* \"#utility.yul\":8765:8786   */\n      tag_156\n      jump\t// in\n    tag_319:\n        /* \"#utility.yul\":8758:8763   */\n      dup2\n        /* \"#utility.yul\":8755:8787   */\n      eq\n        /* \"#utility.yul\":8745:8805   */\n      tag_320\n      jumpi\n        /* \"#utility.yul\":8801:8802   */\n      0x00\n        /* \"#utility.yul\":8798:8799   */\n      dup1\n        /* \"#utility.yul\":8791:8803   */\n      revert\n        /* \"#utility.yul\":8745:8805   */\n    tag_320:\n        /* \"#utility.yul\":8695:8811   */\n      pop\n      jump\t// out\n        /* \"#utility.yul\":8817:8950   */\n    tag_176:\n        /* \"#utility.yul\":8860:8865   */\n      0x00\n        /* \"#utility.yul\":8898:8904   */\n      dup2\n        /* \"#utility.yul\":8885:8905   */\n      calldataload\n        /* \"#utility.yul\":8876:8905   */\n      swap1\n      pop\n        /* \"#utility.yul\":8914:8944   */\n      tag_322\n        /* \"#utility.yul\":8938:8943   */\n      dup2\n        /* \"#utility.yul\":8914:8944   */\n      tag_175\n      jump\t// in\n    tag_322:\n        /* \"#utility.yul\":8817:8950   */\n      swap3\n      swap2\n      pop\n      pop\n      jump\t// out\n        /* \"#utility.yul\":8956:10477   */\n    tag_36:\n        /* \"#utility.yul\":9084:9090   */\n      0x00\n        /* \"#utility.yul\":9092:9098   */\n      dup1\n        /* \"#utility.yul\":9100:9106   */\n      0x00\n        /* \"#utility.yul\":9108:9114   */\n      dup1\n        /* \"#utility.yul\":9116:9122   */\n      0x00\n        /* \"#utility.yul\":9124:9130   */\n      dup1\n        /* \"#utility.yul\":9132:9138   */\n      0x00\n        /* \"#utility.yul\":9140:9146   */\n      dup1\n        /* \"#utility.yul\":9189:9192   */\n      0x0100\n        /* \"#utility.yul\":9177:9186   */\n      dup10\n        /* \"#utility.yul\":9168:9175   */\n      dup12\n        /* \"#utility.yul\":9164:9187   */\n      sub\n        /* \"#utility.yul\":9160:9193   */\n      slt\n        /* \"#utility.yul\":9157:9277   */\n      iszero\n      tag_324\n      jumpi\n        /* \"#utility.yul\":9196:9275   */\n      tag_325\n      tag_149\n      jump\t// in\n    tag_325:\n        /* \"#utility.yul\":9157:9277   */\n    tag_324:\n        /* \"#utility.yul\":9316:9317   */\n      0x00\n        /* \"#utility.yul\":9341:9394   */\n      tag_326\n        /* \"#utility.yul\":9386:9393   */\n      dup12\n        /* \"#utility.yul\":9377:9383   */\n      dup3\n        /* \"#utility.yul\":9366:9375   */\n      dup13\n        /* \"#utility.yul\":9362:9384   */\n      add\n        /* \"#utility.yul\":9341:9394   */\n      tag_153\n      jump\t// in\n    tag_326:\n        /* \"#utility.yul\":9331:9394   */\n      swap9\n      pop\n        /* \"#utility.yul\":9287:9404   */\n      pop\n        /* \"#utility.yul\":9471:9473   */\n      0x20\n        /* \"#utility.yul\":9460:9469   */\n      dup10\n        /* \"#utility.yul\":9456:9474   */\n      add\n        /* \"#utility.yul\":9443:9475   */\n      calldataload\n        /* \"#utility.yul\":9502:9520   */\n      0xffffffffffffffff\n        /* \"#utility.yul\":9494:9500   */\n      dup2\n        /* \"#utility.yul\":9491:9521   */\n      gt\n        /* \"#utility.yul\":9488:9605   */\n      iszero\n      tag_327\n      jumpi\n        /* \"#utility.yul\":9524:9603   */\n      tag_328\n      tag_150\n      jump\t// in\n    tag_328:\n        /* \"#utility.yul\":9488:9605   */\n    tag_327:\n        /* \"#utility.yul\":9629:9691   */\n      tag_329\n        /* \"#utility.yul\":9683:9690   */\n      dup12\n        /* \"#utility.yul\":9674:9680   */\n      dup3\n        /* \"#utility.yul\":9663:9672   */\n      dup13\n        /* \"#utility.yul\":9659:9681   */\n      add\n        /* \"#utility.yul\":9629:9691   */\n      tag_172\n      jump\t// in\n    tag_329:\n        /* \"#utility.yul\":9619:9691   */\n      swap8\n      pop\n        /* \"#utility.yul\":9414:9701   */\n      pop\n        /* \"#utility.yul\":9740:9742   */\n      0x40\n        /* \"#utility.yul\":9766:9819   */\n      tag_330\n        /* \"#utility.yul\":9811:9818   */\n      dup12\n        /* \"#utility.yul\":9802:9808   */\n      dup3\n        /* \"#utility.yul\":9791:9800   */\n      dup13\n        /* \"#utility.yul\":9787:9809   */\n      add\n        /* \"#utility.yul\":9766:9819   */\n      tag_164\n      jump\t// in\n    tag_330:\n        /* \"#utility.yul\":9756:9819   */\n      swap7\n      pop\n        /* \"#utility.yul\":9711:9829   */\n      pop\n        /* \"#utility.yul\":9868:9870   */\n      0x60\n        /* \"#utility.yul\":9894:9947   */\n      tag_331\n        /* \"#utility.yul\":9939:9946   */\n      dup12\n        /* \"#utility.yul\":9930:9936   */\n      dup3\n        /* \"#utility.yul\":9919:9928   */\n      dup13\n        /* \"#utility.yul\":9915:9937   */\n      add\n        /* \"#utility.yul\":9894:9947   */\n      tag_174\n      jump\t// in\n    tag_331:\n        /* \"#utility.yul\":9884:9947   */\n      swap6\n      pop\n        /* \"#utility.yul\":9839:9957   */\n      pop\n        /* \"#utility.yul\":9996:9999   */\n      0x80\n        /* \"#utility.yul\":10023:10076   */\n      tag_332\n        /* \"#utility.yul\":10068:10075   */\n      dup12\n        /* \"#utility.yul\":10059:10065   */\n      dup3\n        /* \"#utility.yul\":10048:10057   */\n      dup13\n        /* \"#utility.yul\":10044:10066   */\n      add\n        /* \"#utility.yul\":10023:10076   */\n      tag_164\n      jump\t// in\n    tag_332:\n        /* \"#utility.yul\":10013:10076   */\n      swap5\n      pop\n        /* \"#utility.yul\":9967:10086   */\n      pop\n        /* \"#utility.yul\":10125:10128   */\n      0xa0\n        /* \"#utility.yul\":10152:10205   */\n      tag_333\n        /* \"#utility.yul\":10197:10204   */\n      dup12\n        /* \"#utility.yul\":10188:10194   */\n      dup3\n        /* \"#utility.yul\":10177:10186   */\n      dup13\n        /* \"#utility.yul\":10173:10195   */\n      add\n        /* \"#utility.yul\":10152:10205   */\n      tag_164\n      jump\t// in\n    tag_333:\n        /* \"#utility.yul\":10142:10205   */\n      swap4\n      pop\n        /* \"#utility.yul\":10096:10215   */\n      pop\n        /* \"#utility.yul\":10254:10257   */\n      0xc0\n        /* \"#utility.yul\":10281:10331   */\n      tag_334\n        /* \"#utility.yul\":10323:10330   */\n      dup12\n        /* \"#utility.yul\":10314:10320   */\n      dup3\n        /* \"#utility.yul\":10303:10312   */\n      dup13\n        /* \"#utility.yul\":10299:10321   */\n      add\n        /* \"#utility.yul\":10281:10331   */\n      tag_176\n      jump\t// in\n    tag_334:\n        /* \"#utility.yul\":10271:10331   */\n      swap3\n      pop\n        /* \"#utility.yul\":10225:10341   */\n      pop\n        /* \"#utility.yul\":10380:10383   */\n      0xe0\n        /* \"#utility.yul\":10407:10460   */\n      tag_335\n        /* \"#utility.yul\":10452:10459   */\n      dup12\n        /* \"#utility.yul\":10443:10449   */\n      dup3\n        /* \"#utility.yul\":10432:10441   */\n      dup13\n        /* \"#utility.yul\":10428:10450   */\n      add\n        /* \"#utility.yul\":10407:10460   */\n      tag_164\n      jump\t// in\n    tag_335:\n        /* \"#utility.yul\":10397:10460   */\n      swap2\n      pop\n        /* \"#utility.yul\":10351:10470   */\n      pop\n        /* \"#utility.yul\":8956:10477   */\n      swap3\n      swap6\n      swap9\n      pop\n      swap3\n      swap6\n      swap9\n      swap1\n      swap4\n      swap7\n      pop\n      jump\t// out\n        /* \"#utility.yul\":10483:11858   */\n    tag_43:\n        /* \"#utility.yul\":10602:10608   */\n      0x00\n        /* \"#utility.yul\":10610:10616   */\n      dup1\n        /* \"#utility.yul\":10618:10624   */\n      0x00\n        /* \"#utility.yul\":10626:10632   */\n      dup1\n        /* \"#utility.yul\":10634:10640   */\n      0x00\n        /* \"#utility.yul\":10642:10648   */\n      dup1\n        /* \"#utility.yul\":10650:10656   */\n      0x00\n        /* \"#utility.yul\":10699:10702   */\n      0xe0\n        /* \"#utility.yul\":10687:10696   */\n      dup9\n        /* \"#utility.yul\":10678:10685   */\n      dup11\n        /* \"#utility.yul\":10674:10697   */\n      sub\n        /* \"#utility.yul\":10670:10703   */\n      slt\n        /* \"#utility.yul\":10667:10787   */\n      iszero\n      tag_337\n      jumpi\n        /* \"#utility.yul\":10706:10785   */\n      tag_338\n      tag_149\n      jump\t// in\n    tag_338:\n        /* \"#utility.yul\":10667:10787   */\n    tag_337:\n        /* \"#utility.yul\":10826:10827   */\n      0x00\n        /* \"#utility.yul\":10851:10904   */\n      tag_339\n        /* \"#utility.yul\":10896:10903   */\n      dup11\n        /* \"#utility.yul\":10887:10893   */\n      dup3\n        /* \"#utility.yul\":10876:10885   */\n      dup12\n        /* \"#utility.yul\":10872:10894   */\n      add\n        /* \"#utility.yul\":10851:10904   */\n      tag_153\n      jump\t// in\n    tag_339:\n        /* \"#utility.yul\":10841:10904   */\n      swap8\n      pop\n        /* \"#utility.yul\":10797:10914   */\n      pop\n        /* \"#utility.yul\":10981:10983   */\n      0x20\n        /* \"#utility.yul\":10970:10979   */\n      dup9\n        /* \"#utility.yul\":10966:10984   */\n      add\n        /* \"#utility.yul\":10953:10985   */\n      calldataload\n        /* \"#utility.yul\":11012:11030   */\n      0xffffffffffffffff\n        /* \"#utility.yul\":11004:11010   */\n      dup2\n        /* \"#utility.yul\":11001:11031   */\n      gt\n        /* \"#utility.yul\":10998:11115   */\n      iszero\n      tag_340\n      jumpi\n        /* \"#utility.yul\":11034:11113   */\n      tag_341\n      tag_150\n      jump\t// in\n    tag_341:\n        /* \"#utility.yul\":10998:11115   */\n    tag_340:\n        /* \"#utility.yul\":11139:11201   */\n      tag_342\n        /* \"#utility.yul\":11193:11200   */\n      dup11\n        /* \"#utility.yul\":11184:11190   */\n      dup3\n        /* \"#utility.yul\":11173:11182   */\n      dup12\n        /* \"#utility.yul\":11169:11191   */\n      add\n        /* \"#utility.yul\":11139:11201   */\n      tag_172\n      jump\t// in\n    tag_342:\n        /* \"#utility.yul\":11129:11201   */\n      swap7\n      pop\n        /* \"#utility.yul\":10924:11211   */\n      pop\n        /* \"#utility.yul\":11250:11252   */\n      0x40\n        /* \"#utility.yul\":11276:11329   */\n      tag_343\n        /* \"#utility.yul\":11321:11328   */\n      dup11\n        /* \"#utility.yul\":11312:11318   */\n      dup3\n        /* \"#utility.yul\":11301:11310   */\n      dup12\n        /* \"#utility.yul\":11297:11319   */\n      add\n        /* \"#utility.yul\":11276:11329   */\n      tag_164\n      jump\t// in\n    tag_343:\n        /* \"#utility.yul\":11266:11329   */\n      swap6\n      pop\n        /* \"#utility.yul\":11221:11339   */\n      pop\n        /* \"#utility.yul\":11378:11380   */\n      0x60\n        /* \"#utility.yul\":11404:11457   */\n      tag_344\n        /* \"#utility.yul\":11449:11456   */\n      dup11\n        /* \"#utility.yul\":11440:11446   */\n      dup3\n        /* \"#utility.yul\":11429:11438   */\n      dup12\n        /* \"#utility.yul\":11425:11447   */\n      add\n        /* \"#utility.yul\":11404:11457   */\n      tag_174\n      jump\t// in\n    tag_344:\n        /* \"#utility.yul\":11394:11457   */\n      swap5\n      pop\n        /* \"#utility.yul\":11349:11467   */\n      pop\n        /* \"#utility.yul\":11506:11509   */\n      0x80\n        /* \"#utility.yul\":11533:11586   */\n      tag_345\n        /* \"#utility.yul\":11578:11585   */\n      dup11\n        /* \"#utility.yul\":11569:11575   */\n      dup3\n        /* \"#utility.yul\":11558:11567   */\n      dup12\n        /* \"#utility.yul\":11554:11576   */\n      add\n        /* \"#utility.yul\":11533:11586   */\n      tag_164\n      jump\t// in\n    tag_345:\n        /* \"#utility.yul\":11523:11586   */\n      swap4\n      pop\n        /* \"#utility.yul\":11477:11596   */\n      pop\n        /* \"#utility.yul\":11635:11638   */\n      0xa0\n        /* \"#utility.yul\":11662:11715   */\n      tag_346\n        /* \"#utility.yul\":11707:11714   */\n      dup11\n        /* \"#utility.yul\":11698:11704   */\n      dup3\n        /* \"#utility.yul\":11687:11696   */\n      dup12\n        /* \"#utility.yul\":11683:11705   */\n      add\n        /* \"#utility.yul\":11662:11715   */\n      tag_164\n      jump\t// in\n    tag_346:\n        /* \"#utility.yul\":11652:11715   */\n      swap3\n      pop\n        /* \"#utility.yul\":11606:11725   */\n      pop\n        /* \"#utility.yul\":11764:11767   */\n      0xc0\n        /* \"#utility.yul\":11791:11841   */\n      tag_347\n        /* \"#utility.yul\":11833:11840   */\n      dup11\n        /* \"#utility.yul\":11824:11830   */\n      dup3\n        /* \"#utility.yul\":11813:11822   */\n      dup12\n        /* \"#utility.yul\":11809:11831   */\n      add\n        /* \"#utility.yul\":11791:11841   */\n      tag_176\n      jump\t// in\n    tag_347:\n        /* \"#utility.yul\":11781:11841   */\n      swap2\n      pop\n        /* \"#utility.yul\":11735:11851   */\n      pop\n        /* \"#utility.yul\":10483:11858   */\n      swap3\n      swap6\n      swap9\n      swap2\n      swap5\n      swap8\n      pop\n      swap3\n      swap6\n      pop\n      jump\t// out\n        /* \"#utility.yul\":11864:12193   */\n    tag_47:\n        /* \"#utility.yul\":11923:11929   */\n      0x00\n        /* \"#utility.yul\":11972:11974   */\n      0x20\n        /* \"#utility.yul\":11960:11969   */\n      dup3\n        /* \"#utility.yul\":11951:11958   */\n      dup5\n        /* \"#utility.yul\":11947:11970   */\n      sub\n        /* \"#utility.yul\":11943:11975   */\n      slt\n        /* \"#utility.yul\":11940:12059   */\n      iszero\n      tag_349\n      jumpi\n        /* \"#utility.yul\":11978:12057   */\n      tag_350\n      tag_149\n      jump\t// in\n    tag_350:\n        /* \"#utility.yul\":11940:12059   */\n    tag_349:\n        /* \"#utility.yul\":12098:12099   */\n      0x00\n        /* \"#utility.yul\":12123:12176   */\n      tag_351\n        /* \"#utility.yul\":12168:12175   */\n      dup5\n        /* \"#utility.yul\":12159:12165   */\n      dup3\n        /* \"#utility.yul\":12148:12157   */\n      dup6\n        /* \"#utility.yul\":12144:12166   */\n      add\n        /* \"#utility.yul\":12123:12176   */\n      tag_174\n      jump\t// in\n    tag_351:\n        /* \"#utility.yul\":12113:12176   */\n      swap2\n      pop\n        /* \"#utility.yul\":12069:12186   */\n      pop\n        /* \"#utility.yul\":11864:12193   */\n      swap3\n      swap2\n      pop\n      pop\n      jump\t// out\n        /* \"#utility.yul\":12199:12409   */\n    tag_53:\n        /* \"#utility.yul\":12286:12290   */\n      0x00\n        /* \"#utility.yul\":12324:12326   */\n      0x20\n        /* \"#utility.yul\":12313:12322   */\n      dup3\n        /* \"#utility.yul\":12309:12327   */\n      add\n        /* \"#utility.yul\":12301:12327   */\n      swap1\n      pop\n        /* \"#utility.yul\":12337:12402   */\n      tag_353\n        /* \"#utility.yul\":12399:12400   */\n      0x00\n        /* \"#utility.yul\":12388:12397   */\n      dup4\n        /* \"#utility.yul\":12384:12401   */\n      add\n        /* \"#utility.yul\":12375:12381   */\n      dup5\n        /* \"#utility.yul\":12337:12402   */\n      tag_157\n      jump\t// in\n    tag_353:\n        /* \"#utility.yul\":12199:12409   */\n      swap3\n      swap2\n      pop\n      pop\n      jump\t// out\n        /* \"#utility.yul\":12415:12595   */\n    tag_177:\n        /* \"#utility.yul\":12463:12540   */\n      0x4e487b7100000000000000000000000000000000000000000000000000000000\n        /* \"#utility.yul\":12460:12461   */\n      0x00\n        /* \"#utility.yul\":12453:12541   */\n      mstore\n        /* \"#utility.yul\":12560:12564   */\n      0x22\n        /* \"#utility.yul\":12557:12558   */\n      0x04\n        /* \"#utility.yul\":12550:12565   */\n      mstore\n        /* \"#utility.yul\":12584:12588   */\n      0x24\n        /* \"#utility.yul\":12581:12582   */\n      0x00\n        /* \"#utility.yul\":12574:12589   */\n      revert\n        /* \"#utility.yul\":12601:12921   */\n    tag_62:\n        /* \"#utility.yul\":12645:12651   */\n      0x00\n        /* \"#utility.yul\":12682:12683   */\n      0x02\n        /* \"#utility.yul\":12676:12680   */\n      dup3\n        /* \"#utility.yul\":12672:12684   */\n      div\n        /* \"#utility.yul\":12662:12684   */\n      swap1\n      pop\n        /* \"#utility.yul\":12729:12730   */\n      0x01\n        /* \"#utility.yul\":12723:12727   */\n      dup3\n        /* \"#utility.yul\":12719:12731   */\n      and\n        /* \"#utility.yul\":12750:12768   */\n      dup1\n        /* \"#utility.yul\":12740:12821   */\n      tag_356\n      jumpi\n        /* \"#utility.yul\":12806:12810   */\n      0x7f\n        /* \"#utility.yul\":12798:12804   */\n      dup3\n        /* \"#utility.yul\":12794:12811   */\n      and\n        /* \"#utility.yul\":12784:12811   */\n      swap2\n      pop\n        /* \"#utility.yul\":12740:12821   */\n    tag_356:\n        /* \"#utility.yul\":12868:12870   */\n      0x20\n        /* \"#utility.yul\":12860:12866   */\n      dup3\n        /* \"#utility.yul\":12857:12871   */\n      lt\n        /* \"#utility.yul\":12837:12855   */\n      dup2\n        /* \"#utility.yul\":12834:12872   */\n      sub\n        /* \"#utility.yul\":12831:12915   */\n      tag_357\n      jumpi\n        /* \"#utility.yul\":12887:12905   */\n      tag_358\n      tag_177\n      jump\t// in\n    tag_358:\n        /* \"#utility.yul\":12831:12915   */\n    tag_357:\n        /* \"#utility.yul\":12652:12921   */\n      pop\n        /* \"#utility.yul\":12601:12921   */\n      swap2\n      swap1\n      pop\n      jump\t// out\n        /* \"#utility.yul\":12927:13045   */\n    tag_178:\n        /* \"#utility.yul\":13014:13038   */\n      tag_360\n        /* \"#utility.yul\":13032:13037   */\n      dup2\n        /* \"#utility.yul\":13014:13038   */\n      tag_151\n      jump\t// in\n    tag_360:\n        /* \"#utility.yul\":13009:13012   */\n      dup3\n        /* \"#utility.yul\":13002:13039   */\n      mstore\n        /* \"#utility.yul\":12927:13045   */\n      pop\n      pop\n      jump\t// out\n        /* \"#utility.yul\":13051:13493   */\n    tag_71:\n        /* \"#utility.yul\":13200:13204   */\n      0x00\n        /* \"#utility.yul\":13238:13240   */\n      0x60\n        /* \"#utility.yul\":13227:13236   */\n      dup3\n        /* \"#utility.yul\":13223:13241   */\n      add\n        /* \"#utility.yul\":13215:13241   */\n      swap1\n      pop\n        /* \"#utility.yul\":13251:13322   */\n      tag_362\n        /* \"#utility.yul\":13319:13320   */\n      0x00\n        /* \"#utility.yul\":13308:13317   */\n      dup4\n        /* \"#utility.yul\":13304:13321   */\n      add\n        /* \"#utility.yul\":13295:13301   */\n      dup7\n        /* \"#utility.yul\":13251:13322   */\n      tag_147\n      jump\t// in\n    tag_362:\n        /* \"#utility.yul\":13332:13404   */\n      tag_363\n        /* \"#utility.yul\":13400:13402   */\n      0x20\n        /* \"#utility.yul\":13389:13398   */\n      dup4\n        /* \"#utility.yul\":13385:13403   */\n      add\n        /* \"#utility.yul\":13376:13382   */\n      dup6\n        /* \"#utility.yul\":13332:13404   */\n      tag_178\n      jump\t// in\n    tag_363:\n        /* \"#utility.yul\":13414:13486   */\n      tag_364\n        /* \"#utility.yul\":13482:13484   */\n      0x40\n        /* \"#utility.yul\":13471:13480   */\n      dup4\n        /* \"#utility.yul\":13467:13485   */\n      add\n        /* \"#utility.yul\":13458:13464   */\n      dup5\n        /* \"#utility.yul\":13414:13486   */\n      tag_155\n      jump\t// in\n    tag_364:\n        /* \"#utility.yul\":13051:13493   */\n      swap5\n      swap4\n      pop\n      pop\n      pop\n      pop\n      jump\t// out\n        /* \"#utility.yul\":13499:13831   */\n    tag_76:\n        /* \"#utility.yul\":13620:13624   */\n      0x00\n        /* \"#utility.yul\":13658:13660   */\n      0x40\n        /* \"#utility.yul\":13647:13656   */\n      dup3\n        /* \"#utility.yul\":13643:13661   */\n      add\n        /* \"#utility.yul\":13635:13661   */\n      swap1\n      pop\n        /* \"#utility.yul\":13671:13742   */\n      tag_366\n        /* \"#utility.yul\":13739:13740   */\n      0x00\n        /* \"#utility.yul\":13728:13737   */\n      dup4\n        /* \"#utility.yul\":13724:13741   */\n      add\n        /* \"#utility.yul\":13715:13721   */\n      dup6\n        /* \"#utility.yul\":13671:13742   */\n      tag_178\n      jump\t// in\n    tag_366:\n        /* \"#utility.yul\":13752:13824   */\n      tag_367\n        /* \"#utility.yul\":13820:13822   */\n      0x20\n        /* \"#utility.yul\":13809:13818   */\n      dup4\n        /* \"#utility.yul\":13805:13823   */\n      add\n        /* \"#utility.yul\":13796:13802   */\n      dup5\n        /* \"#utility.yul\":13752:13824   */\n      tag_155\n      jump\t// in\n    tag_367:\n        /* \"#utility.yul\":13499:13831   */\n      swap4\n      swap3\n      pop\n      pop\n      pop\n      jump\t// out\n        /* \"#utility.yul\":13837:14006   */\n    tag_179:\n        /* \"#utility.yul\":13921:13932   */\n      0x00\n        /* \"#utility.yul\":13955:13961   */\n      dup3\n        /* \"#utility.yul\":13950:13953   */\n      dup3\n        /* \"#utility.yul\":13943:13962   */\n      mstore\n        /* \"#utility.yul\":13995:13999   */\n      0x20\n        /* \"#utility.yul\":13990:13993   */\n      dup3\n        /* \"#utility.yul\":13986:14000   */\n      add\n        /* \"#utility.yul\":13971:14000   */\n      swap1\n      pop\n        /* \"#utility.yul\":13837:14006   */\n      swap3\n      swap2\n      pop\n      pop\n      jump\t// out\n        /* \"#utility.yul\":14012:14190   */\n    tag_180:\n        /* \"#utility.yul\":14152:14182   */\n      0x5175657374696f6e206d75737420626520696e697469616c697a656400000000\n        /* \"#utility.yul\":14148:14149   */\n      0x00\n        /* \"#utility.yul\":14140:14146   */\n      dup3\n        /* \"#utility.yul\":14136:14150   */\n      add\n        /* \"#utility.yul\":14129:14183   */\n      mstore\n        /* \"#utility.yul\":14012:14190   */\n      pop\n      jump\t// out\n        /* \"#utility.yul\":14196:14562   */\n    tag_181:\n        /* \"#utility.yul\":14338:14341   */\n      0x00\n        /* \"#utility.yul\":14359:14426   */\n      tag_371\n        /* \"#utility.yul\":14423:14425   */\n      0x1c\n        /* \"#utility.yul\":14418:14421   */\n      dup4\n        /* \"#utility.yul\":14359:14426   */\n      tag_179\n      jump\t// in\n    tag_371:\n        /* \"#utility.yul\":14352:14426   */\n      swap2\n      pop\n        /* \"#utility.yul\":14435:14528   */\n      tag_372\n        /* \"#utility.yul\":14524:14527   */\n      dup3\n        /* \"#utility.yul\":14435:14528   */\n      tag_180\n      jump\t// in\n    tag_372:\n        /* \"#utility.yul\":14553:14555   */\n      0x20\n        /* \"#utility.yul\":14548:14551   */\n      dup3\n        /* \"#utility.yul\":14544:14556   */\n      add\n        /* \"#utility.yul\":14537:14556   */\n      swap1\n      pop\n        /* \"#utility.yul\":14196:14562   */\n      swap2\n      swap1\n      pop\n      jump\t// out\n        /* \"#utility.yul\":14568:14987   */\n    tag_88:\n        /* \"#utility.yul\":14734:14738   */\n      0x00\n        /* \"#utility.yul\":14772:14774   */\n      0x20\n        /* \"#utility.yul\":14761:14770   */\n      dup3\n        /* \"#utility.yul\":14757:14775   */\n      add\n        /* \"#utility.yul\":14749:14775   */\n      swap1\n      pop\n        /* \"#utility.yul\":14821:14830   */\n      dup2\n        /* \"#utility.yul\":14815:14819   */\n      dup2\n        /* \"#utility.yul\":14811:14831   */\n      sub\n        /* \"#utility.yul\":14807:14808   */\n      0x00\n        /* \"#utility.yul\":14796:14805   */\n      dup4\n        /* \"#utility.yul\":14792:14809   */\n      add\n        /* \"#utility.yul\":14785:14832   */\n      mstore\n        /* \"#utility.yul\":14849:14980   */\n      tag_374\n        /* \"#utility.yul\":14975:14979   */\n      dup2\n        /* \"#utility.yul\":14849:14980   */\n      tag_181\n      jump\t// in\n    tag_374:\n        /* \"#utility.yul\":14841:14980   */\n      swap1\n      pop\n        /* \"#utility.yul\":14568:14987   */\n      swap2\n      swap1\n      pop\n      jump\t// out\n        /* \"#utility.yul\":14993:15173   */\n    tag_98:\n        /* \"#utility.yul\":15041:15118   */\n      0x4e487b7100000000000000000000000000000000000000000000000000000000\n        /* \"#utility.yul\":15038:15039   */\n      0x00\n        /* \"#utility.yul\":15031:15119   */\n      mstore\n        /* \"#utility.yul\":15138:15142   */\n      0x32\n        /* \"#utility.yul\":15135:15136   */\n      0x04\n        /* \"#utility.yul\":15128:15143   */\n      mstore\n        /* \"#utility.yul\":15162:15166   */\n      0x24\n        /* \"#utility.yul\":15159:15160   */\n      0x00\n        /* \"#utility.yul\":15152:15167   */\n      revert\n        /* \"#utility.yul\":15179:15359   */\n    tag_182:\n        /* \"#utility.yul\":15227:15304   */\n      0x4e487b7100000000000000000000000000000000000000000000000000000000\n        /* \"#utility.yul\":15224:15225   */\n      0x00\n        /* \"#utility.yul\":15217:15305   */\n      mstore\n        /* \"#utility.yul\":15324:15328   */\n      0x11\n        /* \"#utility.yul\":15321:15322   */\n      0x04\n        /* \"#utility.yul\":15314:15329   */\n      mstore\n        /* \"#utility.yul\":15348:15352   */\n      0x24\n        /* \"#utility.yul\":15345:15346   */\n      0x00\n        /* \"#utility.yul\":15338:15353   */\n      revert\n        /* \"#utility.yul\":15365:15556   */\n    tag_100:\n        /* \"#utility.yul\":15405:15409   */\n      0x00\n        /* \"#utility.yul\":15425:15445   */\n      tag_378\n        /* \"#utility.yul\":15443:15444   */\n      dup3\n        /* \"#utility.yul\":15425:15445   */\n      tag_154\n      jump\t// in\n    tag_378:\n        /* \"#utility.yul\":15420:15445   */\n      swap2\n      pop\n        /* \"#utility.yul\":15459:15479   */\n      tag_379\n        /* \"#utility.yul\":15477:15478   */\n      dup4\n        /* \"#utility.yul\":15459:15479   */\n      tag_154\n      jump\t// in\n    tag_379:\n        /* \"#utility.yul\":15454:15479   */\n      swap3\n      pop\n        /* \"#utility.yul\":15498:15499   */\n      dup3\n        /* \"#utility.yul\":15495:15496   */\n      dup3\n        /* \"#utility.yul\":15492:15500   */\n      lt\n        /* \"#utility.yul\":15489:15523   */\n      iszero\n      tag_380\n      jumpi\n        /* \"#utility.yul\":15503:15521   */\n      tag_381\n      tag_182\n      jump\t// in\n    tag_381:\n        /* \"#utility.yul\":15489:15523   */\n    tag_380:\n        /* \"#utility.yul\":15548:15549   */\n      dup3\n        /* \"#utility.yul\":15545:15546   */\n      dup3\n        /* \"#utility.yul\":15541:15550   */\n      sub\n        /* \"#utility.yul\":15533:15550   */\n      swap1\n      pop\n        /* \"#utility.yul\":15365:15556   */\n      swap3\n      swap2\n      pop\n      pop\n      jump\t// out\n        /* \"#utility.yul\":15562:15676   */\n    tag_183:\n        /* \"#utility.yul\":15629:15635   */\n      0x00\n        /* \"#utility.yul\":15663:15668   */\n      dup2\n        /* \"#utility.yul\":15657:15669   */\n      mload\n        /* \"#utility.yul\":15647:15669   */\n      swap1\n      pop\n        /* \"#utility.yul\":15562:15676   */\n      swap2\n      swap1\n      pop\n      jump\t// out\n        /* \"#utility.yul\":15682:15866   */\n    tag_184:\n        /* \"#utility.yul\":15781:15792   */\n      0x00\n        /* \"#utility.yul\":15815:15821   */\n      dup3\n        /* \"#utility.yul\":15810:15813   */\n      dup3\n        /* \"#utility.yul\":15803:15822   */\n      mstore\n        /* \"#utility.yul\":15855:15859   */\n      0x20\n        /* \"#utility.yul\":15850:15853   */\n      dup3\n        /* \"#utility.yul\":15846:15860   */\n      add\n        /* \"#utility.yul\":15831:15860   */\n      swap1\n      pop\n        /* \"#utility.yul\":15682:15866   */\n      swap3\n      swap2\n      pop\n      pop\n      jump\t// out\n        /* \"#utility.yul\":15872:16004   */\n    tag_185:\n        /* \"#utility.yul\":15939:15943   */\n      0x00\n        /* \"#utility.yul\":15962:15965   */\n      dup2\n        /* \"#utility.yul\":15954:15965   */\n      swap1\n      pop\n        /* \"#utility.yul\":15992:15996   */\n      0x20\n        /* \"#utility.yul\":15987:15990   */\n      dup3\n        /* \"#utility.yul\":15983:15997   */\n      add\n        /* \"#utility.yul\":15975:15997   */\n      swap1\n      pop\n        /* \"#utility.yul\":15872:16004   */\n      swap2\n      swap1\n      pop\n      jump\t// out\n        /* \"#utility.yul\":16010:16118   */\n    tag_186:\n        /* \"#utility.yul\":16087:16111   */\n      tag_386\n        /* \"#utility.yul\":16105:16110   */\n      dup2\n        /* \"#utility.yul\":16087:16111   */\n      tag_154\n      jump\t// in\n    tag_386:\n        /* \"#utility.yul\":16082:16085   */\n      dup3\n        /* \"#utility.yul\":16075:16112   */\n      mstore\n        /* \"#utility.yul\":16010:16118   */\n      pop\n      pop\n      jump\t// out\n        /* \"#utility.yul\":16124:16303   */\n    tag_187:\n        /* \"#utility.yul\":16193:16203   */\n      0x00\n        /* \"#utility.yul\":16214:16260   */\n      tag_388\n        /* \"#utility.yul\":16256:16259   */\n      dup4\n        /* \"#utility.yul\":16248:16254   */\n      dup4\n        /* \"#utility.yul\":16214:16260   */\n      tag_186\n      jump\t// in\n    tag_388:\n        /* \"#utility.yul\":16292:16296   */\n      0x20\n        /* \"#utility.yul\":16287:16290   */\n      dup4\n        /* \"#utility.yul\":16283:16297   */\n      add\n        /* \"#utility.yul\":16269:16297   */\n      swap1\n      pop\n        /* \"#utility.yul\":16124:16303   */\n      swap3\n      swap2\n      pop\n      pop\n      jump\t// out\n        /* \"#utility.yul\":16309:16422   */\n    tag_188:\n        /* \"#utility.yul\":16379:16383   */\n      0x00\n        /* \"#utility.yul\":16411:16415   */\n      0x20\n        /* \"#utility.yul\":16406:16409   */\n      dup3\n        /* \"#utility.yul\":16402:16416   */\n      add\n        /* \"#utility.yul\":16394:16416   */\n      swap1\n      pop\n        /* \"#utility.yul\":16309:16422   */\n      swap2\n      swap1\n      pop\n      jump\t// out\n        /* \"#utility.yul\":16458:17190   */\n    tag_189:\n        /* \"#utility.yul\":16577:16580   */\n      0x00\n        /* \"#utility.yul\":16606:16660   */\n      tag_391\n        /* \"#utility.yul\":16654:16659   */\n      dup3\n        /* \"#utility.yul\":16606:16660   */\n      tag_183\n      jump\t// in\n    tag_391:\n        /* \"#utility.yul\":16676:16762   */\n      tag_392\n        /* \"#utility.yul\":16755:16761   */\n      dup2\n        /* \"#utility.yul\":16750:16753   */\n      dup6\n        /* \"#utility.yul\":16676:16762   */\n      tag_184\n      jump\t// in\n    tag_392:\n        /* \"#utility.yul\":16669:16762   */\n      swap4\n      pop\n        /* \"#utility.yul\":16786:16842   */\n      tag_393\n        /* \"#utility.yul\":16836:16841   */\n      dup4\n        /* \"#utility.yul\":16786:16842   */\n      tag_185\n      jump\t// in\n    tag_393:\n        /* \"#utility.yul\":16865:16872   */\n      dup1\n        /* \"#utility.yul\":16896:16897   */\n      0x00\n        /* \"#utility.yul\":16881:17165   */\n    tag_394:\n        /* \"#utility.yul\":16906:16912   */\n      dup4\n        /* \"#utility.yul\":16903:16904   */\n      dup2\n        /* \"#utility.yul\":16900:16913   */\n      lt\n        /* \"#utility.yul\":16881:17165   */\n      iszero\n      tag_396\n      jumpi\n        /* \"#utility.yul\":16982:16988   */\n      dup2\n        /* \"#utility.yul\":16976:16989   */\n      mload\n        /* \"#utility.yul\":17009:17072   */\n      tag_397\n        /* \"#utility.yul\":17068:17071   */\n      dup9\n        /* \"#utility.yul\":17053:17066   */\n      dup3\n        /* \"#utility.yul\":17009:17072   */\n      tag_187\n      jump\t// in\n    tag_397:\n        /* \"#utility.yul\":17002:17072   */\n      swap8\n      pop\n        /* \"#utility.yul\":17095:17155   */\n      tag_398\n        /* \"#utility.yul\":17148:17154   */\n      dup4\n        /* \"#utility.yul\":17095:17155   */\n      tag_188\n      jump\t// in\n    tag_398:\n        /* \"#utility.yul\":17085:17155   */\n      swap3\n      pop\n        /* \"#utility.yul\":16941:17165   */\n      pop\n        /* \"#utility.yul\":16928:16929   */\n      0x01\n        /* \"#utility.yul\":16925:16926   */\n      dup2\n        /* \"#utility.yul\":16921:16930   */\n      add\n        /* \"#utility.yul\":16916:16930   */\n      swap1\n      pop\n        /* \"#utility.yul\":16881:17165   */\n      jump(tag_394)\n    tag_396:\n        /* \"#utility.yul\":16885:16899   */\n      pop\n        /* \"#utility.yul\":17181:17184   */\n      dup6\n        /* \"#utility.yul\":17174:17184   */\n      swap4\n      pop\n        /* \"#utility.yul\":16582:17190   */\n      pop\n      pop\n      pop\n        /* \"#utility.yul\":16458:17190   */\n      swap3\n      swap2\n      pop\n      pop\n      jump\t// out\n        /* \"#utility.yul\":17196:17679   */\n    tag_104:\n        /* \"#utility.yul\":17367:17371   */\n      0x00\n        /* \"#utility.yul\":17405:17407   */\n      0x40\n        /* \"#utility.yul\":17394:17403   */\n      dup3\n        /* \"#utility.yul\":17390:17408   */\n      add\n        /* \"#utility.yul\":17382:17408   */\n      swap1\n      pop\n        /* \"#utility.yul\":17418:17489   */\n      tag_400\n        /* \"#utility.yul\":17486:17487   */\n      0x00\n        /* \"#utility.yul\":17475:17484   */\n      dup4\n        /* \"#utility.yul\":17471:17488   */\n      add\n        /* \"#utility.yul\":17462:17468   */\n      dup6\n        /* \"#utility.yul\":17418:17489   */\n      tag_178\n      jump\t// in\n    tag_400:\n        /* \"#utility.yul\":17536:17545   */\n      dup2\n        /* \"#utility.yul\":17530:17534   */\n      dup2\n        /* \"#utility.yul\":17526:17546   */\n      sub\n        /* \"#utility.yul\":17521:17523   */\n      0x20\n        /* \"#utility.yul\":17510:17519   */\n      dup4\n        /* \"#utility.yul\":17506:17524   */\n      add\n        /* \"#utility.yul\":17499:17547   */\n      mstore\n        /* \"#utility.yul\":17564:17672   */\n      tag_401\n        /* \"#utility.yul\":17667:17671   */\n      dup2\n        /* \"#utility.yul\":17658:17664   */\n      dup5\n        /* \"#utility.yul\":17564:17672   */\n      tag_189\n      jump\t// in\n    tag_401:\n        /* \"#utility.yul\":17556:17672   */\n      swap1\n      pop\n        /* \"#utility.yul\":17196:17679   */\n      swap4\n      swap3\n      pop\n      pop\n      pop\n      jump\t// out\n        /* \"#utility.yul\":17685:17864   */\n    tag_190:\n        /* \"#utility.yul\":17825:17856   */\n      0x5175657374696f6e20686173206265656e20696e697469616c697a6564000000\n        /* \"#utility.yul\":17821:17822   */\n      0x00\n        /* \"#utility.yul\":17813:17819   */\n      dup3\n        /* \"#utility.yul\":17809:17823   */\n      add\n        /* \"#utility.yul\":17802:17857   */\n      mstore\n        /* \"#utility.yul\":17685:17864   */\n      pop\n      jump\t// out\n        /* \"#utility.yul\":17870:18236   */\n    tag_191:\n        /* \"#utility.yul\":18012:18015   */\n      0x00\n        /* \"#utility.yul\":18033:18100   */\n      tag_404\n        /* \"#utility.yul\":18097:18099   */\n      0x1d\n        /* \"#utility.yul\":18092:18095   */\n      dup4\n        /* \"#utility.yul\":18033:18100   */\n      tag_179\n      jump\t// in\n    tag_404:\n        /* \"#utility.yul\":18026:18100   */\n      swap2\n      pop\n        /* \"#utility.yul\":18109:18202   */\n      tag_405\n        /* \"#utility.yul\":18198:18201   */\n      dup3\n        /* \"#utility.yul\":18109:18202   */\n      tag_190\n      jump\t// in\n    tag_405:\n        /* \"#utility.yul\":18227:18229   */\n      0x20\n        /* \"#utility.yul\":18222:18225   */\n      dup3\n        /* \"#utility.yul\":18218:18230   */\n      add\n        /* \"#utility.yul\":18211:18230   */\n      swap1\n      pop\n        /* \"#utility.yul\":17870:18236   */\n      swap2\n      swap1\n      pop\n      jump\t// out\n        /* \"#utility.yul\":18242:18661   */\n    tag_115:\n        /* \"#utility.yul\":18408:18412   */\n      0x00\n        /* \"#utility.yul\":18446:18448   */\n      0x20\n        /* \"#utility.yul\":18435:18444   */\n      dup3\n        /* \"#utility.yul\":18431:18449   */\n      add\n        /* \"#utility.yul\":18423:18449   */\n      swap1\n      pop\n        /* \"#utility.yul\":18495:18504   */\n      dup2\n        /* \"#utility.yul\":18489:18493   */\n      dup2\n        /* \"#utility.yul\":18485:18505   */\n      sub\n        /* \"#utility.yul\":18481:18482   */\n      0x00\n        /* \"#utility.yul\":18470:18479   */\n      dup4\n        /* \"#utility.yul\":18466:18483   */\n      add\n        /* \"#utility.yul\":18459:18506   */\n      mstore\n        /* \"#utility.yul\":18523:18654   */\n      tag_407\n        /* \"#utility.yul\":18649:18653   */\n      dup2\n        /* \"#utility.yul\":18523:18654   */\n      tag_191\n      jump\t// in\n    tag_407:\n        /* \"#utility.yul\":18515:18654   */\n      swap1\n      pop\n        /* \"#utility.yul\":18242:18661   */\n      swap2\n      swap1\n      pop\n      jump\t// out\n        /* \"#utility.yul\":18667:18901   */\n    tag_192:\n        /* \"#utility.yul\":18807:18841   */\n      0x496e76616c6964207265736f6c7574696f6e2074696d652c206d757374206265\n        /* \"#utility.yul\":18803:18804   */\n      0x00\n        /* \"#utility.yul\":18795:18801   */\n      dup3\n        /* \"#utility.yul\":18791:18805   */\n      add\n        /* \"#utility.yul\":18784:18842   */\n      mstore\n        /* \"#utility.yul\":18876:18893   */\n      0x2067726561746572207468616e20300000000000000000000000000000000000\n        /* \"#utility.yul\":18871:18873   */\n      0x20\n        /* \"#utility.yul\":18863:18869   */\n      dup3\n        /* \"#utility.yul\":18859:18874   */\n      add\n        /* \"#utility.yul\":18852:18894   */\n      mstore\n        /* \"#utility.yul\":18667:18901   */\n      pop\n      jump\t// out\n        /* \"#utility.yul\":18907:19273   */\n    tag_193:\n        /* \"#utility.yul\":19049:19052   */\n      0x00\n        /* \"#utility.yul\":19070:19137   */\n      tag_410\n        /* \"#utility.yul\":19134:19136   */\n      0x2f\n        /* \"#utility.yul\":19129:19132   */\n      dup4\n        /* \"#utility.yul\":19070:19137   */\n      tag_179\n      jump\t// in\n    tag_410:\n        /* \"#utility.yul\":19063:19137   */\n      swap2\n      pop\n        /* \"#utility.yul\":19146:19239   */\n      tag_411\n        /* \"#utility.yul\":19235:19238   */\n      dup3\n        /* \"#utility.yul\":19146:19239   */\n      tag_192\n      jump\t// in\n    tag_411:\n        /* \"#utility.yul\":19264:19266   */\n      0x40\n        /* \"#utility.yul\":19259:19262   */\n      dup3\n        /* \"#utility.yul\":19255:19267   */\n      add\n        /* \"#utility.yul\":19248:19267   */\n      swap1\n      pop\n        /* \"#utility.yul\":18907:19273   */\n      swap2\n      swap1\n      pop\n      jump\t// out\n        /* \"#utility.yul\":19279:19698   */\n    tag_118:\n        /* \"#utility.yul\":19445:19449   */\n      0x00\n        /* \"#utility.yul\":19483:19485   */\n      0x20\n        /* \"#utility.yul\":19472:19481   */\n      dup3\n        /* \"#utility.yul\":19468:19486   */\n      add\n        /* \"#utility.yul\":19460:19486   */\n      swap1\n      pop\n        /* \"#utility.yul\":19532:19541   */\n      dup2\n        /* \"#utility.yul\":19526:19530   */\n      dup2\n        /* \"#utility.yul\":19522:19542   */\n      sub\n        /* \"#utility.yul\":19518:19519   */\n      0x00\n        /* \"#utility.yul\":19507:19516   */\n      dup4\n        /* \"#utility.yul\":19503:19520   */\n      add\n        /* \"#utility.yul\":19496:19543   */\n      mstore\n        /* \"#utility.yul\":19560:19691   */\n      tag_413\n        /* \"#utility.yul\":19686:19690   */\n      dup2\n        /* \"#utility.yul\":19560:19691   */\n      tag_193\n      jump\t// in\n    tag_413:\n        /* \"#utility.yul\":19552:19691   */\n      swap1\n      pop\n        /* \"#utility.yul\":19279:19698   */\n      swap2\n      swap1\n      pop\n      jump\t// out\n        /* \"#utility.yul\":19704:19844   */\n    tag_194:\n        /* \"#utility.yul\":19752:19756   */\n      0x00\n        /* \"#utility.yul\":19775:19778   */\n      dup2\n        /* \"#utility.yul\":19767:19778   */\n      swap1\n      pop\n        /* \"#utility.yul\":19798:19801   */\n      dup2\n        /* \"#utility.yul\":19795:19796   */\n      0x00\n        /* \"#utility.yul\":19788:19802   */\n      mstore\n        /* \"#utility.yul\":19832:19836   */\n      0x20\n        /* \"#utility.yul\":19829:19830   */\n      0x00\n        /* \"#utility.yul\":19819:19837   */\n      keccak256\n        /* \"#utility.yul\":19811:19837   */\n      swap1\n      pop\n        /* \"#utility.yul\":19704:19844   */\n      swap2\n      swap1\n      pop\n      jump\t// out\n        /* \"#utility.yul\":19850:19943   */\n    tag_195:\n        /* \"#utility.yul\":19887:19893   */\n      0x00\n        /* \"#utility.yul\":19934:19936   */\n      0x20\n        /* \"#utility.yul\":19929:19931   */\n      0x1f\n        /* \"#utility.yul\":19922:19927   */\n      dup4\n        /* \"#utility.yul\":19918:19932   */\n      add\n        /* \"#utility.yul\":19914:19937   */\n      div\n        /* \"#utility.yul\":19904:19937   */\n      swap1\n      pop\n        /* \"#utility.yul\":19850:19943   */\n      swap2\n      swap1\n      pop\n      jump\t// out\n        /* \"#utility.yul\":19949:20056   */\n    tag_196:\n        /* \"#utility.yul\":19993:20001   */\n      0x00\n        /* \"#utility.yul\":20043:20048   */\n      dup3\n        /* \"#utility.yul\":20037:20041   */\n      dup3\n        /* \"#utility.yul\":20033:20049   */\n      shl\n        /* \"#utility.yul\":20012:20049   */\n      swap1\n      pop\n        /* \"#utility.yul\":19949:20056   */\n      swap3\n      swap2\n      pop\n      pop\n      jump\t// out\n        /* \"#utility.yul\":20062:20455   */\n    tag_197:\n        /* \"#utility.yul\":20131:20137   */\n      0x00\n        /* \"#utility.yul\":20181:20182   */\n      0x08\n        /* \"#utility.yul\":20169:20179   */\n      dup4\n        /* \"#utility.yul\":20165:20183   */\n      mul\n        /* \"#utility.yul\":20204:20301   */\n      tag_418\n        /* \"#utility.yul\":20234:20300   */\n      0xffffffffffffffffffffffffffffffffffffffffffffffffffffffffffffffff\n        /* \"#utility.yul\":20223:20232   */\n      dup3\n        /* \"#utility.yul\":20204:20301   */\n      tag_196\n      jump\t// in\n    tag_418:\n        /* \"#utility.yul\":20322:20361   */\n      tag_419\n        /* \"#utility.yul\":20352:20360   */\n      dup7\n        /* \"#utility.yul\":20341:20350   */\n      dup4\n        /* \"#utility.yul\":20322:20361   */\n      tag_196\n      jump\t// in\n    tag_419:\n        /* \"#utility.yul\":20310:20361   */\n      swap6\n      pop\n        /* \"#utility.yul\":20394:20398   */\n      dup1\n        /* \"#utility.yul\":20390:20399   */\n      not\n        /* \"#utility.yul\":20383:20388   */\n      dup5\n        /* \"#utility.yul\":20379:20400   */\n      and\n        /* \"#utility.yul\":20370:20400   */\n      swap4\n      pop\n        /* \"#utility.yul\":20443:20447   */\n      dup1\n        /* \"#utility.yul\":20433:20441   */\n      dup7\n        /* \"#utility.yul\":20429:20448   */\n      and\n        /* \"#utility.yul\":20422:20427   */\n      dup5\n        /* \"#utility.yul\":20419:20449   */\n      or\n        /* \"#utility.yul\":20409:20449   */\n      swap3\n      pop\n        /* \"#utility.yul\":20138:20455   */\n      pop\n      pop\n        /* \"#utility.yul\":20062:20455   */\n      swap4\n      swap3\n      pop\n      pop\n      pop\n      jump\t// out\n        /* \"#utility.yul\":20461:20603   */\n    tag_198:\n        /* \"#utility.yul\":20511:20520   */\n      0x00\n        /* \"#utility.yul\":20544:20597   */\n      tag_421\n        /* \"#utility.yul\":20562:20596   */\n      tag_422\n        /* \"#utility.yul\":20571:20595   */\n      tag_423\n        /* \"#utility.yul\":20589:20594   */\n      dup5\n        /* \"#utility.yul\":20571:20595   */\n      tag_154\n      jump\t// in\n    tag_423:\n        /* \"#utility.yul\":20562:20596   */\n      tag_141\n      jump\t// in\n    tag_422:\n        /* \"#utility.yul\":20544:20597   */\n      tag_154\n      jump\t// in\n    tag_421:\n        /* \"#utility.yul\":20531:20597   */\n      swap1\n      pop\n        /* \"#utility.yul\":20461:20603   */\n      swap2\n      swap1\n      pop\n      jump\t// out\n        /* \"#utility.yul\":20609:20684   */\n    tag_199:\n        /* \"#utility.yul\":20652:20655   */\n      0x00\n        /* \"#utility.yul\":20673:20678   */\n      dup2\n        /* \"#utility.yul\":20666:20678   */\n      swap1\n      pop\n        /* \"#utility.yul\":20609:20684   */\n      swap2\n      swap1\n      pop\n      jump\t// out\n        /* \"#utility.yul\":20690:20959   */\n    tag_200:\n        /* \"#utility.yul\":20800:20839   */\n      tag_426\n        /* \"#utility.yul\":20831:20838   */\n      dup4\n        /* \"#utility.yul\":20800:20839   */\n      tag_198\n      jump\t// in\n    tag_426:\n        /* \"#utility.yul\":20861:20952   */\n      tag_427\n        /* \"#utility.yul\":20910:20951   */\n      tag_428\n        /* \"#utility.yul\":20934:20950   */\n      dup3\n        /* \"#utility.yul\":20910:20951   */\n      tag_199\n      jump\t// in\n    tag_428:\n        /* \"#utility.yul\":20902:20908   */\n      dup5\n        /* \"#utility.yul\":20895:20899   */\n      dup5\n        /* \"#utility.yul\":20889:20900   */\n      sload\n        /* \"#utility.yul\":20861:20952   */\n      tag_197\n      jump\t// in\n    tag_427:\n        /* \"#utility.yul\":20855:20859   */\n      dup3\n        /* \"#utility.yul\":20848:20953   */\n      sstore\n        /* \"#utility.yul\":20766:20959   */\n      pop\n        /* \"#utility.yul\":20690:20959   */\n      pop\n      pop\n      pop\n      jump\t// out\n        /* \"#utility.yul\":20965:21038   */\n    tag_201:\n        /* \"#utility.yul\":21010:21013   */\n      0x00\n        /* \"#utility.yul\":20965:21038   */\n      swap1\n      jump\t// out\n        /* \"#utility.yul\":21044:21233   */\n    tag_202:\n        /* \"#utility.yul\":21121:21153   */\n      tag_431\n      tag_201\n      jump\t// in\n    tag_431:\n        /* \"#utility.yul\":21162:21227   */\n      tag_432\n        /* \"#utility.yul\":21220:21226   */\n      dup2\n        /* \"#utility.yul\":21212:21218   */\n      dup5\n        /* \"#utility.yul\":21206:21210   */\n      dup5\n        /* \"#utility.yul\":21162:21227   */\n      tag_200\n      jump\t// in\n    tag_432:\n        /* \"#utility.yul\":21097:21233   */\n      pop\n        /* \"#utility.yul\":21044:21233   */\n      pop\n      pop\n      jump\t// out\n        /* \"#utility.yul\":21239:21425   */\n    tag_203:\n        /* \"#utility.yul\":21299:21419   */\n    tag_434:\n        /* \"#utility.yul\":21316:21319   */\n      dup2\n        /* \"#utility.yul\":21309:21314   */\n      dup2\n        /* \"#utility.yul\":21306:21320   */\n      lt\n        /* \"#utility.yul\":21299:21419   */\n      iszero\n      tag_436\n      jumpi\n        /* \"#utility.yul\":21370:21409   */\n      tag_437\n        /* \"#utility.yul\":21407:21408   */\n      0x00\n        /* \"#utility.yul\":21400:21405   */\n      dup3\n        /* \"#utility.yul\":21370:21409   */\n      tag_202\n      jump\t// in\n    tag_437:\n        /* \"#utility.yul\":21343:21344   */\n      0x01\n        /* \"#utility.yul\":21336:21341   */\n      dup2\n        /* \"#utility.yul\":21332:21345   */\n      add\n        /* \"#utility.yul\":21323:21345   */\n      swap1\n      pop\n        /* \"#utility.yul\":21299:21419   */\n      jump(tag_434)\n    tag_436:\n        /* \"#utility.yul\":21239:21425   */\n      pop\n      pop\n      jump\t// out\n        /* \"#utility.yul\":21431:21972   */\n    tag_204:\n        /* \"#utility.yul\":21531:21533   */\n      0x1f\n        /* \"#utility.yul\":21526:21529   */\n      dup3\n        /* \"#utility.yul\":21523:21534   */\n      gt\n        /* \"#utility.yul\":21520:21965   */\n      iszero\n      tag_439\n      jumpi\n        /* \"#utility.yul\":21565:21602   */\n      tag_440\n        /* \"#utility.yul\":21596:21601   */\n      dup2\n        /* \"#utility.yul\":21565:21602   */\n      tag_194\n      jump\t// in\n    tag_440:\n        /* \"#utility.yul\":21648:21677   */\n      tag_441\n        /* \"#utility.yul\":21666:21676   */\n      dup5\n        /* \"#utility.yul\":21648:21677   */\n      tag_195\n      jump\t// in\n    tag_441:\n        /* \"#utility.yul\":21638:21646   */\n      dup2\n        /* \"#utility.yul\":21634:21678   */\n      add\n        /* \"#utility.yul\":21831:21833   */\n      0x20\n        /* \"#utility.yul\":21819:21829   */\n      dup6\n        /* \"#utility.yul\":21816:21834   */\n      lt\n        /* \"#utility.yul\":21813:21862   */\n      iszero\n      tag_442\n      jumpi\n        /* \"#utility.yul\":21852:21860   */\n      dup2\n        /* \"#utility.yul\":21837:21860   */\n      swap1\n      pop\n        /* \"#utility.yul\":21813:21862   */\n    tag_442:\n        /* \"#utility.yul\":21875:21955   */\n      tag_443\n        /* \"#utility.yul\":21931:21953   */\n      tag_444\n        /* \"#utility.yul\":21949:21952   */\n      dup6\n        /* \"#utility.yul\":21931:21953   */\n      tag_195\n      jump\t// in\n    tag_444:\n        /* \"#utility.yul\":21921:21929   */\n      dup4\n        /* \"#utility.yul\":21917:21954   */\n      add\n        /* \"#utility.yul\":21904:21915   */\n      dup3\n        /* \"#utility.yul\":21875:21955   */\n      tag_203\n      jump\t// in\n    tag_443:\n        /* \"#utility.yul\":21535:21965   */\n      pop\n      pop\n        /* \"#utility.yul\":21520:21965   */\n    tag_439:\n        /* \"#utility.yul\":21431:21972   */\n      pop\n      pop\n      pop\n      jump\t// out\n        /* \"#utility.yul\":21978:22095   */\n    tag_205:\n        /* \"#utility.yul\":22032:22040   */\n      0x00\n        /* \"#utility.yul\":22082:22087   */\n      dup3\n        /* \"#utility.yul\":22076:22080   */\n      dup3\n        /* \"#utility.yul\":22072:22088   */\n      shr\n        /* \"#utility.yul\":22051:22088   */\n      swap1\n      pop\n        /* \"#utility.yul\":21978:22095   */\n      swap3\n      swap2\n      pop\n      pop\n      jump\t// out\n        /* \"#utility.yul\":22101:22270   */\n    tag_206:\n        /* \"#utility.yul\":22145:22151   */\n      0x00\n        /* \"#utility.yul\":22178:22229   */\n      tag_447\n        /* \"#utility.yul\":22226:22227   */\n      0x00\n        /* \"#utility.yul\":22222:22228   */\n      not\n        /* \"#utility.yul\":22214:22219   */\n      dup5\n        /* \"#utility.yul\":22211:22212   */\n      0x08\n        /* \"#utility.yul\":22207:22220   */\n      mul\n        /* \"#utility.yul\":22178:22229   */\n      tag_205\n      jump\t// in\n    tag_447:\n        /* \"#utility.yul\":22174:22230   */\n      not\n        /* \"#utility.yul\":22259:22263   */\n      dup1\n        /* \"#utility.yul\":22253:22257   */\n      dup4\n        /* \"#utility.yul\":22249:22264   */\n      and\n        /* \"#utility.yul\":22239:22264   */\n      swap2\n      pop\n        /* \"#utility.yul\":22152:22270   */\n      pop\n        /* \"#utility.yul\":22101:22270   */\n      swap3\n      swap2\n      pop\n      pop\n      jump\t// out\n        /* \"#utility.yul\":22275:22570   */\n    tag_207:\n        /* \"#utility.yul\":22351:22355   */\n      0x00\n        /* \"#utility.yul\":22497:22526   */\n      tag_449\n        /* \"#utility.yul\":22522:22525   */\n      dup4\n        /* \"#utility.yul\":22516:22520   */\n      dup4\n        /* \"#utility.yul\":22497:22526   */\n      tag_206\n      jump\t// in\n    tag_449:\n        /* \"#utility.yul\":22489:22526   */\n      swap2\n      pop\n        /* \"#utility.yul\":22559:22562   */\n      dup3\n        /* \"#utility.yul\":22556:22557   */\n      0x02\n        /* \"#utility.yul\":22552:22563   */\n      mul\n        /* \"#utility.yul\":22546:22550   */\n      dup3\n        /* \"#utility.yul\":22543:22564   */\n      or\n        /* \"#utility.yul\":22535:22564   */\n      swap1\n      pop\n        /* \"#utility.yul\":22275:22570   */\n      swap3\n      swap2\n      pop\n      pop\n      jump\t// out\n        /* \"#utility.yul\":22575:23965   */\n    tag_120:\n        /* \"#utility.yul\":22690:22726   */\n      tag_451\n        /* \"#utility.yul\":22722:22725   */\n      dup3\n        /* \"#utility.yul\":22690:22726   */\n      tag_158\n      jump\t// in\n    tag_451:\n        /* \"#utility.yul\":22791:22809   */\n      0xffffffffffffffff\n        /* \"#utility.yul\":22783:22789   */\n      dup2\n        /* \"#utility.yul\":22780:22810   */\n      gt\n        /* \"#utility.yul\":22777:22833   */\n      iszero\n      tag_452\n      jumpi\n        /* \"#utility.yul\":22813:22831   */\n      tag_453\n      tag_94\n      jump\t// in\n    tag_453:\n        /* \"#utility.yul\":22777:22833   */\n    tag_452:\n        /* \"#utility.yul\":22857:22895   */\n      tag_454\n        /* \"#utility.yul\":22889:22893   */\n      dup3\n        /* \"#utility.yul\":22883:22894   */\n      sload\n        /* \"#utility.yul\":22857:22895   */\n      tag_62\n      jump\t// in\n    tag_454:\n        /* \"#utility.yul\":22942:23008   */\n      tag_455\n        /* \"#utility.yul\":23001:23007   */\n      dup3\n        /* \"#utility.yul\":22993:22999   */\n      dup3\n        /* \"#utility.yul\":22987:22991   */\n      dup6\n        /* \"#utility.yul\":22942:23008   */\n      tag_204\n      jump\t// in\n    tag_455:\n        /* \"#utility.yul\":23035:23036   */\n      0x00\n        /* \"#utility.yul\":23059:23063   */\n      0x20\n        /* \"#utility.yul\":23046:23063   */\n      swap1\n      pop\n        /* \"#utility.yul\":23091:23093   */\n      0x1f\n        /* \"#utility.yul\":23083:23089   */\n      dup4\n        /* \"#utility.yul\":23080:23094   */\n      gt\n        /* \"#utility.yul\":23108:23109   */\n      0x01\n        /* \"#utility.yul\":23103:23720   */\n      dup2\n      eq\n      tag_457\n      jumpi\n        /* \"#utility.yul\":23764:23765   */\n      0x00\n        /* \"#utility.yul\":23781:23787   */\n      dup5\n        /* \"#utility.yul\":23778:23855   */\n      iszero\n      tag_458\n      jumpi\n        /* \"#utility.yul\":23830:23839   */\n      dup3\n        /* \"#utility.yul\":23825:23828   */\n      dup8\n        /* \"#utility.yul\":23821:23840   */\n      add\n        /* \"#utility.yul\":23815:23841   */\n      mload\n        /* \"#utility.yul\":23806:23841   */\n      swap1\n      pop\n        /* \"#utility.yul\":23778:23855   */\n    tag_458:\n        /* \"#utility.yul\":23881:23948   */\n      tag_459\n        /* \"#utility.yul\":23941:23947   */\n      dup6\n        /* \"#utility.yul\":23934:23939   */\n      dup3\n        /* \"#utility.yul\":23881:23948   */\n      tag_207\n      jump\t// in\n    tag_459:\n        /* \"#utility.yul\":23875:23879   */\n      dup7\n        /* \"#utility.yul\":23868:23949   */\n      sstore\n        /* \"#utility.yul\":23737:23959   */\n      pop\n        /* \"#utility.yul\":23073:23959   */\n      jump(tag_456)\n        /* \"#utility.yul\":23103:23720   */\n    tag_457:\n        /* \"#utility.yul\":23155:23159   */\n      0x1f\n        /* \"#utility.yul\":23151:23160   */\n      not\n        /* \"#utility.yul\":23143:23149   */\n      dup5\n        /* \"#utility.yul\":23139:23161   */\n      and\n        /* \"#utility.yul\":23189:23225   */\n      tag_460\n        /* \"#utility.yul\":23220:23224   */\n      dup7\n        /* \"#utility.yul\":23189:23225   */\n      tag_194\n      jump\t// in\n    tag_460:\n        /* \"#utility.yul\":23247:23248   */\n      0x00\n        /* \"#utility.yul\":23261:23469   */\n    tag_461:\n        /* \"#utility.yul\":23275:23282   */\n      dup3\n        /* \"#utility.yul\":23272:23273   */\n      dup2\n        /* \"#utility.yul\":23269:23283   */\n      lt\n        /* \"#utility.yul\":23261:23469   */\n      iszero\n      tag_463\n      jumpi\n        /* \"#utility.yul\":23354:23363   */\n      dup5\n        /* \"#utility.yul\":23349:23352   */\n      dup10\n        /* \"#utility.yul\":23345:23364   */\n      add\n        /* \"#utility.yul\":23339:23365   */\n      mload\n        /* \"#utility.yul\":23331:23337   */\n      dup3\n        /* \"#utility.yul\":23324:23366   */\n      sstore\n        /* \"#utility.yul\":23405:23406   */\n      0x01\n        /* \"#utility.yul\":23397:23403   */\n      dup3\n        /* \"#utility.yul\":23393:23407   */\n      add\n        /* \"#utility.yul\":23383:23407   */\n      swap2\n      pop\n        /* \"#utility.yul\":23452:23454   */\n      0x20\n        /* \"#utility.yul\":23441:23450   */\n      dup6\n        /* \"#utility.yul\":23437:23455   */\n      add\n        /* \"#utility.yul\":23424:23455   */\n      swap5\n      pop\n        /* \"#utility.yul\":23298:23302   */\n      0x20\n        /* \"#utility.yul\":23295:23296   */\n      dup2\n        /* \"#utility.yul\":23291:23303   */\n      add\n        /* \"#utility.yul\":23286:23303   */\n      swap1\n      pop\n        /* \"#utility.yul\":23261:23469   */\n      jump(tag_461)\n    tag_463:\n        /* \"#utility.yul\":23497:23503   */\n      dup7\n        /* \"#utility.yul\":23488:23495   */\n      dup4\n        /* \"#utility.yul\":23485:23504   */\n      lt\n        /* \"#utility.yul\":23482:23661   */\n      iszero\n      tag_464\n      jumpi\n        /* \"#utility.yul\":23555:23564   */\n      dup5\n        /* \"#utility.yul\":23550:23553   */\n      dup10\n        /* \"#utility.yul\":23546:23565   */\n      add\n        /* \"#utility.yul\":23540:23566   */\n      mload\n        /* \"#utility.yul\":23598:23646   */\n      tag_465\n        /* \"#utility.yul\":23640:23644   */\n      0x1f\n        /* \"#utility.yul\":23632:23638   */\n      dup10\n        /* \"#utility.yul\":23628:23645   */\n      and\n        /* \"#utility.yul\":23617:23626   */\n      dup3\n        /* \"#utility.yul\":23598:23646   */\n      tag_206\n      jump\t// in\n    tag_465:\n        /* \"#utility.yul\":23590:23596   */\n      dup4\n        /* \"#utility.yul\":23583:23647   */\n      sstore\n        /* \"#utility.yul\":23505:23661   */\n      pop\n        /* \"#utility.yul\":23482:23661   */\n    tag_464:\n        /* \"#utility.yul\":23707:23708   */\n      0x01\n        /* \"#utility.yul\":23703:23704   */\n      0x02\n        /* \"#utility.yul\":23695:23701   */\n      dup9\n        /* \"#utility.yul\":23691:23705   */\n      mul\n        /* \"#utility.yul\":23687:23709   */\n      add\n        /* \"#utility.yul\":23681:23685   */\n      dup9\n        /* \"#utility.yul\":23674:23710   */\n      sstore\n        /* \"#utility.yul\":23110:23720   */\n      pop\n      pop\n      pop\n        /* \"#utility.yul\":23073:23959   */\n    tag_456:\n      pop\n        /* \"#utility.yul\":22665:23965   */\n      pop\n      pop\n      pop\n        /* \"#utility.yul\":22575:23965   */\n      pop\n      pop\n      jump\t// out\n        /* \"#utility.yul\":23971:24932   */\n    tag_122:\n        /* \"#utility.yul\":24244:24248   */\n      0x00\n        /* \"#utility.yul\":24282:24285   */\n      0xe0\n        /* \"#utility.yul\":24271:24280   */\n      dup3\n        /* \"#utility.yul\":24267:24286   */\n      add\n        /* \"#utility.yul\":24259:24286   */\n      swap1\n      pop\n        /* \"#utility.yul\":24296:24367   */\n      tag_467\n        /* \"#utility.yul\":24364:24365   */\n      0x00\n        /* \"#utility.yul\":24353:24362   */\n      dup4\n        /* \"#utility.yul\":24349:24366   */\n      add\n        /* \"#utility.yul\":24340:24346   */\n      dup11\n        /* \"#utility.yul\":24296:24367   */\n      tag_178\n      jump\t// in\n    tag_467:\n        /* \"#utility.yul\":24414:24423   */\n      dup2\n        /* \"#utility.yul\":24408:24412   */\n      dup2\n        /* \"#utility.yul\":24404:24424   */\n      sub\n        /* \"#utility.yul\":24399:24401   */\n      0x20\n        /* \"#utility.yul\":24388:24397   */\n      dup4\n        /* \"#utility.yul\":24384:24402   */\n      add\n        /* \"#utility.yul\":24377:24425   */\n      mstore\n        /* \"#utility.yul\":24442:24518   */\n      tag_468\n        /* \"#utility.yul\":24513:24517   */\n      dup2\n        /* \"#utility.yul\":24504:24510   */\n      dup10\n        /* \"#utility.yul\":24442:24518   */\n      tag_162\n      jump\t// in\n    tag_468:\n        /* \"#utility.yul\":24434:24518   */\n      swap1\n      pop\n        /* \"#utility.yul\":24528:24600   */\n      tag_469\n        /* \"#utility.yul\":24596:24598   */\n      0x40\n        /* \"#utility.yul\":24585:24594   */\n      dup4\n        /* \"#utility.yul\":24581:24599   */\n      add\n        /* \"#utility.yul\":24572:24578   */\n      dup9\n        /* \"#utility.yul\":24528:24600   */\n      tag_155\n      jump\t// in\n    tag_469:\n        /* \"#utility.yul\":24610:24682   */\n      tag_470\n        /* \"#utility.yul\":24678:24680   */\n      0x60\n        /* \"#utility.yul\":24667:24676   */\n      dup4\n        /* \"#utility.yul\":24663:24681   */\n      add\n        /* \"#utility.yul\":24654:24660   */\n      dup8\n        /* \"#utility.yul\":24610:24682   */\n      tag_147\n      jump\t// in\n    tag_470:\n        /* \"#utility.yul\":24692:24765   */\n      tag_471\n        /* \"#utility.yul\":24760:24763   */\n      0x80\n        /* \"#utility.yul\":24749:24758   */\n      dup4\n        /* \"#utility.yul\":24745:24764   */\n      add\n        /* \"#utility.yul\":24736:24742   */\n      dup7\n        /* \"#utility.yul\":24692:24765   */\n      tag_155\n      jump\t// in\n    tag_471:\n        /* \"#utility.yul\":24775:24848   */\n      tag_472\n        /* \"#utility.yul\":24843:24846   */\n      0xa0\n        /* \"#utility.yul\":24832:24841   */\n      dup4\n        /* \"#utility.yul\":24828:24847   */\n      add\n        /* \"#utility.yul\":24819:24825   */\n      dup6\n        /* \"#utility.yul\":24775:24848   */\n      tag_155\n      jump\t// in\n    tag_472:\n        /* \"#utility.yul\":24858:24925   */\n      tag_473\n        /* \"#utility.yul\":24920:24923   */\n      0xc0\n        /* \"#utility.yul\":24909:24918   */\n      dup4\n        /* \"#utility.yul\":24905:24924   */\n      add\n        /* \"#utility.yul\":24896:24902   */\n      dup5\n        /* \"#utility.yul\":24858:24925   */\n      tag_157\n      jump\t// in\n    tag_473:\n        /* \"#utility.yul\":23971:24932   */\n      swap9\n      swap8\n      pop\n      pop\n      pop\n      pop\n      pop\n      pop\n      pop\n      pop\n      jump\t// out\n        /* \"#utility.yul\":24938:25163   */\n    tag_208:\n        /* \"#utility.yul\":25078:25112   */\n      0x4f776e61626c653a206e6577206f776e657220697320746865207a65726f2061\n        /* \"#utility.yul\":25074:25075   */\n      0x00\n        /* \"#utility.yul\":25066:25072   */\n      dup3\n        /* \"#utility.yul\":25062:25076   */\n      add\n        /* \"#utility.yul\":25055:25113   */\n      mstore\n        /* \"#utility.yul\":25147:25155   */\n      0x6464726573730000000000000000000000000000000000000000000000000000\n        /* \"#utility.yul\":25142:25144   */\n      0x20\n        /* \"#utility.yul\":25134:25140   */\n      dup3\n        /* \"#utility.yul\":25130:25145   */\n      add\n        /* \"#utility.yul\":25123:25156   */\n      mstore\n        /* \"#utility.yul\":24938:25163   */\n      pop\n      jump\t// out\n        /* \"#utility.yul\":25169:25535   */\n    tag_209:\n        /* \"#utility.yul\":25311:25314   */\n      0x00\n        /* \"#utility.yul\":25332:25399   */\n      tag_476\n        /* \"#utility.yul\":25396:25398   */\n      0x26\n        /* \"#utility.yul\":25391:25394   */\n      dup4\n        /* \"#utility.yul\":25332:25399   */\n      tag_179\n      jump\t// in\n    tag_476:\n        /* \"#utility.yul\":25325:25399   */\n      swap2\n      pop\n        /* \"#utility.yul\":25408:25501   */\n      tag_477\n        /* \"#utility.yul\":25497:25500   */\n      dup3\n        /* \"#utility.yul\":25408:25501   */\n      tag_208\n      jump\t// in\n    tag_477:\n        /* \"#utility.yul\":25526:25528   */\n      0x40\n        /* \"#utility.yul\":25521:25524   */\n      dup3\n        /* \"#utility.yul\":25517:25529   */\n      add\n        /* \"#utility.yul\":25510:25529   */\n      swap1\n      pop\n        /* \"#utility.yul\":25169:25535   */\n      swap2\n      swap1\n      pop\n      jump\t// out\n        /* \"#utility.yul\":25541:25960   */\n    tag_128:\n        /* \"#utility.yul\":25707:25711   */\n      0x00\n        /* \"#utility.yul\":25745:25747   */\n      0x20\n        /* \"#utility.yul\":25734:25743   */\n      dup3\n        /* \"#utility.yul\":25730:25748   */\n      add\n        /* \"#utility.yul\":25722:25748   */\n      swap1\n      pop\n        /* \"#utility.yul\":25794:25803   */\n      dup2\n        /* \"#utility.yul\":25788:25792   */\n      dup2\n        /* \"#utility.yul\":25784:25804   */\n      sub\n        /* \"#utility.yul\":25780:25781   */\n      0x00\n        /* \"#utility.yul\":25769:25778   */\n      dup4\n        /* \"#utility.yul\":25765:25782   */\n      add\n        /* \"#utility.yul\":25758:25805   */\n      mstore\n        /* \"#utility.yul\":25822:25953   */\n      tag_479\n        /* \"#utility.yul\":25948:25952   */\n      dup2\n        /* \"#utility.yul\":25822:25953   */\n      tag_209\n      jump\t// in\n    tag_479:\n        /* \"#utility.yul\":25814:25953   */\n      swap1\n      pop\n        /* \"#utility.yul\":25541:25960   */\n      swap2\n      swap1\n      pop\n      jump\t// out\n        /* \"#utility.yul\":25966:26148   */\n    tag_210:\n        /* \"#utility.yul\":26106:26140   */\n      0x4f776e61626c653a2063616c6c6572206973206e6f7420746865206f776e6572\n        /* \"#utility.yul\":26102:26103   */\n      0x00\n        /* \"#utility.yul\":26094:26100   */\n      dup3\n        /* \"#utility.yul\":26090:26104   */\n      add\n        /* \"#utility.yul\":26083:26141   */\n      mstore\n        /* \"#utility.yul\":25966:26148   */\n      pop\n      jump\t// out\n        /* \"#utility.yul\":26154:26520   */\n    tag_211:\n        /* \"#utility.yul\":26296:26299   */\n      0x00\n        /* \"#utility.yul\":26317:26384   */\n      tag_482\n        /* \"#utility.yul\":26381:26383   */\n      0x20\n        /* \"#utility.yul\":26376:26379   */\n      dup4\n        /* \"#utility.yul\":26317:26384   */\n      tag_179\n      jump\t// in\n    tag_482:\n        /* \"#utility.yul\":26310:26384   */\n      swap2\n      pop\n        /* \"#utility.yul\":26393:26486   */\n      tag_483\n        /* \"#utility.yul\":26482:26485   */\n      dup3\n        /* \"#utility.yul\":26393:26486   */\n      tag_210\n      jump\t// in\n    tag_483:\n        /* \"#utility.yul\":26511:26513   */\n      0x20\n        /* \"#utility.yul\":26506:26509   */\n      dup3\n        /* \"#utility.yul\":26502:26514   */\n      add\n        /* \"#utility.yul\":26495:26514   */\n      swap1\n      pop\n        /* \"#utility.yul\":26154:26520   */\n      swap2\n      swap1\n      pop\n      jump\t// out\n        /* \"#utility.yul\":26526:26945   */\n    tag_137:\n        /* \"#utility.yul\":26692:26696   */\n      0x00\n        /* \"#utility.yul\":26730:26732   */\n      0x20\n        /* \"#utility.yul\":26719:26728   */\n      dup3\n        /* \"#utility.yul\":26715:26733   */\n      add\n        /* \"#utility.yul\":26707:26733   */\n      swap1\n      pop\n        /* \"#utility.yul\":26779:26788   */\n      dup2\n        /* \"#utility.yul\":26773:26777   */\n      dup2\n        /* \"#utility.yul\":26769:26789   */\n      sub\n        /* \"#utility.yul\":26765:26766   */\n      0x00\n        /* \"#utility.yul\":26754:26763   */\n      dup4\n        /* \"#utility.yul\":26750:26767   */\n      add\n        /* \"#utility.yul\":26743:26790   */\n      mstore\n        /* \"#utility.yul\":26807:26938   */\n      tag_485\n        /* \"#utility.yul\":26933:26937   */\n      dup2\n        /* \"#utility.yul\":26807:26938   */\n      tag_211\n      jump\t// in\n    tag_485:\n        /* \"#utility.yul\":26799:26938   */\n      swap1\n      pop\n        /* \"#utility.yul\":26526:26945   */\n      swap2\n      swap1\n      pop\n      jump\t// out\n\n    auxdata: 0xa2646970667358221220d66b5725440546839fb9d5f5c95af2e3b44c52113d7123a853bf8fd562f61b6764736f6c634300080f0033\n}\n",
				"bytecode": {
					"linkReferences": {},
					"object": "60a06040523480156200001157600080fd5b5060405162001ba438038062001ba48339818101604052810190620000379190620001c8565b620000576200004b6200009260201b60201c565b6200009a60201b60201c565b8073ffffffffffffffffffffffffffffffffffffffff1660808173ffffffffffffffffffffffffffffffffffffffff168152505050620001fa565b600033905090565b60008060009054906101000a900473ffffffffffffffffffffffffffffffffffffffff169050816000806101000a81548173ffffffffffffffffffffffffffffffffffffffff021916908373ffffffffffffffffffffffffffffffffffffffff1602179055508173ffffffffffffffffffffffffffffffffffffffff168173ffffffffffffffffffffffffffffffffffffffff167f8be0079c531659141344cd1fd0a4f28419497f9722a3daafe3b4186f6b6457e060405160405180910390a35050565b600080fd5b600073ffffffffffffffffffffffffffffffffffffffff82169050919050565b6000620001908262000163565b9050919050565b620001a28162000183565b8114620001ae57600080fd5b50565b600081519050620001c28162000197565b92915050565b600060208284031215620001e157620001e06200015e565b5b6000620001f184828501620001b1565b91505092915050565b60805161198062000224600039600081816101e20152818161037a01526105c101526119806000f3fe608060405234801561001057600080fd5b506004361061009e5760003560e01c8063bd2e454a11610066578063bd2e454a14610140578063c4bd81911461015c578063de0ea61214610178578063f2fde38b14610194578063f7b637bb146101b05761009e565b80635bd9e299146100a3578063715018a6146100c15780638da5cb5b146100cb57806395addb90146100e9578063b329504f14610124575b600080fd5b6100ab6101e0565b6040516100b89190610b6b565b60405180910390f35b6100c9610204565b005b6100d3610218565b6040516100e09190610ba7565b60405180910390f35b61010360048036038101906100fe9190610c0c565b610241565b60405161011b9c9b9a99989796959493929190610d06565b60405180910390f35b61013e60048036038101906101399190610df3565b610370565b005b61015a60048036038101906101559190610fc0565b610444565b005b61017660048036038101906101719190610df3565b61046f565b005b610192600480360381019061018d9190611092565b61068b565b005b6101ae60048036038101906101a99190611150565b6108fd565b005b6101ca60048036038101906101c59190610c0c565b610980565b6040516101d7919061117d565b60405180910390f35b7f000000000000000000000000000000000000000000000000000000000000000081565b61020c6109a2565b6102166000610a20565b565b60008060009054906101000a900473ffffffffffffffffffffffffffffffffffffffff16905090565b60016020528060005260406000206000915090508060000154908060010154908060020154908060030154908060040154908060050154908060060154908060070160009054906101000a900460ff16908060070160019054906101000a900460ff16908060070160029054906101000a900460ff16908060070160039054906101000a900473ffffffffffffffffffffffffffffffffffffffff16908060080180546102ed906111c7565b80601f0160208091040260200160405190810160405280929190818152602001828054610319906111c7565b80156103665780601f1061033b57610100808354040283529160200191610366565b820191906000526020600020905b81548152906001019060200180831161034957829003601f168201915b505050505090508c565b6103786109a2565b7f000000000000000000000000000000000000000000000000000000000000000073ffffffffffffffffffffffffffffffffffffffff1663d96ee7543084846040518463ffffffff1660e01b81526004016103d593929190611207565b600060405180830381600087803b1580156103ef57600080fd5b505af1158015610403573d6000803e3d6000fd5b505050507f5bd1f2593524341b2e3186f40ff9de45976455b8580c80deae7e3a6e1387e774828260405161043892919061123e565b60405180910390a15050565b61044c6109a2565b61045b8888888888888861068b565b6104658882610370565b5050505050505050565b6104776109a2565b61048082610980565b6104bf576040517f08c379a00000000000000000000000000000000000000000000000000000000081526004016104b6906112c4565b60405180910390fd5b60016000838152602001908152602001600020600101544210156104e257600080fd5b600060016000848152602001908152602001600020905060018214806105085750600082145b61051157600080fd5b4381600401819055508181600001819055506000600267ffffffffffffffff8111156105405761053f610e3d565b5b60405190808252806020026020018201604052801561056e5781602001602082028036833780820191505090505b5090506001818481518110610586576105856112e4565b5b6020026020010181815250506000818460016105a29190611342565b815181106105b3576105b26112e4565b5b6020026020010181815250507f000000000000000000000000000000000000000000000000000000000000000073ffffffffffffffffffffffffffffffffffffffff1663c49298ac85836040518363ffffffff1660e01b815260040161061a929190611434565b600060405180830381600087803b15801561063457600080fd5b505af1158015610648573d6000803e3d6000fd5b505050507fb3183c4422f634e5730744ddd8285ac3123ca1ab9582adf68a141630c232d721848460405161067d92919061123e565b60405180910390a150505050565b6106936109a2565b61069c87610980565b156106dc576040517f08c379a00000000000000000000000000000000000000000000000000000000081526004016106d3906114b0565b60405180910390fd5b6000851161071f576040517f08c379a000000000000000000000000000000000000000000000000000000000815260040161071690611542565b60405180910390fd5b6040518061018001604052806103e8815260200186815260200184815260200183815260200160008152602001600081526020016000815260200182151581526020016000151581526020016000151581526020018573ffffffffffffffffffffffffffffffffffffffff1681526020018781525060016000898152602001908152602001600020600082015181600001556020820151816001015560408201518160020155606082015181600301556080820151816004015560a0820151816005015560c0820151816006015560e08201518160070160006101000a81548160ff0219169083151502179055506101008201518160070160016101000a81548160ff0219169083151502179055506101208201518160070160026101000a81548160ff0219169083151502179055506101408201518160070160036101000a81548173ffffffffffffffffffffffffffffffffffffffff021916908373ffffffffffffffffffffffffffffffffffffffff1602179055506101608201518160080190816108ad9190611704565b509050507fd5c72ec44c541ed614eaa50893d69a3391e85723fd2b7c078275329029caedc6878787878787876040516108ec97969594939291906117d6565b60405180910390a150505050505050565b6109056109a2565b600073ffffffffffffffffffffffffffffffffffffffff168173ffffffffffffffffffffffffffffffffffffffff1603610974576040517f08c379a000000000000000000000000000000000000000000000000000000000815260040161096b906118be565b60405180910390fd5b61097d81610a20565b50565b6000806001600084815260200190815260200160002060010154119050919050565b6109aa610ae4565b73ffffffffffffffffffffffffffffffffffffffff166109c8610218565b73ffffffffffffffffffffffffffffffffffffffff1614610a1e576040517f08c379a0000000000000000000000000000000000000000000000000000000008152600401610a159061192a565b60405180910390fd5b565b60008060009054906101000a900473ffffffffffffffffffffffffffffffffffffffff169050816000806101000a81548173ffffffffffffffffffffffffffffffffffffffff021916908373ffffffffffffffffffffffffffffffffffffffff1602179055508173ffffffffffffffffffffffffffffffffffffffff168173ffffffffffffffffffffffffffffffffffffffff167f8be0079c531659141344cd1fd0a4f28419497f9722a3daafe3b4186f6b6457e060405160405180910390a35050565b600033905090565b600073ffffffffffffffffffffffffffffffffffffffff82169050919050565b6000819050919050565b6000610b31610b2c610b2784610aec565b610b0c565b610aec565b9050919050565b6000610b4382610b16565b9050919050565b6000610b5582610b38565b9050919050565b610b6581610b4a565b82525050565b6000602082019050610b806000830184610b5c565b92915050565b6000610b9182610aec565b9050919050565b610ba181610b86565b82525050565b6000602082019050610bbc6000830184610b98565b92915050565b6000604051905090565b600080fd5b600080fd5b6000819050919050565b610be981610bd6565b8114610bf457600080fd5b50565b600081359050610c0681610be0565b92915050565b600060208284031215610c2257610c21610bcc565b5b6000610c3084828501610bf7565b91505092915050565b6000819050919050565b610c4c81610c39565b82525050565b60008115159050919050565b610c6781610c52565b82525050565b600081519050919050565b600082825260208201905092915050565b60005b83811015610ca7578082015181840152602081019050610c8c565b83811115610cb6576000848401525b50505050565b6000601f19601f8301169050919050565b6000610cd882610c6d565b610ce28185610c78565b9350610cf2818560208601610c89565b610cfb81610cbc565b840191505092915050565b600061018082019050610d1c600083018f610c43565b610d29602083018e610c43565b610d36604083018d610c43565b610d43606083018c610c43565b610d50608083018b610c43565b610d5d60a083018a610c43565b610d6a60c0830189610c43565b610d7760e0830188610c5e565b610d85610100830187610c5e565b610d93610120830186610c5e565b610da1610140830185610b98565b818103610160830152610db48184610ccd565b90509d9c50505050505050505050505050565b610dd081610c39565b8114610ddb57600080fd5b50565b600081359050610ded81610dc7565b92915050565b60008060408385031215610e0a57610e09610bcc565b5b6000610e1885828601610bf7565b9250506020610e2985828601610dde565b9150509250929050565b600080fd5b600080fd5b7f4e487b7100000000000000000000000000000000000000000000000000000000600052604160045260246000fd5b610e7582610cbc565b810181811067ffffffffffffffff82111715610e9457610e93610e3d565b5b80604052505050565b6000610ea7610bc2565b9050610eb38282610e6c565b919050565b600067ffffffffffffffff821115610ed357610ed2610e3d565b5b610edc82610cbc565b9050602081019050919050565b82818337600083830152505050565b6000610f0b610f0684610eb8565b610e9d565b905082815260208101848484011115610f2757610f26610e38565b5b610f32848285610ee9565b509392505050565b600082601f830112610f4f57610f4e610e33565b5b8135610f5f848260208601610ef8565b91505092915050565b610f7181610b86565b8114610f7c57600080fd5b50565b600081359050610f8e81610f68565b92915050565b610f9d81610c52565b8114610fa857600080fd5b50565b600081359050610fba81610f94565b92915050565b600080600080600080600080610100898b031215610fe157610fe0610bcc565b5b6000610fef8b828c01610bf7565b985050602089013567ffffffffffffffff8111156110105761100f610bd1565b5b61101c8b828c01610f3a565b975050604061102d8b828c01610dde565b965050606061103e8b828c01610f7f565b955050608061104f8b828c01610dde565b94505060a06110608b828c01610dde565b93505060c06110718b828c01610fab565b92505060e06110828b828c01610dde565b9150509295985092959890939650565b600080600080600080600060e0888a0312156110b1576110b0610bcc565b5b60006110bf8a828b01610bf7565b975050602088013567ffffffffffffffff8111156110e0576110df610bd1565b5b6110ec8a828b01610f3a565b96505060406110fd8a828b01610dde565b955050606061110e8a828b01610f7f565b945050608061111f8a828b01610dde565b93505060a06111308a828b01610dde565b92505060c06111418a828b01610fab565b91505092959891949750929550565b60006020828403121561116657611165610bcc565b5b600061117484828501610f7f565b91505092915050565b60006020820190506111926000830184610c5e565b92915050565b7f4e487b7100000000000000000000000000000000000000000000000000000000600052602260045260246000fd5b600060028204905060018216806111df57607f821691505b6020821081036111f2576111f1611198565b5b50919050565b61120181610bd6565b82525050565b600060608201905061121c6000830186610b98565b61122960208301856111f8565b6112366040830184610c43565b949350505050565b600060408201905061125360008301856111f8565b6112606020830184610c43565b9392505050565b600082825260208201905092915050565b7f5175657374696f6e206d75737420626520696e697469616c697a656400000000600082015250565b60006112ae601c83611267565b91506112b982611278565b602082019050919050565b600060208201905081810360008301526112dd816112a1565b9050919050565b7f4e487b7100000000000000000000000000000000000000000000000000000000600052603260045260246000fd5b7f4e487b7100000000000000000000000000000000000000000000000000000000600052601160045260246000fd5b600061134d82610c39565b915061135883610c39565b92508282101561136b5761136a611313565b5b828203905092915050565b600081519050919050565b600082825260208201905092915050565b6000819050602082019050919050565b6113ab81610c39565b82525050565b60006113bd83836113a2565b60208301905092915050565b6000602082019050919050565b60006113e182611376565b6113eb8185611381565b93506113f683611392565b8060005b8381101561142757815161140e88826113b1565b9750611419836113c9565b9250506001810190506113fa565b5085935050505092915050565b600060408201905061144960008301856111f8565b818103602083015261145b81846113d6565b90509392505050565b7f5175657374696f6e20686173206265656e20696e697469616c697a6564000000600082015250565b600061149a601d83611267565b91506114a582611464565b602082019050919050565b600060208201905081810360008301526114c98161148d565b9050919050565b7f496e76616c6964207265736f6c7574696f6e2074696d652c206d75737420626560008201527f2067726561746572207468616e20300000000000000000000000000000000000602082015250565b600061152c602f83611267565b9150611537826114d0565b604082019050919050565b6000602082019050818103600083015261155b8161151f565b9050919050565b60008190508160005260206000209050919050565b60006020601f8301049050919050565b600082821b905092915050565b6000600883026115c47fffffffffffffffffffffffffffffffffffffffffffffffffffffffffffffffff82611587565b6115ce8683611587565b95508019841693508086168417925050509392505050565b60006116016115fc6115f784610c39565b610b0c565b610c39565b9050919050565b6000819050919050565b61161b836115e6565b61162f61162782611608565b848454611594565b825550505050565b600090565b611644611637565b61164f818484611612565b505050565b5b818110156116735761166860008261163c565b600181019050611655565b5050565b601f8211156116b85761168981611562565b61169284611577565b810160208510156116a1578190505b6116b56116ad85611577565b830182611654565b50505b505050565b600082821c905092915050565b60006116db600019846008026116bd565b1980831691505092915050565b60006116f483836116ca565b9150826002028217905092915050565b61170d82610c6d565b67ffffffffffffffff81111561172657611725610e3d565b5b61173082546111c7565b61173b828285611677565b600060209050601f83116001811461176e576000841561175c578287015190505b61176685826116e8565b8655506117ce565b601f19841661177c86611562565b60005b828110156117a45784890151825560018201915060208501945060208101905061177f565b868310156117c157848901516117bd601f8916826116ca565b8355505b6001600288020188555050505b505050505050565b600060e0820190506117eb600083018a6111f8565b81810360208301526117fd8189610ccd565b905061180c6040830188610c43565b6118196060830187610b98565b6118266080830186610c43565b61183360a0830185610c43565b61184060c0830184610c5e565b98975050505050505050565b7f4f776e61626c653a206e6577206f776e657220697320746865207a65726f206160008201527f6464726573730000000000000000000000000000000000000000000000000000602082015250565b60006118a8602683611267565b91506118b38261184c565b604082019050919050565b600060208201905081810360008301526118d78161189b565b9050919050565b7f4f776e61626c653a2063616c6c6572206973206e6f7420746865206f776e6572600082015250565b6000611914602083611267565b915061191f826118de565b602082019050919050565b6000602082019050818103600083015261194381611907565b905091905056fea2646970667358221220d66b5725440546839fb9d5f5c95af2e3b44c52113d7123a853bf8fd562f61b6764736f6c634300080f0033",
					"opcodes": "PUSH1 0xA0 PUSH1 0x40 MSTORE CALLVALUE DUP1 ISZERO PUSH3 0x11 JUMPI PUSH1 0x0 DUP1 REVERT JUMPDEST POP PUSH1 0x40 MLOAD PUSH3 0x1BA4 CODESIZE SUB DUP1 PUSH3 0x1BA4 DUP4 CODECOPY DUP2 DUP2 ADD PUSH1 0x40 MSTORE DUP2 ADD SWAP1 PUSH3 0x37 SWAP2 SWAP1 PUSH3 0x1C8 JUMP JUMPDEST PUSH3 0x57 PUSH3 0x4B PUSH3 0x92 PUSH1 0x20 SHL PUSH1 0x20 SHR JUMP JUMPDEST PUSH3 0x9A PUSH1 0x20 SHL PUSH1 0x20 SHR JUMP JUMPDEST DUP1 PUSH20 0xFFFFFFFFFFFFFFFFFFFFFFFFFFFFFFFFFFFFFFFF AND PUSH1 0x80 DUP2 PUSH20 0xFFFFFFFFFFFFFFFFFFFFFFFFFFFFFFFFFFFFFFFF AND DUP2 MSTORE POP POP POP PUSH3 0x1FA JUMP JUMPDEST PUSH1 0x0 CALLER SWAP1 POP SWAP1 JUMP JUMPDEST PUSH1 0x0 DUP1 PUSH1 0x0 SWAP1 SLOAD SWAP1 PUSH2 0x100 EXP SWAP1 DIV PUSH20 0xFFFFFFFFFFFFFFFFFFFFFFFFFFFFFFFFFFFFFFFF AND SWAP1 POP DUP2 PUSH1 0x0 DUP1 PUSH2 0x100 EXP DUP2 SLOAD DUP2 PUSH20 0xFFFFFFFFFFFFFFFFFFFFFFFFFFFFFFFFFFFFFFFF MUL NOT AND SWAP1 DUP4 PUSH20 0xFFFFFFFFFFFFFFFFFFFFFFFFFFFFFFFFFFFFFFFF AND MUL OR SWAP1 SSTORE POP DUP2 PUSH20 0xFFFFFFFFFFFFFFFFFFFFFFFFFFFFFFFFFFFFFFFF AND DUP2 PUSH20 0xFFFFFFFFFFFFFFFFFFFFFFFFFFFFFFFFFFFFFFFF AND PUSH32 0x8BE0079C531659141344CD1FD0A4F28419497F9722A3DAAFE3B4186F6B6457E0 PUSH1 0x40 MLOAD PUSH1 0x40 MLOAD DUP1 SWAP2 SUB SWAP1 LOG3 POP POP JUMP JUMPDEST PUSH1 0x0 DUP1 REVERT JUMPDEST PUSH1 0x0 PUSH20 0xFFFFFFFFFFFFFFFFFFFFFFFFFFFFFFFFFFFFFFFF DUP3 AND SWAP1 POP SWAP2 SWAP1 POP JUMP JUMPDEST PUSH1 0x0 PUSH3 0x190 DUP3 PUSH3 0x163 JUMP JUMPDEST SWAP1 POP SWAP2 SWAP1 POP JUMP JUMPDEST PUSH3 0x1A2 DUP2 PUSH3 0x183 JUMP JUMPDEST DUP2 EQ PUSH3 0x1AE JUMPI PUSH1 0x0 DUP1 REVERT JUMPDEST POP JUMP JUMPDEST PUSH1 0x0 DUP2 MLOAD SWAP1 POP PUSH3 0x1C2 DUP2 PUSH3 0x197 JUMP JUMPDEST SWAP3 SWAP2 POP POP JUMP JUMPDEST PUSH1 0x0 PUSH1 0x20 DUP3 DUP5 SUB SLT ISZERO PUSH3 0x1E1 JUMPI PUSH3 0x1E0 PUSH3 0x15E JUMP JUMPDEST JUMPDEST PUSH1 0x0 PUSH3 0x1F1 DUP5 DUP3 DUP6 ADD PUSH3 0x1B1 JUMP JUMPDEST SWAP2 POP POP SWAP3 SWAP2 POP POP JUMP JUMPDEST PUSH1 0x80 MLOAD PUSH2 0x1980 PUSH3 0x224 PUSH1 0x0 CODECOPY PUSH1 0x0 DUP2 DUP2 PUSH2 0x1E2 ADD MSTORE DUP2 DUP2 PUSH2 0x37A ADD MSTORE PUSH2 0x5C1 ADD MSTORE PUSH2 0x1980 PUSH1 0x0 RETURN INVALID PUSH1 0x80 PUSH1 0x40 MSTORE CALLVALUE DUP1 ISZERO PUSH2 0x10 JUMPI PUSH1 0x0 DUP1 REVERT JUMPDEST POP PUSH1 0x4 CALLDATASIZE LT PUSH2 0x9E JUMPI PUSH1 0x0 CALLDATALOAD PUSH1 0xE0 SHR DUP1 PUSH4 0xBD2E454A GT PUSH2 0x66 JUMPI DUP1 PUSH4 0xBD2E454A EQ PUSH2 0x140 JUMPI DUP1 PUSH4 0xC4BD8191 EQ PUSH2 0x15C JUMPI DUP1 PUSH4 0xDE0EA612 EQ PUSH2 0x178 JUMPI DUP1 PUSH4 0xF2FDE38B EQ PUSH2 0x194 JUMPI DUP1 PUSH4 0xF7B637BB EQ PUSH2 0x1B0 JUMPI PUSH2 0x9E JUMP JUMPDEST DUP1 PUSH4 0x5BD9E299 EQ PUSH2 0xA3 JUMPI DUP1 PUSH4 0x715018A6 EQ PUSH2 0xC1 JUMPI DUP1 PUSH4 0x8DA5CB5B EQ PUSH2 0xCB JUMPI DUP1 PUSH4 0x95ADDB90 EQ PUSH2 0xE9 JUMPI DUP1 PUSH4 0xB329504F EQ PUSH2 0x124 JUMPI JUMPDEST PUSH1 0x0 DUP1 REVERT JUMPDEST PUSH2 0xAB PUSH2 0x1E0 JUMP JUMPDEST PUSH1 0x40 MLOAD PUSH2 0xB8 SWAP2 SWAP1 PUSH2 0xB6B JUMP JUMPDEST PUSH1 0x40 MLOAD DUP1 SWAP2 SUB SWAP1 RETURN JUMPDEST PUSH2 0xC9 PUSH2 0x204 JUMP JUMPDEST STOP JUMPDEST PUSH2 0xD3 PUSH2 0x218 JUMP JUMPDEST PUSH1 0x40 MLOAD PUSH2 0xE0 SWAP2 SWAP1 PUSH2 0xBA7 JUMP JUMPDEST PUSH1 0x40 MLOAD DUP1 SWAP2 SUB SWAP1 RETURN JUMPDEST PUSH2 0x103 PUSH1 0x4 DUP1 CALLDATASIZE SUB DUP2 ADD SWAP1 PUSH2 0xFE SWAP2 SWAP1 PUSH2 0xC0C JUMP JUMPDEST PUSH2 0x241 JUMP JUMPDEST PUSH1 0x40 MLOAD PUSH2 0x11B SWAP13 SWAP12 SWAP11 SWAP10 SWAP9 SWAP8 SWAP7 SWAP6 SWAP5 SWAP4 SWAP3 SWAP2 SWAP1 PUSH2 0xD06 JUMP JUMPDEST PUSH1 0x40 MLOAD DUP1 SWAP2 SUB SWAP1 RETURN JUMPDEST PUSH2 0x13E PUSH1 0x4 DUP1 CALLDATASIZE SUB DUP2 ADD SWAP1 PUSH2 0x139 SWAP2 SWAP1 PUSH2 0xDF3 JUMP JUMPDEST PUSH2 0x370 JUMP JUMPDEST STOP JUMPDEST PUSH2 0x15A PUSH1 0x4 DUP1 CALLDATASIZE SUB DUP2 ADD SWAP1 PUSH2 0x155 SWAP2 SWAP1 PUSH2 0xFC0 JUMP JUMPDEST PUSH2 0x444 JUMP JUMPDEST STOP JUMPDEST PUSH2 0x176 PUSH1 0x4 DUP1 CALLDATASIZE SUB DUP2 ADD SWAP1 PUSH2 0x171 SWAP2 SWAP1 PUSH2 0xDF3 JUMP JUMPDEST PUSH2 0x46F JUMP JUMPDEST STOP JUMPDEST PUSH2 0x192 PUSH1 0x4 DUP1 CALLDATASIZE SUB DUP2 ADD SWAP1 PUSH2 0x18D SWAP2 SWAP1 PUSH2 0x1092 JUMP JUMPDEST PUSH2 0x68B JUMP JUMPDEST STOP JUMPDEST PUSH2 0x1AE PUSH1 0x4 DUP1 CALLDATASIZE SUB DUP2 ADD SWAP1 PUSH2 0x1A9 SWAP2 SWAP1 PUSH2 0x1150 JUMP JUMPDEST PUSH2 0x8FD JUMP JUMPDEST STOP JUMPDEST PUSH2 0x1CA PUSH1 0x4 DUP1 CALLDATASIZE SUB DUP2 ADD SWAP1 PUSH2 0x1C5 SWAP2 SWAP1 PUSH2 0xC0C JUMP JUMPDEST PUSH2 0x980 JUMP JUMPDEST PUSH1 0x40 MLOAD PUSH2 0x1D7 SWAP2 SWAP1 PUSH2 0x117D JUMP JUMPDEST PUSH1 0x40 MLOAD DUP1 SWAP2 SUB SWAP1 RETURN JUMPDEST PUSH32 0x0 DUP2 JUMP JUMPDEST PUSH2 0x20C PUSH2 0x9A2 JUMP JUMPDEST PUSH2 0x216 PUSH1 0x0 PUSH2 0xA20 JUMP JUMPDEST JUMP JUMPDEST PUSH1 0x0 DUP1 PUSH1 0x0 SWAP1 SLOAD SWAP1 PUSH2 0x100 EXP SWAP1 DIV PUSH20 0xFFFFFFFFFFFFFFFFFFFFFFFFFFFFFFFFFFFFFFFF AND SWAP1 POP SWAP1 JUMP JUMPDEST PUSH1 0x1 PUSH1 0x20 MSTORE DUP1 PUSH1 0x0 MSTORE PUSH1 0x40 PUSH1 0x0 KECCAK256 PUSH1 0x0 SWAP2 POP SWAP1 POP DUP1 PUSH1 0x0 ADD SLOAD SWAP1 DUP1 PUSH1 0x1 ADD SLOAD SWAP1 DUP1 PUSH1 0x2 ADD SLOAD SWAP1 DUP1 PUSH1 0x3 ADD SLOAD SWAP1 DUP1 PUSH1 0x4 ADD SLOAD SWAP1 DUP1 PUSH1 0x5 ADD SLOAD SWAP1 DUP1 PUSH1 0x6 ADD SLOAD SWAP1 DUP1 PUSH1 0x7 ADD PUSH1 0x0 SWAP1 SLOAD SWAP1 PUSH2 0x100 EXP SWAP1 DIV PUSH1 0xFF AND SWAP1 DUP1 PUSH1 0x7 ADD PUSH1 0x1 SWAP1 SLOAD SWAP1 PUSH2 0x100 EXP SWAP1 DIV PUSH1 0xFF AND SWAP1 DUP1 PUSH1 0x7 ADD PUSH1 0x2 SWAP1 SLOAD SWAP1 PUSH2 0x100 EXP SWAP1 DIV PUSH1 0xFF AND SWAP1 DUP1 PUSH1 0x7 ADD PUSH1 0x3 SWAP1 SLOAD SWAP1 PUSH2 0x100 EXP SWAP1 DIV PUSH20 0xFFFFFFFFFFFFFFFFFFFFFFFFFFFFFFFFFFFFFFFF AND SWAP1 DUP1 PUSH1 0x8 ADD DUP1 SLOAD PUSH2 0x2ED SWAP1 PUSH2 0x11C7 JUMP JUMPDEST DUP1 PUSH1 0x1F ADD PUSH1 0x20 DUP1 SWAP2 DIV MUL PUSH1 0x20 ADD PUSH1 0x40 MLOAD SWAP1 DUP2 ADD PUSH1 0x40 MSTORE DUP1 SWAP3 SWAP2 SWAP1 DUP2 DUP2 MSTORE PUSH1 0x20 ADD DUP3 DUP1 SLOAD PUSH2 0x319 SWAP1 PUSH2 0x11C7 JUMP JUMPDEST DUP1 ISZERO PUSH2 0x366 JUMPI DUP1 PUSH1 0x1F LT PUSH2 0x33B JUMPI PUSH2 0x100 DUP1 DUP4 SLOAD DIV MUL DUP4 MSTORE SWAP2 PUSH1 0x20 ADD SWAP2 PUSH2 0x366 JUMP JUMPDEST DUP3 ADD SWAP2 SWAP1 PUSH1 0x0 MSTORE PUSH1 0x20 PUSH1 0x0 KECCAK256 SWAP1 JUMPDEST DUP2 SLOAD DUP2 MSTORE SWAP1 PUSH1 0x1 ADD SWAP1 PUSH1 0x20 ADD DUP1 DUP4 GT PUSH2 0x349 JUMPI DUP3 SWAP1 SUB PUSH1 0x1F AND DUP3 ADD SWAP2 JUMPDEST POP POP POP POP POP SWAP1 POP DUP13 JUMP JUMPDEST PUSH2 0x378 PUSH2 0x9A2 JUMP JUMPDEST PUSH32 0x0 PUSH20 0xFFFFFFFFFFFFFFFFFFFFFFFFFFFFFFFFFFFFFFFF AND PUSH4 0xD96EE754 ADDRESS DUP5 DUP5 PUSH1 0x40 MLOAD DUP5 PUSH4 0xFFFFFFFF AND PUSH1 0xE0 SHL DUP2 MSTORE PUSH1 0x4 ADD PUSH2 0x3D5 SWAP4 SWAP3 SWAP2 SWAP1 PUSH2 0x1207 JUMP JUMPDEST PUSH1 0x0 PUSH1 0x40 MLOAD DUP1 DUP4 SUB DUP2 PUSH1 0x0 DUP8 DUP1 EXTCODESIZE ISZERO DUP1 ISZERO PUSH2 0x3EF JUMPI PUSH1 0x0 DUP1 REVERT JUMPDEST POP GAS CALL ISZERO DUP1 ISZERO PUSH2 0x403 JUMPI RETURNDATASIZE PUSH1 0x0 DUP1 RETURNDATACOPY RETURNDATASIZE PUSH1 0x0 REVERT JUMPDEST POP POP POP POP PUSH32 0x5BD1F2593524341B2E3186F40FF9DE45976455B8580C80DEAE7E3A6E1387E774 DUP3 DUP3 PUSH1 0x40 MLOAD PUSH2 0x438 SWAP3 SWAP2 SWAP1 PUSH2 0x123E JUMP JUMPDEST PUSH1 0x40 MLOAD DUP1 SWAP2 SUB SWAP1 LOG1 POP POP JUMP JUMPDEST PUSH2 0x44C PUSH2 0x9A2 JUMP JUMPDEST PUSH2 0x45B DUP9 DUP9 DUP9 DUP9 DUP9 DUP9 DUP9 PUSH2 0x68B JUMP JUMPDEST PUSH2 0x465 DUP9 DUP3 PUSH2 0x370 JUMP JUMPDEST POP POP POP POP POP POP POP POP JUMP JUMPDEST PUSH2 0x477 PUSH2 0x9A2 JUMP JUMPDEST PUSH2 0x480 DUP3 PUSH2 0x980 JUMP JUMPDEST PUSH2 0x4BF JUMPI PUSH1 0x40 MLOAD PUSH32 0x8C379A000000000000000000000000000000000000000000000000000000000 DUP2 MSTORE PUSH1 0x4 ADD PUSH2 0x4B6 SWAP1 PUSH2 0x12C4 JUMP JUMPDEST PUSH1 0x40 MLOAD DUP1 SWAP2 SUB SWAP1 REVERT JUMPDEST PUSH1 0x1 PUSH1 0x0 DUP4 DUP2 MSTORE PUSH1 0x20 ADD SWAP1 DUP2 MSTORE PUSH1 0x20 ADD PUSH1 0x0 KECCAK256 PUSH1 0x1 ADD SLOAD TIMESTAMP LT ISZERO PUSH2 0x4E2 JUMPI PUSH1 0x0 DUP1 REVERT JUMPDEST PUSH1 0x0 PUSH1 0x1 PUSH1 0x0 DUP5 DUP2 MSTORE PUSH1 0x20 ADD SWAP1 DUP2 MSTORE PUSH1 0x20 ADD PUSH1 0x0 KECCAK256 SWAP1 POP PUSH1 0x1 DUP3 EQ DUP1 PUSH2 0x508 JUMPI POP PUSH1 0x0 DUP3 EQ JUMPDEST PUSH2 0x511 JUMPI PUSH1 0x0 DUP1 REVERT JUMPDEST NUMBER DUP2 PUSH1 0x4 ADD DUP2 SWAP1 SSTORE POP DUP2 DUP2 PUSH1 0x0 ADD DUP2 SWAP1 SSTORE POP PUSH1 0x0 PUSH1 0x2 PUSH8 0xFFFFFFFFFFFFFFFF DUP2 GT ISZERO PUSH2 0x540 JUMPI PUSH2 0x53F PUSH2 0xE3D JUMP JUMPDEST JUMPDEST PUSH1 0x40 MLOAD SWAP1 DUP1 DUP3 MSTORE DUP1 PUSH1 0x20 MUL PUSH1 0x20 ADD DUP3 ADD PUSH1 0x40 MSTORE DUP1 ISZERO PUSH2 0x56E JUMPI DUP2 PUSH1 0x20 ADD PUSH1 0x20 DUP3 MUL DUP1 CALLDATASIZE DUP4 CALLDATACOPY DUP1 DUP3 ADD SWAP2 POP POP SWAP1 POP JUMPDEST POP SWAP1 POP PUSH1 0x1 DUP2 DUP5 DUP2 MLOAD DUP2 LT PUSH2 0x586 JUMPI PUSH2 0x585 PUSH2 0x12E4 JUMP JUMPDEST JUMPDEST PUSH1 0x20 MUL PUSH1 0x20 ADD ADD DUP2 DUP2 MSTORE POP POP PUSH1 0x0 DUP2 DUP5 PUSH1 0x1 PUSH2 0x5A2 SWAP2 SWAP1 PUSH2 0x1342 JUMP JUMPDEST DUP2 MLOAD DUP2 LT PUSH2 0x5B3 JUMPI PUSH2 0x5B2 PUSH2 0x12E4 JUMP JUMPDEST JUMPDEST PUSH1 0x20 MUL PUSH1 0x20 ADD ADD DUP2 DUP2 MSTORE POP POP PUSH32 0x0 PUSH20 0xFFFFFFFFFFFFFFFFFFFFFFFFFFFFFFFFFFFFFFFF AND PUSH4 0xC49298AC DUP6 DUP4 PUSH1 0x40 MLOAD DUP4 PUSH4 0xFFFFFFFF AND PUSH1 0xE0 SHL DUP2 MSTORE PUSH1 0x4 ADD PUSH2 0x61A SWAP3 SWAP2 SWAP1 PUSH2 0x1434 JUMP JUMPDEST PUSH1 0x0 PUSH1 0x40 MLOAD DUP1 DUP4 SUB DUP2 PUSH1 0x0 DUP8 DUP1 EXTCODESIZE ISZERO DUP1 ISZERO PUSH2 0x634 JUMPI PUSH1 0x0 DUP1 REVERT JUMPDEST POP GAS CALL ISZERO DUP1 ISZERO PUSH2 0x648 JUMPI RETURNDATASIZE PUSH1 0x0 DUP1 RETURNDATACOPY RETURNDATASIZE PUSH1 0x0 REVERT JUMPDEST POP POP POP POP PUSH32 0xB3183C4422F634E5730744DDD8285AC3123CA1AB9582ADF68A141630C232D721 DUP5 DUP5 PUSH1 0x40 MLOAD PUSH2 0x67D SWAP3 SWAP2 SWAP1 PUSH2 0x123E JUMP JUMPDEST PUSH1 0x40 MLOAD DUP1 SWAP2 SUB SWAP1 LOG1 POP POP POP POP JUMP JUMPDEST PUSH2 0x693 PUSH2 0x9A2 JUMP JUMPDEST PUSH2 0x69C DUP8 PUSH2 0x980 JUMP JUMPDEST ISZERO PUSH2 0x6DC JUMPI PUSH1 0x40 MLOAD PUSH32 0x8C379A000000000000000000000000000000000000000000000000000000000 DUP2 MSTORE PUSH1 0x4 ADD PUSH2 0x6D3 SWAP1 PUSH2 0x14B0 JUMP JUMPDEST PUSH1 0x40 MLOAD DUP1 SWAP2 SUB SWAP1 REVERT JUMPDEST PUSH1 0x0 DUP6 GT PUSH2 0x71F JUMPI PUSH1 0x40 MLOAD PUSH32 0x8C379A000000000000000000000000000000000000000000000000000000000 DUP2 MSTORE PUSH1 0x4 ADD PUSH2 0x716 SWAP1 PUSH2 0x1542 JUMP JUMPDEST PUSH1 0x40 MLOAD DUP1 SWAP2 SUB SWAP1 REVERT JUMPDEST PUSH1 0x40 MLOAD DUP1 PUSH2 0x180 ADD PUSH1 0x40 MSTORE DUP1 PUSH2 0x3E8 DUP2 MSTORE PUSH1 0x20 ADD DUP7 DUP2 MSTORE PUSH1 0x20 ADD DUP5 DUP2 MSTORE PUSH1 0x20 ADD DUP4 DUP2 MSTORE PUSH1 0x20 ADD PUSH1 0x0 DUP2 MSTORE PUSH1 0x20 ADD PUSH1 0x0 DUP2 MSTORE PUSH1 0x20 ADD PUSH1 0x0 DUP2 MSTORE PUSH1 0x20 ADD DUP3 ISZERO ISZERO DUP2 MSTORE PUSH1 0x20 ADD PUSH1 0x0 ISZERO ISZERO DUP2 MSTORE PUSH1 0x20 ADD PUSH1 0x0 ISZERO ISZERO DUP2 MSTORE PUSH1 0x20 ADD DUP6 PUSH20 0xFFFFFFFFFFFFFFFFFFFFFFFFFFFFFFFFFFFFFFFF AND DUP2 MSTORE PUSH1 0x20 ADD DUP8 DUP2 MSTORE POP PUSH1 0x1 PUSH1 0x0 DUP10 DUP2 MSTORE PUSH1 0x20 ADD SWAP1 DUP2 MSTORE PUSH1 0x20 ADD PUSH1 0x0 KECCAK256 PUSH1 0x0 DUP3 ADD MLOAD DUP2 PUSH1 0x0 ADD SSTORE PUSH1 0x20 DUP3 ADD MLOAD DUP2 PUSH1 0x1 ADD SSTORE PUSH1 0x40 DUP3 ADD MLOAD DUP2 PUSH1 0x2 ADD SSTORE PUSH1 0x60 DUP3 ADD MLOAD DUP2 PUSH1 0x3 ADD SSTORE PUSH1 0x80 DUP3 ADD MLOAD DUP2 PUSH1 0x4 ADD SSTORE PUSH1 0xA0 DUP3 ADD MLOAD DUP2 PUSH1 0x5 ADD SSTORE PUSH1 0xC0 DUP3 ADD MLOAD DUP2 PUSH1 0x6 ADD SSTORE PUSH1 0xE0 DUP3 ADD MLOAD DUP2 PUSH1 0x7 ADD PUSH1 0x0 PUSH2 0x100 EXP DUP2 SLOAD DUP2 PUSH1 0xFF MUL NOT AND SWAP1 DUP4 ISZERO ISZERO MUL OR SWAP1 SSTORE POP PUSH2 0x100 DUP3 ADD MLOAD DUP2 PUSH1 0x7 ADD PUSH1 0x1 PUSH2 0x100 EXP DUP2 SLOAD DUP2 PUSH1 0xFF MUL NOT AND SWAP1 DUP4 ISZERO ISZERO MUL OR SWAP1 SSTORE POP PUSH2 0x120 DUP3 ADD MLOAD DUP2 PUSH1 0x7 ADD PUSH1 0x2 PUSH2 0x100 EXP DUP2 SLOAD DUP2 PUSH1 0xFF MUL NOT AND SWAP1 DUP4 ISZERO ISZERO MUL OR SWAP1 SSTORE POP PUSH2 0x140 DUP3 ADD MLOAD DUP2 PUSH1 0x7 ADD PUSH1 0x3 PUSH2 0x100 EXP DUP2 SLOAD DUP2 PUSH20 0xFFFFFFFFFFFFFFFFFFFFFFFFFFFFFFFFFFFFFFFF MUL NOT AND SWAP1 DUP4 PUSH20 0xFFFFFFFFFFFFFFFFFFFFFFFFFFFFFFFFFFFFFFFF AND MUL OR SWAP1 SSTORE POP PUSH2 0x160 DUP3 ADD MLOAD DUP2 PUSH1 0x8 ADD SWAP1 DUP2 PUSH2 0x8AD SWAP2 SWAP1 PUSH2 0x1704 JUMP JUMPDEST POP SWAP1 POP POP PUSH32 0xD5C72EC44C541ED614EAA50893D69A3391E85723FD2B7C078275329029CAEDC6 DUP8 DUP8 DUP8 DUP8 DUP8 DUP8 DUP8 PUSH1 0x40 MLOAD PUSH2 0x8EC SWAP8 SWAP7 SWAP6 SWAP5 SWAP4 SWAP3 SWAP2 SWAP1 PUSH2 0x17D6 JUMP JUMPDEST PUSH1 0x40 MLOAD DUP1 SWAP2 SUB SWAP1 LOG1 POP POP POP POP POP POP POP JUMP JUMPDEST PUSH2 0x905 PUSH2 0x9A2 JUMP JUMPDEST PUSH1 0x0 PUSH20 0xFFFFFFFFFFFFFFFFFFFFFFFFFFFFFFFFFFFFFFFF AND DUP2 PUSH20 0xFFFFFFFFFFFFFFFFFFFFFFFFFFFFFFFFFFFFFFFF AND SUB PUSH2 0x974 JUMPI PUSH1 0x40 MLOAD PUSH32 0x8C379A000000000000000000000000000000000000000000000000000000000 DUP2 MSTORE PUSH1 0x4 ADD PUSH2 0x96B SWAP1 PUSH2 0x18BE JUMP JUMPDEST PUSH1 0x40 MLOAD DUP1 SWAP2 SUB SWAP1 REVERT JUMPDEST PUSH2 0x97D DUP2 PUSH2 0xA20 JUMP JUMPDEST POP JUMP JUMPDEST PUSH1 0x0 DUP1 PUSH1 0x1 PUSH1 0x0 DUP5 DUP2 MSTORE PUSH1 0x20 ADD SWAP1 DUP2 MSTORE PUSH1 0x20 ADD PUSH1 0x0 KECCAK256 PUSH1 0x1 ADD SLOAD GT SWAP1 POP SWAP2 SWAP1 POP JUMP JUMPDEST PUSH2 0x9AA PUSH2 0xAE4 JUMP JUMPDEST PUSH20 0xFFFFFFFFFFFFFFFFFFFFFFFFFFFFFFFFFFFFFFFF AND PUSH2 0x9C8 PUSH2 0x218 JUMP JUMPDEST PUSH20 0xFFFFFFFFFFFFFFFFFFFFFFFFFFFFFFFFFFFFFFFF AND EQ PUSH2 0xA1E JUMPI PUSH1 0x40 MLOAD PUSH32 0x8C379A000000000000000000000000000000000000000000000000000000000 DUP2 MSTORE PUSH1 0x4 ADD PUSH2 0xA15 SWAP1 PUSH2 0x192A JUMP JUMPDEST PUSH1 0x40 MLOAD DUP1 SWAP2 SUB SWAP1 REVERT JUMPDEST JUMP JUMPDEST PUSH1 0x0 DUP1 PUSH1 0x0 SWAP1 SLOAD SWAP1 PUSH2 0x100 EXP SWAP1 DIV PUSH20 0xFFFFFFFFFFFFFFFFFFFFFFFFFFFFFFFFFFFFFFFF AND SWAP1 POP DUP2 PUSH1 0x0 DUP1 PUSH2 0x100 EXP DUP2 SLOAD DUP2 PUSH20 0xFFFFFFFFFFFFFFFFFFFFFFFFFFFFFFFFFFFFFFFF MUL NOT AND SWAP1 DUP4 PUSH20 0xFFFFFFFFFFFFFFFFFFFFFFFFFFFFFFFFFFFFFFFF AND MUL OR SWAP1 SSTORE POP DUP2 PUSH20 0xFFFFFFFFFFFFFFFFFFFFFFFFFFFFFFFFFFFFFFFF AND DUP2 PUSH20 0xFFFFFFFFFFFFFFFFFFFFFFFFFFFFFFFFFFFFFFFF AND PUSH32 0x8BE0079C531659141344CD1FD0A4F28419497F9722A3DAAFE3B4186F6B6457E0 PUSH1 0x40 MLOAD PUSH1 0x40 MLOAD DUP1 SWAP2 SUB SWAP1 LOG3 POP POP JUMP JUMPDEST PUSH1 0x0 CALLER SWAP1 POP SWAP1 JUMP JUMPDEST PUSH1 0x0 PUSH20 0xFFFFFFFFFFFFFFFFFFFFFFFFFFFFFFFFFFFFFFFF DUP3 AND SWAP1 POP SWAP2 SWAP1 POP JUMP JUMPDEST PUSH1 0x0 DUP2 SWAP1 POP SWAP2 SWAP1 POP JUMP JUMPDEST PUSH1 0x0 PUSH2 0xB31 PUSH2 0xB2C PUSH2 0xB27 DUP5 PUSH2 0xAEC JUMP JUMPDEST PUSH2 0xB0C JUMP JUMPDEST PUSH2 0xAEC JUMP JUMPDEST SWAP1 POP SWAP2 SWAP1 POP JUMP JUMPDEST PUSH1 0x0 PUSH2 0xB43 DUP3 PUSH2 0xB16 JUMP JUMPDEST SWAP1 POP SWAP2 SWAP1 POP JUMP JUMPDEST PUSH1 0x0 PUSH2 0xB55 DUP3 PUSH2 0xB38 JUMP JUMPDEST SWAP1 POP SWAP2 SWAP1 POP JUMP JUMPDEST PUSH2 0xB65 DUP2 PUSH2 0xB4A JUMP JUMPDEST DUP3 MSTORE POP POP JUMP JUMPDEST PUSH1 0x0 PUSH1 0x20 DUP3 ADD SWAP1 POP PUSH2 0xB80 PUSH1 0x0 DUP4 ADD DUP5 PUSH2 0xB5C JUMP JUMPDEST SWAP3 SWAP2 POP POP JUMP JUMPDEST PUSH1 0x0 PUSH2 0xB91 DUP3 PUSH2 0xAEC JUMP JUMPDEST SWAP1 POP SWAP2 SWAP1 POP JUMP JUMPDEST PUSH2 0xBA1 DUP2 PUSH2 0xB86 JUMP JUMPDEST DUP3 MSTORE POP POP JUMP JUMPDEST PUSH1 0x0 PUSH1 0x20 DUP3 ADD SWAP1 POP PUSH2 0xBBC PUSH1 0x0 DUP4 ADD DUP5 PUSH2 0xB98 JUMP JUMPDEST SWAP3 SWAP2 POP POP JUMP JUMPDEST PUSH1 0x0 PUSH1 0x40 MLOAD SWAP1 POP SWAP1 JUMP JUMPDEST PUSH1 0x0 DUP1 REVERT JUMPDEST PUSH1 0x0 DUP1 REVERT JUMPDEST PUSH1 0x0 DUP2 SWAP1 POP SWAP2 SWAP1 POP JUMP JUMPDEST PUSH2 0xBE9 DUP2 PUSH2 0xBD6 JUMP JUMPDEST DUP2 EQ PUSH2 0xBF4 JUMPI PUSH1 0x0 DUP1 REVERT JUMPDEST POP JUMP JUMPDEST PUSH1 0x0 DUP2 CALLDATALOAD SWAP1 POP PUSH2 0xC06 DUP2 PUSH2 0xBE0 JUMP JUMPDEST SWAP3 SWAP2 POP POP JUMP JUMPDEST PUSH1 0x0 PUSH1 0x20 DUP3 DUP5 SUB SLT ISZERO PUSH2 0xC22 JUMPI PUSH2 0xC21 PUSH2 0xBCC JUMP JUMPDEST JUMPDEST PUSH1 0x0 PUSH2 0xC30 DUP5 DUP3 DUP6 ADD PUSH2 0xBF7 JUMP JUMPDEST SWAP2 POP POP SWAP3 SWAP2 POP POP JUMP JUMPDEST PUSH1 0x0 DUP2 SWAP1 POP SWAP2 SWAP1 POP JUMP JUMPDEST PUSH2 0xC4C DUP2 PUSH2 0xC39 JUMP JUMPDEST DUP3 MSTORE POP POP JUMP JUMPDEST PUSH1 0x0 DUP2 ISZERO ISZERO SWAP1 POP SWAP2 SWAP1 POP JUMP JUMPDEST PUSH2 0xC67 DUP2 PUSH2 0xC52 JUMP JUMPDEST DUP3 MSTORE POP POP JUMP JUMPDEST PUSH1 0x0 DUP2 MLOAD SWAP1 POP SWAP2 SWAP1 POP JUMP JUMPDEST PUSH1 0x0 DUP3 DUP3 MSTORE PUSH1 0x20 DUP3 ADD SWAP1 POP SWAP3 SWAP2 POP POP JUMP JUMPDEST PUSH1 0x0 JUMPDEST DUP4 DUP2 LT ISZERO PUSH2 0xCA7 JUMPI DUP1 DUP3 ADD MLOAD DUP2 DUP5 ADD MSTORE PUSH1 0x20 DUP2 ADD SWAP1 POP PUSH2 0xC8C JUMP JUMPDEST DUP4 DUP2 GT ISZERO PUSH2 0xCB6 JUMPI PUSH1 0x0 DUP5 DUP5 ADD MSTORE JUMPDEST POP POP POP POP JUMP JUMPDEST PUSH1 0x0 PUSH1 0x1F NOT PUSH1 0x1F DUP4 ADD AND SWAP1 POP SWAP2 SWAP1 POP JUMP JUMPDEST PUSH1 0x0 PUSH2 0xCD8 DUP3 PUSH2 0xC6D JUMP JUMPDEST PUSH2 0xCE2 DUP2 DUP6 PUSH2 0xC78 JUMP JUMPDEST SWAP4 POP PUSH2 0xCF2 DUP2 DUP6 PUSH1 0x20 DUP7 ADD PUSH2 0xC89 JUMP JUMPDEST PUSH2 0xCFB DUP2 PUSH2 0xCBC JUMP JUMPDEST DUP5 ADD SWAP2 POP POP SWAP3 SWAP2 POP POP JUMP JUMPDEST PUSH1 0x0 PUSH2 0x180 DUP3 ADD SWAP1 POP PUSH2 0xD1C PUSH1 0x0 DUP4 ADD DUP16 PUSH2 0xC43 JUMP JUMPDEST PUSH2 0xD29 PUSH1 0x20 DUP4 ADD DUP15 PUSH2 0xC43 JUMP JUMPDEST PUSH2 0xD36 PUSH1 0x40 DUP4 ADD DUP14 PUSH2 0xC43 JUMP JUMPDEST PUSH2 0xD43 PUSH1 0x60 DUP4 ADD DUP13 PUSH2 0xC43 JUMP JUMPDEST PUSH2 0xD50 PUSH1 0x80 DUP4 ADD DUP12 PUSH2 0xC43 JUMP JUMPDEST PUSH2 0xD5D PUSH1 0xA0 DUP4 ADD DUP11 PUSH2 0xC43 JUMP JUMPDEST PUSH2 0xD6A PUSH1 0xC0 DUP4 ADD DUP10 PUSH2 0xC43 JUMP JUMPDEST PUSH2 0xD77 PUSH1 0xE0 DUP4 ADD DUP9 PUSH2 0xC5E JUMP JUMPDEST PUSH2 0xD85 PUSH2 0x100 DUP4 ADD DUP8 PUSH2 0xC5E JUMP JUMPDEST PUSH2 0xD93 PUSH2 0x120 DUP4 ADD DUP7 PUSH2 0xC5E JUMP JUMPDEST PUSH2 0xDA1 PUSH2 0x140 DUP4 ADD DUP6 PUSH2 0xB98 JUMP JUMPDEST DUP2 DUP2 SUB PUSH2 0x160 DUP4 ADD MSTORE PUSH2 0xDB4 DUP2 DUP5 PUSH2 0xCCD JUMP JUMPDEST SWAP1 POP SWAP14 SWAP13 POP POP POP POP POP POP POP POP POP POP POP POP POP JUMP JUMPDEST PUSH2 0xDD0 DUP2 PUSH2 0xC39 JUMP JUMPDEST DUP2 EQ PUSH2 0xDDB JUMPI PUSH1 0x0 DUP1 REVERT JUMPDEST POP JUMP JUMPDEST PUSH1 0x0 DUP2 CALLDATALOAD SWAP1 POP PUSH2 0xDED DUP2 PUSH2 0xDC7 JUMP JUMPDEST SWAP3 SWAP2 POP POP JUMP JUMPDEST PUSH1 0x0 DUP1 PUSH1 0x40 DUP4 DUP6 SUB SLT ISZERO PUSH2 0xE0A JUMPI PUSH2 0xE09 PUSH2 0xBCC JUMP JUMPDEST JUMPDEST PUSH1 0x0 PUSH2 0xE18 DUP6 DUP3 DUP7 ADD PUSH2 0xBF7 JUMP JUMPDEST SWAP3 POP POP PUSH1 0x20 PUSH2 0xE29 DUP6 DUP3 DUP7 ADD PUSH2 0xDDE JUMP JUMPDEST SWAP2 POP POP SWAP3 POP SWAP3 SWAP1 POP JUMP JUMPDEST PUSH1 0x0 DUP1 REVERT JUMPDEST PUSH1 0x0 DUP1 REVERT JUMPDEST PUSH32 0x4E487B7100000000000000000000000000000000000000000000000000000000 PUSH1 0x0 MSTORE PUSH1 0x41 PUSH1 0x4 MSTORE PUSH1 0x24 PUSH1 0x0 REVERT JUMPDEST PUSH2 0xE75 DUP3 PUSH2 0xCBC JUMP JUMPDEST DUP2 ADD DUP2 DUP2 LT PUSH8 0xFFFFFFFFFFFFFFFF DUP3 GT OR ISZERO PUSH2 0xE94 JUMPI PUSH2 0xE93 PUSH2 0xE3D JUMP JUMPDEST JUMPDEST DUP1 PUSH1 0x40 MSTORE POP POP POP JUMP JUMPDEST PUSH1 0x0 PUSH2 0xEA7 PUSH2 0xBC2 JUMP JUMPDEST SWAP1 POP PUSH2 0xEB3 DUP3 DUP3 PUSH2 0xE6C JUMP JUMPDEST SWAP2 SWAP1 POP JUMP JUMPDEST PUSH1 0x0 PUSH8 0xFFFFFFFFFFFFFFFF DUP3 GT ISZERO PUSH2 0xED3 JUMPI PUSH2 0xED2 PUSH2 0xE3D JUMP JUMPDEST JUMPDEST PUSH2 0xEDC DUP3 PUSH2 0xCBC JUMP JUMPDEST SWAP1 POP PUSH1 0x20 DUP2 ADD SWAP1 POP SWAP2 SWAP1 POP JUMP JUMPDEST DUP3 DUP2 DUP4 CALLDATACOPY PUSH1 0x0 DUP4 DUP4 ADD MSTORE POP POP POP JUMP JUMPDEST PUSH1 0x0 PUSH2 0xF0B PUSH2 0xF06 DUP5 PUSH2 0xEB8 JUMP JUMPDEST PUSH2 0xE9D JUMP JUMPDEST SWAP1 POP DUP3 DUP2 MSTORE PUSH1 0x20 DUP2 ADD DUP5 DUP5 DUP5 ADD GT ISZERO PUSH2 0xF27 JUMPI PUSH2 0xF26 PUSH2 0xE38 JUMP JUMPDEST JUMPDEST PUSH2 0xF32 DUP5 DUP3 DUP6 PUSH2 0xEE9 JUMP JUMPDEST POP SWAP4 SWAP3 POP POP POP JUMP JUMPDEST PUSH1 0x0 DUP3 PUSH1 0x1F DUP4 ADD SLT PUSH2 0xF4F JUMPI PUSH2 0xF4E PUSH2 0xE33 JUMP JUMPDEST JUMPDEST DUP2 CALLDATALOAD PUSH2 0xF5F DUP5 DUP3 PUSH1 0x20 DUP7 ADD PUSH2 0xEF8 JUMP JUMPDEST SWAP2 POP POP SWAP3 SWAP2 POP POP JUMP JUMPDEST PUSH2 0xF71 DUP2 PUSH2 0xB86 JUMP JUMPDEST DUP2 EQ PUSH2 0xF7C JUMPI PUSH1 0x0 DUP1 REVERT JUMPDEST POP JUMP JUMPDEST PUSH1 0x0 DUP2 CALLDATALOAD SWAP1 POP PUSH2 0xF8E DUP2 PUSH2 0xF68 JUMP JUMPDEST SWAP3 SWAP2 POP POP JUMP JUMPDEST PUSH2 0xF9D DUP2 PUSH2 0xC52 JUMP JUMPDEST DUP2 EQ PUSH2 0xFA8 JUMPI PUSH1 0x0 DUP1 REVERT JUMPDEST POP JUMP JUMPDEST PUSH1 0x0 DUP2 CALLDATALOAD SWAP1 POP PUSH2 0xFBA DUP2 PUSH2 0xF94 JUMP JUMPDEST SWAP3 SWAP2 POP POP JUMP JUMPDEST PUSH1 0x0 DUP1 PUSH1 0x0 DUP1 PUSH1 0x0 DUP1 PUSH1 0x0 DUP1 PUSH2 0x100 DUP10 DUP12 SUB SLT ISZERO PUSH2 0xFE1 JUMPI PUSH2 0xFE0 PUSH2 0xBCC JUMP JUMPDEST JUMPDEST PUSH1 0x0 PUSH2 0xFEF DUP12 DUP3 DUP13 ADD PUSH2 0xBF7 JUMP JUMPDEST SWAP9 POP POP PUSH1 0x20 DUP10 ADD CALLDATALOAD PUSH8 0xFFFFFFFFFFFFFFFF DUP2 GT ISZERO PUSH2 0x1010 JUMPI PUSH2 0x100F PUSH2 0xBD1 JUMP JUMPDEST JUMPDEST PUSH2 0x101C DUP12 DUP3 DUP13 ADD PUSH2 0xF3A JUMP JUMPDEST SWAP8 POP POP PUSH1 0x40 PUSH2 0x102D DUP12 DUP3 DUP13 ADD PUSH2 0xDDE JUMP JUMPDEST SWAP7 POP POP PUSH1 0x60 PUSH2 0x103E DUP12 DUP3 DUP13 ADD PUSH2 0xF7F JUMP JUMPDEST SWAP6 POP POP PUSH1 0x80 PUSH2 0x104F DUP12 DUP3 DUP13 ADD PUSH2 0xDDE JUMP JUMPDEST SWAP5 POP POP PUSH1 0xA0 PUSH2 0x1060 DUP12 DUP3 DUP13 ADD PUSH2 0xDDE JUMP JUMPDEST SWAP4 POP POP PUSH1 0xC0 PUSH2 0x1071 DUP12 DUP3 DUP13 ADD PUSH2 0xFAB JUMP JUMPDEST SWAP3 POP POP PUSH1 0xE0 PUSH2 0x1082 DUP12 DUP3 DUP13 ADD PUSH2 0xDDE JUMP JUMPDEST SWAP2 POP POP SWAP3 SWAP6 SWAP9 POP SWAP3 SWAP6 SWAP9 SWAP1 SWAP4 SWAP7 POP JUMP JUMPDEST PUSH1 0x0 DUP1 PUSH1 0x0 DUP1 PUSH1 0x0 DUP1 PUSH1 0x0 PUSH1 0xE0 DUP9 DUP11 SUB SLT ISZERO PUSH2 0x10B1 JUMPI PUSH2 0x10B0 PUSH2 0xBCC JUMP JUMPDEST JUMPDEST PUSH1 0x0 PUSH2 0x10BF DUP11 DUP3 DUP12 ADD PUSH2 0xBF7 JUMP JUMPDEST SWAP8 POP POP PUSH1 0x20 DUP9 ADD CALLDATALOAD PUSH8 0xFFFFFFFFFFFFFFFF DUP2 GT ISZERO PUSH2 0x10E0 JUMPI PUSH2 0x10DF PUSH2 0xBD1 JUMP JUMPDEST JUMPDEST PUSH2 0x10EC DUP11 DUP3 DUP12 ADD PUSH2 0xF3A JUMP JUMPDEST SWAP7 POP POP PUSH1 0x40 PUSH2 0x10FD DUP11 DUP3 DUP12 ADD PUSH2 0xDDE JUMP JUMPDEST SWAP6 POP POP PUSH1 0x60 PUSH2 0x110E DUP11 DUP3 DUP12 ADD PUSH2 0xF7F JUMP JUMPDEST SWAP5 POP POP PUSH1 0x80 PUSH2 0x111F DUP11 DUP3 DUP12 ADD PUSH2 0xDDE JUMP JUMPDEST SWAP4 POP POP PUSH1 0xA0 PUSH2 0x1130 DUP11 DUP3 DUP12 ADD PUSH2 0xDDE JUMP JUMPDEST SWAP3 POP POP PUSH1 0xC0 PUSH2 0x1141 DUP11 DUP3 DUP12 ADD PUSH2 0xFAB JUMP JUMPDEST SWAP2 POP POP SWAP3 SWAP6 SWAP9 SWAP2 SWAP5 SWAP8 POP SWAP3 SWAP6 POP JUMP JUMPDEST PUSH1 0x0 PUSH1 0x20 DUP3 DUP5 SUB SLT ISZERO PUSH2 0x1166 JUMPI PUSH2 0x1165 PUSH2 0xBCC JUMP JUMPDEST JUMPDEST PUSH1 0x0 PUSH2 0x1174 DUP5 DUP3 DUP6 ADD PUSH2 0xF7F JUMP JUMPDEST SWAP2 POP POP SWAP3 SWAP2 POP POP JUMP JUMPDEST PUSH1 0x0 PUSH1 0x20 DUP3 ADD SWAP1 POP PUSH2 0x1192 PUSH1 0x0 DUP4 ADD DUP5 PUSH2 0xC5E JUMP JUMPDEST SWAP3 SWAP2 POP POP JUMP JUMPDEST PUSH32 0x4E487B7100000000000000000000000000000000000000000000000000000000 PUSH1 0x0 MSTORE PUSH1 0x22 PUSH1 0x4 MSTORE PUSH1 0x24 PUSH1 0x0 REVERT JUMPDEST PUSH1 0x0 PUSH1 0x2 DUP3 DIV SWAP1 POP PUSH1 0x1 DUP3 AND DUP1 PUSH2 0x11DF JUMPI PUSH1 0x7F DUP3 AND SWAP2 POP JUMPDEST PUSH1 0x20 DUP3 LT DUP2 SUB PUSH2 0x11F2 JUMPI PUSH2 0x11F1 PUSH2 0x1198 JUMP JUMPDEST JUMPDEST POP SWAP2 SWAP1 POP JUMP JUMPDEST PUSH2 0x1201 DUP2 PUSH2 0xBD6 JUMP JUMPDEST DUP3 MSTORE POP POP JUMP JUMPDEST PUSH1 0x0 PUSH1 0x60 DUP3 ADD SWAP1 POP PUSH2 0x121C PUSH1 0x0 DUP4 ADD DUP7 PUSH2 0xB98 JUMP JUMPDEST PUSH2 0x1229 PUSH1 0x20 DUP4 ADD DUP6 PUSH2 0x11F8 JUMP JUMPDEST PUSH2 0x1236 PUSH1 0x40 DUP4 ADD DUP5 PUSH2 0xC43 JUMP JUMPDEST SWAP5 SWAP4 POP POP POP POP JUMP JUMPDEST PUSH1 0x0 PUSH1 0x40 DUP3 ADD SWAP1 POP PUSH2 0x1253 PUSH1 0x0 DUP4 ADD DUP6 PUSH2 0x11F8 JUMP JUMPDEST PUSH2 0x1260 PUSH1 0x20 DUP4 ADD DUP5 PUSH2 0xC43 JUMP JUMPDEST SWAP4 SWAP3 POP POP POP JUMP JUMPDEST PUSH1 0x0 DUP3 DUP3 MSTORE PUSH1 0x20 DUP3 ADD SWAP1 POP SWAP3 SWAP2 POP POP JUMP JUMPDEST PUSH32 0x5175657374696F6E206D75737420626520696E697469616C697A656400000000 PUSH1 0x0 DUP3 ADD MSTORE POP JUMP JUMPDEST PUSH1 0x0 PUSH2 0x12AE PUSH1 0x1C DUP4 PUSH2 0x1267 JUMP JUMPDEST SWAP2 POP PUSH2 0x12B9 DUP3 PUSH2 0x1278 JUMP JUMPDEST PUSH1 0x20 DUP3 ADD SWAP1 POP SWAP2 SWAP1 POP JUMP JUMPDEST PUSH1 0x0 PUSH1 0x20 DUP3 ADD SWAP1 POP DUP2 DUP2 SUB PUSH1 0x0 DUP4 ADD MSTORE PUSH2 0x12DD DUP2 PUSH2 0x12A1 JUMP JUMPDEST SWAP1 POP SWAP2 SWAP1 POP JUMP JUMPDEST PUSH32 0x4E487B7100000000000000000000000000000000000000000000000000000000 PUSH1 0x0 MSTORE PUSH1 0x32 PUSH1 0x4 MSTORE PUSH1 0x24 PUSH1 0x0 REVERT JUMPDEST PUSH32 0x4E487B7100000000000000000000000000000000000000000000000000000000 PUSH1 0x0 MSTORE PUSH1 0x11 PUSH1 0x4 MSTORE PUSH1 0x24 PUSH1 0x0 REVERT JUMPDEST PUSH1 0x0 PUSH2 0x134D DUP3 PUSH2 0xC39 JUMP JUMPDEST SWAP2 POP PUSH2 0x1358 DUP4 PUSH2 0xC39 JUMP JUMPDEST SWAP3 POP DUP3 DUP3 LT ISZERO PUSH2 0x136B JUMPI PUSH2 0x136A PUSH2 0x1313 JUMP JUMPDEST JUMPDEST DUP3 DUP3 SUB SWAP1 POP SWAP3 SWAP2 POP POP JUMP JUMPDEST PUSH1 0x0 DUP2 MLOAD SWAP1 POP SWAP2 SWAP1 POP JUMP JUMPDEST PUSH1 0x0 DUP3 DUP3 MSTORE PUSH1 0x20 DUP3 ADD SWAP1 POP SWAP3 SWAP2 POP POP JUMP JUMPDEST PUSH1 0x0 DUP2 SWAP1 POP PUSH1 0x20 DUP3 ADD SWAP1 POP SWAP2 SWAP1 POP JUMP JUMPDEST PUSH2 0x13AB DUP2 PUSH2 0xC39 JUMP JUMPDEST DUP3 MSTORE POP POP JUMP JUMPDEST PUSH1 0x0 PUSH2 0x13BD DUP4 DUP4 PUSH2 0x13A2 JUMP JUMPDEST PUSH1 0x20 DUP4 ADD SWAP1 POP SWAP3 SWAP2 POP POP JUMP JUMPDEST PUSH1 0x0 PUSH1 0x20 DUP3 ADD SWAP1 POP SWAP2 SWAP1 POP JUMP JUMPDEST PUSH1 0x0 PUSH2 0x13E1 DUP3 PUSH2 0x1376 JUMP JUMPDEST PUSH2 0x13EB DUP2 DUP6 PUSH2 0x1381 JUMP JUMPDEST SWAP4 POP PUSH2 0x13F6 DUP4 PUSH2 0x1392 JUMP JUMPDEST DUP1 PUSH1 0x0 JUMPDEST DUP4 DUP2 LT ISZERO PUSH2 0x1427 JUMPI DUP2 MLOAD PUSH2 0x140E DUP9 DUP3 PUSH2 0x13B1 JUMP JUMPDEST SWAP8 POP PUSH2 0x1419 DUP4 PUSH2 0x13C9 JUMP JUMPDEST SWAP3 POP POP PUSH1 0x1 DUP2 ADD SWAP1 POP PUSH2 0x13FA JUMP JUMPDEST POP DUP6 SWAP4 POP POP POP POP SWAP3 SWAP2 POP POP JUMP JUMPDEST PUSH1 0x0 PUSH1 0x40 DUP3 ADD SWAP1 POP PUSH2 0x1449 PUSH1 0x0 DUP4 ADD DUP6 PUSH2 0x11F8 JUMP JUMPDEST DUP2 DUP2 SUB PUSH1 0x20 DUP4 ADD MSTORE PUSH2 0x145B DUP2 DUP5 PUSH2 0x13D6 JUMP JUMPDEST SWAP1 POP SWAP4 SWAP3 POP POP POP JUMP JUMPDEST PUSH32 0x5175657374696F6E20686173206265656E20696E697469616C697A6564000000 PUSH1 0x0 DUP3 ADD MSTORE POP JUMP JUMPDEST PUSH1 0x0 PUSH2 0x149A PUSH1 0x1D DUP4 PUSH2 0x1267 JUMP JUMPDEST SWAP2 POP PUSH2 0x14A5 DUP3 PUSH2 0x1464 JUMP JUMPDEST PUSH1 0x20 DUP3 ADD SWAP1 POP SWAP2 SWAP1 POP JUMP JUMPDEST PUSH1 0x0 PUSH1 0x20 DUP3 ADD SWAP1 POP DUP2 DUP2 SUB PUSH1 0x0 DUP4 ADD MSTORE PUSH2 0x14C9 DUP2 PUSH2 0x148D JUMP JUMPDEST SWAP1 POP SWAP2 SWAP1 POP JUMP JUMPDEST PUSH32 0x496E76616C6964207265736F6C7574696F6E2074696D652C206D757374206265 PUSH1 0x0 DUP3 ADD MSTORE PUSH32 0x2067726561746572207468616E20300000000000000000000000000000000000 PUSH1 0x20 DUP3 ADD MSTORE POP JUMP JUMPDEST PUSH1 0x0 PUSH2 0x152C PUSH1 0x2F DUP4 PUSH2 0x1267 JUMP JUMPDEST SWAP2 POP PUSH2 0x1537 DUP3 PUSH2 0x14D0 JUMP JUMPDEST PUSH1 0x40 DUP3 ADD SWAP1 POP SWAP2 SWAP1 POP JUMP JUMPDEST PUSH1 0x0 PUSH1 0x20 DUP3 ADD SWAP1 POP DUP2 DUP2 SUB PUSH1 0x0 DUP4 ADD MSTORE PUSH2 0x155B DUP2 PUSH2 0x151F JUMP JUMPDEST SWAP1 POP SWAP2 SWAP1 POP JUMP JUMPDEST PUSH1 0x0 DUP2 SWAP1 POP DUP2 PUSH1 0x0 MSTORE PUSH1 0x20 PUSH1 0x0 KECCAK256 SWAP1 POP SWAP2 SWAP1 POP JUMP JUMPDEST PUSH1 0x0 PUSH1 0x20 PUSH1 0x1F DUP4 ADD DIV SWAP1 POP SWAP2 SWAP1 POP JUMP JUMPDEST PUSH1 0x0 DUP3 DUP3 SHL SWAP1 POP SWAP3 SWAP2 POP POP JUMP JUMPDEST PUSH1 0x0 PUSH1 0x8 DUP4 MUL PUSH2 0x15C4 PUSH32 0xFFFFFFFFFFFFFFFFFFFFFFFFFFFFFFFFFFFFFFFFFFFFFFFFFFFFFFFFFFFFFFFF DUP3 PUSH2 0x1587 JUMP JUMPDEST PUSH2 0x15CE DUP7 DUP4 PUSH2 0x1587 JUMP JUMPDEST SWAP6 POP DUP1 NOT DUP5 AND SWAP4 POP DUP1 DUP7 AND DUP5 OR SWAP3 POP POP POP SWAP4 SWAP3 POP POP POP JUMP JUMPDEST PUSH1 0x0 PUSH2 0x1601 PUSH2 0x15FC PUSH2 0x15F7 DUP5 PUSH2 0xC39 JUMP JUMPDEST PUSH2 0xB0C JUMP JUMPDEST PUSH2 0xC39 JUMP JUMPDEST SWAP1 POP SWAP2 SWAP1 POP JUMP JUMPDEST PUSH1 0x0 DUP2 SWAP1 POP SWAP2 SWAP1 POP JUMP JUMPDEST PUSH2 0x161B DUP4 PUSH2 0x15E6 JUMP JUMPDEST PUSH2 0x162F PUSH2 0x1627 DUP3 PUSH2 0x1608 JUMP JUMPDEST DUP5 DUP5 SLOAD PUSH2 0x1594 JUMP JUMPDEST DUP3 SSTORE POP POP POP POP JUMP JUMPDEST PUSH1 0x0 SWAP1 JUMP JUMPDEST PUSH2 0x1644 PUSH2 0x1637 JUMP JUMPDEST PUSH2 0x164F DUP2 DUP5 DUP5 PUSH2 0x1612 JUMP JUMPDEST POP POP POP JUMP JUMPDEST JUMPDEST DUP2 DUP2 LT ISZERO PUSH2 0x1673 JUMPI PUSH2 0x1668 PUSH1 0x0 DUP3 PUSH2 0x163C JUMP JUMPDEST PUSH1 0x1 DUP2 ADD SWAP1 POP PUSH2 0x1655 JUMP JUMPDEST POP POP JUMP JUMPDEST PUSH1 0x1F DUP3 GT ISZERO PUSH2 0x16B8 JUMPI PUSH2 0x1689 DUP2 PUSH2 0x1562 JUMP JUMPDEST PUSH2 0x1692 DUP5 PUSH2 0x1577 JUMP JUMPDEST DUP2 ADD PUSH1 0x20 DUP6 LT ISZERO PUSH2 0x16A1 JUMPI DUP2 SWAP1 POP JUMPDEST PUSH2 0x16B5 PUSH2 0x16AD DUP6 PUSH2 0x1577 JUMP JUMPDEST DUP4 ADD DUP3 PUSH2 0x1654 JUMP JUMPDEST POP POP JUMPDEST POP POP POP JUMP JUMPDEST PUSH1 0x0 DUP3 DUP3 SHR SWAP1 POP SWAP3 SWAP2 POP POP JUMP JUMPDEST PUSH1 0x0 PUSH2 0x16DB PUSH1 0x0 NOT DUP5 PUSH1 0x8 MUL PUSH2 0x16BD JUMP JUMPDEST NOT DUP1 DUP4 AND SWAP2 POP POP SWAP3 SWAP2 POP POP JUMP JUMPDEST PUSH1 0x0 PUSH2 0x16F4 DUP4 DUP4 PUSH2 0x16CA JUMP JUMPDEST SWAP2 POP DUP3 PUSH1 0x2 MUL DUP3 OR SWAP1 POP SWAP3 SWAP2 POP POP JUMP JUMPDEST PUSH2 0x170D DUP3 PUSH2 0xC6D JUMP JUMPDEST PUSH8 0xFFFFFFFFFFFFFFFF DUP2 GT ISZERO PUSH2 0x1726 JUMPI PUSH2 0x1725 PUSH2 0xE3D JUMP JUMPDEST JUMPDEST PUSH2 0x1730 DUP3 SLOAD PUSH2 0x11C7 JUMP JUMPDEST PUSH2 0x173B DUP3 DUP3 DUP6 PUSH2 0x1677 JUMP JUMPDEST PUSH1 0x0 PUSH1 0x20 SWAP1 POP PUSH1 0x1F DUP4 GT PUSH1 0x1 DUP2 EQ PUSH2 0x176E JUMPI PUSH1 0x0 DUP5 ISZERO PUSH2 0x175C JUMPI DUP3 DUP8 ADD MLOAD SWAP1 POP JUMPDEST PUSH2 0x1766 DUP6 DUP3 PUSH2 0x16E8 JUMP JUMPDEST DUP7 SSTORE POP PUSH2 0x17CE JUMP JUMPDEST PUSH1 0x1F NOT DUP5 AND PUSH2 0x177C DUP7 PUSH2 0x1562 JUMP JUMPDEST PUSH1 0x0 JUMPDEST DUP3 DUP2 LT ISZERO PUSH2 0x17A4 JUMPI DUP5 DUP10 ADD MLOAD DUP3 SSTORE PUSH1 0x1 DUP3 ADD SWAP2 POP PUSH1 0x20 DUP6 ADD SWAP5 POP PUSH1 0x20 DUP2 ADD SWAP1 POP PUSH2 0x177F JUMP JUMPDEST DUP7 DUP4 LT ISZERO PUSH2 0x17C1 JUMPI DUP5 DUP10 ADD MLOAD PUSH2 0x17BD PUSH1 0x1F DUP10 AND DUP3 PUSH2 0x16CA JUMP JUMPDEST DUP4 SSTORE POP JUMPDEST PUSH1 0x1 PUSH1 0x2 DUP9 MUL ADD DUP9 SSTORE POP POP POP JUMPDEST POP POP POP POP POP POP JUMP JUMPDEST PUSH1 0x0 PUSH1 0xE0 DUP3 ADD SWAP1 POP PUSH2 0x17EB PUSH1 0x0 DUP4 ADD DUP11 PUSH2 0x11F8 JUMP JUMPDEST DUP2 DUP2 SUB PUSH1 0x20 DUP4 ADD MSTORE PUSH2 0x17FD DUP2 DUP10 PUSH2 0xCCD JUMP JUMPDEST SWAP1 POP PUSH2 0x180C PUSH1 0x40 DUP4 ADD DUP9 PUSH2 0xC43 JUMP JUMPDEST PUSH2 0x1819 PUSH1 0x60 DUP4 ADD DUP8 PUSH2 0xB98 JUMP JUMPDEST PUSH2 0x1826 PUSH1 0x80 DUP4 ADD DUP7 PUSH2 0xC43 JUMP JUMPDEST PUSH2 0x1833 PUSH1 0xA0 DUP4 ADD DUP6 PUSH2 0xC43 JUMP JUMPDEST PUSH2 0x1840 PUSH1 0xC0 DUP4 ADD DUP5 PUSH2 0xC5E JUMP JUMPDEST SWAP9 SWAP8 POP POP POP POP POP POP POP POP JUMP JUMPDEST PUSH32 0x4F776E61626C653A206E6577206F776E657220697320746865207A65726F2061 PUSH1 0x0 DUP3 ADD MSTORE PUSH32 0x6464726573730000000000000000000000000000000000000000000000000000 PUSH1 0x20 DUP3 ADD MSTORE POP JUMP JUMPDEST PUSH1 0x0 PUSH2 0x18A8 PUSH1 0x26 DUP4 PUSH2 0x1267 JUMP JUMPDEST SWAP2 POP PUSH2 0x18B3 DUP3 PUSH2 0x184C JUMP JUMPDEST PUSH1 0x40 DUP3 ADD SWAP1 POP SWAP2 SWAP1 POP JUMP JUMPDEST PUSH1 0x0 PUSH1 0x20 DUP3 ADD SWAP1 POP DUP2 DUP2 SUB PUSH1 0x0 DUP4 ADD MSTORE PUSH2 0x18D7 DUP2 PUSH2 0x189B JUMP JUMPDEST SWAP1 POP SWAP2 SWAP1 POP JUMP JUMPDEST PUSH32 0x4F776E61626C653A2063616C6C6572206973206E6F7420746865206F776E6572 PUSH1 0x0 DUP3 ADD MSTORE POP JUMP JUMPDEST PUSH1 0x0 PUSH2 0x1914 PUSH1 0x20 DUP4 PUSH2 0x1267 JUMP JUMPDEST SWAP2 POP PUSH2 0x191F DUP3 PUSH2 0x18DE JUMP JUMPDEST PUSH1 0x20 DUP3 ADD SWAP1 POP SWAP2 SWAP1 POP JUMP JUMPDEST PUSH1 0x0 PUSH1 0x20 DUP3 ADD SWAP1 POP DUP2 DUP2 SUB PUSH1 0x0 DUP4 ADD MSTORE PUSH2 0x1943 DUP2 PUSH2 0x1907 JUMP JUMPDEST SWAP1 POP SWAP2 SWAP1 POP JUMP INVALID LOG2 PUSH5 0x6970667358 0x22 SLT KECCAK256 0xD6 PUSH12 0x5725440546839FB9D5F5C95A CALLCODE 0xE3 0xB4 0x4C MSTORE GT RETURNDATASIZE PUSH18 0x23A853BF8FD562F61B6764736F6C63430008 0xF STOP CALLER "
				},
				"gasEstimates": {
					"creation": {
						"codeDepositCost": "1305600",
						"executionCost": "infinite",
						"totalCost": "infinite"
					},
					"external": {
						"conditionalTokens()": "infinite",
						"initializeAndPrepare(bytes32,bytes,uint256,address,uint256,uint256,bool,uint256)": "infinite",
						"initializeQuestion(bytes32,bytes,uint256,address,uint256,uint256,bool)": "infinite",
						"isInitialized(bytes32)": "2886",
						"owner()": "2567",
						"prepareQuestion(bytes32,uint256)": "infinite",
						"questions(bytes32)": "infinite",
						"renounceOwnership()": "30421",
						"settleQuestion(bytes32,uint256)": "infinite",
						"transferOwnership(address)": "30810"
					}
				},
				"methodIdentifiers": {
					"conditionalTokens()": "5bd9e299",
					"initializeAndPrepare(bytes32,bytes,uint256,address,uint256,uint256,bool,uint256)": "bd2e454a",
					"initializeQuestion(bytes32,bytes,uint256,address,uint256,uint256,bool)": "de0ea612",
					"isInitialized(bytes32)": "f7b637bb",
					"owner()": "8da5cb5b",
					"prepareQuestion(bytes32,uint256)": "b329504f",
					"questions(bytes32)": "95addb90",
					"renounceOwnership()": "715018a6",
					"settleQuestion(bytes32,uint256)": "c4bd8191",
					"transferOwnership(address)": "f2fde38b"
				}
			},
			"storageLayout": {
				"storage": [
					{
						"astId": 616,
						"contract": "contracts/Reporter.sol:Reporter",
						"label": "_owner",
						"offset": 0,
						"slot": "0",
						"type": "t_address"
					},
					{
						"astId": 129,
						"contract": "contracts/Reporter.sol:Reporter",
						"label": "questions",
						"offset": 0,
						"slot": "1",
						"type": "t_mapping(t_bytes32,t_struct(QuestionData)124_storage)"
					}
				],
				"types": {
					"t_address": {
						"encoding": "inplace",
						"label": "address",
						"numberOfBytes": "20"
					},
					"t_bool": {
						"encoding": "inplace",
						"label": "bool",
						"numberOfBytes": "1"
					},
					"t_bytes32": {
						"encoding": "inplace",
						"label": "bytes32",
						"numberOfBytes": "32"
					},
					"t_bytes_storage": {
						"encoding": "bytes",
						"label": "bytes",
						"numberOfBytes": "32"
					},
					"t_mapping(t_bytes32,t_struct(QuestionData)124_storage)": {
						"encoding": "mapping",
						"key": "t_bytes32",
						"label": "mapping(bytes32 => struct Reporter.QuestionData)",
						"numberOfBytes": "32",
						"value": "t_struct(QuestionData)124_storage"
					},
					"t_struct(QuestionData)124_storage": {
						"encoding": "inplace",
						"label": "struct Reporter.QuestionData",
						"members": [
							{
								"astId": 90,
								"contract": "contracts/Reporter.sol:Reporter",
								"label": "result",
								"offset": 0,
								"slot": "0",
								"type": "t_uint256"
							},
							{
								"astId": 93,
								"contract": "contracts/Reporter.sol:Reporter",
								"label": "resolutionTime",
								"offset": 0,
								"slot": "1",
								"type": "t_uint256"
							},
							{
								"astId": 96,
								"contract": "contracts/Reporter.sol:Reporter",
								"label": "reward",
								"offset": 0,
								"slot": "2",
								"type": "t_uint256"
							},
							{
								"astId": 99,
								"contract": "contracts/Reporter.sol:Reporter",
								"label": "proposalBond",
								"offset": 0,
								"slot": "3",
								"type": "t_uint256"
							},
							{
								"astId": 102,
								"contract": "contracts/Reporter.sol:Reporter",
								"label": "settled",
								"offset": 0,
								"slot": "4",
								"type": "t_uint256"
							},
							{
								"astId": 105,
								"contract": "contracts/Reporter.sol:Reporter",
								"label": "requestTimestamp",
								"offset": 0,
								"slot": "5",
								"type": "t_uint256"
							},
							{
								"astId": 108,
								"contract": "contracts/Reporter.sol:Reporter",
								"label": "adminResolutionTimestamp",
								"offset": 0,
								"slot": "6",
								"type": "t_uint256"
							},
							{
								"astId": 111,
								"contract": "contracts/Reporter.sol:Reporter",
								"label": "earlyResolutionEnabled",
								"offset": 0,
								"slot": "7",
								"type": "t_bool"
							},
							{
								"astId": 114,
								"contract": "contracts/Reporter.sol:Reporter",
								"label": "resolved",
								"offset": 1,
								"slot": "7",
								"type": "t_bool"
							},
							{
								"astId": 117,
								"contract": "contracts/Reporter.sol:Reporter",
								"label": "paused",
								"offset": 2,
								"slot": "7",
								"type": "t_bool"
							},
							{
								"astId": 120,
								"contract": "contracts/Reporter.sol:Reporter",
								"label": "rewardToken",
								"offset": 3,
								"slot": "7",
								"type": "t_address"
							},
							{
								"astId": 123,
								"contract": "contracts/Reporter.sol:Reporter",
								"label": "ancillaryData",
								"offset": 0,
								"slot": "8",
								"type": "t_bytes_storage"
							}
						],
						"numberOfBytes": "288"
					},
					"t_uint256": {
						"encoding": "inplace",
						"label": "uint256",
						"numberOfBytes": "32"
					}
				}
			},
			"userdoc": {
				"kind": "user",
				"methods": {},
				"version": 1
			}
		}
	}
}