{
	"data": {
		"bytecode": {
			"linkReferences": {},
			"object": "608060405234801561001057600080fd5b5033600e60006101000a81548173ffffffffffffffffffffffffffffffffffffffff021916908373ffffffffffffffffffffffffffffffffffffffff160217905550600e60009054906101000a900473ffffffffffffffffffffffffffffffffffffffff1673ffffffffffffffffffffffffffffffffffffffff16600073ffffffffffffffffffffffffffffffffffffffff167f8be0079c531659141344cd1fd0a4f28419497f9722a3daafe3b4186f6b6457e060405160405180910390a36040516100db9061013d565b604051809103906000f0801580156100f7573d6000803e3d6000fd5b50600f60006101000a81548173ffffffffffffffffffffffffffffffffffffffff021916908373ffffffffffffffffffffffffffffffffffffffff16021790555061014b565b614f0780620024b783390190565b61235c806200015b6000396000f3fe608060405234801561001057600080fd5b506004361061007d5760003560e01c8063715018a61161005b578063715018a61461025c5780638da5cb5b146102665780638f32d59b146102b0578063f2fde38b146102d25761007d565b806312b4d20c1461008257806352e831dd146100cc578063656a13a514610145575b600080fd5b61008a610316565b604051808273ffffffffffffffffffffffffffffffffffffffff1673ffffffffffffffffffffffffffffffffffffffff16815260200191505060405180910390f35b610143600480360360208110156100e257600080fd5b81019080803590602001906401000000008111156100ff57600080fd5b82018360208201111561011157600080fd5b8035906020019184600183028401116401000000008311171561013357600080fd5b909192939192939050505061033c565b005b61021a600480360360c081101561015b57600080fd5b81019080803573ffffffffffffffffffffffffffffffffffffffff169060200190929190803573ffffffffffffffffffffffffffffffffffffffff169060200190929190803590602001906401000000008111156101b857600080fd5b8201836020820111156101ca57600080fd5b803590602001918460208302840111640100000000831117156101ec57600080fd5b9091929391929390803590602001909291908035906020019092919080359060200190929190505050610899565b604051808273ffffffffffffffffffffffffffffffffffffffff1673ffffffffffffffffffffffffffffffffffffffff16815260200191505060405180910390f35b610264610c6e565b005b61026e610da9565b604051808273ffffffffffffffffffffffffffffffffffffffff1673ffffffffffffffffffffffffffffffffffffffff16815260200191505060405180910390f35b6102b8610dd3565b604051808215151515815260200191505060405180910390f35b610314600480360360208110156102e857600080fd5b81019080803573ffffffffffffffffffffffffffffffffffffffff169060200190929190505050610e2b565b005b600f60009054906101000a900473ffffffffffffffffffffffffffffffffffffffff1681565b600080606060008585608081101561035357600080fd5b81019080803573ffffffffffffffffffffffffffffffffffffffff169060200190929190803573ffffffffffffffffffffffffffffffffffffffff169060200190929190803590602001906401000000008111156103b057600080fd5b8201836020820111156103c257600080fd5b803590602001918460208302840111640100000000831117156103e457600080fd5b919080806020026020016040519081016040528093929190818152602001838360200280828437600081840152601f19601f8201169050808301925050505050505091929192908035906020019092919050505093509350935093506001600360006301ffc9a760e01b7bffffffffffffffffffffffffffffffffffffffffffffffffffffffff19167bffffffffffffffffffffffffffffffffffffffffffffffffffffffff1916815260200190815260200160002060006101000a81548160ff0219169083151502179055506001600360008073ffffffffffffffffffffffffffffffffffffffff1663bc197c81905060e01b600073ffffffffffffffffffffffffffffffffffffffff1663f23a6e61905060e01b187bffffffffffffffffffffffffffffffffffffffffffffffffffffffff19167bffffffffffffffffffffffffffffffffffffffffffffffffffffffff1916815260200190815260200160002060006101000a81548160ff02191690831515021790555083600460006101000a81548173ffffffffffffffffffffffffffffffffffffffff021916908373ffffffffffffffffffffffffffffffffffffffff16021790555082600560006101000a81548173ffffffffffffffffffffffffffffffffffffffff021916908373ffffffffffffffffffffffffffffffffffffffff16021790555081600690805190602001906105f6929190612101565b50806007819055506000600190506006805490506040519080825280602002602001820160405280156106385781602001602082028038833980820191505090505b506009908051906020019061064e92919061214e565b5060008090505b60068054905081101561075a576000600460009054906101000a900473ffffffffffffffffffffffffffffffffffffffff1673ffffffffffffffffffffffffffffffffffffffff1663d42dc0c2600684815481106106af57fe5b90600052602060002001546040518263ffffffff1660e01b81526004018082815260200191505060206040518083038186803b1580156106ee57600080fd5b505afa158015610702573d6000803e3d6000fd5b505050506040513d602081101561071857600080fd5b810190808051906020019092919050505090508083029250806009838154811061073e57fe5b9060005260206000200181905550508080600101915050610655565b50600181116107d1576040517f08c379a00000000000000000000000000000000000000000000000000000000081526004018080602001828103825260188152602001807f636f6e646974696f6e73206d7573742062652076616c6964000000000000000081525060200191505060405180910390fd5b60068054905060405190808252806020026020018201604052801561080a57816020015b60608152602001906001900390816107f55790505b50600a908051906020019061082092919061219b565b506108336006805490506000801b610eb1565b80600b8054905014610890576040517f08c379a00000000000000000000000000000000000000000000000000000000081526004018080602001828103825260228152602001806123066022913960400191505060405180910390fd5b50505050505050565b60006108a3610dd3565b610915576040517f08c379a00000000000000000000000000000000000000000000000000000000081526004018080602001828103825260208152602001807f4f776e61626c653a2063616c6c6572206973206e6f7420746865206f776e657281525060200191505060405180910390fd5b6000610a01600f60009054906101000a900473ffffffffffffffffffffffffffffffffffffffff168a8a8a8a8a604051602001808673ffffffffffffffffffffffffffffffffffffffff1673ffffffffffffffffffffffffffffffffffffffff1681526020018573ffffffffffffffffffffffffffffffffffffffff1673ffffffffffffffffffffffffffffffffffffffff168152602001806020018381526020018281038252858582818152602001925060200280828437600081840152601f19601f8201169050808301925050509650505050505050604051602081830303815290604052610fcd565b90508073ffffffffffffffffffffffffffffffffffffffff16633be3a3f5846040518263ffffffff1660e01b815260040180828152602001915050600060405180830381600087803b158015610a5657600080fd5b505af1158015610a6a573d6000803e3d6000fd5b505050508073ffffffffffffffffffffffffffffffffffffffff1663f217c929856040518263ffffffff1660e01b815260040180828152602001915050600060405180830381600087803b158015610ac157600080fd5b505af1158015610ad5573d6000803e3d6000fd5b505050508073ffffffffffffffffffffffffffffffffffffffff166313af4035336040518263ffffffff1660e01b8152600401808273ffffffffffffffffffffffffffffffffffffffff1673ffffffffffffffffffffffffffffffffffffffff168152602001915050600060405180830381600087803b158015610b5857600080fd5b505af1158015610b6c573d6000803e3d6000fd5b505050508773ffffffffffffffffffffffffffffffffffffffff168973ffffffffffffffffffffffffffffffffffffffff163373ffffffffffffffffffffffffffffffffffffffff167f995c513b2d4f13d46fb9c2f6cc4b94c4b0fb6f9215f4c079750796b086962028848b8b8b8a604051808673ffffffffffffffffffffffffffffffffffffffff1673ffffffffffffffffffffffffffffffffffffffff168152602001806020018481526020018381526020018281038252868682818152602001925060200280828437600081840152601f19601f820116905080830192505050965050505050505060405180910390a480915050979650505050505050565b610c76610dd3565b610ce8576040517f08c379a00000000000000000000000000000000000000000000000000000000081526004018080602001828103825260208152602001807f4f776e61626c653a2063616c6c6572206973206e6f7420746865206f776e657281525060200191505060405180910390fd5b600073ffffffffffffffffffffffffffffffffffffffff16600e60009054906101000a900473ffffffffffffffffffffffffffffffffffffffff1673ffffffffffffffffffffffffffffffffffffffff167f8be0079c531659141344cd1fd0a4f28419497f9722a3daafe3b4186f6b6457e060405160405180910390a36000600e60006101000a81548173ffffffffffffffffffffffffffffffffffffffff021916908373ffffffffffffffffffffffffffffffffffffffff160217905550565b6000600e60009054906101000a900473ffffffffffffffffffffffffffffffffffffffff16905090565b6000600e60009054906101000a900473ffffffffffffffffffffffffffffffffffffffff1673ffffffffffffffffffffffffffffffffffffffff163373ffffffffffffffffffffffffffffffffffffffff1614905090565b610e33610dd3565b610ea5576040517f08c379a00000000000000000000000000000000000000000000000000000000081526004018080602001828103825260208152602001807f4f776e61626c653a2063616c6c6572206973206e6f7420746865206f776e657281525060200191505060405180910390fd5b610eae81611261565b50565b6000821415610f1657600b610ee8600560009054906101000a900473ffffffffffffffffffffffffffffffffffffffff16836113a7565b9080600181540180825580915050906001820390600052602060002001600090919290919091505550610fc9565b818060019003925050600060098381548110610f2e57fe5b90600052602060002001549050600a8381548110610f4857fe5b9060005260206000200182908060018154018082558091505090600182039060005260206000200160009091929091909150555060008090505b81811015610fc657610fb984610fb48560068881548110610f9f57fe5b9060005260206000200154856001901b611412565b610eb1565b8080600101915050610f82565b50505b5050565b60006060826040516024018080602001828103825283818151815260200191508051906020019080838360005b83811015611015578082015181840152602081019050610ffa565b50505050905090810190601f1680156110425780820380516001836020036101000a031916815260200191505b50925050506040516020818303038152906040527f52e831dd000000000000000000000000000000000000000000000000000000007bffffffffffffffffffffffffffffffffffffffffffffffffffffffff19166020820180517bffffffffffffffffffffffffffffffffffffffffffffffffffffffff83818316178352505050509050606060638251016040519080825280601f01601f1916602001820160405280156110ff5781602001600182028038833980820191505090505b5090507f3d3d606380380380913d393d73bebebebebebebebebebebebebebebebebebebe60208201526c010000000000000000000000003002602d8201527f5af4602a57600080fd5b602d8060366000396000f3363d3d373d3d3d363d73be60418201526c01000000000000000000000000850260608201527f5af43d82803e903d91602b57fd5bf30000000000000000000000000000000000607482015260008090505b825181101561120f578281815181106111b957fe5b602001015160f81c60f81b8282606301815181106111d357fe5b60200101907effffffffffffffffffffffffffffffffffffffffffffffffffffffffffffff1916908160001a90535080806001019150506111a4565b5080516020820181816000f094505050600073ffffffffffffffffffffffffffffffffffffffff168373ffffffffffffffffffffffffffffffffffffffff16141561125957600080fd5b505092915050565b600073ffffffffffffffffffffffffffffffffffffffff168173ffffffffffffffffffffffffffffffffffffffff1614156112e7576040517f08c379a00000000000000000000000000000000000000000000000000000000081526004018080602001828103825260268152602001806122e06026913960400191505060405180910390fd5b8073ffffffffffffffffffffffffffffffffffffffff16600e60009054906101000a900473ffffffffffffffffffffffffffffffffffffffff1673ffffffffffffffffffffffffffffffffffffffff167f8be0079c531659141344cd1fd0a4f28419497f9722a3daafe3b4186f6b6457e060405160405180910390a380600e60006101000a81548173ffffffffffffffffffffffffffffffffffffffff021916908373ffffffffffffffffffffffffffffffffffffffff16021790555050565b60008282604051602001808373ffffffffffffffffffffffffffffffffffffffff1673ffffffffffffffffffffffffffffffffffffffff1660601b8152601401828152602001925050506040516020818303038152906040528051906020012060001c905092915050565b600080838360405160200180838152602001828152602001925050506040516020818303038152906040528051906020012060001c905060008060ff83901c141590506000805b7f30644e72e131a029b85045b68181585d97816a916871ca8d3c208c16d87cfd478061148157fe5b6001850893507f30644e72e131a029b85045b68181585d97816a916871ca8d3c208c16d87cfd47806114af57fe5b60037f30644e72e131a029b85045b68181585d97816a916871ca8d3c208c16d87cfd47806114d957fe5b7f30644e72e131a029b85045b68181585d97816a916871ca8d3c208c16d87cfd478061150157fe5b878809870908905061151281611946565b9150807f30644e72e131a029b85045b68181585d97816a916871ca8d3c208c16d87cfd478061153d57fe5b83840914156114595782801561155d575060006002838161155a57fe5b06145b8061157c57508215801561157b575060016002838161157857fe5b06145b5b156115a757817f30644e72e131a029b85045b68181585d97816a916871ca8d3c208c16d87cfd470391505b60008860001c9050600081146118fb57600060fe82901c1415935060028082901b901c90507f30644e72e131a029b85045b68181585d97816a916871ca8d3c208c16d87cfd47806115f457fe5b60037f30644e72e131a029b85045b68181585d97816a916871ca8d3c208c16d87cfd478061161e57fe5b7f30644e72e131a029b85045b68181585d97816a916871ca8d3c208c16d87cfd478061164657fe5b8485098409089150600061165983611946565b9050848015611672575060006002828161166f57fe5b06145b80611691575084158015611690575060016002828161168d57fe5b06145b5b156116bc57807f30644e72e131a029b85045b68181585d97816a916871ca8d3c208c16d87cfd470390505b827f30644e72e131a029b85045b68181585d97816a916871ca8d3c208c16d87cfd47806116e557fe5b8283091461175b576040517f08c379a000000000000000000000000000000000000000000000000000000000815260040180806020018281038252601c8152602001807f696e76616c696420706172656e7420636f6c6c656374696f6e2049440000000081525060200191505060405180910390fd5b60006060600673ffffffffffffffffffffffffffffffffffffffff1688878686604051602001808581526020018481526020018381526020018281526020019450505050506040516020818303038152906040526040518082805190602001908083835b602083106117e257805182526020820191506020810190506020830392506117bf565b6001836020036101000a038019825116818451168082178552505050505050905001915050600060405180830381855afa9150503d8060008114611842576040519150601f19603f3d011682016040523d82523d6000602084013e611847565b606091505b5091509150816118bf576040517f08c379a000000000000000000000000000000000000000000000000000000000815260040180806020018281038252600c8152602001807f6563616464206661696c6564000000000000000000000000000000000000000081525060200191505060405180910390fd5b8080602001905160408110156118d457600080fd5b81019080805190602001909291908051906020019092919050505080975081995050505050505b60016002848161190757fe5b061415611934577f4000000000000000000000000000000000000000000000000000000000000000851894505b8460001b955050505050509392505050565b6000807f30644e72e131a029b85045b68181585d97816a916871ca8d3c208c16d87cfd47905080838409915080828309818182099050818184099250818385099350818484099250818384099050818182098281830990508281820990508281820990508281830991508282860994508285860991508282830991508282850993508284850991508282830991508282830991508282850991508282860994508285860991508282830991508282830991508282860991508282850993508284860994508285860991508282830991508282850993508284850991508282830990508281820990508281820990508281830991508282860994508285850993508284850991508282830991508282830991508282860994508285860991508282830991508282860991508282830991508282830991508282860991508282850993508284850991508282830990508281820990508281830990508281850990508281820990508281820990508281820990508281820990508281830991508282860994508285860991508282860991508282850993508284850991508282850991508282830991508282830990508281830990508281820983818209905083818209905083818209905083818209905083818309915050828183099150828286099450828585099350828485099150828286099450828585099350828486099450828585099350828486099450828586099150828286099150828283099150828285099350828485099150828283099150828286099450828585099350828485099150828285099150828286099450828585099350828486099450828585099350828485099150828283099150828285099150828286099450828586099150828286099150828285099350828486099450828585099350828486099450828585099350828485099150828285099150828283099150828286099450828585099350828485099150828285099150828283099150828286099450828586099150828283099050828182099050828183099050828186099050828182099050828182099050828182099050828182099050828183099150828285099350828486099450828585099350828486099450828586099150828286099150828283099150828283099150828283099150828286099150828285099350828485099150828285099150828283099150828286099450828586099150828286099150828285099350828486099450828586099150828283099150828285099350828486099450828586099150828285099350828486099450828585099350828485099150828285099150828286099450828585099350828485099150828285099150828283099150828283099150828286099450828586099150828283099150828283099150828286099150828285099350828486099450828586099150828286099050828182099050828182099050828183099150828285099350828485099150828286099450828585099350828486099450828585099350828486099450828585099350828485099150828285099050828185099150828283099150828283099150828282099150508181850993508184840992508183850993508184840992508183850993508184850990508181850990508181840992505080828409925080838409925080838409925080838409925080838409925080838409925080838409925080838409925080838409925080838409925080838409925080838409925080838409925080838409925080838409925080838409925080838409925080838409925080838409925080838409925080838409925080838409925080838409925080838409925080838409925080838409925080838409925080838409925080838409925080838409925080838409925080838409925080838409925080838409925080838409925080838409925080838409925080838409925080838409925080838409925080838409925080838409925080838409925080838409925080838409925080838409925080838409925080838409925080838409925080838409925080838409925080838409925080838409925080838409925080838409925080838409925080838409925080838409925080838409925080838409925080838409925080838409925080838409925080838409925080838409925080838409925080838409925080838409925080838409925080838409925080838409925080838409925080838409925080838409925080838409925080838409925080838409925080838409925080838409925080838409925080838409925080838409925080838409925080838409925080838409925080838409925080838409925080838409925080838409925080838409925080838409925080838409925080838409925080838409925080838409925080838409925080838409925080838409925080838409925080838409925080838409925080838409925080838409925080838409925080838409925080838409925080838409925080838409925080838409925080838409925080838409925080838409925080838409925080838409925080838409925080838409925080838409925080838409925080838409925080838409925080838409925080838409925080838409925080838409925080838409925080838409925080838409925080838309915050919050565b82805482825590600052602060002090810192821561213d579160200282015b8281111561213c578251825591602001919060010190612121565b5b50905061214a91906121fb565b5090565b82805482825590600052602060002090810192821561218a579160200282015b8281111561218957825182559160200191906001019061216e565b5b5090506121979190612220565b5090565b8280548282559060005260206000209081019282156121ea579160200282015b828111156121e95782518290805190602001906121d9929190612245565b50916020019190600101906121bb565b5b5090506121f79190612292565b5090565b61221d91905b80821115612219576000816000905550600101612201565b5090565b90565b61224291905b8082111561223e576000816000905550600101612226565b5090565b90565b828054828255906000526020600020908101928215612281579160200282015b82811115612280578251825591602001919060010190612265565b5b50905061228e91906121fb565b5090565b6122bb91905b808211156122b757600081816122ae91906122be565b50600101612298565b5090565b90565b50805460008255906000526020600020908101906122dc91906121fb565b5056fe4f776e61626c653a206e6577206f776e657220697320746865207a65726f2061646472657373706f736974696f6e2049447320636f6e737472756374696f6e206661696c6564213fa265627a7a72315820b2ea743f515f5fc19916fc7df430e36f5fa6bf546cc02b32123839df040390de64736f6c6343000511003260806040526200001c6301ffc9a760e01b6200007760201b60201c565b62000071600073ffffffffffffffffffffffffffffffffffffffff1663bc197c81905060e01b600073ffffffffffffffffffffffffffffffffffffffff1663f23a6e61905060e01b186200007760201b60201c565b62000181565b63ffffffff60e01b817bffffffffffffffffffffffffffffffffffffffffffffffffffffffff1916141562000114576040517f08c379a000000000000000000000000000000000000000000000000000000000815260040180806020018281038252601c8152602001807f4552433136353a20696e76616c696420696e746572666163652069640000000081525060200191505060405180910390fd5b600160036000837bffffffffffffffffffffffffffffffffffffffffffffffffffffffff19167bffffffffffffffffffffffffffffffffffffffffffffffffffffffff1916815260200190815260200160002060006101000a81548160ff02191690831515021790555050565b614d7680620001916000396000f3fe608060405234801561001057600080fd5b50600436106102115760003560e01c80638da5cb5b11610125578063d8c55af7116100ad578063f217c9291161007c578063f217c92914610b95578063f23a6e6114610bc3578063f2fde38b14610ce2578063f55c79d014610d26578063f7f50fa514610d7257610211565b8063d8c55af714610a8f578063dd62ed3e14610ad1578063ddca3f4314610b49578063e03031a614610b6757610211565b8063a9059cbb116100f4578063a9059cbb14610765578063b2016bd4146107cb578063bc197c8114610815578063d3c9727c146109ca578063d5f15a4614610a0c57610211565b80638da5cb5b146106795780639003adfe146106c35780639c7632fc146106e1578063a457c2d7146106ff57610211565b806339509351116101a85780635bd9e299116101775780635bd9e299146105915780635ea545b7146105db578063627749e6146105f957806370a0823114610617578063715018a61461066f57610211565b8063395093511461046f5780633be3a3f5146104d557806340993b26146105035780634343116a1461054557610211565b8063164e68de116101e4578063164e68de1461032f57806316dbd7761461037357806318160ddd146103cb57806323b872dd146103e957610211565b806301ffc9a7146102165780630620c5811461027b578063095ea7b31461028557806313af4035146102eb575b600080fd5b6102616004803603602081101561022c57600080fd5b8101908080357bffffffffffffffffffffffffffffffffffffffffffffffffffffffff19169060200190929190505050610d90565b604051808215151515815260200191505060405180910390f35b610283610df8565b005b6102d16004803603604081101561029b57600080fd5b81019080803573ffffffffffffffffffffffffffffffffffffffff16906020019092919080359060200190929190505050610fab565b604051808215151515815260200191505060405180910390f35b61032d6004803603602081101561030157600080fd5b81019080803573ffffffffffffffffffffffffffffffffffffffff169060200190929190505050610fc2565b005b6103716004803603602081101561034557600080fd5b81019080803573ffffffffffffffffffffffffffffffffffffffff169060200190929190505050611092565b005b6103b56004803603602081101561038957600080fd5b81019080803573ffffffffffffffffffffffffffffffffffffffff1690602001909291905050506112dd565b6040518082815260200191505060405180910390f35b6103d3611369565b6040518082815260200191505060405180910390f35b610455600480360360608110156103ff57600080fd5b81019080803573ffffffffffffffffffffffffffffffffffffffff169060200190929190803573ffffffffffffffffffffffffffffffffffffffff16906020019092919080359060200190929190505050611373565b604051808215151515815260200191505060405180910390f35b6104bb6004803603604081101561048557600080fd5b81019080803573ffffffffffffffffffffffffffffffffffffffff16906020019092919080359060200190929190505050611424565b604051808215151515815260200191505060405180910390f35b610501600480360360208110156104eb57600080fd5b81019080803590602001909291905050506114c9565b005b6105436004803603606081101561051957600080fd5b8101908080359060200190929190803590602001909291908035906020019092919050505061154b565b005b61057b6004803603604081101561055b57600080fd5b810190808035906020019092919080359060200190929190505050611b94565b6040518082815260200191505060405180910390f35b610599611dd3565b604051808273ffffffffffffffffffffffffffffffffffffffff1673ffffffffffffffffffffffffffffffffffffffff16815260200191505060405180910390f35b6105e3611df9565b6040518082815260200191505060405180910390f35b610601611dff565b6040518082815260200191505060405180910390f35b6106596004803603602081101561062d57600080fd5b81019080803573ffffffffffffffffffffffffffffffffffffffff169060200190929190505050611e05565b6040518082815260200191505060405180910390f35b610677611e4d565b005b610681611e61565b604051808273ffffffffffffffffffffffffffffffffffffffff1673ffffffffffffffffffffffffffffffffffffffff16815260200191505060405180910390f35b6106cb611e8b565b6040518082815260200191505060405180910390f35b6106e9611ea9565b6040518082815260200191505060405180910390f35b61074b6004803603604081101561071557600080fd5b81019080803573ffffffffffffffffffffffffffffffffffffffff16906020019092919080359060200190929190505050611eaf565b604051808215151515815260200191505060405180910390f35b6107b16004803603604081101561077b57600080fd5b81019080803573ffffffffffffffffffffffffffffffffffffffff16906020019092919080359060200190929190505050611f54565b604051808215151515815260200191505060405180910390f35b6107d3611f6b565b604051808273ffffffffffffffffffffffffffffffffffffffff1673ffffffffffffffffffffffffffffffffffffffff16815260200191505060405180910390f35b610976600480360360a081101561082b57600080fd5b81019080803573ffffffffffffffffffffffffffffffffffffffff169060200190929190803573ffffffffffffffffffffffffffffffffffffffff1690602001909291908035906020019064010000000081111561088857600080fd5b82018360208201111561089a57600080fd5b803590602001918460208302840111640100000000831117156108bc57600080fd5b9091929391929390803590602001906401000000008111156108dd57600080fd5b8201836020820111156108ef57600080fd5b8035906020019184602083028401116401000000008311171561091157600080fd5b90919293919293908035906020019064010000000081111561093257600080fd5b82018360208201111561094457600080fd5b8035906020019184600183028401116401000000008311171561096657600080fd5b9091929391929390505050611f91565b60405180827bffffffffffffffffffffffffffffffffffffffffffffffffffffffff19167bffffffffffffffffffffffffffffffffffffffffffffffffffffffff1916815260200191505060405180910390f35b610a0a600480360360608110156109e057600080fd5b81019080803590602001909291908035906020019092919080359060200190929190505050612022565b005b610a8d60048036036040811015610a2257600080fd5b810190808035906020019092919080359060200190640100000000811115610a4957600080fd5b820183602082011115610a5b57600080fd5b80359060200191846020830284011164010000000083111715610a7d57600080fd5b909192939192939050505061250f565b005b610abb60048036036020811015610aa557600080fd5b8101908080359060200190929190505050612e8e565b6040518082815260200191505060405180910390f35b610b3360048036036040811015610ae757600080fd5b81019080803573ffffffffffffffffffffffffffffffffffffffff169060200190929190803573ffffffffffffffffffffffffffffffffffffffff169060200190929190505050612eaf565b6040518082815260200191505060405180910390f35b610b51612f36565b6040518082815260200191505060405180910390f35b610b9360048036036020811015610b7d57600080fd5b8101908080359060200190929190505050612f3c565b005b610bc160048036036020811015610bab57600080fd5b81019080803590602001909291905050506133fa565b005b610c8e600480360360a0811015610bd957600080fd5b81019080803573ffffffffffffffffffffffffffffffffffffffff169060200190929190803573ffffffffffffffffffffffffffffffffffffffff169060200190929190803590602001909291908035906020019092919080359060200190640100000000811115610c4a57600080fd5b820183602082011115610c5c57600080fd5b80359060200191846001830284011164010000000083111715610c7e57600080fd5b909192939192939050505061342c565b60405180827bffffffffffffffffffffffffffffffffffffffffffffffffffffffff19167bffffffffffffffffffffffffffffffffffffffffffffffffffffffff1916815260200191505060405180910390f35b610d2460048036036020811015610cf857600080fd5b81019080803573ffffffffffffffffffffffffffffffffffffffff169060200190929190505050613483565b005b610d5c60048036036040811015610d3c57600080fd5b81019080803590602001909291908035906020019092919050505061351d565b6040518082815260200191505060405180910390f35b610d7a613754565b6040518082815260200191505060405180910390f35b600060036000837bffffffffffffffffffffffffffffffffffffffffffffffffffffffff19167bffffffffffffffffffffffffffffffffffffffffffffffffffffffff1916815260200190815260200160002060009054906101000a900460ff169050919050565b610e0061375a565b60006010546011540390506000811115610fa857610e298160105461380490919063ffffffff16565b601081905550600560009054906101000a900473ffffffffffffffffffffffffffffffffffffffff1673ffffffffffffffffffffffffffffffffffffffff1663a9059cbb601260009054906101000a900473ffffffffffffffffffffffffffffffffffffffff16836040518363ffffffff1660e01b8152600401808373ffffffffffffffffffffffffffffffffffffffff1673ffffffffffffffffffffffffffffffffffffffff16815260200182815260200192505050602060405180830381600087803b158015610efa57600080fd5b505af1158015610f0e573d6000803e3d6000fd5b505050506040513d6020811015610f2457600080fd5b8101908080519060200190929190505050610fa7576040517f08c379a000000000000000000000000000000000000000000000000000000000815260040180806020018281038252601a8152602001807f7769746864726177616c207472616e73666572206661696c656400000000000081525060200191505060405180910390fd5b5b50565b6000610fb833848461388c565b6001905092915050565b600073ffffffffffffffffffffffffffffffffffffffff16601260009054906101000a900473ffffffffffffffffffffffffffffffffffffffff1673ffffffffffffffffffffffffffffffffffffffff1614611086576040517f08c379a00000000000000000000000000000000000000000000000000000000081526004018080602001828103825260118152602001807f4f776e657220616c72656164792073657400000000000000000000000000000081525060200191505060405180910390fd5b61108f81613a83565b50565b600061109c611369565b6110b96110a884611e05565b600854613b4990919063ffffffff16565b816110c057fe5b0490506000611117600c60008573ffffffffffffffffffffffffffffffffffffffff1673ffffffffffffffffffffffffffffffffffffffff1681526020019081526020016000205483613bcf90919063ffffffff16565b905060008111156112d85781600c60008573ffffffffffffffffffffffffffffffffffffffff1673ffffffffffffffffffffffffffffffffffffffff1681526020019081526020016000208190555061117b81600d5461380490919063ffffffff16565b600d81905550600560009054906101000a900473ffffffffffffffffffffffffffffffffffffffff1673ffffffffffffffffffffffffffffffffffffffff1663a9059cbb84836040518363ffffffff1660e01b8152600401808373ffffffffffffffffffffffffffffffffffffffff1673ffffffffffffffffffffffffffffffffffffffff16815260200182815260200192505050602060405180830381600087803b15801561122a57600080fd5b505af115801561123e573d6000803e3d6000fd5b505050506040513d602081101561125457600080fd5b81019080805190602001909291905050506112d7576040517f08c379a000000000000000000000000000000000000000000000000000000000815260040180806020018281038252601a8152602001807f7769746864726177616c207472616e73666572206661696c656400000000000081525060200191505060405180910390fd5b5b505050565b6000806112e8611369565b6113056112f485611e05565b600854613b4990919063ffffffff16565b8161130c57fe5b049050611361600c60008573ffffffffffffffffffffffffffffffffffffffff1673ffffffffffffffffffffffffffffffffffffffff1681526020019081526020016000205482613bcf90919063ffffffff16565b915050919050565b6000600254905090565b6000611380848484613c58565b611419843361141485600160008a73ffffffffffffffffffffffffffffffffffffffff1673ffffffffffffffffffffffffffffffffffffffff16815260200190815260200160002060003373ffffffffffffffffffffffffffffffffffffffff1673ffffffffffffffffffffffffffffffffffffffff16815260200190815260200160002054613bcf90919063ffffffff16565b61388c565b600190509392505050565b60006114bf33846114ba85600160003373ffffffffffffffffffffffffffffffffffffffff1673ffffffffffffffffffffffffffffffffffffffff16815260200190815260200160002060008973ffffffffffffffffffffffffffffffffffffffff1673ffffffffffffffffffffffffffffffffffffffff1681526020019081526020016000205461380490919063ffffffff16565b61388c565b6001905092915050565b6000600e5414611541576040517f08c379a00000000000000000000000000000000000000000000000000000000081526004018080602001828103825260168152602001807f436c6f73652054696d6520616c7265616479207365740000000000000000000081525060200191505060405180910390fd5b80600e8190555050565b600e5442106115c2576040517f08c379a000000000000000000000000000000000000000000000000000000000815260040180806020018281038252600b8152602001807f46504d4d20636c6f73656400000000000000000000000000000000000000000081525060200191505060405180910390fd5b60006115ce848461351d565b905081811015611646576040517f08c379a000000000000000000000000000000000000000000000000000000000815260040180806020018281038252601e8152602001807f6d696e696d756d2062757920616d6f756e74206e6f742072656163686564000081525060200191505060405180910390fd5b600560009054906101000a900473ffffffffffffffffffffffffffffffffffffffff1673ffffffffffffffffffffffffffffffffffffffff166323b872dd3330876040518463ffffffff1660e01b8152600401808473ffffffffffffffffffffffffffffffffffffffff1673ffffffffffffffffffffffffffffffffffffffff1681526020018373ffffffffffffffffffffffffffffffffffffffff1673ffffffffffffffffffffffffffffffffffffffff1681526020018281526020019350505050602060405180830381600087803b15801561172357600080fd5b505af1158015611737573d6000803e3d6000fd5b505050506040513d602081101561174d57600080fd5b81019080805190602001909291905050506117d0576040517f08c379a00000000000000000000000000000000000000000000000000000000081526004018080602001828103825260148152602001807f636f7374207472616e73666572206661696c656400000000000000000000000081525060200191505060405180910390fd5b6000670de0b6b3a76400006117f060075487613b4990919063ffffffff16565b816117f757fe5b04905061180f8160085461380490919063ffffffff16565b6008819055506000670de0b6b3a7640000611835600f5488613b4990919063ffffffff16565b8161183c57fe5b0490506118548160115461380490919063ffffffff16565b601181905550600061188182611873858a613bcf90919063ffffffff16565b613bcf90919063ffffffff16565b9050600560009054906101000a900473ffffffffffffffffffffffffffffffffffffffff1673ffffffffffffffffffffffffffffffffffffffff1663095ea7b3600460009054906101000a900473ffffffffffffffffffffffffffffffffffffffff16836040518363ffffffff1660e01b8152600401808373ffffffffffffffffffffffffffffffffffffffff1673ffffffffffffffffffffffffffffffffffffffff16815260200182815260200192505050602060405180830381600087803b15801561194e57600080fd5b505af1158015611962573d6000803e3d6000fd5b505050506040513d602081101561197857600080fd5b81019080805190602001909291905050506119fb576040517f08c379a000000000000000000000000000000000000000000000000000000000815260040180806020018281038252601a8152602001807f617070726f76616c20666f722073706c697473206661696c656400000000000081525060200191505060405180910390fd5b611a0481613eff565b600460009054906101000a900473ffffffffffffffffffffffffffffffffffffffff1673ffffffffffffffffffffffffffffffffffffffff1663f242432a3033600b8a81548110611a5157fe5b9060005260206000200154886040518563ffffffff1660e01b8152600401808573ffffffffffffffffffffffffffffffffffffffff1673ffffffffffffffffffffffffffffffffffffffff1681526020018473ffffffffffffffffffffffffffffffffffffffff1673ffffffffffffffffffffffffffffffffffffffff1681526020018381526020018281526020018060200182810382526000815260200160200195505050505050600060405180830381600087803b158015611b1457600080fd5b505af1158015611b28573d6000803e3d6000fd5b50505050853373ffffffffffffffffffffffffffffffffffffffff167f4f62630f51608fc8a7603a9391a5101e58bd7c276139366fc107dc3b67c3dcf889868860405180848152602001838152602001828152602001935050505060405180910390a350505050505050565b6000600b805490508210611c10576040517f08c379a00000000000000000000000000000000000000000000000000000000081526004018080602001828103825260158152602001807f696e76616c6964206f7574636f6d6520696e646578000000000000000000000081525060200191505060405180910390fd5b6060611c1a614101565b90506000611c3f600f5460075401670de0b6b3a7640000613bcf90919063ffffffff16565b611c5a670de0b6b3a764000087613b4990919063ffffffff16565b81611c6157fe5b0490506000828581518110611c7257fe5b602002602001015190506000611c99670de0b6b3a764000083613b4990919063ffffffff16565b905060008090505b8451811015611d1157868114611d04576000858281518110611cbf57fe5b60200260200101519050611d00611cdf8683613bcf90919063ffffffff16565b611cf28386613b4990919063ffffffff16565b61437990919063ffffffff16565b9250505b8080600101915050611ca1565b5060008111611d88576040517f08c379a000000000000000000000000000000000000000000000000000000000815260040180806020018281038252601b8152602001807f6d7573742068617665206e6f6e2d7a65726f2062616c616e636573000000000081525060200191505060405180910390fd5b611dc782611db9611daa670de0b6b3a76400008561437990919063ffffffff16565b8661380490919063ffffffff16565b613bcf90919063ffffffff16565b94505050505092915050565b600460009054906101000a900473ffffffffffffffffffffffffffffffffffffffff1681565b60105481565b600e5481565b60008060008373ffffffffffffffffffffffffffffffffffffffff1673ffffffffffffffffffffffffffffffffffffffff168152602001908152602001600020549050919050565b611e5561375a565b611e5f6000613a83565b565b6000601260009054906101000a900473ffffffffffffffffffffffffffffffffffffffff16905090565b6000611ea4600d54600854613bcf90919063ffffffff16565b905090565b600f5481565b6000611f4a3384611f4585600160003373ffffffffffffffffffffffffffffffffffffffff1673ffffffffffffffffffffffffffffffffffffffff16815260200190815260200160002060008973ffffffffffffffffffffffffffffffffffffffff1673ffffffffffffffffffffffffffffffffffffffff16815260200190815260200160002054613bcf90919063ffffffff16565b61388c565b6001905092915050565b6000611f61338484613c58565b6001905092915050565b600560009054906101000a900473ffffffffffffffffffffffffffffffffffffffff1681565b60003073ffffffffffffffffffffffffffffffffffffffff168973ffffffffffffffffffffffffffffffffffffffff16148015611ffa5750600073ffffffffffffffffffffffffffffffffffffffff168873ffffffffffffffffffffffffffffffffffffffff16145b1561200e5763bc197c8160e01b9050612016565b600060e01b90505b98975050505050505050565b600e544210612099576040517f08c379a000000000000000000000000000000000000000000000000000000000815260040180806020018281038252600b8152602001807f46504d4d20636c6f73656400000000000000000000000000000000000000000081525060200191505060405180910390fd5b60006120a58484611b94565b90508181111561211d576040517f08c379a000000000000000000000000000000000000000000000000000000000815260040180806020018281038252601c8152602001807f6d6178696d756d2073656c6c20616d6f756e742065786365656465640000000081525060200191505060405180910390fd5b600460009054906101000a900473ffffffffffffffffffffffffffffffffffffffff1673ffffffffffffffffffffffffffffffffffffffff1663f242432a3330600b878154811061216a57fe5b9060005260206000200154856040518563ffffffff1660e01b8152600401808573ffffffffffffffffffffffffffffffffffffffff1673ffffffffffffffffffffffffffffffffffffffff1681526020018473ffffffffffffffffffffffffffffffffffffffff1673ffffffffffffffffffffffffffffffffffffffff1681526020018381526020018281526020018060200182810382526000815260200160200195505050505050600060405180830381600087803b15801561222d57600080fd5b505af1158015612241573d6000803e3d6000fd5b505050506000612278600f5461226a600754670de0b6b3a7640000613bcf90919063ffffffff16565b613bcf90919063ffffffff16565b61228d60075487613b4990919063ffffffff16565b8161229457fe5b0490506122ac8160085461380490919063ffffffff16565b60088190555060006122e5600f546122d7600754670de0b6b3a7640000613bcf90919063ffffffff16565b613bcf90919063ffffffff16565b6122fa600f5488613b4990919063ffffffff16565b8161230157fe5b0490506123198160115461380490919063ffffffff16565b601181905550600061234682612338858a61380490919063ffffffff16565b61380490919063ffffffff16565b9050612351816143ad565b600560009054906101000a900473ffffffffffffffffffffffffffffffffffffffff1673ffffffffffffffffffffffffffffffffffffffff1663a9059cbb33896040518363ffffffff1660e01b8152600401808373ffffffffffffffffffffffffffffffffffffffff1673ffffffffffffffffffffffffffffffffffffffff16815260200182815260200192505050602060405180830381600087803b1580156123fa57600080fd5b505af115801561240e573d6000803e3d6000fd5b505050506040513d602081101561242457600080fd5b81019080805190602001909291905050506124a7576040517f08c379a00000000000000000000000000000000000000000000000000000000081526004018080602001828103825260168152602001807f72657475726e207472616e73666572206661696c65640000000000000000000081525060200191505060405180910390fd5b853373ffffffffffffffffffffffffffffffffffffffff167fadcf2a240ed9300d681d9a3f5382b6c1beed1b7e46643e0c7b42cbe6e2d766b489868860405180848152602001838152602001828152602001935050505060405180910390a350505050505050565b60008311612585576040517f08c379a00000000000000000000000000000000000000000000000000000000081526004018080602001828103825260188152602001807f66756e64696e67206d757374206265206e6f6e2d7a65726f000000000000000081525060200191505060405180910390fd5b6060600b805490506040519080825280602002602001820160405280156125bb5781602001602082028038833980820191505090505b50905060006125c8611369565b90506000808211156127245760008585905014612630576040517f08c379a0000000000000000000000000000000000000000000000000000000008152600401808060200182810382526032815260200180614c856032913960400191505060405180910390fd5b606061263a614101565b9050600080905060008090505b825181101561268257600083828151811061265e57fe5b6020026020010151905080831015612674578092505b508080600101915050612647565b5060008090505b82518110156126fe576000826126bb8584815181106126a457fe5b60200260200101518c613b4990919063ffffffff16565b816126c257fe5b0490506126d8818b613bcf90919063ffffffff16565b8783815181106126e457fe5b602002602001018181525050508080600101915050612689565b5080612713858a613b4990919063ffffffff16565b8161271a57fe5b04925050506128ee565b60008585905011156128ea57600b8054905085859050146127ad576040517f08c379a000000000000000000000000000000000000000000000000000000000815260040180806020018281038252600f8152602001807f68696e74206c656e677468206f6666000000000000000000000000000000000081525060200191505060405180910390fd5b600080905060008090505b868690508110156127f45760008787838181106127d157fe5b905060200201359050808310156127e6578092505b5080806001019150506127b8565b5060008090505b868690508110156128e75760008261282e89898581811061281857fe5b905060200201358b613b4990919063ffffffff16565b8161283557fe5b049050600081116128ae576040517f08c379a000000000000000000000000000000000000000000000000000000000815260040180806020018281038252601e8152602001807f6d7573742068696e7420612076616c696420646973747269627574696f6e000081525060200191505060405180910390fd5b6128c1818a613bcf90919063ffffffff16565b8683815181106128cd57fe5b6020026020010181815250505080806001019150506127fb565b50505b8590505b600560009054906101000a900473ffffffffffffffffffffffffffffffffffffffff1673ffffffffffffffffffffffffffffffffffffffff166323b872dd3330896040518463ffffffff1660e01b8152600401808473ffffffffffffffffffffffffffffffffffffffff1673ffffffffffffffffffffffffffffffffffffffff1681526020018373ffffffffffffffffffffffffffffffffffffffff1673ffffffffffffffffffffffffffffffffffffffff1681526020018281526020019350505050602060405180830381600087803b1580156129cb57600080fd5b505af11580156129df573d6000803e3d6000fd5b505050506040513d60208110156129f557600080fd5b8101908080519060200190929190505050612a78576040517f08c379a00000000000000000000000000000000000000000000000000000000081526004018080602001828103825260178152602001807f66756e64696e67207472616e73666572206661696c656400000000000000000081525060200191505060405180910390fd5b600560009054906101000a900473ffffffffffffffffffffffffffffffffffffffff1673ffffffffffffffffffffffffffffffffffffffff1663095ea7b3600460009054906101000a900473ffffffffffffffffffffffffffffffffffffffff16886040518363ffffffff1660e01b8152600401808373ffffffffffffffffffffffffffffffffffffffff1673ffffffffffffffffffffffffffffffffffffffff16815260200182815260200192505050602060405180830381600087803b158015612b4357600080fd5b505af1158015612b57573d6000803e3d6000fd5b505050506040513d6020811015612b6d57600080fd5b8101908080519060200190929190505050612bf0576040517f08c379a000000000000000000000000000000000000000000000000000000000815260040180806020018281038252601a8152602001807f617070726f76616c20666f722073706c697473206661696c656400000000000081525060200191505060405180910390fd5b612bf986613eff565b612c0333826145ab565b600460009054906101000a900473ffffffffffffffffffffffffffffffffffffffff1673ffffffffffffffffffffffffffffffffffffffff16632eb2c2d63033600b876040518563ffffffff1660e01b8152600401808573ffffffffffffffffffffffffffffffffffffffff1673ffffffffffffffffffffffffffffffffffffffff1681526020018473ffffffffffffffffffffffffffffffffffffffff1673ffffffffffffffffffffffffffffffffffffffff1681526020018060200180602001806020018481038452868181548152602001915080548015612d0657602002820191906000526020600020905b815481526020019060010190808311612cf2575b5050848103835285818151815260200191508051906020019060200280838360005b83811015612d43578082015181840152602081019050612d28565b50505050905001848103825260008152602001602001975050505050505050600060405180830381600087803b158015612d7c57600080fd5b505af1158015612d90573d6000803e3d6000fd5b5050505060008090505b8351811015612dee57612dc9848281518110612db257fe5b602002602001015188613bcf90919063ffffffff16565b848281518110612dd557fe5b6020026020010181815250508080600101915050612d9a565b503373ffffffffffffffffffffffffffffffffffffffff167fec2dc3e5a3bb9aa0a1deb905d2bd23640d07f107e6ceb484024501aad964a95184836040518080602001838152602001828103825284818151815260200191508051906020019060200280838360005b83811015612e72578082015181840152602081019050612e57565b50505050905001935050505060405180910390a2505050505050565b60068181548110612e9b57fe5b906000526020600020016000915090505481565b6000600160008473ffffffffffffffffffffffffffffffffffffffff1673ffffffffffffffffffffffffffffffffffffffff16815260200190815260200160002060008373ffffffffffffffffffffffffffffffffffffffff1673ffffffffffffffffffffffffffffffffffffffff16815260200190815260200160002054905092915050565b60075481565b6060612f46614101565b905060608151604051908082528060200260200182016040528015612f7a5781602001602082028038833980820191505090505b5090506000612f87611369565b905060008090505b8351811015612fec5781612fbf86868481518110612fa957fe5b6020026020010151613b4990919063ffffffff16565b81612fc657fe5b04838281518110612fd357fe5b6020026020010181815250508080600101915050612f8f565b506000600560009054906101000a900473ffffffffffffffffffffffffffffffffffffffff1673ffffffffffffffffffffffffffffffffffffffff166370a08231306040518263ffffffff1660e01b8152600401808273ffffffffffffffffffffffffffffffffffffffff1673ffffffffffffffffffffffffffffffffffffffff16815260200191505060206040518083038186803b15801561308e57600080fd5b505afa1580156130a2573d6000803e3d6000fd5b505050506040513d60208110156130b857600080fd5b810190808051906020019092919050505090506130d53386614772565b6131c1600560009054906101000a900473ffffffffffffffffffffffffffffffffffffffff1673ffffffffffffffffffffffffffffffffffffffff166370a08231306040518263ffffffff1660e01b8152600401808273ffffffffffffffffffffffffffffffffffffffff1673ffffffffffffffffffffffffffffffffffffffff16815260200191505060206040518083038186803b15801561317757600080fd5b505afa15801561318b573d6000803e3d6000fd5b505050506040513d60208110156131a157600080fd5b810190808051906020019092919050505082613bcf90919063ffffffff16565b9050600460009054906101000a900473ffffffffffffffffffffffffffffffffffffffff1673ffffffffffffffffffffffffffffffffffffffff16632eb2c2d63033600b876040518563ffffffff1660e01b8152600401808573ffffffffffffffffffffffffffffffffffffffff1673ffffffffffffffffffffffffffffffffffffffff1681526020018473ffffffffffffffffffffffffffffffffffffffff1673ffffffffffffffffffffffffffffffffffffffff16815260200180602001806020018060200184810384528681815481526020019150805480156132c657602002820191906000526020600020905b8154815260200190600101908083116132b2575b5050848103835285818151815260200191508051906020019060200280838360005b838110156133035780820151818401526020810190506132e8565b50505050905001848103825260008152602001602001975050505050505050600060405180830381600087803b15801561333c57600080fd5b505af1158015613350573d6000803e3d6000fd5b505050503373ffffffffffffffffffffffffffffffffffffffff167f8b4b2c8ebd04c47fc8bce136a85df9b93fcb1f47c8aa296457d4391519d190e78483886040518080602001848152602001838152602001828103825285818151815260200191508051906020019060200280838360005b838110156133de5780820151818401526020810190506133c3565b5050505090500194505050505060405180910390a25050505050565b6000600f541415613419576000600f541461341457600080fd5b613422565b61342161375a565b5b80600f8190555050565b60003073ffffffffffffffffffffffffffffffffffffffff168773ffffffffffffffffffffffffffffffffffffffff1614156134715763f23a6e6160e01b9050613479565b600060e01b90505b9695505050505050565b61348b61375a565b600073ffffffffffffffffffffffffffffffffffffffff168173ffffffffffffffffffffffffffffffffffffffff161415613511576040517f08c379a0000000000000000000000000000000000000000000000000000000008152600401808060200182810382526026815260200180614c3d6026913960400191505060405180910390fd5b61351a81613a83565b50565b6000600b805490508210613599576040517f08c379a00000000000000000000000000000000000000000000000000000000081526004018080602001828103825260158152602001807f696e76616c6964206f7574636f6d6520696e646578000000000000000000000081525060200191505060405180910390fd5b60606135a3614101565b905060006135e3670de0b6b3a76400006135cc600f546007540188613b4990919063ffffffff16565b816135d357fe5b0486613bcf90919063ffffffff16565b905060008285815181106135f357fe5b60200260200101519050600061361a670de0b6b3a764000083613b4990919063ffffffff16565b905060008090505b84518110156136925786811461368557600085828151811061364057fe5b60200260200101519050613681613660868361380490919063ffffffff16565b6136738386613b4990919063ffffffff16565b61437990919063ffffffff16565b9250505b8080600101915050613622565b5060008111613709576040517f08c379a000000000000000000000000000000000000000000000000000000000815260040180806020018281038252601b8152602001807f6d7573742068617665206e6f6e2d7a65726f2062616c616e636573000000000081525060200191505060405180910390fd5b613748613727670de0b6b3a76400008361437990919063ffffffff16565b61373a858561380490919063ffffffff16565b613bcf90919063ffffffff16565b94505050505092915050565b60115481565b3373ffffffffffffffffffffffffffffffffffffffff16613779611e61565b73ffffffffffffffffffffffffffffffffffffffff1614613802576040517f08c379a00000000000000000000000000000000000000000000000000000000081526004018080602001828103825260208152602001807f4f776e61626c653a2063616c6c6572206973206e6f7420746865206f776e657281525060200191505060405180910390fd5b565b600080828401905083811015613882576040517f08c379a000000000000000000000000000000000000000000000000000000000815260040180806020018281038252601b8152602001807f536166654d6174683a206164646974696f6e206f766572666c6f77000000000081525060200191505060405180910390fd5b8091505092915050565b600073ffffffffffffffffffffffffffffffffffffffff168373ffffffffffffffffffffffffffffffffffffffff161415613912576040517f08c379a0000000000000000000000000000000000000000000000000000000008152600401808060200182810382526024815260200180614d1e6024913960400191505060405180910390fd5b600073ffffffffffffffffffffffffffffffffffffffff168273ffffffffffffffffffffffffffffffffffffffff161415613998576040517f08c379a0000000000000000000000000000000000000000000000000000000008152600401808060200182810382526022815260200180614c636022913960400191505060405180910390fd5b80600160008573ffffffffffffffffffffffffffffffffffffffff1673ffffffffffffffffffffffffffffffffffffffff16815260200190815260200160002060008473ffffffffffffffffffffffffffffffffffffffff1673ffffffffffffffffffffffffffffffffffffffff168152602001908152602001600020819055508173ffffffffffffffffffffffffffffffffffffffff168373ffffffffffffffffffffffffffffffffffffffff167f8c5be1e5ebec7d5bd14f71427d1e84f3dd0314c0f7b2291e5b200ac8c7c3b925836040518082815260200191505060405180910390a3505050565b6000601260009054906101000a900473ffffffffffffffffffffffffffffffffffffffff16905081601260006101000a81548173ffffffffffffffffffffffffffffffffffffffff021916908373ffffffffffffffffffffffffffffffffffffffff1602179055508173ffffffffffffffffffffffffffffffffffffffff168173ffffffffffffffffffffffffffffffffffffffff167f8be0079c531659141344cd1fd0a4f28419497f9722a3daafe3b4186f6b6457e060405160405180910390a35050565b600080831415613b5c5760009050613bc9565b6000828402905082848281613b6d57fe5b0414613bc4576040517f08c379a0000000000000000000000000000000000000000000000000000000008152600401808060200182810382526021815260200180614cb76021913960400191505060405180910390fd5b809150505b92915050565b600082821115613c47576040517f08c379a000000000000000000000000000000000000000000000000000000000815260040180806020018281038252601e8152602001807f536166654d6174683a207375627472616374696f6e206f766572666c6f77000081525060200191505060405180910390fd5b600082840390508091505092915050565b600073ffffffffffffffffffffffffffffffffffffffff168373ffffffffffffffffffffffffffffffffffffffff161415613cde576040517f08c379a0000000000000000000000000000000000000000000000000000000008152600401808060200182810382526025815260200180614cf96025913960400191505060405180910390fd5b600073ffffffffffffffffffffffffffffffffffffffff168273ffffffffffffffffffffffffffffffffffffffff161415613d64576040517f08c379a0000000000000000000000000000000000000000000000000000000008152600401808060200182810382526023815260200180614c1a6023913960400191505060405180910390fd5b613d6f83838361491c565b613dc0816000808673ffffffffffffffffffffffffffffffffffffffff1673ffffffffffffffffffffffffffffffffffffffff16815260200190815260200160002054613bcf90919063ffffffff16565b6000808573ffffffffffffffffffffffffffffffffffffffff1673ffffffffffffffffffffffffffffffffffffffff16815260200190815260200160002081905550613e53816000808573ffffffffffffffffffffffffffffffffffffffff1673ffffffffffffffffffffffffffffffffffffffff1681526020019081526020016000205461380490919063ffffffff16565b6000808473ffffffffffffffffffffffffffffffffffffffff1673ffffffffffffffffffffffffffffffffffffffff168152602001908152602001600020819055508173ffffffffffffffffffffffffffffffffffffffff168373ffffffffffffffffffffffffffffffffffffffff167fddf252ad1be2c89b69c2b068fc378daa952ba7f163c4a11628f55a4df523b3ef836040518082815260200191505060405180910390a3505050565b600060016006805490500390505b600081126140fd576060613f3760098381548110613f2757fe5b9060005260206000200154614ba7565b905060008090505b600a8381548110613f4c57fe5b90600052602060002001805490508110156140ed57600460009054906101000a900473ffffffffffffffffffffffffffffffffffffffff1673ffffffffffffffffffffffffffffffffffffffff166372ce4275600560009054906101000a900473ffffffffffffffffffffffffffffffffffffffff16600a8681548110613fcf57fe5b906000526020600020018481548110613fe457fe5b906000526020600020015460068781548110613ffc57fe5b906000526020600020015486896040518663ffffffff1660e01b8152600401808673ffffffffffffffffffffffffffffffffffffffff1673ffffffffffffffffffffffffffffffffffffffff16815260200185815260200184815260200180602001838152602001828103825284818151815260200191508051906020019060200280838360005b8381101561409f578082015181840152602081019050614084565b505050509050019650505050505050600060405180830381600087803b1580156140c857600080fd5b505af11580156140dc573d6000803e3d6000fd5b505050508080600101915050613f3f565b5050808060019003915050613f0d565b5050565b606080600b805490506040519080825280602002602001820160405280156141385781602001602082028038833980820191505090505b50905060008090505b600b805490508110156141a2573082828151811061415b57fe5b602002602001019073ffffffffffffffffffffffffffffffffffffffff16908173ffffffffffffffffffffffffffffffffffffffff16815250508080600101915050614141565b50600460009054906101000a900473ffffffffffffffffffffffffffffffffffffffff1673ffffffffffffffffffffffffffffffffffffffff16634e1273f482600b6040518363ffffffff1660e01b8152600401808060200180602001838103835285818151815260200191508051906020019060200280838360005b8381101561423a57808201518184015260208101905061421f565b50505050905001838103825284818154815260200191508054801561427e57602002820191906000526020600020905b81548152602001906001019080831161426a575b505094505050505060006040518083038186803b15801561429e57600080fd5b505afa1580156142b2573d6000803e3d6000fd5b505050506040513d6000823e3d601f19601f8201168201806040525060208110156142dc57600080fd5b81019080805160405193929190846401000000008211156142fc57600080fd5b8382019150602082018581111561431257600080fd5b825186602082028301116401000000008211171561432f57600080fd5b8083526020830192505050908051906020019060200280838360005b8381101561436657808201518184015260208101905061434b565b5050505090500160405250505091505090565b60008083111561439a57600182600185038161439157fe5b040190506143a7565b8183816143a357fe5b0490505b92915050565b60008090505b6006805490508110156145a75760606143e2600983815481106143d257fe5b9060005260206000200154614ba7565b905060008090505b600a83815481106143f757fe5b906000526020600020018054905081101561459857600460009054906101000a900473ffffffffffffffffffffffffffffffffffffffff1673ffffffffffffffffffffffffffffffffffffffff16639e7212ad600560009054906101000a900473ffffffffffffffffffffffffffffffffffffffff16600a868154811061447a57fe5b90600052602060002001848154811061448f57fe5b9060005260206000200154600687815481106144a757fe5b906000526020600020015486896040518663ffffffff1660e01b8152600401808673ffffffffffffffffffffffffffffffffffffffff1673ffffffffffffffffffffffffffffffffffffffff16815260200185815260200184815260200180602001838152602001828103825284818151815260200191508051906020019060200280838360005b8381101561454a57808201518184015260208101905061452f565b505050509050019650505050505050600060405180830381600087803b15801561457357600080fd5b505af1158015614587573d6000803e3d6000fd5b5050505080806001019150506143ea565b505080806001019150506143b3565b5050565b600073ffffffffffffffffffffffffffffffffffffffff168273ffffffffffffffffffffffffffffffffffffffff16141561464e576040517f08c379a000000000000000000000000000000000000000000000000000000000815260040180806020018281038252601f8152602001807f45524332303a206d696e7420746f20746865207a65726f20616464726573730081525060200191505060405180910390fd5b61465a6000838361491c565b61466f8160025461380490919063ffffffff16565b6002819055506146c6816000808573ffffffffffffffffffffffffffffffffffffffff1673ffffffffffffffffffffffffffffffffffffffff1681526020019081526020016000205461380490919063ffffffff16565b6000808473ffffffffffffffffffffffffffffffffffffffff1673ffffffffffffffffffffffffffffffffffffffff168152602001908152602001600020819055508173ffffffffffffffffffffffffffffffffffffffff16600073ffffffffffffffffffffffffffffffffffffffff167fddf252ad1be2c89b69c2b068fc378daa952ba7f163c4a11628f55a4df523b3ef836040518082815260200191505060405180910390a35050565b600073ffffffffffffffffffffffffffffffffffffffff168273ffffffffffffffffffffffffffffffffffffffff1614156147f8576040517f08c379a0000000000000000000000000000000000000000000000000000000008152600401808060200182810382526021815260200180614cd86021913960400191505060405180910390fd5b6148048260008361491c565b614855816000808573ffffffffffffffffffffffffffffffffffffffff1673ffffffffffffffffffffffffffffffffffffffff16815260200190815260200160002054613bcf90919063ffffffff16565b6000808473ffffffffffffffffffffffffffffffffffffffff1673ffffffffffffffffffffffffffffffffffffffff168152602001908152602001600020819055506148ac81600254613bcf90919063ffffffff16565b600281905550600073ffffffffffffffffffffffffffffffffffffffff168273ffffffffffffffffffffffffffffffffffffffff167fddf252ad1be2c89b69c2b068fc378daa952ba7f163c4a11628f55a4df523b3ef836040518082815260200191505060405180910390a35050565b600073ffffffffffffffffffffffffffffffffffffffff168373ffffffffffffffffffffffffffffffffffffffff161461495a5761495983611092565b5b6000614964611369565b90506000808214614992578161498584600854613b4990919063ffffffff16565b8161498c57fe5b04614994565b825b9050600073ffffffffffffffffffffffffffffffffffffffff168573ffffffffffffffffffffffffffffffffffffffff1614614a7f57614a1c81600c60008873ffffffffffffffffffffffffffffffffffffffff1673ffffffffffffffffffffffffffffffffffffffff16815260200190815260200160002054613bcf90919063ffffffff16565b600c60008773ffffffffffffffffffffffffffffffffffffffff1673ffffffffffffffffffffffffffffffffffffffff16815260200190815260200160002081905550614a7481600d54613bcf90919063ffffffff16565b600d81905550614a9b565b614a948160085461380490919063ffffffff16565b6008819055505b600073ffffffffffffffffffffffffffffffffffffffff168473ffffffffffffffffffffffffffffffffffffffff1614614b8457614b2181600c60008773ffffffffffffffffffffffffffffffffffffffff1673ffffffffffffffffffffffffffffffffffffffff1681526020019081526020016000205461380490919063ffffffff16565b600c60008673ffffffffffffffffffffffffffffffffffffffff1673ffffffffffffffffffffffffffffffffffffffff16815260200190815260200160002081905550614b7981600d5461380490919063ffffffff16565b600d81905550614ba0565b614b9981600854613bcf90919063ffffffff16565b6008819055505b5050505050565b606081604051908082528060200260200182016040528015614bd85781602001602082028038833980820191505090505b50905060008090505b82811015614c1357806001901b828281518110614bfa57fe5b6020026020010181815250508080600101915050614be1565b5091905056fe45524332303a207472616e7366657220746f20746865207a65726f20616464726573734f776e61626c653a206e6577206f776e657220697320746865207a65726f206164647265737345524332303a20617070726f766520746f20746865207a65726f206164647265737363616e6e6f742075736520646973747269627574696f6e2068696e7420616674657220696e697469616c2066756e64696e67536166654d6174683a206d756c7469706c69636174696f6e206f766572666c6f7745524332303a206275726e2066726f6d20746865207a65726f206164647265737345524332303a207472616e736665722066726f6d20746865207a65726f206164647265737345524332303a20617070726f76652066726f6d20746865207a65726f2061646472657373a265627a7a723158200eac17fd54c5c426dd119ee1e9fd513448e62434d39a8cdde17e005d1fc5586864736f6c63430005110032",
			"opcodes": "PUSH1 0x80 PUSH1 0x40 MSTORE CALLVALUE DUP1 ISZERO PUSH2 0x10 JUMPI PUSH1 0x0 DUP1 REVERT JUMPDEST POP CALLER PUSH1 0xE PUSH1 0x0 PUSH2 0x100 EXP DUP2 SLOAD DUP2 PUSH20 0xFFFFFFFFFFFFFFFFFFFFFFFFFFFFFFFFFFFFFFFF MUL NOT AND SWAP1 DUP4 PUSH20 0xFFFFFFFFFFFFFFFFFFFFFFFFFFFFFFFFFFFFFFFF AND MUL OR SWAP1 SSTORE POP PUSH1 0xE PUSH1 0x0 SWAP1 SLOAD SWAP1 PUSH2 0x100 EXP SWAP1 DIV PUSH20 0xFFFFFFFFFFFFFFFFFFFFFFFFFFFFFFFFFFFFFFFF AND PUSH20 0xFFFFFFFFFFFFFFFFFFFFFFFFFFFFFFFFFFFFFFFF AND PUSH1 0x0 PUSH20 0xFFFFFFFFFFFFFFFFFFFFFFFFFFFFFFFFFFFFFFFF AND PUSH32 0x8BE0079C531659141344CD1FD0A4F28419497F9722A3DAAFE3B4186F6B6457E0 PUSH1 0x40 MLOAD PUSH1 0x40 MLOAD DUP1 SWAP2 SUB SWAP1 LOG3 PUSH1 0x40 MLOAD PUSH2 0xDB SWAP1 PUSH2 0x13D JUMP JUMPDEST PUSH1 0x40 MLOAD DUP1 SWAP2 SUB SWAP1 PUSH1 0x0 CREATE DUP1 ISZERO DUP1 ISZERO PUSH2 0xF7 JUMPI RETURNDATASIZE PUSH1 0x0 DUP1 RETURNDATACOPY RETURNDATASIZE PUSH1 0x0 REVERT JUMPDEST POP PUSH1 0xF PUSH1 0x0 PUSH2 0x100 EXP DUP2 SLOAD DUP2 PUSH20 0xFFFFFFFFFFFFFFFFFFFFFFFFFFFFFFFFFFFFFFFF MUL NOT AND SWAP1 DUP4 PUSH20 0xFFFFFFFFFFFFFFFFFFFFFFFFFFFFFFFFFFFFFFFF AND MUL OR SWAP1 SSTORE POP PUSH2 0x14B JUMP JUMPDEST PUSH2 0x4F07 DUP1 PUSH3 0x24B7 DUP4 CODECOPY ADD SWAP1 JUMP JUMPDEST PUSH2 0x235C DUP1 PUSH3 0x15B PUSH1 0x0 CODECOPY PUSH1 0x0 RETURN INVALID PUSH1 0x80 PUSH1 0x40 MSTORE CALLVALUE DUP1 ISZERO PUSH2 0x10 JUMPI PUSH1 0x0 DUP1 REVERT JUMPDEST POP PUSH1 0x4 CALLDATASIZE LT PUSH2 0x7D JUMPI PUSH1 0x0 CALLDATALOAD PUSH1 0xE0 SHR DUP1 PUSH4 0x715018A6 GT PUSH2 0x5B JUMPI DUP1 PUSH4 0x715018A6 EQ PUSH2 0x25C JUMPI DUP1 PUSH4 0x8DA5CB5B EQ PUSH2 0x266 JUMPI DUP1 PUSH4 0x8F32D59B EQ PUSH2 0x2B0 JUMPI DUP1 PUSH4 0xF2FDE38B EQ PUSH2 0x2D2 JUMPI PUSH2 0x7D JUMP JUMPDEST DUP1 PUSH4 0x12B4D20C EQ PUSH2 0x82 JUMPI DUP1 PUSH4 0x52E831DD EQ PUSH2 0xCC JUMPI DUP1 PUSH4 0x656A13A5 EQ PUSH2 0x145 JUMPI JUMPDEST PUSH1 0x0 DUP1 REVERT JUMPDEST PUSH2 0x8A PUSH2 0x316 JUMP JUMPDEST PUSH1 0x40 MLOAD DUP1 DUP3 PUSH20 0xFFFFFFFFFFFFFFFFFFFFFFFFFFFFFFFFFFFFFFFF AND PUSH20 0xFFFFFFFFFFFFFFFFFFFFFFFFFFFFFFFFFFFFFFFF AND DUP2 MSTORE PUSH1 0x20 ADD SWAP2 POP POP PUSH1 0x40 MLOAD DUP1 SWAP2 SUB SWAP1 RETURN JUMPDEST PUSH2 0x143 PUSH1 0x4 DUP1 CALLDATASIZE SUB PUSH1 0x20 DUP2 LT ISZERO PUSH2 0xE2 JUMPI PUSH1 0x0 DUP1 REVERT JUMPDEST DUP2 ADD SWAP1 DUP1 DUP1 CALLDATALOAD SWAP1 PUSH1 0x20 ADD SWAP1 PUSH5 0x100000000 DUP2 GT ISZERO PUSH2 0xFF JUMPI PUSH1 0x0 DUP1 REVERT JUMPDEST DUP3 ADD DUP4 PUSH1 0x20 DUP3 ADD GT ISZERO PUSH2 0x111 JUMPI PUSH1 0x0 DUP1 REVERT JUMPDEST DUP1 CALLDATALOAD SWAP1 PUSH1 0x20 ADD SWAP2 DUP5 PUSH1 0x1 DUP4 MUL DUP5 ADD GT PUSH5 0x100000000 DUP4 GT OR ISZERO PUSH2 0x133 JUMPI PUSH1 0x0 DUP1 REVERT JUMPDEST SWAP1 SWAP2 SWAP3 SWAP4 SWAP2 SWAP3 SWAP4 SWAP1 POP POP POP PUSH2 0x33C JUMP JUMPDEST STOP JUMPDEST PUSH2 0x21A PUSH1 0x4 DUP1 CALLDATASIZE SUB PUSH1 0xC0 DUP2 LT ISZERO PUSH2 0x15B JUMPI PUSH1 0x0 DUP1 REVERT JUMPDEST DUP2 ADD SWAP1 DUP1 DUP1 CALLDATALOAD PUSH20 0xFFFFFFFFFFFFFFFFFFFFFFFFFFFFFFFFFFFFFFFF AND SWAP1 PUSH1 0x20 ADD SWAP1 SWAP3 SWAP2 SWAP1 DUP1 CALLDATALOAD PUSH20 0xFFFFFFFFFFFFFFFFFFFFFFFFFFFFFFFFFFFFFFFF AND SWAP1 PUSH1 0x20 ADD SWAP1 SWAP3 SWAP2 SWAP1 DUP1 CALLDATALOAD SWAP1 PUSH1 0x20 ADD SWAP1 PUSH5 0x100000000 DUP2 GT ISZERO PUSH2 0x1B8 JUMPI PUSH1 0x0 DUP1 REVERT JUMPDEST DUP3 ADD DUP4 PUSH1 0x20 DUP3 ADD GT ISZERO PUSH2 0x1CA JUMPI PUSH1 0x0 DUP1 REVERT JUMPDEST DUP1 CALLDATALOAD SWAP1 PUSH1 0x20 ADD SWAP2 DUP5 PUSH1 0x20 DUP4 MUL DUP5 ADD GT PUSH5 0x100000000 DUP4 GT OR ISZERO PUSH2 0x1EC JUMPI PUSH1 0x0 DUP1 REVERT JUMPDEST SWAP1 SWAP2 SWAP3 SWAP4 SWAP2 SWAP3 SWAP4 SWAP1 DUP1 CALLDATALOAD SWAP1 PUSH1 0x20 ADD SWAP1 SWAP3 SWAP2 SWAP1 DUP1 CALLDATALOAD SWAP1 PUSH1 0x20 ADD SWAP1 SWAP3 SWAP2 SWAP1 DUP1 CALLDATALOAD SWAP1 PUSH1 0x20 ADD SWAP1 SWAP3 SWAP2 SWAP1 POP POP POP PUSH2 0x899 JUMP JUMPDEST PUSH1 0x40 MLOAD DUP1 DUP3 PUSH20 0xFFFFFFFFFFFFFFFFFFFFFFFFFFFFFFFFFFFFFFFF AND PUSH20 0xFFFFFFFFFFFFFFFFFFFFFFFFFFFFFFFFFFFFFFFF AND DUP2 MSTORE PUSH1 0x20 ADD SWAP2 POP POP PUSH1 0x40 MLOAD DUP1 SWAP2 SUB SWAP1 RETURN JUMPDEST PUSH2 0x264 PUSH2 0xC6E JUMP JUMPDEST STOP JUMPDEST PUSH2 0x26E PUSH2 0xDA9 JUMP JUMPDEST PUSH1 0x40 MLOAD DUP1 DUP3 PUSH20 0xFFFFFFFFFFFFFFFFFFFFFFFFFFFFFFFFFFFFFFFF AND PUSH20 0xFFFFFFFFFFFFFFFFFFFFFFFFFFFFFFFFFFFFFFFF AND DUP2 MSTORE PUSH1 0x20 ADD SWAP2 POP POP PUSH1 0x40 MLOAD DUP1 SWAP2 SUB SWAP1 RETURN JUMPDEST PUSH2 0x2B8 PUSH2 0xDD3 JUMP JUMPDEST PUSH1 0x40 MLOAD DUP1 DUP3 ISZERO ISZERO ISZERO ISZERO DUP2 MSTORE PUSH1 0x20 ADD SWAP2 POP POP PUSH1 0x40 MLOAD DUP1 SWAP2 SUB SWAP1 RETURN JUMPDEST PUSH2 0x314 PUSH1 0x4 DUP1 CALLDATASIZE SUB PUSH1 0x20 DUP2 LT ISZERO PUSH2 0x2E8 JUMPI PUSH1 0x0 DUP1 REVERT JUMPDEST DUP2 ADD SWAP1 DUP1 DUP1 CALLDATALOAD PUSH20 0xFFFFFFFFFFFFFFFFFFFFFFFFFFFFFFFFFFFFFFFF AND SWAP1 PUSH1 0x20 ADD SWAP1 SWAP3 SWAP2 SWAP1 POP POP POP PUSH2 0xE2B JUMP JUMPDEST STOP JUMPDEST PUSH1 0xF PUSH1 0x0 SWAP1 SLOAD SWAP1 PUSH2 0x100 EXP SWAP1 DIV PUSH20 0xFFFFFFFFFFFFFFFFFFFFFFFFFFFFFFFFFFFFFFFF AND DUP2 JUMP JUMPDEST PUSH1 0x0 DUP1 PUSH1 0x60 PUSH1 0x0 DUP6 DUP6 PUSH1 0x80 DUP2 LT ISZERO PUSH2 0x353 JUMPI PUSH1 0x0 DUP1 REVERT JUMPDEST DUP2 ADD SWAP1 DUP1 DUP1 CALLDATALOAD PUSH20 0xFFFFFFFFFFFFFFFFFFFFFFFFFFFFFFFFFFFFFFFF AND SWAP1 PUSH1 0x20 ADD SWAP1 SWAP3 SWAP2 SWAP1 DUP1 CALLDATALOAD PUSH20 0xFFFFFFFFFFFFFFFFFFFFFFFFFFFFFFFFFFFFFFFF AND SWAP1 PUSH1 0x20 ADD SWAP1 SWAP3 SWAP2 SWAP1 DUP1 CALLDATALOAD SWAP1 PUSH1 0x20 ADD SWAP1 PUSH5 0x100000000 DUP2 GT ISZERO PUSH2 0x3B0 JUMPI PUSH1 0x0 DUP1 REVERT JUMPDEST DUP3 ADD DUP4 PUSH1 0x20 DUP3 ADD GT ISZERO PUSH2 0x3C2 JUMPI PUSH1 0x0 DUP1 REVERT JUMPDEST DUP1 CALLDATALOAD SWAP1 PUSH1 0x20 ADD SWAP2 DUP5 PUSH1 0x20 DUP4 MUL DUP5 ADD GT PUSH5 0x100000000 DUP4 GT OR ISZERO PUSH2 0x3E4 JUMPI PUSH1 0x0 DUP1 REVERT JUMPDEST SWAP2 SWAP1 DUP1 DUP1 PUSH1 0x20 MUL PUSH1 0x20 ADD PUSH1 0x40 MLOAD SWAP1 DUP2 ADD PUSH1 0x40 MSTORE DUP1 SWAP4 SWAP3 SWAP2 SWAP1 DUP2 DUP2 MSTORE PUSH1 0x20 ADD DUP4 DUP4 PUSH1 0x20 MUL DUP1 DUP3 DUP5 CALLDATACOPY PUSH1 0x0 DUP2 DUP5 ADD MSTORE PUSH1 0x1F NOT PUSH1 0x1F DUP3 ADD AND SWAP1 POP DUP1 DUP4 ADD SWAP3 POP POP POP POP POP POP POP SWAP2 SWAP3 SWAP2 SWAP3 SWAP1 DUP1 CALLDATALOAD SWAP1 PUSH1 0x20 ADD SWAP1 SWAP3 SWAP2 SWAP1 POP POP POP SWAP4 POP SWAP4 POP SWAP4 POP SWAP4 POP PUSH1 0x1 PUSH1 0x3 PUSH1 0x0 PUSH4 0x1FFC9A7 PUSH1 0xE0 SHL PUSH28 0xFFFFFFFFFFFFFFFFFFFFFFFFFFFFFFFFFFFFFFFFFFFFFFFFFFFFFFFF NOT AND PUSH28 0xFFFFFFFFFFFFFFFFFFFFFFFFFFFFFFFFFFFFFFFFFFFFFFFFFFFFFFFF NOT AND DUP2 MSTORE PUSH1 0x20 ADD SWAP1 DUP2 MSTORE PUSH1 0x20 ADD PUSH1 0x0 KECCAK256 PUSH1 0x0 PUSH2 0x100 EXP DUP2 SLOAD DUP2 PUSH1 0xFF MUL NOT AND SWAP1 DUP4 ISZERO ISZERO MUL OR SWAP1 SSTORE POP PUSH1 0x1 PUSH1 0x3 PUSH1 0x0 DUP1 PUSH20 0xFFFFFFFFFFFFFFFFFFFFFFFFFFFFFFFFFFFFFFFF AND PUSH4 0xBC197C81 SWAP1 POP PUSH1 0xE0 SHL PUSH1 0x0 PUSH20 0xFFFFFFFFFFFFFFFFFFFFFFFFFFFFFFFFFFFFFFFF AND PUSH4 0xF23A6E61 SWAP1 POP PUSH1 0xE0 SHL XOR PUSH28 0xFFFFFFFFFFFFFFFFFFFFFFFFFFFFFFFFFFFFFFFFFFFFFFFFFFFFFFFF NOT AND PUSH28 0xFFFFFFFFFFFFFFFFFFFFFFFFFFFFFFFFFFFFFFFFFFFFFFFFFFFFFFFF NOT AND DUP2 MSTORE PUSH1 0x20 ADD SWAP1 DUP2 MSTORE PUSH1 0x20 ADD PUSH1 0x0 KECCAK256 PUSH1 0x0 PUSH2 0x100 EXP DUP2 SLOAD DUP2 PUSH1 0xFF MUL NOT AND SWAP1 DUP4 ISZERO ISZERO MUL OR SWAP1 SSTORE POP DUP4 PUSH1 0x4 PUSH1 0x0 PUSH2 0x100 EXP DUP2 SLOAD DUP2 PUSH20 0xFFFFFFFFFFFFFFFFFFFFFFFFFFFFFFFFFFFFFFFF MUL NOT AND SWAP1 DUP4 PUSH20 0xFFFFFFFFFFFFFFFFFFFFFFFFFFFFFFFFFFFFFFFF AND MUL OR SWAP1 SSTORE POP DUP3 PUSH1 0x5 PUSH1 0x0 PUSH2 0x100 EXP DUP2 SLOAD DUP2 PUSH20 0xFFFFFFFFFFFFFFFFFFFFFFFFFFFFFFFFFFFFFFFF MUL NOT AND SWAP1 DUP4 PUSH20 0xFFFFFFFFFFFFFFFFFFFFFFFFFFFFFFFFFFFFFFFF AND MUL OR SWAP1 SSTORE POP DUP2 PUSH1 0x6 SWAP1 DUP1 MLOAD SWAP1 PUSH1 0x20 ADD SWAP1 PUSH2 0x5F6 SWAP3 SWAP2 SWAP1 PUSH2 0x2101 JUMP JUMPDEST POP DUP1 PUSH1 0x7 DUP2 SWAP1 SSTORE POP PUSH1 0x0 PUSH1 0x1 SWAP1 POP PUSH1 0x6 DUP1 SLOAD SWAP1 POP PUSH1 0x40 MLOAD SWAP1 DUP1 DUP3 MSTORE DUP1 PUSH1 0x20 MUL PUSH1 0x20 ADD DUP3 ADD PUSH1 0x40 MSTORE DUP1 ISZERO PUSH2 0x638 JUMPI DUP2 PUSH1 0x20 ADD PUSH1 0x20 DUP3 MUL DUP1 CODESIZE DUP4 CODECOPY DUP1 DUP3 ADD SWAP2 POP POP SWAP1 POP JUMPDEST POP PUSH1 0x9 SWAP1 DUP1 MLOAD SWAP1 PUSH1 0x20 ADD SWAP1 PUSH2 0x64E SWAP3 SWAP2 SWAP1 PUSH2 0x214E JUMP JUMPDEST POP PUSH1 0x0 DUP1 SWAP1 POP JUMPDEST PUSH1 0x6 DUP1 SLOAD SWAP1 POP DUP2 LT ISZERO PUSH2 0x75A JUMPI PUSH1 0x0 PUSH1 0x4 PUSH1 0x0 SWAP1 SLOAD SWAP1 PUSH2 0x100 EXP SWAP1 DIV PUSH20 0xFFFFFFFFFFFFFFFFFFFFFFFFFFFFFFFFFFFFFFFF AND PUSH20 0xFFFFFFFFFFFFFFFFFFFFFFFFFFFFFFFFFFFFFFFF AND PUSH4 0xD42DC0C2 PUSH1 0x6 DUP5 DUP2 SLOAD DUP2 LT PUSH2 0x6AF JUMPI INVALID JUMPDEST SWAP1 PUSH1 0x0 MSTORE PUSH1 0x20 PUSH1 0x0 KECCAK256 ADD SLOAD PUSH1 0x40 MLOAD DUP3 PUSH4 0xFFFFFFFF AND PUSH1 0xE0 SHL DUP2 MSTORE PUSH1 0x4 ADD DUP1 DUP3 DUP2 MSTORE PUSH1 0x20 ADD SWAP2 POP POP PUSH1 0x20 PUSH1 0x40 MLOAD DUP1 DUP4 SUB DUP2 DUP7 DUP1 EXTCODESIZE ISZERO DUP1 ISZERO PUSH2 0x6EE JUMPI PUSH1 0x0 DUP1 REVERT JUMPDEST POP GAS STATICCALL ISZERO DUP1 ISZERO PUSH2 0x702 JUMPI RETURNDATASIZE PUSH1 0x0 DUP1 RETURNDATACOPY RETURNDATASIZE PUSH1 0x0 REVERT JUMPDEST POP POP POP POP PUSH1 0x40 MLOAD RETURNDATASIZE PUSH1 0x20 DUP2 LT ISZERO PUSH2 0x718 JUMPI PUSH1 0x0 DUP1 REVERT JUMPDEST DUP2 ADD SWAP1 DUP1 DUP1 MLOAD SWAP1 PUSH1 0x20 ADD SWAP1 SWAP3 SWAP2 SWAP1 POP POP POP SWAP1 POP DUP1 DUP4 MUL SWAP3 POP DUP1 PUSH1 0x9 DUP4 DUP2 SLOAD DUP2 LT PUSH2 0x73E JUMPI INVALID JUMPDEST SWAP1 PUSH1 0x0 MSTORE PUSH1 0x20 PUSH1 0x0 KECCAK256 ADD DUP2 SWAP1 SSTORE POP POP DUP1 DUP1 PUSH1 0x1 ADD SWAP2 POP POP PUSH2 0x655 JUMP JUMPDEST POP PUSH1 0x1 DUP2 GT PUSH2 0x7D1 JUMPI PUSH1 0x40 MLOAD PUSH32 0x8C379A000000000000000000000000000000000000000000000000000000000 DUP2 MSTORE PUSH1 0x4 ADD DUP1 DUP1 PUSH1 0x20 ADD DUP3 DUP2 SUB DUP3 MSTORE PUSH1 0x18 DUP2 MSTORE PUSH1 0x20 ADD DUP1 PUSH32 0x636F6E646974696F6E73206D7573742062652076616C69640000000000000000 DUP2 MSTORE POP PUSH1 0x20 ADD SWAP2 POP POP PUSH1 0x40 MLOAD DUP1 SWAP2 SUB SWAP1 REVERT JUMPDEST PUSH1 0x6 DUP1 SLOAD SWAP1 POP PUSH1 0x40 MLOAD SWAP1 DUP1 DUP3 MSTORE DUP1 PUSH1 0x20 MUL PUSH1 0x20 ADD DUP3 ADD PUSH1 0x40 MSTORE DUP1 ISZERO PUSH2 0x80A JUMPI DUP2 PUSH1 0x20 ADD JUMPDEST PUSH1 0x60 DUP2 MSTORE PUSH1 0x20 ADD SWAP1 PUSH1 0x1 SWAP1 SUB SWAP1 DUP2 PUSH2 0x7F5 JUMPI SWAP1 POP JUMPDEST POP PUSH1 0xA SWAP1 DUP1 MLOAD SWAP1 PUSH1 0x20 ADD SWAP1 PUSH2 0x820 SWAP3 SWAP2 SWAP1 PUSH2 0x219B JUMP JUMPDEST POP PUSH2 0x833 PUSH1 0x6 DUP1 SLOAD SWAP1 POP PUSH1 0x0 DUP1 SHL PUSH2 0xEB1 JUMP JUMPDEST DUP1 PUSH1 0xB DUP1 SLOAD SWAP1 POP EQ PUSH2 0x890 JUMPI PUSH1 0x40 MLOAD PUSH32 0x8C379A000000000000000000000000000000000000000000000000000000000 DUP2 MSTORE PUSH1 0x4 ADD DUP1 DUP1 PUSH1 0x20 ADD DUP3 DUP2 SUB DUP3 MSTORE PUSH1 0x22 DUP2 MSTORE PUSH1 0x20 ADD DUP1 PUSH2 0x2306 PUSH1 0x22 SWAP2 CODECOPY PUSH1 0x40 ADD SWAP2 POP POP PUSH1 0x40 MLOAD DUP1 SWAP2 SUB SWAP1 REVERT JUMPDEST POP POP POP POP POP POP POP JUMP JUMPDEST PUSH1 0x0 PUSH2 0x8A3 PUSH2 0xDD3 JUMP JUMPDEST PUSH2 0x915 JUMPI PUSH1 0x40 MLOAD PUSH32 0x8C379A000000000000000000000000000000000000000000000000000000000 DUP2 MSTORE PUSH1 0x4 ADD DUP1 DUP1 PUSH1 0x20 ADD DUP3 DUP2 SUB DUP3 MSTORE PUSH1 0x20 DUP2 MSTORE PUSH1 0x20 ADD DUP1 PUSH32 0x4F776E61626C653A2063616C6C6572206973206E6F7420746865206F776E6572 DUP2 MSTORE POP PUSH1 0x20 ADD SWAP2 POP POP PUSH1 0x40 MLOAD DUP1 SWAP2 SUB SWAP1 REVERT JUMPDEST PUSH1 0x0 PUSH2 0xA01 PUSH1 0xF PUSH1 0x0 SWAP1 SLOAD SWAP1 PUSH2 0x100 EXP SWAP1 DIV PUSH20 0xFFFFFFFFFFFFFFFFFFFFFFFFFFFFFFFFFFFFFFFF AND DUP11 DUP11 DUP11 DUP11 DUP11 PUSH1 0x40 MLOAD PUSH1 0x20 ADD DUP1 DUP7 PUSH20 0xFFFFFFFFFFFFFFFFFFFFFFFFFFFFFFFFFFFFFFFF AND PUSH20 0xFFFFFFFFFFFFFFFFFFFFFFFFFFFFFFFFFFFFFFFF AND DUP2 MSTORE PUSH1 0x20 ADD DUP6 PUSH20 0xFFFFFFFFFFFFFFFFFFFFFFFFFFFFFFFFFFFFFFFF AND PUSH20 0xFFFFFFFFFFFFFFFFFFFFFFFFFFFFFFFFFFFFFFFF AND DUP2 MSTORE PUSH1 0x20 ADD DUP1 PUSH1 0x20 ADD DUP4 DUP2 MSTORE PUSH1 0x20 ADD DUP3 DUP2 SUB DUP3 MSTORE DUP6 DUP6 DUP3 DUP2 DUP2 MSTORE PUSH1 0x20 ADD SWAP3 POP PUSH1 0x20 MUL DUP1 DUP3 DUP5 CALLDATACOPY PUSH1 0x0 DUP2 DUP5 ADD MSTORE PUSH1 0x1F NOT PUSH1 0x1F DUP3 ADD AND SWAP1 POP DUP1 DUP4 ADD SWAP3 POP POP POP SWAP7 POP POP POP POP POP POP POP PUSH1 0x40 MLOAD PUSH1 0x20 DUP2 DUP4 SUB SUB DUP2 MSTORE SWAP1 PUSH1 0x40 MSTORE PUSH2 0xFCD JUMP JUMPDEST SWAP1 POP DUP1 PUSH20 0xFFFFFFFFFFFFFFFFFFFFFFFFFFFFFFFFFFFFFFFF AND PUSH4 0x3BE3A3F5 DUP5 PUSH1 0x40 MLOAD DUP3 PUSH4 0xFFFFFFFF AND PUSH1 0xE0 SHL DUP2 MSTORE PUSH1 0x4 ADD DUP1 DUP3 DUP2 MSTORE PUSH1 0x20 ADD SWAP2 POP POP PUSH1 0x0 PUSH1 0x40 MLOAD DUP1 DUP4 SUB DUP2 PUSH1 0x0 DUP8 DUP1 EXTCODESIZE ISZERO DUP1 ISZERO PUSH2 0xA56 JUMPI PUSH1 0x0 DUP1 REVERT JUMPDEST POP GAS CALL ISZERO DUP1 ISZERO PUSH2 0xA6A JUMPI RETURNDATASIZE PUSH1 0x0 DUP1 RETURNDATACOPY RETURNDATASIZE PUSH1 0x0 REVERT JUMPDEST POP POP POP POP DUP1 PUSH20 0xFFFFFFFFFFFFFFFFFFFFFFFFFFFFFFFFFFFFFFFF AND PUSH4 0xF217C929 DUP6 PUSH1 0x40 MLOAD DUP3 PUSH4 0xFFFFFFFF AND PUSH1 0xE0 SHL DUP2 MSTORE PUSH1 0x4 ADD DUP1 DUP3 DUP2 MSTORE PUSH1 0x20 ADD SWAP2 POP POP PUSH1 0x0 PUSH1 0x40 MLOAD DUP1 DUP4 SUB DUP2 PUSH1 0x0 DUP8 DUP1 EXTCODESIZE ISZERO DUP1 ISZERO PUSH2 0xAC1 JUMPI PUSH1 0x0 DUP1 REVERT JUMPDEST POP GAS CALL ISZERO DUP1 ISZERO PUSH2 0xAD5 JUMPI RETURNDATASIZE PUSH1 0x0 DUP1 RETURNDATACOPY RETURNDATASIZE PUSH1 0x0 REVERT JUMPDEST POP POP POP POP DUP1 PUSH20 0xFFFFFFFFFFFFFFFFFFFFFFFFFFFFFFFFFFFFFFFF AND PUSH4 0x13AF4035 CALLER PUSH1 0x40 MLOAD DUP3 PUSH4 0xFFFFFFFF AND PUSH1 0xE0 SHL DUP2 MSTORE PUSH1 0x4 ADD DUP1 DUP3 PUSH20 0xFFFFFFFFFFFFFFFFFFFFFFFFFFFFFFFFFFFFFFFF AND PUSH20 0xFFFFFFFFFFFFFFFFFFFFFFFFFFFFFFFFFFFFFFFF AND DUP2 MSTORE PUSH1 0x20 ADD SWAP2 POP POP PUSH1 0x0 PUSH1 0x40 MLOAD DUP1 DUP4 SUB DUP2 PUSH1 0x0 DUP8 DUP1 EXTCODESIZE ISZERO DUP1 ISZERO PUSH2 0xB58 JUMPI PUSH1 0x0 DUP1 REVERT JUMPDEST POP GAS CALL ISZERO DUP1 ISZERO PUSH2 0xB6C JUMPI RETURNDATASIZE PUSH1 0x0 DUP1 RETURNDATACOPY RETURNDATASIZE PUSH1 0x0 REVERT JUMPDEST POP POP POP POP DUP8 PUSH20 0xFFFFFFFFFFFFFFFFFFFFFFFFFFFFFFFFFFFFFFFF AND DUP10 PUSH20 0xFFFFFFFFFFFFFFFFFFFFFFFFFFFFFFFFFFFFFFFF AND CALLER PUSH20 0xFFFFFFFFFFFFFFFFFFFFFFFFFFFFFFFFFFFFFFFF AND PUSH32 0x995C513B2D4F13D46FB9C2F6CC4B94C4B0FB6F9215F4C079750796B086962028 DUP5 DUP12 DUP12 DUP12 DUP11 PUSH1 0x40 MLOAD DUP1 DUP7 PUSH20 0xFFFFFFFFFFFFFFFFFFFFFFFFFFFFFFFFFFFFFFFF AND PUSH20 0xFFFFFFFFFFFFFFFFFFFFFFFFFFFFFFFFFFFFFFFF AND DUP2 MSTORE PUSH1 0x20 ADD DUP1 PUSH1 0x20 ADD DUP5 DUP2 MSTORE PUSH1 0x20 ADD DUP4 DUP2 MSTORE PUSH1 0x20 ADD DUP3 DUP2 SUB DUP3 MSTORE DUP7 DUP7 DUP3 DUP2 DUP2 MSTORE PUSH1 0x20 ADD SWAP3 POP PUSH1 0x20 MUL DUP1 DUP3 DUP5 CALLDATACOPY PUSH1 0x0 DUP2 DUP5 ADD MSTORE PUSH1 0x1F NOT PUSH1 0x1F DUP3 ADD AND SWAP1 POP DUP1 DUP4 ADD SWAP3 POP POP POP SWAP7 POP POP POP POP POP POP POP PUSH1 0x40 MLOAD DUP1 SWAP2 SUB SWAP1 LOG4 DUP1 SWAP2 POP POP SWAP8 SWAP7 POP POP POP POP POP POP POP JUMP JUMPDEST PUSH2 0xC76 PUSH2 0xDD3 JUMP JUMPDEST PUSH2 0xCE8 JUMPI PUSH1 0x40 MLOAD PUSH32 0x8C379A000000000000000000000000000000000000000000000000000000000 DUP2 MSTORE PUSH1 0x4 ADD DUP1 DUP1 PUSH1 0x20 ADD DUP3 DUP2 SUB DUP3 MSTORE PUSH1 0x20 DUP2 MSTORE PUSH1 0x20 ADD DUP1 PUSH32 0x4F776E61626C653A2063616C6C6572206973206E6F7420746865206F776E6572 DUP2 MSTORE POP PUSH1 0x20 ADD SWAP2 POP POP PUSH1 0x40 MLOAD DUP1 SWAP2 SUB SWAP1 REVERT JUMPDEST PUSH1 0x0 PUSH20 0xFFFFFFFFFFFFFFFFFFFFFFFFFFFFFFFFFFFFFFFF AND PUSH1 0xE PUSH1 0x0 SWAP1 SLOAD SWAP1 PUSH2 0x100 EXP SWAP1 DIV PUSH20 0xFFFFFFFFFFFFFFFFFFFFFFFFFFFFFFFFFFFFFFFF AND PUSH20 0xFFFFFFFFFFFFFFFFFFFFFFFFFFFFFFFFFFFFFFFF AND PUSH32 0x8BE0079C531659141344CD1FD0A4F28419497F9722A3DAAFE3B4186F6B6457E0 PUSH1 0x40 MLOAD PUSH1 0x40 MLOAD DUP1 SWAP2 SUB SWAP1 LOG3 PUSH1 0x0 PUSH1 0xE PUSH1 0x0 PUSH2 0x100 EXP DUP2 SLOAD DUP2 PUSH20 0xFFFFFFFFFFFFFFFFFFFFFFFFFFFFFFFFFFFFFFFF MUL NOT AND SWAP1 DUP4 PUSH20 0xFFFFFFFFFFFFFFFFFFFFFFFFFFFFFFFFFFFFFFFF AND MUL OR SWAP1 SSTORE POP JUMP JUMPDEST PUSH1 0x0 PUSH1 0xE PUSH1 0x0 SWAP1 SLOAD SWAP1 PUSH2 0x100 EXP SWAP1 DIV PUSH20 0xFFFFFFFFFFFFFFFFFFFFFFFFFFFFFFFFFFFFFFFF AND SWAP1 POP SWAP1 JUMP JUMPDEST PUSH1 0x0 PUSH1 0xE PUSH1 0x0 SWAP1 SLOAD SWAP1 PUSH2 0x100 EXP SWAP1 DIV PUSH20 0xFFFFFFFFFFFFFFFFFFFFFFFFFFFFFFFFFFFFFFFF AND PUSH20 0xFFFFFFFFFFFFFFFFFFFFFFFFFFFFFFFFFFFFFFFF AND CALLER PUSH20 0xFFFFFFFFFFFFFFFFFFFFFFFFFFFFFFFFFFFFFFFF AND EQ SWAP1 POP SWAP1 JUMP JUMPDEST PUSH2 0xE33 PUSH2 0xDD3 JUMP JUMPDEST PUSH2 0xEA5 JUMPI PUSH1 0x40 MLOAD PUSH32 0x8C379A000000000000000000000000000000000000000000000000000000000 DUP2 MSTORE PUSH1 0x4 ADD DUP1 DUP1 PUSH1 0x20 ADD DUP3 DUP2 SUB DUP3 MSTORE PUSH1 0x20 DUP2 MSTORE PUSH1 0x20 ADD DUP1 PUSH32 0x4F776E61626C653A2063616C6C6572206973206E6F7420746865206F776E6572 DUP2 MSTORE POP PUSH1 0x20 ADD SWAP2 POP POP PUSH1 0x40 MLOAD DUP1 SWAP2 SUB SWAP1 REVERT JUMPDEST PUSH2 0xEAE DUP2 PUSH2 0x1261 JUMP JUMPDEST POP JUMP JUMPDEST PUSH1 0x0 DUP3 EQ ISZERO PUSH2 0xF16 JUMPI PUSH1 0xB PUSH2 0xEE8 PUSH1 0x5 PUSH1 0x0 SWAP1 SLOAD SWAP1 PUSH2 0x100 EXP SWAP1 DIV PUSH20 0xFFFFFFFFFFFFFFFFFFFFFFFFFFFFFFFFFFFFFFFF AND DUP4 PUSH2 0x13A7 JUMP JUMPDEST SWAP1 DUP1 PUSH1 0x1 DUP2 SLOAD ADD DUP1 DUP3 SSTORE DUP1 SWAP2 POP POP SWAP1 PUSH1 0x1 DUP3 SUB SWAP1 PUSH1 0x0 MSTORE PUSH1 0x20 PUSH1 0x0 KECCAK256 ADD PUSH1 0x0 SWAP1 SWAP2 SWAP3 SWAP1 SWAP2 SWAP1 SWAP2 POP SSTORE POP PUSH2 0xFC9 JUMP JUMPDEST DUP2 DUP1 PUSH1 0x1 SWAP1 SUB SWAP3 POP POP PUSH1 0x0 PUSH1 0x9 DUP4 DUP2 SLOAD DUP2 LT PUSH2 0xF2E JUMPI INVALID JUMPDEST SWAP1 PUSH1 0x0 MSTORE PUSH1 0x20 PUSH1 0x0 KECCAK256 ADD SLOAD SWAP1 POP PUSH1 0xA DUP4 DUP2 SLOAD DUP2 LT PUSH2 0xF48 JUMPI INVALID JUMPDEST SWAP1 PUSH1 0x0 MSTORE PUSH1 0x20 PUSH1 0x0 KECCAK256 ADD DUP3 SWAP1 DUP1 PUSH1 0x1 DUP2 SLOAD ADD DUP1 DUP3 SSTORE DUP1 SWAP2 POP POP SWAP1 PUSH1 0x1 DUP3 SUB SWAP1 PUSH1 0x0 MSTORE PUSH1 0x20 PUSH1 0x0 KECCAK256 ADD PUSH1 0x0 SWAP1 SWAP2 SWAP3 SWAP1 SWAP2 SWAP1 SWAP2 POP SSTORE POP PUSH1 0x0 DUP1 SWAP1 POP JUMPDEST DUP2 DUP2 LT ISZERO PUSH2 0xFC6 JUMPI PUSH2 0xFB9 DUP5 PUSH2 0xFB4 DUP6 PUSH1 0x6 DUP9 DUP2 SLOAD DUP2 LT PUSH2 0xF9F JUMPI INVALID JUMPDEST SWAP1 PUSH1 0x0 MSTORE PUSH1 0x20 PUSH1 0x0 KECCAK256 ADD SLOAD DUP6 PUSH1 0x1 SWAP1 SHL PUSH2 0x1412 JUMP JUMPDEST PUSH2 0xEB1 JUMP JUMPDEST DUP1 DUP1 PUSH1 0x1 ADD SWAP2 POP POP PUSH2 0xF82 JUMP JUMPDEST POP POP JUMPDEST POP POP JUMP JUMPDEST PUSH1 0x0 PUSH1 0x60 DUP3 PUSH1 0x40 MLOAD PUSH1 0x24 ADD DUP1 DUP1 PUSH1 0x20 ADD DUP3 DUP2 SUB DUP3 MSTORE DUP4 DUP2 DUP2 MLOAD DUP2 MSTORE PUSH1 0x20 ADD SWAP2 POP DUP1 MLOAD SWAP1 PUSH1 0x20 ADD SWAP1 DUP1 DUP4 DUP4 PUSH1 0x0 JUMPDEST DUP4 DUP2 LT ISZERO PUSH2 0x1015 JUMPI DUP1 DUP3 ADD MLOAD DUP2 DUP5 ADD MSTORE PUSH1 0x20 DUP2 ADD SWAP1 POP PUSH2 0xFFA JUMP JUMPDEST POP POP POP POP SWAP1 POP SWAP1 DUP2 ADD SWAP1 PUSH1 0x1F AND DUP1 ISZERO PUSH2 0x1042 JUMPI DUP1 DUP3 SUB DUP1 MLOAD PUSH1 0x1 DUP4 PUSH1 0x20 SUB PUSH2 0x100 EXP SUB NOT AND DUP2 MSTORE PUSH1 0x20 ADD SWAP2 POP JUMPDEST POP SWAP3 POP POP POP PUSH1 0x40 MLOAD PUSH1 0x20 DUP2 DUP4 SUB SUB DUP2 MSTORE SWAP1 PUSH1 0x40 MSTORE PUSH32 0x52E831DD00000000000000000000000000000000000000000000000000000000 PUSH28 0xFFFFFFFFFFFFFFFFFFFFFFFFFFFFFFFFFFFFFFFFFFFFFFFFFFFFFFFF NOT AND PUSH1 0x20 DUP3 ADD DUP1 MLOAD PUSH28 0xFFFFFFFFFFFFFFFFFFFFFFFFFFFFFFFFFFFFFFFFFFFFFFFFFFFFFFFF DUP4 DUP2 DUP4 AND OR DUP4 MSTORE POP POP POP POP SWAP1 POP PUSH1 0x60 PUSH1 0x63 DUP3 MLOAD ADD PUSH1 0x40 MLOAD SWAP1 DUP1 DUP3 MSTORE DUP1 PUSH1 0x1F ADD PUSH1 0x1F NOT AND PUSH1 0x20 ADD DUP3 ADD PUSH1 0x40 MSTORE DUP1 ISZERO PUSH2 0x10FF JUMPI DUP2 PUSH1 0x20 ADD PUSH1 0x1 DUP3 MUL DUP1 CODESIZE DUP4 CODECOPY DUP1 DUP3 ADD SWAP2 POP POP SWAP1 POP JUMPDEST POP SWAP1 POP PUSH32 0x3D3D606380380380913D393D73BEBEBEBEBEBEBEBEBEBEBEBEBEBEBEBEBEBEBE PUSH1 0x20 DUP3 ADD MSTORE PUSH13 0x1000000000000000000000000 ADDRESS MUL PUSH1 0x2D DUP3 ADD MSTORE PUSH32 0x5AF4602A57600080FD5B602D8060366000396000F3363D3D373D3D3D363D73BE PUSH1 0x41 DUP3 ADD MSTORE PUSH13 0x1000000000000000000000000 DUP6 MUL PUSH1 0x60 DUP3 ADD MSTORE PUSH32 0x5AF43D82803E903D91602B57FD5BF30000000000000000000000000000000000 PUSH1 0x74 DUP3 ADD MSTORE PUSH1 0x0 DUP1 SWAP1 POP JUMPDEST DUP3 MLOAD DUP2 LT ISZERO PUSH2 0x120F JUMPI DUP3 DUP2 DUP2 MLOAD DUP2 LT PUSH2 0x11B9 JUMPI INVALID JUMPDEST PUSH1 0x20 ADD ADD MLOAD PUSH1 0xF8 SHR PUSH1 0xF8 SHL DUP3 DUP3 PUSH1 0x63 ADD DUP2 MLOAD DUP2 LT PUSH2 0x11D3 JUMPI INVALID JUMPDEST PUSH1 0x20 ADD ADD SWAP1 PUSH31 0xFFFFFFFFFFFFFFFFFFFFFFFFFFFFFFFFFFFFFFFFFFFFFFFFFFFFFFFFFFFFFF NOT AND SWAP1 DUP2 PUSH1 0x0 BYTE SWAP1 MSTORE8 POP DUP1 DUP1 PUSH1 0x1 ADD SWAP2 POP POP PUSH2 0x11A4 JUMP JUMPDEST POP DUP1 MLOAD PUSH1 0x20 DUP3 ADD DUP2 DUP2 PUSH1 0x0 CREATE SWAP5 POP POP POP PUSH1 0x0 PUSH20 0xFFFFFFFFFFFFFFFFFFFFFFFFFFFFFFFFFFFFFFFF AND DUP4 PUSH20 0xFFFFFFFFFFFFFFFFFFFFFFFFFFFFFFFFFFFFFFFF AND EQ ISZERO PUSH2 0x1259 JUMPI PUSH1 0x0 DUP1 REVERT JUMPDEST POP POP SWAP3 SWAP2 POP POP JUMP JUMPDEST PUSH1 0x0 PUSH20 0xFFFFFFFFFFFFFFFFFFFFFFFFFFFFFFFFFFFFFFFF AND DUP2 PUSH20 0xFFFFFFFFFFFFFFFFFFFFFFFFFFFFFFFFFFFFFFFF AND EQ ISZERO PUSH2 0x12E7 JUMPI PUSH1 0x40 MLOAD PUSH32 0x8C379A000000000000000000000000000000000000000000000000000000000 DUP2 MSTORE PUSH1 0x4 ADD DUP1 DUP1 PUSH1 0x20 ADD DUP3 DUP2 SUB DUP3 MSTORE PUSH1 0x26 DUP2 MSTORE PUSH1 0x20 ADD DUP1 PUSH2 0x22E0 PUSH1 0x26 SWAP2 CODECOPY PUSH1 0x40 ADD SWAP2 POP POP PUSH1 0x40 MLOAD DUP1 SWAP2 SUB SWAP1 REVERT JUMPDEST DUP1 PUSH20 0xFFFFFFFFFFFFFFFFFFFFFFFFFFFFFFFFFFFFFFFF AND PUSH1 0xE PUSH1 0x0 SWAP1 SLOAD SWAP1 PUSH2 0x100 EXP SWAP1 DIV PUSH20 0xFFFFFFFFFFFFFFFFFFFFFFFFFFFFFFFFFFFFFFFF AND PUSH20 0xFFFFFFFFFFFFFFFFFFFFFFFFFFFFFFFFFFFFFFFF AND PUSH32 0x8BE0079C531659141344CD1FD0A4F28419497F9722A3DAAFE3B4186F6B6457E0 PUSH1 0x40 MLOAD PUSH1 0x40 MLOAD DUP1 SWAP2 SUB SWAP1 LOG3 DUP1 PUSH1 0xE PUSH1 0x0 PUSH2 0x100 EXP DUP2 SLOAD DUP2 PUSH20 0xFFFFFFFFFFFFFFFFFFFFFFFFFFFFFFFFFFFFFFFF MUL NOT AND SWAP1 DUP4 PUSH20 0xFFFFFFFFFFFFFFFFFFFFFFFFFFFFFFFFFFFFFFFF AND MUL OR SWAP1 SSTORE POP POP JUMP JUMPDEST PUSH1 0x0 DUP3 DUP3 PUSH1 0x40 MLOAD PUSH1 0x20 ADD DUP1 DUP4 PUSH20 0xFFFFFFFFFFFFFFFFFFFFFFFFFFFFFFFFFFFFFFFF AND PUSH20 0xFFFFFFFFFFFFFFFFFFFFFFFFFFFFFFFFFFFFFFFF AND PUSH1 0x60 SHL DUP2 MSTORE PUSH1 0x14 ADD DUP3 DUP2 MSTORE PUSH1 0x20 ADD SWAP3 POP POP POP PUSH1 0x40 MLOAD PUSH1 0x20 DUP2 DUP4 SUB SUB DUP2 MSTORE SWAP1 PUSH1 0x40 MSTORE DUP1 MLOAD SWAP1 PUSH1 0x20 ADD KECCAK256 PUSH1 0x0 SHR SWAP1 POP SWAP3 SWAP2 POP POP JUMP JUMPDEST PUSH1 0x0 DUP1 DUP4 DUP4 PUSH1 0x40 MLOAD PUSH1 0x20 ADD DUP1 DUP4 DUP2 MSTORE PUSH1 0x20 ADD DUP3 DUP2 MSTORE PUSH1 0x20 ADD SWAP3 POP POP POP PUSH1 0x40 MLOAD PUSH1 0x20 DUP2 DUP4 SUB SUB DUP2 MSTORE SWAP1 PUSH1 0x40 MSTORE DUP1 MLOAD SWAP1 PUSH1 0x20 ADD KECCAK256 PUSH1 0x0 SHR SWAP1 POP PUSH1 0x0 DUP1 PUSH1 0xFF DUP4 SWAP1 SHR EQ ISZERO SWAP1 POP PUSH1 0x0 DUP1 JUMPDEST PUSH32 0x30644E72E131A029B85045B68181585D97816A916871CA8D3C208C16D87CFD47 DUP1 PUSH2 0x1481 JUMPI INVALID JUMPDEST PUSH1 0x1 DUP6 ADDMOD SWAP4 POP PUSH32 0x30644E72E131A029B85045B68181585D97816A916871CA8D3C208C16D87CFD47 DUP1 PUSH2 0x14AF JUMPI INVALID JUMPDEST PUSH1 0x3 PUSH32 0x30644E72E131A029B85045B68181585D97816A916871CA8D3C208C16D87CFD47 DUP1 PUSH2 0x14D9 JUMPI INVALID JUMPDEST PUSH32 0x30644E72E131A029B85045B68181585D97816A916871CA8D3C208C16D87CFD47 DUP1 PUSH2 0x1501 JUMPI INVALID JUMPDEST DUP8 DUP9 MULMOD DUP8 MULMOD ADDMOD SWAP1 POP PUSH2 0x1512 DUP2 PUSH2 0x1946 JUMP JUMPDEST SWAP2 POP DUP1 PUSH32 0x30644E72E131A029B85045B68181585D97816A916871CA8D3C208C16D87CFD47 DUP1 PUSH2 0x153D JUMPI INVALID JUMPDEST DUP4 DUP5 MULMOD EQ ISZERO PUSH2 0x1459 JUMPI DUP3 DUP1 ISZERO PUSH2 0x155D JUMPI POP PUSH1 0x0 PUSH1 0x2 DUP4 DUP2 PUSH2 0x155A JUMPI INVALID JUMPDEST MOD EQ JUMPDEST DUP1 PUSH2 0x157C JUMPI POP DUP3 ISZERO DUP1 ISZERO PUSH2 0x157B JUMPI POP PUSH1 0x1 PUSH1 0x2 DUP4 DUP2 PUSH2 0x1578 JUMPI INVALID JUMPDEST MOD EQ JUMPDEST JUMPDEST ISZERO PUSH2 0x15A7 JUMPI DUP2 PUSH32 0x30644E72E131A029B85045B68181585D97816A916871CA8D3C208C16D87CFD47 SUB SWAP2 POP JUMPDEST PUSH1 0x0 DUP9 PUSH1 0x0 SHR SWAP1 POP PUSH1 0x0 DUP2 EQ PUSH2 0x18FB JUMPI PUSH1 0x0 PUSH1 0xFE DUP3 SWAP1 SHR EQ ISZERO SWAP4 POP PUSH1 0x2 DUP1 DUP3 SWAP1 SHL SWAP1 SHR SWAP1 POP PUSH32 0x30644E72E131A029B85045B68181585D97816A916871CA8D3C208C16D87CFD47 DUP1 PUSH2 0x15F4 JUMPI INVALID JUMPDEST PUSH1 0x3 PUSH32 0x30644E72E131A029B85045B68181585D97816A916871CA8D3C208C16D87CFD47 DUP1 PUSH2 0x161E JUMPI INVALID JUMPDEST PUSH32 0x30644E72E131A029B85045B68181585D97816A916871CA8D3C208C16D87CFD47 DUP1 PUSH2 0x1646 JUMPI INVALID JUMPDEST DUP5 DUP6 MULMOD DUP5 MULMOD ADDMOD SWAP2 POP PUSH1 0x0 PUSH2 0x1659 DUP4 PUSH2 0x1946 JUMP JUMPDEST SWAP1 POP DUP5 DUP1 ISZERO PUSH2 0x1672 JUMPI POP PUSH1 0x0 PUSH1 0x2 DUP3 DUP2 PUSH2 0x166F JUMPI INVALID JUMPDEST MOD EQ JUMPDEST DUP1 PUSH2 0x1691 JUMPI POP DUP5 ISZERO DUP1 ISZERO PUSH2 0x1690 JUMPI POP PUSH1 0x1 PUSH1 0x2 DUP3 DUP2 PUSH2 0x168D JUMPI INVALID JUMPDEST MOD EQ JUMPDEST JUMPDEST ISZERO PUSH2 0x16BC JUMPI DUP1 PUSH32 0x30644E72E131A029B85045B68181585D97816A916871CA8D3C208C16D87CFD47 SUB SWAP1 POP JUMPDEST DUP3 PUSH32 0x30644E72E131A029B85045B68181585D97816A916871CA8D3C208C16D87CFD47 DUP1 PUSH2 0x16E5 JUMPI INVALID JUMPDEST DUP3 DUP4 MULMOD EQ PUSH2 0x175B JUMPI PUSH1 0x40 MLOAD PUSH32 0x8C379A000000000000000000000000000000000000000000000000000000000 DUP2 MSTORE PUSH1 0x4 ADD DUP1 DUP1 PUSH1 0x20 ADD DUP3 DUP2 SUB DUP3 MSTORE PUSH1 0x1C DUP2 MSTORE PUSH1 0x20 ADD DUP1 PUSH32 0x696E76616C696420706172656E7420636F6C6C656374696F6E20494400000000 DUP2 MSTORE POP PUSH1 0x20 ADD SWAP2 POP POP PUSH1 0x40 MLOAD DUP1 SWAP2 SUB SWAP1 REVERT JUMPDEST PUSH1 0x0 PUSH1 0x60 PUSH1 0x6 PUSH20 0xFFFFFFFFFFFFFFFFFFFFFFFFFFFFFFFFFFFFFFFF AND DUP9 DUP8 DUP7 DUP7 PUSH1 0x40 MLOAD PUSH1 0x20 ADD DUP1 DUP6 DUP2 MSTORE PUSH1 0x20 ADD DUP5 DUP2 MSTORE PUSH1 0x20 ADD DUP4 DUP2 MSTORE PUSH1 0x20 ADD DUP3 DUP2 MSTORE PUSH1 0x20 ADD SWAP5 POP POP POP POP POP PUSH1 0x40 MLOAD PUSH1 0x20 DUP2 DUP4 SUB SUB DUP2 MSTORE SWAP1 PUSH1 0x40 MSTORE PUSH1 0x40 MLOAD DUP1 DUP3 DUP1 MLOAD SWAP1 PUSH1 0x20 ADD SWAP1 DUP1 DUP4 DUP4 JUMPDEST PUSH1 0x20 DUP4 LT PUSH2 0x17E2 JUMPI DUP1 MLOAD DUP3 MSTORE PUSH1 0x20 DUP3 ADD SWAP2 POP PUSH1 0x20 DUP2 ADD SWAP1 POP PUSH1 0x20 DUP4 SUB SWAP3 POP PUSH2 0x17BF JUMP JUMPDEST PUSH1 0x1 DUP4 PUSH1 0x20 SUB PUSH2 0x100 EXP SUB DUP1 NOT DUP3 MLOAD AND DUP2 DUP5 MLOAD AND DUP1 DUP3 OR DUP6 MSTORE POP POP POP POP POP POP SWAP1 POP ADD SWAP2 POP POP PUSH1 0x0 PUSH1 0x40 MLOAD DUP1 DUP4 SUB DUP2 DUP6 GAS STATICCALL SWAP2 POP POP RETURNDATASIZE DUP1 PUSH1 0x0 DUP2 EQ PUSH2 0x1842 JUMPI PUSH1 0x40 MLOAD SWAP2 POP PUSH1 0x1F NOT PUSH1 0x3F RETURNDATASIZE ADD AND DUP3 ADD PUSH1 0x40 MSTORE RETURNDATASIZE DUP3 MSTORE RETURNDATASIZE PUSH1 0x0 PUSH1 0x20 DUP5 ADD RETURNDATACOPY PUSH2 0x1847 JUMP JUMPDEST PUSH1 0x60 SWAP2 POP JUMPDEST POP SWAP2 POP SWAP2 POP DUP2 PUSH2 0x18BF JUMPI PUSH1 0x40 MLOAD PUSH32 0x8C379A000000000000000000000000000000000000000000000000000000000 DUP2 MSTORE PUSH1 0x4 ADD DUP1 DUP1 PUSH1 0x20 ADD DUP3 DUP2 SUB DUP3 MSTORE PUSH1 0xC DUP2 MSTORE PUSH1 0x20 ADD DUP1 PUSH32 0x6563616464206661696C65640000000000000000000000000000000000000000 DUP2 MSTORE POP PUSH1 0x20 ADD SWAP2 POP POP PUSH1 0x40 MLOAD DUP1 SWAP2 SUB SWAP1 REVERT JUMPDEST DUP1 DUP1 PUSH1 0x20 ADD SWAP1 MLOAD PUSH1 0x40 DUP2 LT ISZERO PUSH2 0x18D4 JUMPI PUSH1 0x0 DUP1 REVERT JUMPDEST DUP2 ADD SWAP1 DUP1 DUP1 MLOAD SWAP1 PUSH1 0x20 ADD SWAP1 SWAP3 SWAP2 SWAP1 DUP1 MLOAD SWAP1 PUSH1 0x20 ADD SWAP1 SWAP3 SWAP2 SWAP1 POP POP POP DUP1 SWAP8 POP DUP2 SWAP10 POP POP POP POP POP POP JUMPDEST PUSH1 0x1 PUSH1 0x2 DUP5 DUP2 PUSH2 0x1907 JUMPI INVALID JUMPDEST MOD EQ ISZERO PUSH2 0x1934 JUMPI PUSH32 0x4000000000000000000000000000000000000000000000000000000000000000 DUP6 XOR SWAP5 POP JUMPDEST DUP5 PUSH1 0x0 SHL SWAP6 POP POP POP POP POP POP SWAP4 SWAP3 POP POP POP JUMP JUMPDEST PUSH1 0x0 DUP1 PUSH32 0x30644E72E131A029B85045B68181585D97816A916871CA8D3C208C16D87CFD47 SWAP1 POP DUP1 DUP4 DUP5 MULMOD SWAP2 POP DUP1 DUP3 DUP4 MULMOD DUP2 DUP2 DUP3 MULMOD SWAP1 POP DUP2 DUP2 DUP5 MULMOD SWAP3 POP DUP2 DUP4 DUP6 MULMOD SWAP4 POP DUP2 DUP5 DUP5 MULMOD SWAP3 POP DUP2 DUP4 DUP5 MULMOD SWAP1 POP DUP2 DUP2 DUP3 MULMOD DUP3 DUP2 DUP4 MULMOD SWAP1 POP DUP3 DUP2 DUP3 MULMOD SWAP1 POP DUP3 DUP2 DUP3 MULMOD SWAP1 POP DUP3 DUP2 DUP4 MULMOD SWAP2 POP DUP3 DUP3 DUP7 MULMOD SWAP5 POP DUP3 DUP6 DUP7 MULMOD SWAP2 POP DUP3 DUP3 DUP4 MULMOD SWAP2 POP DUP3 DUP3 DUP6 MULMOD SWAP4 POP DUP3 DUP5 DUP6 MULMOD SWAP2 POP DUP3 DUP3 DUP4 MULMOD SWAP2 POP DUP3 DUP3 DUP4 MULMOD SWAP2 POP DUP3 DUP3 DUP6 MULMOD SWAP2 POP DUP3 DUP3 DUP7 MULMOD SWAP5 POP DUP3 DUP6 DUP7 MULMOD SWAP2 POP DUP3 DUP3 DUP4 MULMOD SWAP2 POP DUP3 DUP3 DUP4 MULMOD SWAP2 POP DUP3 DUP3 DUP7 MULMOD SWAP2 POP DUP3 DUP3 DUP6 MULMOD SWAP4 POP DUP3 DUP5 DUP7 MULMOD SWAP5 POP DUP3 DUP6 DUP7 MULMOD SWAP2 POP DUP3 DUP3 DUP4 MULMOD SWAP2 POP DUP3 DUP3 DUP6 MULMOD SWAP4 POP DUP3 DUP5 DUP6 MULMOD SWAP2 POP DUP3 DUP3 DUP4 MULMOD SWAP1 POP DUP3 DUP2 DUP3 MULMOD SWAP1 POP DUP3 DUP2 DUP3 MULMOD SWAP1 POP DUP3 DUP2 DUP4 MULMOD SWAP2 POP DUP3 DUP3 DUP7 MULMOD SWAP5 POP DUP3 DUP6 DUP6 MULMOD SWAP4 POP DUP3 DUP5 DUP6 MULMOD SWAP2 POP DUP3 DUP3 DUP4 MULMOD SWAP2 POP DUP3 DUP3 DUP4 MULMOD SWAP2 POP DUP3 DUP3 DUP7 MULMOD SWAP5 POP DUP3 DUP6 DUP7 MULMOD SWAP2 POP DUP3 DUP3 DUP4 MULMOD SWAP2 POP DUP3 DUP3 DUP7 MULMOD SWAP2 POP DUP3 DUP3 DUP4 MULMOD SWAP2 POP DUP3 DUP3 DUP4 MULMOD SWAP2 POP DUP3 DUP3 DUP7 MULMOD SWAP2 POP DUP3 DUP3 DUP6 MULMOD SWAP4 POP DUP3 DUP5 DUP6 MULMOD SWAP2 POP DUP3 DUP3 DUP4 MULMOD SWAP1 POP DUP3 DUP2 DUP3 MULMOD SWAP1 POP DUP3 DUP2 DUP4 MULMOD SWAP1 POP DUP3 DUP2 DUP6 MULMOD SWAP1 POP DUP3 DUP2 DUP3 MULMOD SWAP1 POP DUP3 DUP2 DUP3 MULMOD SWAP1 POP DUP3 DUP2 DUP3 MULMOD SWAP1 POP DUP3 DUP2 DUP3 MULMOD SWAP1 POP DUP3 DUP2 DUP4 MULMOD SWAP2 POP DUP3 DUP3 DUP7 MULMOD SWAP5 POP DUP3 DUP6 DUP7 MULMOD SWAP2 POP DUP3 DUP3 DUP7 MULMOD SWAP2 POP DUP3 DUP3 DUP6 MULMOD SWAP4 POP DUP3 DUP5 DUP6 MULMOD SWAP2 POP DUP3 DUP3 DUP6 MULMOD SWAP2 POP DUP3 DUP3 DUP4 MULMOD SWAP2 POP DUP3 DUP3 DUP4 MULMOD SWAP1 POP DUP3 DUP2 DUP4 MULMOD SWAP1 POP DUP3 DUP2 DUP3 MULMOD DUP4 DUP2 DUP3 MULMOD SWAP1 POP DUP4 DUP2 DUP3 MULMOD SWAP1 POP DUP4 DUP2 DUP3 MULMOD SWAP1 POP DUP4 DUP2 DUP3 MULMOD SWAP1 POP DUP4 DUP2 DUP4 MULMOD SWAP2 POP POP DUP3 DUP2 DUP4 MULMOD SWAP2 POP DUP3 DUP3 DUP7 MULMOD SWAP5 POP DUP3 DUP6 DUP6 MULMOD SWAP4 POP DUP3 DUP5 DUP6 MULMOD SWAP2 POP DUP3 DUP3 DUP7 MULMOD SWAP5 POP DUP3 DUP6 DUP6 MULMOD SWAP4 POP DUP3 DUP5 DUP7 MULMOD SWAP5 POP DUP3 DUP6 DUP6 MULMOD SWAP4 POP DUP3 DUP5 DUP7 MULMOD SWAP5 POP DUP3 DUP6 DUP7 MULMOD SWAP2 POP DUP3 DUP3 DUP7 MULMOD SWAP2 POP DUP3 DUP3 DUP4 MULMOD SWAP2 POP DUP3 DUP3 DUP6 MULMOD SWAP4 POP DUP3 DUP5 DUP6 MULMOD SWAP2 POP DUP3 DUP3 DUP4 MULMOD SWAP2 POP DUP3 DUP3 DUP7 MULMOD SWAP5 POP DUP3 DUP6 DUP6 MULMOD SWAP4 POP DUP3 DUP5 DUP6 MULMOD SWAP2 POP DUP3 DUP3 DUP6 MULMOD SWAP2 POP DUP3 DUP3 DUP7 MULMOD SWAP5 POP DUP3 DUP6 DUP6 MULMOD SWAP4 POP DUP3 DUP5 DUP7 MULMOD SWAP5 POP DUP3 DUP6 DUP6 MULMOD SWAP4 POP DUP3 DUP5 DUP6 MULMOD SWAP2 POP DUP3 DUP3 DUP4 MULMOD SWAP2 POP DUP3 DUP3 DUP6 MULMOD SWAP2 POP DUP3 DUP3 DUP7 MULMOD SWAP5 POP DUP3 DUP6 DUP7 MULMOD SWAP2 POP DUP3 DUP3 DUP7 MULMOD SWAP2 POP DUP3 DUP3 DUP6 MULMOD SWAP4 POP DUP3 DUP5 DUP7 MULMOD SWAP5 POP DUP3 DUP6 DUP6 MULMOD SWAP4 POP DUP3 DUP5 DUP7 MULMOD SWAP5 POP DUP3 DUP6 DUP6 MULMOD SWAP4 POP DUP3 DUP5 DUP6 MULMOD SWAP2 POP DUP3 DUP3 DUP6 MULMOD SWAP2 POP DUP3 DUP3 DUP4 MULMOD SWAP2 POP DUP3 DUP3 DUP7 MULMOD SWAP5 POP DUP3 DUP6 DUP6 MULMOD SWAP4 POP DUP3 DUP5 DUP6 MULMOD SWAP2 POP DUP3 DUP3 DUP6 MULMOD SWAP2 POP DUP3 DUP3 DUP4 MULMOD SWAP2 POP DUP3 DUP3 DUP7 MULMOD SWAP5 POP DUP3 DUP6 DUP7 MULMOD SWAP2 POP DUP3 DUP3 DUP4 MULMOD SWAP1 POP DUP3 DUP2 DUP3 MULMOD SWAP1 POP DUP3 DUP2 DUP4 MULMOD SWAP1 POP DUP3 DUP2 DUP7 MULMOD SWAP1 POP DUP3 DUP2 DUP3 MULMOD SWAP1 POP DUP3 DUP2 DUP3 MULMOD SWAP1 POP DUP3 DUP2 DUP3 MULMOD SWAP1 POP DUP3 DUP2 DUP3 MULMOD SWAP1 POP DUP3 DUP2 DUP4 MULMOD SWAP2 POP DUP3 DUP3 DUP6 MULMOD SWAP4 POP DUP3 DUP5 DUP7 MULMOD SWAP5 POP DUP3 DUP6 DUP6 MULMOD SWAP4 POP DUP3 DUP5 DUP7 MULMOD SWAP5 POP DUP3 DUP6 DUP7 MULMOD SWAP2 POP DUP3 DUP3 DUP7 MULMOD SWAP2 POP DUP3 DUP3 DUP4 MULMOD SWAP2 POP DUP3 DUP3 DUP4 MULMOD SWAP2 POP DUP3 DUP3 DUP4 MULMOD SWAP2 POP DUP3 DUP3 DUP7 MULMOD SWAP2 POP DUP3 DUP3 DUP6 MULMOD SWAP4 POP DUP3 DUP5 DUP6 MULMOD SWAP2 POP DUP3 DUP3 DUP6 MULMOD SWAP2 POP DUP3 DUP3 DUP4 MULMOD SWAP2 POP DUP3 DUP3 DUP7 MULMOD SWAP5 POP DUP3 DUP6 DUP7 MULMOD SWAP2 POP DUP3 DUP3 DUP7 MULMOD SWAP2 POP DUP3 DUP3 DUP6 MULMOD SWAP4 POP DUP3 DUP5 DUP7 MULMOD SWAP5 POP DUP3 DUP6 DUP7 MULMOD SWAP2 POP DUP3 DUP3 DUP4 MULMOD SWAP2 POP DUP3 DUP3 DUP6 MULMOD SWAP4 POP DUP3 DUP5 DUP7 MULMOD SWAP5 POP DUP3 DUP6 DUP7 MULMOD SWAP2 POP DUP3 DUP3 DUP6 MULMOD SWAP4 POP DUP3 DUP5 DUP7 MULMOD SWAP5 POP DUP3 DUP6 DUP6 MULMOD SWAP4 POP DUP3 DUP5 DUP6 MULMOD SWAP2 POP DUP3 DUP3 DUP6 MULMOD SWAP2 POP DUP3 DUP3 DUP7 MULMOD SWAP5 POP DUP3 DUP6 DUP6 MULMOD SWAP4 POP DUP3 DUP5 DUP6 MULMOD SWAP2 POP DUP3 DUP3 DUP6 MULMOD SWAP2 POP DUP3 DUP3 DUP4 MULMOD SWAP2 POP DUP3 DUP3 DUP4 MULMOD SWAP2 POP DUP3 DUP3 DUP7 MULMOD SWAP5 POP DUP3 DUP6 DUP7 MULMOD SWAP2 POP DUP3 DUP3 DUP4 MULMOD SWAP2 POP DUP3 DUP3 DUP4 MULMOD SWAP2 POP DUP3 DUP3 DUP7 MULMOD SWAP2 POP DUP3 DUP3 DUP6 MULMOD SWAP4 POP DUP3 DUP5 DUP7 MULMOD SWAP5 POP DUP3 DUP6 DUP7 MULMOD SWAP2 POP DUP3 DUP3 DUP7 MULMOD SWAP1 POP DUP3 DUP2 DUP3 MULMOD SWAP1 POP DUP3 DUP2 DUP3 MULMOD SWAP1 POP DUP3 DUP2 DUP4 MULMOD SWAP2 POP DUP3 DUP3 DUP6 MULMOD SWAP4 POP DUP3 DUP5 DUP6 MULMOD SWAP2 POP DUP3 DUP3 DUP7 MULMOD SWAP5 POP DUP3 DUP6 DUP6 MULMOD SWAP4 POP DUP3 DUP5 DUP7 MULMOD SWAP5 POP DUP3 DUP6 DUP6 MULMOD SWAP4 POP DUP3 DUP5 DUP7 MULMOD SWAP5 POP DUP3 DUP6 DUP6 MULMOD SWAP4 POP DUP3 DUP5 DUP6 MULMOD SWAP2 POP DUP3 DUP3 DUP6 MULMOD SWAP1 POP DUP3 DUP2 DUP6 MULMOD SWAP2 POP DUP3 DUP3 DUP4 MULMOD SWAP2 POP DUP3 DUP3 DUP4 MULMOD SWAP2 POP DUP3 DUP3 DUP3 MULMOD SWAP2 POP POP DUP2 DUP2 DUP6 MULMOD SWAP4 POP DUP2 DUP5 DUP5 MULMOD SWAP3 POP DUP2 DUP4 DUP6 MULMOD SWAP4 POP DUP2 DUP5 DUP5 MULMOD SWAP3 POP DUP2 DUP4 DUP6 MULMOD SWAP4 POP DUP2 DUP5 DUP6 MULMOD SWAP1 POP DUP2 DUP2 DUP6 MULMOD SWAP1 POP DUP2 DUP2 DUP5 MULMOD SWAP3 POP POP DUP1 DUP3 DUP5 MULMOD SWAP3 POP DUP1 DUP4 DUP5 MULMOD SWAP3 POP DUP1 DUP4 DUP5 MULMOD SWAP3 POP DUP1 DUP4 DUP5 MULMOD SWAP3 POP DUP1 DUP4 DUP5 MULMOD SWAP3 POP DUP1 DUP4 DUP5 MULMOD SWAP3 POP DUP1 DUP4 DUP5 MULMOD SWAP3 POP DUP1 DUP4 DUP5 MULMOD SWAP3 POP DUP1 DUP4 DUP5 MULMOD SWAP3 POP DUP1 DUP4 DUP5 MULMOD SWAP3 POP DUP1 DUP4 DUP5 MULMOD SWAP3 POP DUP1 DUP4 DUP5 MULMOD SWAP3 POP DUP1 DUP4 DUP5 MULMOD SWAP3 POP DUP1 DUP4 DUP5 MULMOD SWAP3 POP DUP1 DUP4 DUP5 MULMOD SWAP3 POP DUP1 DUP4 DUP5 MULMOD SWAP3 POP DUP1 DUP4 DUP5 MULMOD SWAP3 POP DUP1 DUP4 DUP5 MULMOD SWAP3 POP DUP1 DUP4 DUP5 MULMOD SWAP3 POP DUP1 DUP4 DUP5 MULMOD SWAP3 POP DUP1 DUP4 DUP5 MULMOD SWAP3 POP DUP1 DUP4 DUP5 MULMOD SWAP3 POP DUP1 DUP4 DUP5 MULMOD SWAP3 POP DUP1 DUP4 DUP5 MULMOD SWAP3 POP DUP1 DUP4 DUP5 MULMOD SWAP3 POP DUP1 DUP4 DUP5 MULMOD SWAP3 POP DUP1 DUP4 DUP5 MULMOD SWAP3 POP DUP1 DUP4 DUP5 MULMOD SWAP3 POP DUP1 DUP4 DUP5 MULMOD SWAP3 POP DUP1 DUP4 DUP5 MULMOD SWAP3 POP DUP1 DUP4 DUP5 MULMOD SWAP3 POP DUP1 DUP4 DUP5 MULMOD SWAP3 POP DUP1 DUP4 DUP5 MULMOD SWAP3 POP DUP1 DUP4 DUP5 MULMOD SWAP3 POP DUP1 DUP4 DUP5 MULMOD SWAP3 POP DUP1 DUP4 DUP5 MULMOD SWAP3 POP DUP1 DUP4 DUP5 MULMOD SWAP3 POP DUP1 DUP4 DUP5 MULMOD SWAP3 POP DUP1 DUP4 DUP5 MULMOD SWAP3 POP DUP1 DUP4 DUP5 MULMOD SWAP3 POP DUP1 DUP4 DUP5 MULMOD SWAP3 POP DUP1 DUP4 DUP5 MULMOD SWAP3 POP DUP1 DUP4 DUP5 MULMOD SWAP3 POP DUP1 DUP4 DUP5 MULMOD SWAP3 POP DUP1 DUP4 DUP5 MULMOD SWAP3 POP DUP1 DUP4 DUP5 MULMOD SWAP3 POP DUP1 DUP4 DUP5 MULMOD SWAP3 POP DUP1 DUP4 DUP5 MULMOD SWAP3 POP DUP1 DUP4 DUP5 MULMOD SWAP3 POP DUP1 DUP4 DUP5 MULMOD SWAP3 POP DUP1 DUP4 DUP5 MULMOD SWAP3 POP DUP1 DUP4 DUP5 MULMOD SWAP3 POP DUP1 DUP4 DUP5 MULMOD SWAP3 POP DUP1 DUP4 DUP5 MULMOD SWAP3 POP DUP1 DUP4 DUP5 MULMOD SWAP3 POP DUP1 DUP4 DUP5 MULMOD SWAP3 POP DUP1 DUP4 DUP5 MULMOD SWAP3 POP DUP1 DUP4 DUP5 MULMOD SWAP3 POP DUP1 DUP4 DUP5 MULMOD SWAP3 POP DUP1 DUP4 DUP5 MULMOD SWAP3 POP DUP1 DUP4 DUP5 MULMOD SWAP3 POP DUP1 DUP4 DUP5 MULMOD SWAP3 POP DUP1 DUP4 DUP5 MULMOD SWAP3 POP DUP1 DUP4 DUP5 MULMOD SWAP3 POP DUP1 DUP4 DUP5 MULMOD SWAP3 POP DUP1 DUP4 DUP5 MULMOD SWAP3 POP DUP1 DUP4 DUP5 MULMOD SWAP3 POP DUP1 DUP4 DUP5 MULMOD SWAP3 POP DUP1 DUP4 DUP5 MULMOD SWAP3 POP DUP1 DUP4 DUP5 MULMOD SWAP3 POP DUP1 DUP4 DUP5 MULMOD SWAP3 POP DUP1 DUP4 DUP5 MULMOD SWAP3 POP DUP1 DUP4 DUP5 MULMOD SWAP3 POP DUP1 DUP4 DUP5 MULMOD SWAP3 POP DUP1 DUP4 DUP5 MULMOD SWAP3 POP DUP1 DUP4 DUP5 MULMOD SWAP3 POP DUP1 DUP4 DUP5 MULMOD SWAP3 POP DUP1 DUP4 DUP5 MULMOD SWAP3 POP DUP1 DUP4 DUP5 MULMOD SWAP3 POP DUP1 DUP4 DUP5 MULMOD SWAP3 POP DUP1 DUP4 DUP5 MULMOD SWAP3 POP DUP1 DUP4 DUP5 MULMOD SWAP3 POP DUP1 DUP4 DUP5 MULMOD SWAP3 POP DUP1 DUP4 DUP5 MULMOD SWAP3 POP DUP1 DUP4 DUP5 MULMOD SWAP3 POP DUP1 DUP4 DUP5 MULMOD SWAP3 POP DUP1 DUP4 DUP5 MULMOD SWAP3 POP DUP1 DUP4 DUP5 MULMOD SWAP3 POP DUP1 DUP4 DUP5 MULMOD SWAP3 POP DUP1 DUP4 DUP5 MULMOD SWAP3 POP DUP1 DUP4 DUP5 MULMOD SWAP3 POP DUP1 DUP4 DUP5 MULMOD SWAP3 POP DUP1 DUP4 DUP5 MULMOD SWAP3 POP DUP1 DUP4 DUP5 MULMOD SWAP3 POP DUP1 DUP4 DUP5 MULMOD SWAP3 POP DUP1 DUP4 DUP5 MULMOD SWAP3 POP DUP1 DUP4 DUP5 MULMOD SWAP3 POP DUP1 DUP4 DUP5 MULMOD SWAP3 POP DUP1 DUP4 DUP5 MULMOD SWAP3 POP DUP1 DUP4 DUP5 MULMOD SWAP3 POP DUP1 DUP4 DUP5 MULMOD SWAP3 POP DUP1 DUP4 DUP5 MULMOD SWAP3 POP DUP1 DUP4 DUP5 MULMOD SWAP3 POP DUP1 DUP4 DUP5 MULMOD SWAP3 POP DUP1 DUP4 DUP5 MULMOD SWAP3 POP DUP1 DUP4 DUP5 MULMOD SWAP3 POP DUP1 DUP4 DUP5 MULMOD SWAP3 POP DUP1 DUP4 DUP5 MULMOD SWAP3 POP DUP1 DUP4 DUP5 MULMOD SWAP3 POP DUP1 DUP4 DUP5 MULMOD SWAP3 POP DUP1 DUP4 DUP5 MULMOD SWAP3 POP DUP1 DUP4 DUP5 MULMOD SWAP3 POP DUP1 DUP4 DUP5 MULMOD SWAP3 POP DUP1 DUP4 DUP5 MULMOD SWAP3 POP DUP1 DUP4 DUP5 MULMOD SWAP3 POP DUP1 DUP4 DUP5 MULMOD SWAP3 POP DUP1 DUP4 DUP5 MULMOD SWAP3 POP DUP1 DUP4 DUP5 MULMOD SWAP3 POP DUP1 DUP4 DUP5 MULMOD SWAP3 POP DUP1 DUP4 DUP5 MULMOD SWAP3 POP DUP1 DUP4 DUP5 MULMOD SWAP3 POP DUP1 DUP4 DUP5 MULMOD SWAP3 POP DUP1 DUP4 DUP5 MULMOD SWAP3 POP DUP1 DUP4 DUP5 MULMOD SWAP3 POP DUP1 DUP4 DUP5 MULMOD SWAP3 POP DUP1 DUP4 DUP5 MULMOD SWAP3 POP DUP1 DUP4 DUP5 MULMOD SWAP3 POP DUP1 DUP4 DUP4 MULMOD SWAP2 POP POP SWAP2 SWAP1 POP JUMP JUMPDEST DUP3 DUP1 SLOAD DUP3 DUP3 SSTORE SWAP1 PUSH1 0x0 MSTORE PUSH1 0x20 PUSH1 0x0 KECCAK256 SWAP1 DUP2 ADD SWAP3 DUP3 ISZERO PUSH2 0x213D JUMPI SWAP2 PUSH1 0x20 MUL DUP3 ADD JUMPDEST DUP3 DUP2 GT ISZERO PUSH2 0x213C JUMPI DUP3 MLOAD DUP3 SSTORE SWAP2 PUSH1 0x20 ADD SWAP2 SWAP1 PUSH1 0x1 ADD SWAP1 PUSH2 0x2121 JUMP JUMPDEST JUMPDEST POP SWAP1 POP PUSH2 0x214A SWAP2 SWAP1 PUSH2 0x21FB JUMP JUMPDEST POP SWAP1 JUMP JUMPDEST DUP3 DUP1 SLOAD DUP3 DUP3 SSTORE SWAP1 PUSH1 0x0 MSTORE PUSH1 0x20 PUSH1 0x0 KECCAK256 SWAP1 DUP2 ADD SWAP3 DUP3 ISZERO PUSH2 0x218A JUMPI SWAP2 PUSH1 0x20 MUL DUP3 ADD JUMPDEST DUP3 DUP2 GT ISZERO PUSH2 0x2189 JUMPI DUP3 MLOAD DUP3 SSTORE SWAP2 PUSH1 0x20 ADD SWAP2 SWAP1 PUSH1 0x1 ADD SWAP1 PUSH2 0x216E JUMP JUMPDEST JUMPDEST POP SWAP1 POP PUSH2 0x2197 SWAP2 SWAP1 PUSH2 0x2220 JUMP JUMPDEST POP SWAP1 JUMP JUMPDEST DUP3 DUP1 SLOAD DUP3 DUP3 SSTORE SWAP1 PUSH1 0x0 MSTORE PUSH1 0x20 PUSH1 0x0 KECCAK256 SWAP1 DUP2 ADD SWAP3 DUP3 ISZERO PUSH2 0x21EA JUMPI SWAP2 PUSH1 0x20 MUL DUP3 ADD JUMPDEST DUP3 DUP2 GT ISZERO PUSH2 0x21E9 JUMPI DUP3 MLOAD DUP3 SWAP1 DUP1 MLOAD SWAP1 PUSH1 0x20 ADD SWAP1 PUSH2 0x21D9 SWAP3 SWAP2 SWAP1 PUSH2 0x2245 JUMP JUMPDEST POP SWAP2 PUSH1 0x20 ADD SWAP2 SWAP1 PUSH1 0x1 ADD SWAP1 PUSH2 0x21BB JUMP JUMPDEST JUMPDEST POP SWAP1 POP PUSH2 0x21F7 SWAP2 SWAP1 PUSH2 0x2292 JUMP JUMPDEST POP SWAP1 JUMP JUMPDEST PUSH2 0x221D SWAP2 SWAP1 JUMPDEST DUP1 DUP3 GT ISZERO PUSH2 0x2219 JUMPI PUSH1 0x0 DUP2 PUSH1 0x0 SWAP1 SSTORE POP PUSH1 0x1 ADD PUSH2 0x2201 JUMP JUMPDEST POP SWAP1 JUMP JUMPDEST SWAP1 JUMP JUMPDEST PUSH2 0x2242 SWAP2 SWAP1 JUMPDEST DUP1 DUP3 GT ISZERO PUSH2 0x223E JUMPI PUSH1 0x0 DUP2 PUSH1 0x0 SWAP1 SSTORE POP PUSH1 0x1 ADD PUSH2 0x2226 JUMP JUMPDEST POP SWAP1 JUMP JUMPDEST SWAP1 JUMP JUMPDEST DUP3 DUP1 SLOAD DUP3 DUP3 SSTORE SWAP1 PUSH1 0x0 MSTORE PUSH1 0x20 PUSH1 0x0 KECCAK256 SWAP1 DUP2 ADD SWAP3 DUP3 ISZERO PUSH2 0x2281 JUMPI SWAP2 PUSH1 0x20 MUL DUP3 ADD JUMPDEST DUP3 DUP2 GT ISZERO PUSH2 0x2280 JUMPI DUP3 MLOAD DUP3 SSTORE SWAP2 PUSH1 0x20 ADD SWAP2 SWAP1 PUSH1 0x1 ADD SWAP1 PUSH2 0x2265 JUMP JUMPDEST JUMPDEST POP SWAP1 POP PUSH2 0x228E SWAP2 SWAP1 PUSH2 0x21FB JUMP JUMPDEST POP SWAP1 JUMP JUMPDEST PUSH2 0x22BB SWAP2 SWAP1 JUMPDEST DUP1 DUP3 GT ISZERO PUSH2 0x22B7 JUMPI PUSH1 0x0 DUP2 DUP2 PUSH2 0x22AE SWAP2 SWAP1 PUSH2 0x22BE JUMP JUMPDEST POP PUSH1 0x1 ADD PUSH2 0x2298 JUMP JUMPDEST POP SWAP1 JUMP JUMPDEST SWAP1 JUMP JUMPDEST POP DUP1 SLOAD PUSH1 0x0 DUP3 SSTORE SWAP1 PUSH1 0x0 MSTORE PUSH1 0x20 PUSH1 0x0 KECCAK256 SWAP1 DUP2 ADD SWAP1 PUSH2 0x22DC SWAP2 SWAP1 PUSH2 0x21FB JUMP JUMPDEST POP JUMP INVALID 0x4F PUSH24 0x6E61626C653A206E6577206F776E65722069732074686520 PUSH27 0x65726F2061646472657373706F736974696F6E2049447320636F6E PUSH20 0x7472756374696F6E206661696C6564213FA26562 PUSH27 0x7A72315820B2EA743F515F5FC19916FC7DF430E36F5FA6BF546CC0 0x2B ORIGIN SLT CODESIZE CODECOPY 0xDF DIV SUB SWAP1 0xDE PUSH5 0x736F6C6343 STOP SDIV GT STOP ORIGIN PUSH1 0x80 PUSH1 0x40 MSTORE PUSH3 0x1C PUSH4 0x1FFC9A7 PUSH1 0xE0 SHL PUSH3 0x77 PUSH1 0x20 SHL PUSH1 0x20 SHR JUMP JUMPDEST PUSH3 0x71 PUSH1 0x0 PUSH20 0xFFFFFFFFFFFFFFFFFFFFFFFFFFFFFFFFFFFFFFFF AND PUSH4 0xBC197C81 SWAP1 POP PUSH1 0xE0 SHL PUSH1 0x0 PUSH20 0xFFFFFFFFFFFFFFFFFFFFFFFFFFFFFFFFFFFFFFFF AND PUSH4 0xF23A6E61 SWAP1 POP PUSH1 0xE0 SHL XOR PUSH3 0x77 PUSH1 0x20 SHL PUSH1 0x20 SHR JUMP JUMPDEST PUSH3 0x181 JUMP JUMPDEST PUSH4 0xFFFFFFFF PUSH1 0xE0 SHL DUP2 PUSH28 0xFFFFFFFFFFFFFFFFFFFFFFFFFFFFFFFFFFFFFFFFFFFFFFFFFFFFFFFF NOT AND EQ ISZERO PUSH3 0x114 JUMPI PUSH1 0x40 MLOAD PUSH32 0x8C379A000000000000000000000000000000000000000000000000000000000 DUP2 MSTORE PUSH1 0x4 ADD DUP1 DUP1 PUSH1 0x20 ADD DUP3 DUP2 SUB DUP3 MSTORE PUSH1 0x1C DUP2 MSTORE PUSH1 0x20 ADD DUP1 PUSH32 0x4552433136353A20696E76616C696420696E7465726661636520696400000000 DUP2 MSTORE POP PUSH1 0x20 ADD SWAP2 POP POP PUSH1 0x40 MLOAD DUP1 SWAP2 SUB SWAP1 REVERT JUMPDEST PUSH1 0x1 PUSH1 0x3 PUSH1 0x0 DUP4 PUSH28 0xFFFFFFFFFFFFFFFFFFFFFFFFFFFFFFFFFFFFFFFFFFFFFFFFFFFFFFFF NOT AND PUSH28 0xFFFFFFFFFFFFFFFFFFFFFFFFFFFFFFFFFFFFFFFFFFFFFFFFFFFFFFFF NOT AND DUP2 MSTORE PUSH1 0x20 ADD SWAP1 DUP2 MSTORE PUSH1 0x20 ADD PUSH1 0x0 KECCAK256 PUSH1 0x0 PUSH2 0x100 EXP DUP2 SLOAD DUP2 PUSH1 0xFF MUL NOT AND SWAP1 DUP4 ISZERO ISZERO MUL OR SWAP1 SSTORE POP POP JUMP JUMPDEST PUSH2 0x4D76 DUP1 PUSH3 0x191 PUSH1 0x0 CODECOPY PUSH1 0x0 RETURN INVALID PUSH1 0x80 PUSH1 0x40 MSTORE CALLVALUE DUP1 ISZERO PUSH2 0x10 JUMPI PUSH1 0x0 DUP1 REVERT JUMPDEST POP PUSH1 0x4 CALLDATASIZE LT PUSH2 0x211 JUMPI PUSH1 0x0 CALLDATALOAD PUSH1 0xE0 SHR DUP1 PUSH4 0x8DA5CB5B GT PUSH2 0x125 JUMPI DUP1 PUSH4 0xD8C55AF7 GT PUSH2 0xAD JUMPI DUP1 PUSH4 0xF217C929 GT PUSH2 0x7C JUMPI DUP1 PUSH4 0xF217C929 EQ PUSH2 0xB95 JUMPI DUP1 PUSH4 0xF23A6E61 EQ PUSH2 0xBC3 JUMPI DUP1 PUSH4 0xF2FDE38B EQ PUSH2 0xCE2 JUMPI DUP1 PUSH4 0xF55C79D0 EQ PUSH2 0xD26 JUMPI DUP1 PUSH4 0xF7F50FA5 EQ PUSH2 0xD72 JUMPI PUSH2 0x211 JUMP JUMPDEST DUP1 PUSH4 0xD8C55AF7 EQ PUSH2 0xA8F JUMPI DUP1 PUSH4 0xDD62ED3E EQ PUSH2 0xAD1 JUMPI DUP1 PUSH4 0xDDCA3F43 EQ PUSH2 0xB49 JUMPI DUP1 PUSH4 0xE03031A6 EQ PUSH2 0xB67 JUMPI PUSH2 0x211 JUMP JUMPDEST DUP1 PUSH4 0xA9059CBB GT PUSH2 0xF4 JUMPI DUP1 PUSH4 0xA9059CBB EQ PUSH2 0x765 JUMPI DUP1 PUSH4 0xB2016BD4 EQ PUSH2 0x7CB JUMPI DUP1 PUSH4 0xBC197C81 EQ PUSH2 0x815 JUMPI DUP1 PUSH4 0xD3C9727C EQ PUSH2 0x9CA JUMPI DUP1 PUSH4 0xD5F15A46 EQ PUSH2 0xA0C JUMPI PUSH2 0x211 JUMP JUMPDEST DUP1 PUSH4 0x8DA5CB5B EQ PUSH2 0x679 JUMPI DUP1 PUSH4 0x9003ADFE EQ PUSH2 0x6C3 JUMPI DUP1 PUSH4 0x9C7632FC EQ PUSH2 0x6E1 JUMPI DUP1 PUSH4 0xA457C2D7 EQ PUSH2 0x6FF JUMPI PUSH2 0x211 JUMP JUMPDEST DUP1 PUSH4 0x39509351 GT PUSH2 0x1A8 JUMPI DUP1 PUSH4 0x5BD9E299 GT PUSH2 0x177 JUMPI DUP1 PUSH4 0x5BD9E299 EQ PUSH2 0x591 JUMPI DUP1 PUSH4 0x5EA545B7 EQ PUSH2 0x5DB JUMPI DUP1 PUSH4 0x627749E6 EQ PUSH2 0x5F9 JUMPI DUP1 PUSH4 0x70A08231 EQ PUSH2 0x617 JUMPI DUP1 PUSH4 0x715018A6 EQ PUSH2 0x66F JUMPI PUSH2 0x211 JUMP JUMPDEST DUP1 PUSH4 0x39509351 EQ PUSH2 0x46F JUMPI DUP1 PUSH4 0x3BE3A3F5 EQ PUSH2 0x4D5 JUMPI DUP1 PUSH4 0x40993B26 EQ PUSH2 0x503 JUMPI DUP1 PUSH4 0x4343116A EQ PUSH2 0x545 JUMPI PUSH2 0x211 JUMP JUMPDEST DUP1 PUSH4 0x164E68DE GT PUSH2 0x1E4 JUMPI DUP1 PUSH4 0x164E68DE EQ PUSH2 0x32F JUMPI DUP1 PUSH4 0x16DBD776 EQ PUSH2 0x373 JUMPI DUP1 PUSH4 0x18160DDD EQ PUSH2 0x3CB JUMPI DUP1 PUSH4 0x23B872DD EQ PUSH2 0x3E9 JUMPI PUSH2 0x211 JUMP JUMPDEST DUP1 PUSH4 0x1FFC9A7 EQ PUSH2 0x216 JUMPI DUP1 PUSH4 0x620C581 EQ PUSH2 0x27B JUMPI DUP1 PUSH4 0x95EA7B3 EQ PUSH2 0x285 JUMPI DUP1 PUSH4 0x13AF4035 EQ PUSH2 0x2EB JUMPI JUMPDEST PUSH1 0x0 DUP1 REVERT JUMPDEST PUSH2 0x261 PUSH1 0x4 DUP1 CALLDATASIZE SUB PUSH1 0x20 DUP2 LT ISZERO PUSH2 0x22C JUMPI PUSH1 0x0 DUP1 REVERT JUMPDEST DUP2 ADD SWAP1 DUP1 DUP1 CALLDATALOAD PUSH28 0xFFFFFFFFFFFFFFFFFFFFFFFFFFFFFFFFFFFFFFFFFFFFFFFFFFFFFFFF NOT AND SWAP1 PUSH1 0x20 ADD SWAP1 SWAP3 SWAP2 SWAP1 POP POP POP PUSH2 0xD90 JUMP JUMPDEST PUSH1 0x40 MLOAD DUP1 DUP3 ISZERO ISZERO ISZERO ISZERO DUP2 MSTORE PUSH1 0x20 ADD SWAP2 POP POP PUSH1 0x40 MLOAD DUP1 SWAP2 SUB SWAP1 RETURN JUMPDEST PUSH2 0x283 PUSH2 0xDF8 JUMP JUMPDEST STOP JUMPDEST PUSH2 0x2D1 PUSH1 0x4 DUP1 CALLDATASIZE SUB PUSH1 0x40 DUP2 LT ISZERO PUSH2 0x29B JUMPI PUSH1 0x0 DUP1 REVERT JUMPDEST DUP2 ADD SWAP1 DUP1 DUP1 CALLDATALOAD PUSH20 0xFFFFFFFFFFFFFFFFFFFFFFFFFFFFFFFFFFFFFFFF AND SWAP1 PUSH1 0x20 ADD SWAP1 SWAP3 SWAP2 SWAP1 DUP1 CALLDATALOAD SWAP1 PUSH1 0x20 ADD SWAP1 SWAP3 SWAP2 SWAP1 POP POP POP PUSH2 0xFAB JUMP JUMPDEST PUSH1 0x40 MLOAD DUP1 DUP3 ISZERO ISZERO ISZERO ISZERO DUP2 MSTORE PUSH1 0x20 ADD SWAP2 POP POP PUSH1 0x40 MLOAD DUP1 SWAP2 SUB SWAP1 RETURN JUMPDEST PUSH2 0x32D PUSH1 0x4 DUP1 CALLDATASIZE SUB PUSH1 0x20 DUP2 LT ISZERO PUSH2 0x301 JUMPI PUSH1 0x0 DUP1 REVERT JUMPDEST DUP2 ADD SWAP1 DUP1 DUP1 CALLDATALOAD PUSH20 0xFFFFFFFFFFFFFFFFFFFFFFFFFFFFFFFFFFFFFFFF AND SWAP1 PUSH1 0x20 ADD SWAP1 SWAP3 SWAP2 SWAP1 POP POP POP PUSH2 0xFC2 JUMP JUMPDEST STOP JUMPDEST PUSH2 0x371 PUSH1 0x4 DUP1 CALLDATASIZE SUB PUSH1 0x20 DUP2 LT ISZERO PUSH2 0x345 JUMPI PUSH1 0x0 DUP1 REVERT JUMPDEST DUP2 ADD SWAP1 DUP1 DUP1 CALLDATALOAD PUSH20 0xFFFFFFFFFFFFFFFFFFFFFFFFFFFFFFFFFFFFFFFF AND SWAP1 PUSH1 0x20 ADD SWAP1 SWAP3 SWAP2 SWAP1 POP POP POP PUSH2 0x1092 JUMP JUMPDEST STOP JUMPDEST PUSH2 0x3B5 PUSH1 0x4 DUP1 CALLDATASIZE SUB PUSH1 0x20 DUP2 LT ISZERO PUSH2 0x389 JUMPI PUSH1 0x0 DUP1 REVERT JUMPDEST DUP2 ADD SWAP1 DUP1 DUP1 CALLDATALOAD PUSH20 0xFFFFFFFFFFFFFFFFFFFFFFFFFFFFFFFFFFFFFFFF AND SWAP1 PUSH1 0x20 ADD SWAP1 SWAP3 SWAP2 SWAP1 POP POP POP PUSH2 0x12DD JUMP JUMPDEST PUSH1 0x40 MLOAD DUP1 DUP3 DUP2 MSTORE PUSH1 0x20 ADD SWAP2 POP POP PUSH1 0x40 MLOAD DUP1 SWAP2 SUB SWAP1 RETURN JUMPDEST PUSH2 0x3D3 PUSH2 0x1369 JUMP JUMPDEST PUSH1 0x40 MLOAD DUP1 DUP3 DUP2 MSTORE PUSH1 0x20 ADD SWAP2 POP POP PUSH1 0x40 MLOAD DUP1 SWAP2 SUB SWAP1 RETURN JUMPDEST PUSH2 0x455 PUSH1 0x4 DUP1 CALLDATASIZE SUB PUSH1 0x60 DUP2 LT ISZERO PUSH2 0x3FF JUMPI PUSH1 0x0 DUP1 REVERT JUMPDEST DUP2 ADD SWAP1 DUP1 DUP1 CALLDATALOAD PUSH20 0xFFFFFFFFFFFFFFFFFFFFFFFFFFFFFFFFFFFFFFFF AND SWAP1 PUSH1 0x20 ADD SWAP1 SWAP3 SWAP2 SWAP1 DUP1 CALLDATALOAD PUSH20 0xFFFFFFFFFFFFFFFFFFFFFFFFFFFFFFFFFFFFFFFF AND SWAP1 PUSH1 0x20 ADD SWAP1 SWAP3 SWAP2 SWAP1 DUP1 CALLDATALOAD SWAP1 PUSH1 0x20 ADD SWAP1 SWAP3 SWAP2 SWAP1 POP POP POP PUSH2 0x1373 JUMP JUMPDEST PUSH1 0x40 MLOAD DUP1 DUP3 ISZERO ISZERO ISZERO ISZERO DUP2 MSTORE PUSH1 0x20 ADD SWAP2 POP POP PUSH1 0x40 MLOAD DUP1 SWAP2 SUB SWAP1 RETURN JUMPDEST PUSH2 0x4BB PUSH1 0x4 DUP1 CALLDATASIZE SUB PUSH1 0x40 DUP2 LT ISZERO PUSH2 0x485 JUMPI PUSH1 0x0 DUP1 REVERT JUMPDEST DUP2 ADD SWAP1 DUP1 DUP1 CALLDATALOAD PUSH20 0xFFFFFFFFFFFFFFFFFFFFFFFFFFFFFFFFFFFFFFFF AND SWAP1 PUSH1 0x20 ADD SWAP1 SWAP3 SWAP2 SWAP1 DUP1 CALLDATALOAD SWAP1 PUSH1 0x20 ADD SWAP1 SWAP3 SWAP2 SWAP1 POP POP POP PUSH2 0x1424 JUMP JUMPDEST PUSH1 0x40 MLOAD DUP1 DUP3 ISZERO ISZERO ISZERO ISZERO DUP2 MSTORE PUSH1 0x20 ADD SWAP2 POP POP PUSH1 0x40 MLOAD DUP1 SWAP2 SUB SWAP1 RETURN JUMPDEST PUSH2 0x501 PUSH1 0x4 DUP1 CALLDATASIZE SUB PUSH1 0x20 DUP2 LT ISZERO PUSH2 0x4EB JUMPI PUSH1 0x0 DUP1 REVERT JUMPDEST DUP2 ADD SWAP1 DUP1 DUP1 CALLDATALOAD SWAP1 PUSH1 0x20 ADD SWAP1 SWAP3 SWAP2 SWAP1 POP POP POP PUSH2 0x14C9 JUMP JUMPDEST STOP JUMPDEST PUSH2 0x543 PUSH1 0x4 DUP1 CALLDATASIZE SUB PUSH1 0x60 DUP2 LT ISZERO PUSH2 0x519 JUMPI PUSH1 0x0 DUP1 REVERT JUMPDEST DUP2 ADD SWAP1 DUP1 DUP1 CALLDATALOAD SWAP1 PUSH1 0x20 ADD SWAP1 SWAP3 SWAP2 SWAP1 DUP1 CALLDATALOAD SWAP1 PUSH1 0x20 ADD SWAP1 SWAP3 SWAP2 SWAP1 DUP1 CALLDATALOAD SWAP1 PUSH1 0x20 ADD SWAP1 SWAP3 SWAP2 SWAP1 POP POP POP PUSH2 0x154B JUMP JUMPDEST STOP JUMPDEST PUSH2 0x57B PUSH1 0x4 DUP1 CALLDATASIZE SUB PUSH1 0x40 DUP2 LT ISZERO PUSH2 0x55B JUMPI PUSH1 0x0 DUP1 REVERT JUMPDEST DUP2 ADD SWAP1 DUP1 DUP1 CALLDATALOAD SWAP1 PUSH1 0x20 ADD SWAP1 SWAP3 SWAP2 SWAP1 DUP1 CALLDATALOAD SWAP1 PUSH1 0x20 ADD SWAP1 SWAP3 SWAP2 SWAP1 POP POP POP PUSH2 0x1B94 JUMP JUMPDEST PUSH1 0x40 MLOAD DUP1 DUP3 DUP2 MSTORE PUSH1 0x20 ADD SWAP2 POP POP PUSH1 0x40 MLOAD DUP1 SWAP2 SUB SWAP1 RETURN JUMPDEST PUSH2 0x599 PUSH2 0x1DD3 JUMP JUMPDEST PUSH1 0x40 MLOAD DUP1 DUP3 PUSH20 0xFFFFFFFFFFFFFFFFFFFFFFFFFFFFFFFFFFFFFFFF AND PUSH20 0xFFFFFFFFFFFFFFFFFFFFFFFFFFFFFFFFFFFFFFFF AND DUP2 MSTORE PUSH1 0x20 ADD SWAP2 POP POP PUSH1 0x40 MLOAD DUP1 SWAP2 SUB SWAP1 RETURN JUMPDEST PUSH2 0x5E3 PUSH2 0x1DF9 JUMP JUMPDEST PUSH1 0x40 MLOAD DUP1 DUP3 DUP2 MSTORE PUSH1 0x20 ADD SWAP2 POP POP PUSH1 0x40 MLOAD DUP1 SWAP2 SUB SWAP1 RETURN JUMPDEST PUSH2 0x601 PUSH2 0x1DFF JUMP JUMPDEST PUSH1 0x40 MLOAD DUP1 DUP3 DUP2 MSTORE PUSH1 0x20 ADD SWAP2 POP POP PUSH1 0x40 MLOAD DUP1 SWAP2 SUB SWAP1 RETURN JUMPDEST PUSH2 0x659 PUSH1 0x4 DUP1 CALLDATASIZE SUB PUSH1 0x20 DUP2 LT ISZERO PUSH2 0x62D JUMPI PUSH1 0x0 DUP1 REVERT JUMPDEST DUP2 ADD SWAP1 DUP1 DUP1 CALLDATALOAD PUSH20 0xFFFFFFFFFFFFFFFFFFFFFFFFFFFFFFFFFFFFFFFF AND SWAP1 PUSH1 0x20 ADD SWAP1 SWAP3 SWAP2 SWAP1 POP POP POP PUSH2 0x1E05 JUMP JUMPDEST PUSH1 0x40 MLOAD DUP1 DUP3 DUP2 MSTORE PUSH1 0x20 ADD SWAP2 POP POP PUSH1 0x40 MLOAD DUP1 SWAP2 SUB SWAP1 RETURN JUMPDEST PUSH2 0x677 PUSH2 0x1E4D JUMP JUMPDEST STOP JUMPDEST PUSH2 0x681 PUSH2 0x1E61 JUMP JUMPDEST PUSH1 0x40 MLOAD DUP1 DUP3 PUSH20 0xFFFFFFFFFFFFFFFFFFFFFFFFFFFFFFFFFFFFFFFF AND PUSH20 0xFFFFFFFFFFFFFFFFFFFFFFFFFFFFFFFFFFFFFFFF AND DUP2 MSTORE PUSH1 0x20 ADD SWAP2 POP POP PUSH1 0x40 MLOAD DUP1 SWAP2 SUB SWAP1 RETURN JUMPDEST PUSH2 0x6CB PUSH2 0x1E8B JUMP JUMPDEST PUSH1 0x40 MLOAD DUP1 DUP3 DUP2 MSTORE PUSH1 0x20 ADD SWAP2 POP POP PUSH1 0x40 MLOAD DUP1 SWAP2 SUB SWAP1 RETURN JUMPDEST PUSH2 0x6E9 PUSH2 0x1EA9 JUMP JUMPDEST PUSH1 0x40 MLOAD DUP1 DUP3 DUP2 MSTORE PUSH1 0x20 ADD SWAP2 POP POP PUSH1 0x40 MLOAD DUP1 SWAP2 SUB SWAP1 RETURN JUMPDEST PUSH2 0x74B PUSH1 0x4 DUP1 CALLDATASIZE SUB PUSH1 0x40 DUP2 LT ISZERO PUSH2 0x715 JUMPI PUSH1 0x0 DUP1 REVERT JUMPDEST DUP2 ADD SWAP1 DUP1 DUP1 CALLDATALOAD PUSH20 0xFFFFFFFFFFFFFFFFFFFFFFFFFFFFFFFFFFFFFFFF AND SWAP1 PUSH1 0x20 ADD SWAP1 SWAP3 SWAP2 SWAP1 DUP1 CALLDATALOAD SWAP1 PUSH1 0x20 ADD SWAP1 SWAP3 SWAP2 SWAP1 POP POP POP PUSH2 0x1EAF JUMP JUMPDEST PUSH1 0x40 MLOAD DUP1 DUP3 ISZERO ISZERO ISZERO ISZERO DUP2 MSTORE PUSH1 0x20 ADD SWAP2 POP POP PUSH1 0x40 MLOAD DUP1 SWAP2 SUB SWAP1 RETURN JUMPDEST PUSH2 0x7B1 PUSH1 0x4 DUP1 CALLDATASIZE SUB PUSH1 0x40 DUP2 LT ISZERO PUSH2 0x77B JUMPI PUSH1 0x0 DUP1 REVERT JUMPDEST DUP2 ADD SWAP1 DUP1 DUP1 CALLDATALOAD PUSH20 0xFFFFFFFFFFFFFFFFFFFFFFFFFFFFFFFFFFFFFFFF AND SWAP1 PUSH1 0x20 ADD SWAP1 SWAP3 SWAP2 SWAP1 DUP1 CALLDATALOAD SWAP1 PUSH1 0x20 ADD SWAP1 SWAP3 SWAP2 SWAP1 POP POP POP PUSH2 0x1F54 JUMP JUMPDEST PUSH1 0x40 MLOAD DUP1 DUP3 ISZERO ISZERO ISZERO ISZERO DUP2 MSTORE PUSH1 0x20 ADD SWAP2 POP POP PUSH1 0x40 MLOAD DUP1 SWAP2 SUB SWAP1 RETURN JUMPDEST PUSH2 0x7D3 PUSH2 0x1F6B JUMP JUMPDEST PUSH1 0x40 MLOAD DUP1 DUP3 PUSH20 0xFFFFFFFFFFFFFFFFFFFFFFFFFFFFFFFFFFFFFFFF AND PUSH20 0xFFFFFFFFFFFFFFFFFFFFFFFFFFFFFFFFFFFFFFFF AND DUP2 MSTORE PUSH1 0x20 ADD SWAP2 POP POP PUSH1 0x40 MLOAD DUP1 SWAP2 SUB SWAP1 RETURN JUMPDEST PUSH2 0x976 PUSH1 0x4 DUP1 CALLDATASIZE SUB PUSH1 0xA0 DUP2 LT ISZERO PUSH2 0x82B JUMPI PUSH1 0x0 DUP1 REVERT JUMPDEST DUP2 ADD SWAP1 DUP1 DUP1 CALLDATALOAD PUSH20 0xFFFFFFFFFFFFFFFFFFFFFFFFFFFFFFFFFFFFFFFF AND SWAP1 PUSH1 0x20 ADD SWAP1 SWAP3 SWAP2 SWAP1 DUP1 CALLDATALOAD PUSH20 0xFFFFFFFFFFFFFFFFFFFFFFFFFFFFFFFFFFFFFFFF AND SWAP1 PUSH1 0x20 ADD SWAP1 SWAP3 SWAP2 SWAP1 DUP1 CALLDATALOAD SWAP1 PUSH1 0x20 ADD SWAP1 PUSH5 0x100000000 DUP2 GT ISZERO PUSH2 0x888 JUMPI PUSH1 0x0 DUP1 REVERT JUMPDEST DUP3 ADD DUP4 PUSH1 0x20 DUP3 ADD GT ISZERO PUSH2 0x89A JUMPI PUSH1 0x0 DUP1 REVERT JUMPDEST DUP1 CALLDATALOAD SWAP1 PUSH1 0x20 ADD SWAP2 DUP5 PUSH1 0x20 DUP4 MUL DUP5 ADD GT PUSH5 0x100000000 DUP4 GT OR ISZERO PUSH2 0x8BC JUMPI PUSH1 0x0 DUP1 REVERT JUMPDEST SWAP1 SWAP2 SWAP3 SWAP4 SWAP2 SWAP3 SWAP4 SWAP1 DUP1 CALLDATALOAD SWAP1 PUSH1 0x20 ADD SWAP1 PUSH5 0x100000000 DUP2 GT ISZERO PUSH2 0x8DD JUMPI PUSH1 0x0 DUP1 REVERT JUMPDEST DUP3 ADD DUP4 PUSH1 0x20 DUP3 ADD GT ISZERO PUSH2 0x8EF JUMPI PUSH1 0x0 DUP1 REVERT JUMPDEST DUP1 CALLDATALOAD SWAP1 PUSH1 0x20 ADD SWAP2 DUP5 PUSH1 0x20 DUP4 MUL DUP5 ADD GT PUSH5 0x100000000 DUP4 GT OR ISZERO PUSH2 0x911 JUMPI PUSH1 0x0 DUP1 REVERT JUMPDEST SWAP1 SWAP2 SWAP3 SWAP4 SWAP2 SWAP3 SWAP4 SWAP1 DUP1 CALLDATALOAD SWAP1 PUSH1 0x20 ADD SWAP1 PUSH5 0x100000000 DUP2 GT ISZERO PUSH2 0x932 JUMPI PUSH1 0x0 DUP1 REVERT JUMPDEST DUP3 ADD DUP4 PUSH1 0x20 DUP3 ADD GT ISZERO PUSH2 0x944 JUMPI PUSH1 0x0 DUP1 REVERT JUMPDEST DUP1 CALLDATALOAD SWAP1 PUSH1 0x20 ADD SWAP2 DUP5 PUSH1 0x1 DUP4 MUL DUP5 ADD GT PUSH5 0x100000000 DUP4 GT OR ISZERO PUSH2 0x966 JUMPI PUSH1 0x0 DUP1 REVERT JUMPDEST SWAP1 SWAP2 SWAP3 SWAP4 SWAP2 SWAP3 SWAP4 SWAP1 POP POP POP PUSH2 0x1F91 JUMP JUMPDEST PUSH1 0x40 MLOAD DUP1 DUP3 PUSH28 0xFFFFFFFFFFFFFFFFFFFFFFFFFFFFFFFFFFFFFFFFFFFFFFFFFFFFFFFF NOT AND PUSH28 0xFFFFFFFFFFFFFFFFFFFFFFFFFFFFFFFFFFFFFFFFFFFFFFFFFFFFFFFF NOT AND DUP2 MSTORE PUSH1 0x20 ADD SWAP2 POP POP PUSH1 0x40 MLOAD DUP1 SWAP2 SUB SWAP1 RETURN JUMPDEST PUSH2 0xA0A PUSH1 0x4 DUP1 CALLDATASIZE SUB PUSH1 0x60 DUP2 LT ISZERO PUSH2 0x9E0 JUMPI PUSH1 0x0 DUP1 REVERT JUMPDEST DUP2 ADD SWAP1 DUP1 DUP1 CALLDATALOAD SWAP1 PUSH1 0x20 ADD SWAP1 SWAP3 SWAP2 SWAP1 DUP1 CALLDATALOAD SWAP1 PUSH1 0x20 ADD SWAP1 SWAP3 SWAP2 SWAP1 DUP1 CALLDATALOAD SWAP1 PUSH1 0x20 ADD SWAP1 SWAP3 SWAP2 SWAP1 POP POP POP PUSH2 0x2022 JUMP JUMPDEST STOP JUMPDEST PUSH2 0xA8D PUSH1 0x4 DUP1 CALLDATASIZE SUB PUSH1 0x40 DUP2 LT ISZERO PUSH2 0xA22 JUMPI PUSH1 0x0 DUP1 REVERT JUMPDEST DUP2 ADD SWAP1 DUP1 DUP1 CALLDATALOAD SWAP1 PUSH1 0x20 ADD SWAP1 SWAP3 SWAP2 SWAP1 DUP1 CALLDATALOAD SWAP1 PUSH1 0x20 ADD SWAP1 PUSH5 0x100000000 DUP2 GT ISZERO PUSH2 0xA49 JUMPI PUSH1 0x0 DUP1 REVERT JUMPDEST DUP3 ADD DUP4 PUSH1 0x20 DUP3 ADD GT ISZERO PUSH2 0xA5B JUMPI PUSH1 0x0 DUP1 REVERT JUMPDEST DUP1 CALLDATALOAD SWAP1 PUSH1 0x20 ADD SWAP2 DUP5 PUSH1 0x20 DUP4 MUL DUP5 ADD GT PUSH5 0x100000000 DUP4 GT OR ISZERO PUSH2 0xA7D JUMPI PUSH1 0x0 DUP1 REVERT JUMPDEST SWAP1 SWAP2 SWAP3 SWAP4 SWAP2 SWAP3 SWAP4 SWAP1 POP POP POP PUSH2 0x250F JUMP JUMPDEST STOP JUMPDEST PUSH2 0xABB PUSH1 0x4 DUP1 CALLDATASIZE SUB PUSH1 0x20 DUP2 LT ISZERO PUSH2 0xAA5 JUMPI PUSH1 0x0 DUP1 REVERT JUMPDEST DUP2 ADD SWAP1 DUP1 DUP1 CALLDATALOAD SWAP1 PUSH1 0x20 ADD SWAP1 SWAP3 SWAP2 SWAP1 POP POP POP PUSH2 0x2E8E JUMP JUMPDEST PUSH1 0x40 MLOAD DUP1 DUP3 DUP2 MSTORE PUSH1 0x20 ADD SWAP2 POP POP PUSH1 0x40 MLOAD DUP1 SWAP2 SUB SWAP1 RETURN JUMPDEST PUSH2 0xB33 PUSH1 0x4 DUP1 CALLDATASIZE SUB PUSH1 0x40 DUP2 LT ISZERO PUSH2 0xAE7 JUMPI PUSH1 0x0 DUP1 REVERT JUMPDEST DUP2 ADD SWAP1 DUP1 DUP1 CALLDATALOAD PUSH20 0xFFFFFFFFFFFFFFFFFFFFFFFFFFFFFFFFFFFFFFFF AND SWAP1 PUSH1 0x20 ADD SWAP1 SWAP3 SWAP2 SWAP1 DUP1 CALLDATALOAD PUSH20 0xFFFFFFFFFFFFFFFFFFFFFFFFFFFFFFFFFFFFFFFF AND SWAP1 PUSH1 0x20 ADD SWAP1 SWAP3 SWAP2 SWAP1 POP POP POP PUSH2 0x2EAF JUMP JUMPDEST PUSH1 0x40 MLOAD DUP1 DUP3 DUP2 MSTORE PUSH1 0x20 ADD SWAP2 POP POP PUSH1 0x40 MLOAD DUP1 SWAP2 SUB SWAP1 RETURN JUMPDEST PUSH2 0xB51 PUSH2 0x2F36 JUMP JUMPDEST PUSH1 0x40 MLOAD DUP1 DUP3 DUP2 MSTORE PUSH1 0x20 ADD SWAP2 POP POP PUSH1 0x40 MLOAD DUP1 SWAP2 SUB SWAP1 RETURN JUMPDEST PUSH2 0xB93 PUSH1 0x4 DUP1 CALLDATASIZE SUB PUSH1 0x20 DUP2 LT ISZERO PUSH2 0xB7D JUMPI PUSH1 0x0 DUP1 REVERT JUMPDEST DUP2 ADD SWAP1 DUP1 DUP1 CALLDATALOAD SWAP1 PUSH1 0x20 ADD SWAP1 SWAP3 SWAP2 SWAP1 POP POP POP PUSH2 0x2F3C JUMP JUMPDEST STOP JUMPDEST PUSH2 0xBC1 PUSH1 0x4 DUP1 CALLDATASIZE SUB PUSH1 0x20 DUP2 LT ISZERO PUSH2 0xBAB JUMPI PUSH1 0x0 DUP1 REVERT JUMPDEST DUP2 ADD SWAP1 DUP1 DUP1 CALLDATALOAD SWAP1 PUSH1 0x20 ADD SWAP1 SWAP3 SWAP2 SWAP1 POP POP POP PUSH2 0x33FA JUMP JUMPDEST STOP JUMPDEST PUSH2 0xC8E PUSH1 0x4 DUP1 CALLDATASIZE SUB PUSH1 0xA0 DUP2 LT ISZERO PUSH2 0xBD9 JUMPI PUSH1 0x0 DUP1 REVERT JUMPDEST DUP2 ADD SWAP1 DUP1 DUP1 CALLDATALOAD PUSH20 0xFFFFFFFFFFFFFFFFFFFFFFFFFFFFFFFFFFFFFFFF AND SWAP1 PUSH1 0x20 ADD SWAP1 SWAP3 SWAP2 SWAP1 DUP1 CALLDATALOAD PUSH20 0xFFFFFFFFFFFFFFFFFFFFFFFFFFFFFFFFFFFFFFFF AND SWAP1 PUSH1 0x20 ADD SWAP1 SWAP3 SWAP2 SWAP1 DUP1 CALLDATALOAD SWAP1 PUSH1 0x20 ADD SWAP1 SWAP3 SWAP2 SWAP1 DUP1 CALLDATALOAD SWAP1 PUSH1 0x20 ADD SWAP1 SWAP3 SWAP2 SWAP1 DUP1 CALLDATALOAD SWAP1 PUSH1 0x20 ADD SWAP1 PUSH5 0x100000000 DUP2 GT ISZERO PUSH2 0xC4A JUMPI PUSH1 0x0 DUP1 REVERT JUMPDEST DUP3 ADD DUP4 PUSH1 0x20 DUP3 ADD GT ISZERO PUSH2 0xC5C JUMPI PUSH1 0x0 DUP1 REVERT JUMPDEST DUP1 CALLDATALOAD SWAP1 PUSH1 0x20 ADD SWAP2 DUP5 PUSH1 0x1 DUP4 MUL DUP5 ADD GT PUSH5 0x100000000 DUP4 GT OR ISZERO PUSH2 0xC7E JUMPI PUSH1 0x0 DUP1 REVERT JUMPDEST SWAP1 SWAP2 SWAP3 SWAP4 SWAP2 SWAP3 SWAP4 SWAP1 POP POP POP PUSH2 0x342C JUMP JUMPDEST PUSH1 0x40 MLOAD DUP1 DUP3 PUSH28 0xFFFFFFFFFFFFFFFFFFFFFFFFFFFFFFFFFFFFFFFFFFFFFFFFFFFFFFFF NOT AND PUSH28 0xFFFFFFFFFFFFFFFFFFFFFFFFFFFFFFFFFFFFFFFFFFFFFFFFFFFFFFFF NOT AND DUP2 MSTORE PUSH1 0x20 ADD SWAP2 POP POP PUSH1 0x40 MLOAD DUP1 SWAP2 SUB SWAP1 RETURN JUMPDEST PUSH2 0xD24 PUSH1 0x4 DUP1 CALLDATASIZE SUB PUSH1 0x20 DUP2 LT ISZERO PUSH2 0xCF8 JUMPI PUSH1 0x0 DUP1 REVERT JUMPDEST DUP2 ADD SWAP1 DUP1 DUP1 CALLDATALOAD PUSH20 0xFFFFFFFFFFFFFFFFFFFFFFFFFFFFFFFFFFFFFFFF AND SWAP1 PUSH1 0x20 ADD SWAP1 SWAP3 SWAP2 SWAP1 POP POP POP PUSH2 0x3483 JUMP JUMPDEST STOP JUMPDEST PUSH2 0xD5C PUSH1 0x4 DUP1 CALLDATASIZE SUB PUSH1 0x40 DUP2 LT ISZERO PUSH2 0xD3C JUMPI PUSH1 0x0 DUP1 REVERT JUMPDEST DUP2 ADD SWAP1 DUP1 DUP1 CALLDATALOAD SWAP1 PUSH1 0x20 ADD SWAP1 SWAP3 SWAP2 SWAP1 DUP1 CALLDATALOAD SWAP1 PUSH1 0x20 ADD SWAP1 SWAP3 SWAP2 SWAP1 POP POP POP PUSH2 0x351D JUMP JUMPDEST PUSH1 0x40 MLOAD DUP1 DUP3 DUP2 MSTORE PUSH1 0x20 ADD SWAP2 POP POP PUSH1 0x40 MLOAD DUP1 SWAP2 SUB SWAP1 RETURN JUMPDEST PUSH2 0xD7A PUSH2 0x3754 JUMP JUMPDEST PUSH1 0x40 MLOAD DUP1 DUP3 DUP2 MSTORE PUSH1 0x20 ADD SWAP2 POP POP PUSH1 0x40 MLOAD DUP1 SWAP2 SUB SWAP1 RETURN JUMPDEST PUSH1 0x0 PUSH1 0x3 PUSH1 0x0 DUP4 PUSH28 0xFFFFFFFFFFFFFFFFFFFFFFFFFFFFFFFFFFFFFFFFFFFFFFFFFFFFFFFF NOT AND PUSH28 0xFFFFFFFFFFFFFFFFFFFFFFFFFFFFFFFFFFFFFFFFFFFFFFFFFFFFFFFF NOT AND DUP2 MSTORE PUSH1 0x20 ADD SWAP1 DUP2 MSTORE PUSH1 0x20 ADD PUSH1 0x0 KECCAK256 PUSH1 0x0 SWAP1 SLOAD SWAP1 PUSH2 0x100 EXP SWAP1 DIV PUSH1 0xFF AND SWAP1 POP SWAP2 SWAP1 POP JUMP JUMPDEST PUSH2 0xE00 PUSH2 0x375A JUMP JUMPDEST PUSH1 0x0 PUSH1 0x10 SLOAD PUSH1 0x11 SLOAD SUB SWAP1 POP PUSH1 0x0 DUP2 GT ISZERO PUSH2 0xFA8 JUMPI PUSH2 0xE29 DUP2 PUSH1 0x10 SLOAD PUSH2 0x3804 SWAP1 SWAP2 SWAP1 PUSH4 0xFFFFFFFF AND JUMP JUMPDEST PUSH1 0x10 DUP2 SWAP1 SSTORE POP PUSH1 0x5 PUSH1 0x0 SWAP1 SLOAD SWAP1 PUSH2 0x100 EXP SWAP1 DIV PUSH20 0xFFFFFFFFFFFFFFFFFFFFFFFFFFFFFFFFFFFFFFFF AND PUSH20 0xFFFFFFFFFFFFFFFFFFFFFFFFFFFFFFFFFFFFFFFF AND PUSH4 0xA9059CBB PUSH1 0x12 PUSH1 0x0 SWAP1 SLOAD SWAP1 PUSH2 0x100 EXP SWAP1 DIV PUSH20 0xFFFFFFFFFFFFFFFFFFFFFFFFFFFFFFFFFFFFFFFF AND DUP4 PUSH1 0x40 MLOAD DUP4 PUSH4 0xFFFFFFFF AND PUSH1 0xE0 SHL DUP2 MSTORE PUSH1 0x4 ADD DUP1 DUP4 PUSH20 0xFFFFFFFFFFFFFFFFFFFFFFFFFFFFFFFFFFFFFFFF AND PUSH20 0xFFFFFFFFFFFFFFFFFFFFFFFFFFFFFFFFFFFFFFFF AND DUP2 MSTORE PUSH1 0x20 ADD DUP3 DUP2 MSTORE PUSH1 0x20 ADD SWAP3 POP POP POP PUSH1 0x20 PUSH1 0x40 MLOAD DUP1 DUP4 SUB DUP2 PUSH1 0x0 DUP8 DUP1 EXTCODESIZE ISZERO DUP1 ISZERO PUSH2 0xEFA JUMPI PUSH1 0x0 DUP1 REVERT JUMPDEST POP GAS CALL ISZERO DUP1 ISZERO PUSH2 0xF0E JUMPI RETURNDATASIZE PUSH1 0x0 DUP1 RETURNDATACOPY RETURNDATASIZE PUSH1 0x0 REVERT JUMPDEST POP POP POP POP PUSH1 0x40 MLOAD RETURNDATASIZE PUSH1 0x20 DUP2 LT ISZERO PUSH2 0xF24 JUMPI PUSH1 0x0 DUP1 REVERT JUMPDEST DUP2 ADD SWAP1 DUP1 DUP1 MLOAD SWAP1 PUSH1 0x20 ADD SWAP1 SWAP3 SWAP2 SWAP1 POP POP POP PUSH2 0xFA7 JUMPI PUSH1 0x40 MLOAD PUSH32 0x8C379A000000000000000000000000000000000000000000000000000000000 DUP2 MSTORE PUSH1 0x4 ADD DUP1 DUP1 PUSH1 0x20 ADD DUP3 DUP2 SUB DUP3 MSTORE PUSH1 0x1A DUP2 MSTORE PUSH1 0x20 ADD DUP1 PUSH32 0x7769746864726177616C207472616E73666572206661696C6564000000000000 DUP2 MSTORE POP PUSH1 0x20 ADD SWAP2 POP POP PUSH1 0x40 MLOAD DUP1 SWAP2 SUB SWAP1 REVERT JUMPDEST JUMPDEST POP JUMP JUMPDEST PUSH1 0x0 PUSH2 0xFB8 CALLER DUP5 DUP5 PUSH2 0x388C JUMP JUMPDEST PUSH1 0x1 SWAP1 POP SWAP3 SWAP2 POP POP JUMP JUMPDEST PUSH1 0x0 PUSH20 0xFFFFFFFFFFFFFFFFFFFFFFFFFFFFFFFFFFFFFFFF AND PUSH1 0x12 PUSH1 0x0 SWAP1 SLOAD SWAP1 PUSH2 0x100 EXP SWAP1 DIV PUSH20 0xFFFFFFFFFFFFFFFFFFFFFFFFFFFFFFFFFFFFFFFF AND PUSH20 0xFFFFFFFFFFFFFFFFFFFFFFFFFFFFFFFFFFFFFFFF AND EQ PUSH2 0x1086 JUMPI PUSH1 0x40 MLOAD PUSH32 0x8C379A000000000000000000000000000000000000000000000000000000000 DUP2 MSTORE PUSH1 0x4 ADD DUP1 DUP1 PUSH1 0x20 ADD DUP3 DUP2 SUB DUP3 MSTORE PUSH1 0x11 DUP2 MSTORE PUSH1 0x20 ADD DUP1 PUSH32 0x4F776E657220616C726561647920736574000000000000000000000000000000 DUP2 MSTORE POP PUSH1 0x20 ADD SWAP2 POP POP PUSH1 0x40 MLOAD DUP1 SWAP2 SUB SWAP1 REVERT JUMPDEST PUSH2 0x108F DUP2 PUSH2 0x3A83 JUMP JUMPDEST POP JUMP JUMPDEST PUSH1 0x0 PUSH2 0x109C PUSH2 0x1369 JUMP JUMPDEST PUSH2 0x10B9 PUSH2 0x10A8 DUP5 PUSH2 0x1E05 JUMP JUMPDEST PUSH1 0x8 SLOAD PUSH2 0x3B49 SWAP1 SWAP2 SWAP1 PUSH4 0xFFFFFFFF AND JUMP JUMPDEST DUP2 PUSH2 0x10C0 JUMPI INVALID JUMPDEST DIV SWAP1 POP PUSH1 0x0 PUSH2 0x1117 PUSH1 0xC PUSH1 0x0 DUP6 PUSH20 0xFFFFFFFFFFFFFFFFFFFFFFFFFFFFFFFFFFFFFFFF AND PUSH20 0xFFFFFFFFFFFFFFFFFFFFFFFFFFFFFFFFFFFFFFFF AND DUP2 MSTORE PUSH1 0x20 ADD SWAP1 DUP2 MSTORE PUSH1 0x20 ADD PUSH1 0x0 KECCAK256 SLOAD DUP4 PUSH2 0x3BCF SWAP1 SWAP2 SWAP1 PUSH4 0xFFFFFFFF AND JUMP JUMPDEST SWAP1 POP PUSH1 0x0 DUP2 GT ISZERO PUSH2 0x12D8 JUMPI DUP2 PUSH1 0xC PUSH1 0x0 DUP6 PUSH20 0xFFFFFFFFFFFFFFFFFFFFFFFFFFFFFFFFFFFFFFFF AND PUSH20 0xFFFFFFFFFFFFFFFFFFFFFFFFFFFFFFFFFFFFFFFF AND DUP2 MSTORE PUSH1 0x20 ADD SWAP1 DUP2 MSTORE PUSH1 0x20 ADD PUSH1 0x0 KECCAK256 DUP2 SWAP1 SSTORE POP PUSH2 0x117B DUP2 PUSH1 0xD SLOAD PUSH2 0x3804 SWAP1 SWAP2 SWAP1 PUSH4 0xFFFFFFFF AND JUMP JUMPDEST PUSH1 0xD DUP2 SWAP1 SSTORE POP PUSH1 0x5 PUSH1 0x0 SWAP1 SLOAD SWAP1 PUSH2 0x100 EXP SWAP1 DIV PUSH20 0xFFFFFFFFFFFFFFFFFFFFFFFFFFFFFFFFFFFFFFFF AND PUSH20 0xFFFFFFFFFFFFFFFFFFFFFFFFFFFFFFFFFFFFFFFF AND PUSH4 0xA9059CBB DUP5 DUP4 PUSH1 0x40 MLOAD DUP4 PUSH4 0xFFFFFFFF AND PUSH1 0xE0 SHL DUP2 MSTORE PUSH1 0x4 ADD DUP1 DUP4 PUSH20 0xFFFFFFFFFFFFFFFFFFFFFFFFFFFFFFFFFFFFFFFF AND PUSH20 0xFFFFFFFFFFFFFFFFFFFFFFFFFFFFFFFFFFFFFFFF AND DUP2 MSTORE PUSH1 0x20 ADD DUP3 DUP2 MSTORE PUSH1 0x20 ADD SWAP3 POP POP POP PUSH1 0x20 PUSH1 0x40 MLOAD DUP1 DUP4 SUB DUP2 PUSH1 0x0 DUP8 DUP1 EXTCODESIZE ISZERO DUP1 ISZERO PUSH2 0x122A JUMPI PUSH1 0x0 DUP1 REVERT JUMPDEST POP GAS CALL ISZERO DUP1 ISZERO PUSH2 0x123E JUMPI RETURNDATASIZE PUSH1 0x0 DUP1 RETURNDATACOPY RETURNDATASIZE PUSH1 0x0 REVERT JUMPDEST POP POP POP POP PUSH1 0x40 MLOAD RETURNDATASIZE PUSH1 0x20 DUP2 LT ISZERO PUSH2 0x1254 JUMPI PUSH1 0x0 DUP1 REVERT JUMPDEST DUP2 ADD SWAP1 DUP1 DUP1 MLOAD SWAP1 PUSH1 0x20 ADD SWAP1 SWAP3 SWAP2 SWAP1 POP POP POP PUSH2 0x12D7 JUMPI PUSH1 0x40 MLOAD PUSH32 0x8C379A000000000000000000000000000000000000000000000000000000000 DUP2 MSTORE PUSH1 0x4 ADD DUP1 DUP1 PUSH1 0x20 ADD DUP3 DUP2 SUB DUP3 MSTORE PUSH1 0x1A DUP2 MSTORE PUSH1 0x20 ADD DUP1 PUSH32 0x7769746864726177616C207472616E73666572206661696C6564000000000000 DUP2 MSTORE POP PUSH1 0x20 ADD SWAP2 POP POP PUSH1 0x40 MLOAD DUP1 SWAP2 SUB SWAP1 REVERT JUMPDEST JUMPDEST POP POP POP JUMP JUMPDEST PUSH1 0x0 DUP1 PUSH2 0x12E8 PUSH2 0x1369 JUMP JUMPDEST PUSH2 0x1305 PUSH2 0x12F4 DUP6 PUSH2 0x1E05 JUMP JUMPDEST PUSH1 0x8 SLOAD PUSH2 0x3B49 SWAP1 SWAP2 SWAP1 PUSH4 0xFFFFFFFF AND JUMP JUMPDEST DUP2 PUSH2 0x130C JUMPI INVALID JUMPDEST DIV SWAP1 POP PUSH2 0x1361 PUSH1 0xC PUSH1 0x0 DUP6 PUSH20 0xFFFFFFFFFFFFFFFFFFFFFFFFFFFFFFFFFFFFFFFF AND PUSH20 0xFFFFFFFFFFFFFFFFFFFFFFFFFFFFFFFFFFFFFFFF AND DUP2 MSTORE PUSH1 0x20 ADD SWAP1 DUP2 MSTORE PUSH1 0x20 ADD PUSH1 0x0 KECCAK256 SLOAD DUP3 PUSH2 0x3BCF SWAP1 SWAP2 SWAP1 PUSH4 0xFFFFFFFF AND JUMP JUMPDEST SWAP2 POP POP SWAP2 SWAP1 POP JUMP JUMPDEST PUSH1 0x0 PUSH1 0x2 SLOAD SWAP1 POP SWAP1 JUMP JUMPDEST PUSH1 0x0 PUSH2 0x1380 DUP5 DUP5 DUP5 PUSH2 0x3C58 JUMP JUMPDEST PUSH2 0x1419 DUP5 CALLER PUSH2 0x1414 DUP6 PUSH1 0x1 PUSH1 0x0 DUP11 PUSH20 0xFFFFFFFFFFFFFFFFFFFFFFFFFFFFFFFFFFFFFFFF AND PUSH20 0xFFFFFFFFFFFFFFFFFFFFFFFFFFFFFFFFFFFFFFFF AND DUP2 MSTORE PUSH1 0x20 ADD SWAP1 DUP2 MSTORE PUSH1 0x20 ADD PUSH1 0x0 KECCAK256 PUSH1 0x0 CALLER PUSH20 0xFFFFFFFFFFFFFFFFFFFFFFFFFFFFFFFFFFFFFFFF AND PUSH20 0xFFFFFFFFFFFFFFFFFFFFFFFFFFFFFFFFFFFFFFFF AND DUP2 MSTORE PUSH1 0x20 ADD SWAP1 DUP2 MSTORE PUSH1 0x20 ADD PUSH1 0x0 KECCAK256 SLOAD PUSH2 0x3BCF SWAP1 SWAP2 SWAP1 PUSH4 0xFFFFFFFF AND JUMP JUMPDEST PUSH2 0x388C JUMP JUMPDEST PUSH1 0x1 SWAP1 POP SWAP4 SWAP3 POP POP POP JUMP JUMPDEST PUSH1 0x0 PUSH2 0x14BF CALLER DUP5 PUSH2 0x14BA DUP6 PUSH1 0x1 PUSH1 0x0 CALLER PUSH20 0xFFFFFFFFFFFFFFFFFFFFFFFFFFFFFFFFFFFFFFFF AND PUSH20 0xFFFFFFFFFFFFFFFFFFFFFFFFFFFFFFFFFFFFFFFF AND DUP2 MSTORE PUSH1 0x20 ADD SWAP1 DUP2 MSTORE PUSH1 0x20 ADD PUSH1 0x0 KECCAK256 PUSH1 0x0 DUP10 PUSH20 0xFFFFFFFFFFFFFFFFFFFFFFFFFFFFFFFFFFFFFFFF AND PUSH20 0xFFFFFFFFFFFFFFFFFFFFFFFFFFFFFFFFFFFFFFFF AND DUP2 MSTORE PUSH1 0x20 ADD SWAP1 DUP2 MSTORE PUSH1 0x20 ADD PUSH1 0x0 KECCAK256 SLOAD PUSH2 0x3804 SWAP1 SWAP2 SWAP1 PUSH4 0xFFFFFFFF AND JUMP JUMPDEST PUSH2 0x388C JUMP JUMPDEST PUSH1 0x1 SWAP1 POP SWAP3 SWAP2 POP POP JUMP JUMPDEST PUSH1 0x0 PUSH1 0xE SLOAD EQ PUSH2 0x1541 JUMPI PUSH1 0x40 MLOAD PUSH32 0x8C379A000000000000000000000000000000000000000000000000000000000 DUP2 MSTORE PUSH1 0x4 ADD DUP1 DUP1 PUSH1 0x20 ADD DUP3 DUP2 SUB DUP3 MSTORE PUSH1 0x16 DUP2 MSTORE PUSH1 0x20 ADD DUP1 PUSH32 0x436C6F73652054696D6520616C72656164792073657400000000000000000000 DUP2 MSTORE POP PUSH1 0x20 ADD SWAP2 POP POP PUSH1 0x40 MLOAD DUP1 SWAP2 SUB SWAP1 REVERT JUMPDEST DUP1 PUSH1 0xE DUP2 SWAP1 SSTORE POP POP JUMP JUMPDEST PUSH1 0xE SLOAD TIMESTAMP LT PUSH2 0x15C2 JUMPI PUSH1 0x40 MLOAD PUSH32 0x8C379A000000000000000000000000000000000000000000000000000000000 DUP2 MSTORE PUSH1 0x4 ADD DUP1 DUP1 PUSH1 0x20 ADD DUP3 DUP2 SUB DUP3 MSTORE PUSH1 0xB DUP2 MSTORE PUSH1 0x20 ADD DUP1 PUSH32 0x46504D4D20636C6F736564000000000000000000000000000000000000000000 DUP2 MSTORE POP PUSH1 0x20 ADD SWAP2 POP POP PUSH1 0x40 MLOAD DUP1 SWAP2 SUB SWAP1 REVERT JUMPDEST PUSH1 0x0 PUSH2 0x15CE DUP5 DUP5 PUSH2 0x351D JUMP JUMPDEST SWAP1 POP DUP2 DUP2 LT ISZERO PUSH2 0x1646 JUMPI PUSH1 0x40 MLOAD PUSH32 0x8C379A000000000000000000000000000000000000000000000000000000000 DUP2 MSTORE PUSH1 0x4 ADD DUP1 DUP1 PUSH1 0x20 ADD DUP3 DUP2 SUB DUP3 MSTORE PUSH1 0x1E DUP2 MSTORE PUSH1 0x20 ADD DUP1 PUSH32 0x6D696E696D756D2062757920616D6F756E74206E6F7420726561636865640000 DUP2 MSTORE POP PUSH1 0x20 ADD SWAP2 POP POP PUSH1 0x40 MLOAD DUP1 SWAP2 SUB SWAP1 REVERT JUMPDEST PUSH1 0x5 PUSH1 0x0 SWAP1 SLOAD SWAP1 PUSH2 0x100 EXP SWAP1 DIV PUSH20 0xFFFFFFFFFFFFFFFFFFFFFFFFFFFFFFFFFFFFFFFF AND PUSH20 0xFFFFFFFFFFFFFFFFFFFFFFFFFFFFFFFFFFFFFFFF AND PUSH4 0x23B872DD CALLER ADDRESS DUP8 PUSH1 0x40 MLOAD DUP5 PUSH4 0xFFFFFFFF AND PUSH1 0xE0 SHL DUP2 MSTORE PUSH1 0x4 ADD DUP1 DUP5 PUSH20 0xFFFFFFFFFFFFFFFFFFFFFFFFFFFFFFFFFFFFFFFF AND PUSH20 0xFFFFFFFFFFFFFFFFFFFFFFFFFFFFFFFFFFFFFFFF AND DUP2 MSTORE PUSH1 0x20 ADD DUP4 PUSH20 0xFFFFFFFFFFFFFFFFFFFFFFFFFFFFFFFFFFFFFFFF AND PUSH20 0xFFFFFFFFFFFFFFFFFFFFFFFFFFFFFFFFFFFFFFFF AND DUP2 MSTORE PUSH1 0x20 ADD DUP3 DUP2 MSTORE PUSH1 0x20 ADD SWAP4 POP POP POP POP PUSH1 0x20 PUSH1 0x40 MLOAD DUP1 DUP4 SUB DUP2 PUSH1 0x0 DUP8 DUP1 EXTCODESIZE ISZERO DUP1 ISZERO PUSH2 0x1723 JUMPI PUSH1 0x0 DUP1 REVERT JUMPDEST POP GAS CALL ISZERO DUP1 ISZERO PUSH2 0x1737 JUMPI RETURNDATASIZE PUSH1 0x0 DUP1 RETURNDATACOPY RETURNDATASIZE PUSH1 0x0 REVERT JUMPDEST POP POP POP POP PUSH1 0x40 MLOAD RETURNDATASIZE PUSH1 0x20 DUP2 LT ISZERO PUSH2 0x174D JUMPI PUSH1 0x0 DUP1 REVERT JUMPDEST DUP2 ADD SWAP1 DUP1 DUP1 MLOAD SWAP1 PUSH1 0x20 ADD SWAP1 SWAP3 SWAP2 SWAP1 POP POP POP PUSH2 0x17D0 JUMPI PUSH1 0x40 MLOAD PUSH32 0x8C379A000000000000000000000000000000000000000000000000000000000 DUP2 MSTORE PUSH1 0x4 ADD DUP1 DUP1 PUSH1 0x20 ADD DUP3 DUP2 SUB DUP3 MSTORE PUSH1 0x14 DUP2 MSTORE PUSH1 0x20 ADD DUP1 PUSH32 0x636F7374207472616E73666572206661696C6564000000000000000000000000 DUP2 MSTORE POP PUSH1 0x20 ADD SWAP2 POP POP PUSH1 0x40 MLOAD DUP1 SWAP2 SUB SWAP1 REVERT JUMPDEST PUSH1 0x0 PUSH8 0xDE0B6B3A7640000 PUSH2 0x17F0 PUSH1 0x7 SLOAD DUP8 PUSH2 0x3B49 SWAP1 SWAP2 SWAP1 PUSH4 0xFFFFFFFF AND JUMP JUMPDEST DUP2 PUSH2 0x17F7 JUMPI INVALID JUMPDEST DIV SWAP1 POP PUSH2 0x180F DUP2 PUSH1 0x8 SLOAD PUSH2 0x3804 SWAP1 SWAP2 SWAP1 PUSH4 0xFFFFFFFF AND JUMP JUMPDEST PUSH1 0x8 DUP2 SWAP1 SSTORE POP PUSH1 0x0 PUSH8 0xDE0B6B3A7640000 PUSH2 0x1835 PUSH1 0xF SLOAD DUP9 PUSH2 0x3B49 SWAP1 SWAP2 SWAP1 PUSH4 0xFFFFFFFF AND JUMP JUMPDEST DUP2 PUSH2 0x183C JUMPI INVALID JUMPDEST DIV SWAP1 POP PUSH2 0x1854 DUP2 PUSH1 0x11 SLOAD PUSH2 0x3804 SWAP1 SWAP2 SWAP1 PUSH4 0xFFFFFFFF AND JUMP JUMPDEST PUSH1 0x11 DUP2 SWAP1 SSTORE POP PUSH1 0x0 PUSH2 0x1881 DUP3 PUSH2 0x1873 DUP6 DUP11 PUSH2 0x3BCF SWAP1 SWAP2 SWAP1 PUSH4 0xFFFFFFFF AND JUMP JUMPDEST PUSH2 0x3BCF SWAP1 SWAP2 SWAP1 PUSH4 0xFFFFFFFF AND JUMP JUMPDEST SWAP1 POP PUSH1 0x5 PUSH1 0x0 SWAP1 SLOAD SWAP1 PUSH2 0x100 EXP SWAP1 DIV PUSH20 0xFFFFFFFFFFFFFFFFFFFFFFFFFFFFFFFFFFFFFFFF AND PUSH20 0xFFFFFFFFFFFFFFFFFFFFFFFFFFFFFFFFFFFFFFFF AND PUSH4 0x95EA7B3 PUSH1 0x4 PUSH1 0x0 SWAP1 SLOAD SWAP1 PUSH2 0x100 EXP SWAP1 DIV PUSH20 0xFFFFFFFFFFFFFFFFFFFFFFFFFFFFFFFFFFFFFFFF AND DUP4 PUSH1 0x40 MLOAD DUP4 PUSH4 0xFFFFFFFF AND PUSH1 0xE0 SHL DUP2 MSTORE PUSH1 0x4 ADD DUP1 DUP4 PUSH20 0xFFFFFFFFFFFFFFFFFFFFFFFFFFFFFFFFFFFFFFFF AND PUSH20 0xFFFFFFFFFFFFFFFFFFFFFFFFFFFFFFFFFFFFFFFF AND DUP2 MSTORE PUSH1 0x20 ADD DUP3 DUP2 MSTORE PUSH1 0x20 ADD SWAP3 POP POP POP PUSH1 0x20 PUSH1 0x40 MLOAD DUP1 DUP4 SUB DUP2 PUSH1 0x0 DUP8 DUP1 EXTCODESIZE ISZERO DUP1 ISZERO PUSH2 0x194E JUMPI PUSH1 0x0 DUP1 REVERT JUMPDEST POP GAS CALL ISZERO DUP1 ISZERO PUSH2 0x1962 JUMPI RETURNDATASIZE PUSH1 0x0 DUP1 RETURNDATACOPY RETURNDATASIZE PUSH1 0x0 REVERT JUMPDEST POP POP POP POP PUSH1 0x40 MLOAD RETURNDATASIZE PUSH1 0x20 DUP2 LT ISZERO PUSH2 0x1978 JUMPI PUSH1 0x0 DUP1 REVERT JUMPDEST DUP2 ADD SWAP1 DUP1 DUP1 MLOAD SWAP1 PUSH1 0x20 ADD SWAP1 SWAP3 SWAP2 SWAP1 POP POP POP PUSH2 0x19FB JUMPI PUSH1 0x40 MLOAD PUSH32 0x8C379A000000000000000000000000000000000000000000000000000000000 DUP2 MSTORE PUSH1 0x4 ADD DUP1 DUP1 PUSH1 0x20 ADD DUP3 DUP2 SUB DUP3 MSTORE PUSH1 0x1A DUP2 MSTORE PUSH1 0x20 ADD DUP1 PUSH32 0x617070726F76616C20666F722073706C697473206661696C6564000000000000 DUP2 MSTORE POP PUSH1 0x20 ADD SWAP2 POP POP PUSH1 0x40 MLOAD DUP1 SWAP2 SUB SWAP1 REVERT JUMPDEST PUSH2 0x1A04 DUP2 PUSH2 0x3EFF JUMP JUMPDEST PUSH1 0x4 PUSH1 0x0 SWAP1 SLOAD SWAP1 PUSH2 0x100 EXP SWAP1 DIV PUSH20 0xFFFFFFFFFFFFFFFFFFFFFFFFFFFFFFFFFFFFFFFF AND PUSH20 0xFFFFFFFFFFFFFFFFFFFFFFFFFFFFFFFFFFFFFFFF AND PUSH4 0xF242432A ADDRESS CALLER PUSH1 0xB DUP11 DUP2 SLOAD DUP2 LT PUSH2 0x1A51 JUMPI INVALID JUMPDEST SWAP1 PUSH1 0x0 MSTORE PUSH1 0x20 PUSH1 0x0 KECCAK256 ADD SLOAD DUP9 PUSH1 0x40 MLOAD DUP6 PUSH4 0xFFFFFFFF AND PUSH1 0xE0 SHL DUP2 MSTORE PUSH1 0x4 ADD DUP1 DUP6 PUSH20 0xFFFFFFFFFFFFFFFFFFFFFFFFFFFFFFFFFFFFFFFF AND PUSH20 0xFFFFFFFFFFFFFFFFFFFFFFFFFFFFFFFFFFFFFFFF AND DUP2 MSTORE PUSH1 0x20 ADD DUP5 PUSH20 0xFFFFFFFFFFFFFFFFFFFFFFFFFFFFFFFFFFFFFFFF AND PUSH20 0xFFFFFFFFFFFFFFFFFFFFFFFFFFFFFFFFFFFFFFFF AND DUP2 MSTORE PUSH1 0x20 ADD DUP4 DUP2 MSTORE PUSH1 0x20 ADD DUP3 DUP2 MSTORE PUSH1 0x20 ADD DUP1 PUSH1 0x20 ADD DUP3 DUP2 SUB DUP3 MSTORE PUSH1 0x0 DUP2 MSTORE PUSH1 0x20 ADD PUSH1 0x20 ADD SWAP6 POP POP POP POP POP POP PUSH1 0x0 PUSH1 0x40 MLOAD DUP1 DUP4 SUB DUP2 PUSH1 0x0 DUP8 DUP1 EXTCODESIZE ISZERO DUP1 ISZERO PUSH2 0x1B14 JUMPI PUSH1 0x0 DUP1 REVERT JUMPDEST POP GAS CALL ISZERO DUP1 ISZERO PUSH2 0x1B28 JUMPI RETURNDATASIZE PUSH1 0x0 DUP1 RETURNDATACOPY RETURNDATASIZE PUSH1 0x0 REVERT JUMPDEST POP POP POP POP DUP6 CALLER PUSH20 0xFFFFFFFFFFFFFFFFFFFFFFFFFFFFFFFFFFFFFFFF AND PUSH32 0x4F62630F51608FC8A7603A9391A5101E58BD7C276139366FC107DC3B67C3DCF8 DUP10 DUP7 DUP9 PUSH1 0x40 MLOAD DUP1 DUP5 DUP2 MSTORE PUSH1 0x20 ADD DUP4 DUP2 MSTORE PUSH1 0x20 ADD DUP3 DUP2 MSTORE PUSH1 0x20 ADD SWAP4 POP POP POP POP PUSH1 0x40 MLOAD DUP1 SWAP2 SUB SWAP1 LOG3 POP POP POP POP POP POP POP JUMP JUMPDEST PUSH1 0x0 PUSH1 0xB DUP1 SLOAD SWAP1 POP DUP3 LT PUSH2 0x1C10 JUMPI PUSH1 0x40 MLOAD PUSH32 0x8C379A000000000000000000000000000000000000000000000000000000000 DUP2 MSTORE PUSH1 0x4 ADD DUP1 DUP1 PUSH1 0x20 ADD DUP3 DUP2 SUB DUP3 MSTORE PUSH1 0x15 DUP2 MSTORE PUSH1 0x20 ADD DUP1 PUSH32 0x696E76616C6964206F7574636F6D6520696E6465780000000000000000000000 DUP2 MSTORE POP PUSH1 0x20 ADD SWAP2 POP POP PUSH1 0x40 MLOAD DUP1 SWAP2 SUB SWAP1 REVERT JUMPDEST PUSH1 0x60 PUSH2 0x1C1A PUSH2 0x4101 JUMP JUMPDEST SWAP1 POP PUSH1 0x0 PUSH2 0x1C3F PUSH1 0xF SLOAD PUSH1 0x7 SLOAD ADD PUSH8 0xDE0B6B3A7640000 PUSH2 0x3BCF SWAP1 SWAP2 SWAP1 PUSH4 0xFFFFFFFF AND JUMP JUMPDEST PUSH2 0x1C5A PUSH8 0xDE0B6B3A7640000 DUP8 PUSH2 0x3B49 SWAP1 SWAP2 SWAP1 PUSH4 0xFFFFFFFF AND JUMP JUMPDEST DUP2 PUSH2 0x1C61 JUMPI INVALID JUMPDEST DIV SWAP1 POP PUSH1 0x0 DUP3 DUP6 DUP2 MLOAD DUP2 LT PUSH2 0x1C72 JUMPI INVALID JUMPDEST PUSH1 0x20 MUL PUSH1 0x20 ADD ADD MLOAD SWAP1 POP PUSH1 0x0 PUSH2 0x1C99 PUSH8 0xDE0B6B3A7640000 DUP4 PUSH2 0x3B49 SWAP1 SWAP2 SWAP1 PUSH4 0xFFFFFFFF AND JUMP JUMPDEST SWAP1 POP PUSH1 0x0 DUP1 SWAP1 POP JUMPDEST DUP5 MLOAD DUP2 LT ISZERO PUSH2 0x1D11 JUMPI DUP7 DUP2 EQ PUSH2 0x1D04 JUMPI PUSH1 0x0 DUP6 DUP3 DUP2 MLOAD DUP2 LT PUSH2 0x1CBF JUMPI INVALID JUMPDEST PUSH1 0x20 MUL PUSH1 0x20 ADD ADD MLOAD SWAP1 POP PUSH2 0x1D00 PUSH2 0x1CDF DUP7 DUP4 PUSH2 0x3BCF SWAP1 SWAP2 SWAP1 PUSH4 0xFFFFFFFF AND JUMP JUMPDEST PUSH2 0x1CF2 DUP4 DUP7 PUSH2 0x3B49 SWAP1 SWAP2 SWAP1 PUSH4 0xFFFFFFFF AND JUMP JUMPDEST PUSH2 0x4379 SWAP1 SWAP2 SWAP1 PUSH4 0xFFFFFFFF AND JUMP JUMPDEST SWAP3 POP POP JUMPDEST DUP1 DUP1 PUSH1 0x1 ADD SWAP2 POP POP PUSH2 0x1CA1 JUMP JUMPDEST POP PUSH1 0x0 DUP2 GT PUSH2 0x1D88 JUMPI PUSH1 0x40 MLOAD PUSH32 0x8C379A000000000000000000000000000000000000000000000000000000000 DUP2 MSTORE PUSH1 0x4 ADD DUP1 DUP1 PUSH1 0x20 ADD DUP3 DUP2 SUB DUP3 MSTORE PUSH1 0x1B DUP2 MSTORE PUSH1 0x20 ADD DUP1 PUSH32 0x6D7573742068617665206E6F6E2D7A65726F2062616C616E6365730000000000 DUP2 MSTORE POP PUSH1 0x20 ADD SWAP2 POP POP PUSH1 0x40 MLOAD DUP1 SWAP2 SUB SWAP1 REVERT JUMPDEST PUSH2 0x1DC7 DUP3 PUSH2 0x1DB9 PUSH2 0x1DAA PUSH8 0xDE0B6B3A7640000 DUP6 PUSH2 0x4379 SWAP1 SWAP2 SWAP1 PUSH4 0xFFFFFFFF AND JUMP JUMPDEST DUP7 PUSH2 0x3804 SWAP1 SWAP2 SWAP1 PUSH4 0xFFFFFFFF AND JUMP JUMPDEST PUSH2 0x3BCF SWAP1 SWAP2 SWAP1 PUSH4 0xFFFFFFFF AND JUMP JUMPDEST SWAP5 POP POP POP POP POP SWAP3 SWAP2 POP POP JUMP JUMPDEST PUSH1 0x4 PUSH1 0x0 SWAP1 SLOAD SWAP1 PUSH2 0x100 EXP SWAP1 DIV PUSH20 0xFFFFFFFFFFFFFFFFFFFFFFFFFFFFFFFFFFFFFFFF AND DUP2 JUMP JUMPDEST PUSH1 0x10 SLOAD DUP2 JUMP JUMPDEST PUSH1 0xE SLOAD DUP2 JUMP JUMPDEST PUSH1 0x0 DUP1 PUSH1 0x0 DUP4 PUSH20 0xFFFFFFFFFFFFFFFFFFFFFFFFFFFFFFFFFFFFFFFF AND PUSH20 0xFFFFFFFFFFFFFFFFFFFFFFFFFFFFFFFFFFFFFFFF AND DUP2 MSTORE PUSH1 0x20 ADD SWAP1 DUP2 MSTORE PUSH1 0x20 ADD PUSH1 0x0 KECCAK256 SLOAD SWAP1 POP SWAP2 SWAP1 POP JUMP JUMPDEST PUSH2 0x1E55 PUSH2 0x375A JUMP JUMPDEST PUSH2 0x1E5F PUSH1 0x0 PUSH2 0x3A83 JUMP JUMPDEST JUMP JUMPDEST PUSH1 0x0 PUSH1 0x12 PUSH1 0x0 SWAP1 SLOAD SWAP1 PUSH2 0x100 EXP SWAP1 DIV PUSH20 0xFFFFFFFFFFFFFFFFFFFFFFFFFFFFFFFFFFFFFFFF AND SWAP1 POP SWAP1 JUMP JUMPDEST PUSH1 0x0 PUSH2 0x1EA4 PUSH1 0xD SLOAD PUSH1 0x8 SLOAD PUSH2 0x3BCF SWAP1 SWAP2 SWAP1 PUSH4 0xFFFFFFFF AND JUMP JUMPDEST SWAP1 POP SWAP1 JUMP JUMPDEST PUSH1 0xF SLOAD DUP2 JUMP JUMPDEST PUSH1 0x0 PUSH2 0x1F4A CALLER DUP5 PUSH2 0x1F45 DUP6 PUSH1 0x1 PUSH1 0x0 CALLER PUSH20 0xFFFFFFFFFFFFFFFFFFFFFFFFFFFFFFFFFFFFFFFF AND PUSH20 0xFFFFFFFFFFFFFFFFFFFFFFFFFFFFFFFFFFFFFFFF AND DUP2 MSTORE PUSH1 0x20 ADD SWAP1 DUP2 MSTORE PUSH1 0x20 ADD PUSH1 0x0 KECCAK256 PUSH1 0x0 DUP10 PUSH20 0xFFFFFFFFFFFFFFFFFFFFFFFFFFFFFFFFFFFFFFFF AND PUSH20 0xFFFFFFFFFFFFFFFFFFFFFFFFFFFFFFFFFFFFFFFF AND DUP2 MSTORE PUSH1 0x20 ADD SWAP1 DUP2 MSTORE PUSH1 0x20 ADD PUSH1 0x0 KECCAK256 SLOAD PUSH2 0x3BCF SWAP1 SWAP2 SWAP1 PUSH4 0xFFFFFFFF AND JUMP JUMPDEST PUSH2 0x388C JUMP JUMPDEST PUSH1 0x1 SWAP1 POP SWAP3 SWAP2 POP POP JUMP JUMPDEST PUSH1 0x0 PUSH2 0x1F61 CALLER DUP5 DUP5 PUSH2 0x3C58 JUMP JUMPDEST PUSH1 0x1 SWAP1 POP SWAP3 SWAP2 POP POP JUMP JUMPDEST PUSH1 0x5 PUSH1 0x0 SWAP1 SLOAD SWAP1 PUSH2 0x100 EXP SWAP1 DIV PUSH20 0xFFFFFFFFFFFFFFFFFFFFFFFFFFFFFFFFFFFFFFFF AND DUP2 JUMP JUMPDEST PUSH1 0x0 ADDRESS PUSH20 0xFFFFFFFFFFFFFFFFFFFFFFFFFFFFFFFFFFFFFFFF AND DUP10 PUSH20 0xFFFFFFFFFFFFFFFFFFFFFFFFFFFFFFFFFFFFFFFF AND EQ DUP1 ISZERO PUSH2 0x1FFA JUMPI POP PUSH1 0x0 PUSH20 0xFFFFFFFFFFFFFFFFFFFFFFFFFFFFFFFFFFFFFFFF AND DUP9 PUSH20 0xFFFFFFFFFFFFFFFFFFFFFFFFFFFFFFFFFFFFFFFF AND EQ JUMPDEST ISZERO PUSH2 0x200E JUMPI PUSH4 0xBC197C81 PUSH1 0xE0 SHL SWAP1 POP PUSH2 0x2016 JUMP JUMPDEST PUSH1 0x0 PUSH1 0xE0 SHL SWAP1 POP JUMPDEST SWAP9 SWAP8 POP POP POP POP POP POP POP POP JUMP JUMPDEST PUSH1 0xE SLOAD TIMESTAMP LT PUSH2 0x2099 JUMPI PUSH1 0x40 MLOAD PUSH32 0x8C379A000000000000000000000000000000000000000000000000000000000 DUP2 MSTORE PUSH1 0x4 ADD DUP1 DUP1 PUSH1 0x20 ADD DUP3 DUP2 SUB DUP3 MSTORE PUSH1 0xB DUP2 MSTORE PUSH1 0x20 ADD DUP1 PUSH32 0x46504D4D20636C6F736564000000000000000000000000000000000000000000 DUP2 MSTORE POP PUSH1 0x20 ADD SWAP2 POP POP PUSH1 0x40 MLOAD DUP1 SWAP2 SUB SWAP1 REVERT JUMPDEST PUSH1 0x0 PUSH2 0x20A5 DUP5 DUP5 PUSH2 0x1B94 JUMP JUMPDEST SWAP1 POP DUP2 DUP2 GT ISZERO PUSH2 0x211D JUMPI PUSH1 0x40 MLOAD PUSH32 0x8C379A000000000000000000000000000000000000000000000000000000000 DUP2 MSTORE PUSH1 0x4 ADD DUP1 DUP1 PUSH1 0x20 ADD DUP3 DUP2 SUB DUP3 MSTORE PUSH1 0x1C DUP2 MSTORE PUSH1 0x20 ADD DUP1 PUSH32 0x6D6178696D756D2073656C6C20616D6F756E7420657863656564656400000000 DUP2 MSTORE POP PUSH1 0x20 ADD SWAP2 POP POP PUSH1 0x40 MLOAD DUP1 SWAP2 SUB SWAP1 REVERT JUMPDEST PUSH1 0x4 PUSH1 0x0 SWAP1 SLOAD SWAP1 PUSH2 0x100 EXP SWAP1 DIV PUSH20 0xFFFFFFFFFFFFFFFFFFFFFFFFFFFFFFFFFFFFFFFF AND PUSH20 0xFFFFFFFFFFFFFFFFFFFFFFFFFFFFFFFFFFFFFFFF AND PUSH4 0xF242432A CALLER ADDRESS PUSH1 0xB DUP8 DUP2 SLOAD DUP2 LT PUSH2 0x216A JUMPI INVALID JUMPDEST SWAP1 PUSH1 0x0 MSTORE PUSH1 0x20 PUSH1 0x0 KECCAK256 ADD SLOAD DUP6 PUSH1 0x40 MLOAD DUP6 PUSH4 0xFFFFFFFF AND PUSH1 0xE0 SHL DUP2 MSTORE PUSH1 0x4 ADD DUP1 DUP6 PUSH20 0xFFFFFFFFFFFFFFFFFFFFFFFFFFFFFFFFFFFFFFFF AND PUSH20 0xFFFFFFFFFFFFFFFFFFFFFFFFFFFFFFFFFFFFFFFF AND DUP2 MSTORE PUSH1 0x20 ADD DUP5 PUSH20 0xFFFFFFFFFFFFFFFFFFFFFFFFFFFFFFFFFFFFFFFF AND PUSH20 0xFFFFFFFFFFFFFFFFFFFFFFFFFFFFFFFFFFFFFFFF AND DUP2 MSTORE PUSH1 0x20 ADD DUP4 DUP2 MSTORE PUSH1 0x20 ADD DUP3 DUP2 MSTORE PUSH1 0x20 ADD DUP1 PUSH1 0x20 ADD DUP3 DUP2 SUB DUP3 MSTORE PUSH1 0x0 DUP2 MSTORE PUSH1 0x20 ADD PUSH1 0x20 ADD SWAP6 POP POP POP POP POP POP PUSH1 0x0 PUSH1 0x40 MLOAD DUP1 DUP4 SUB DUP2 PUSH1 0x0 DUP8 DUP1 EXTCODESIZE ISZERO DUP1 ISZERO PUSH2 0x222D JUMPI PUSH1 0x0 DUP1 REVERT JUMPDEST POP GAS CALL ISZERO DUP1 ISZERO PUSH2 0x2241 JUMPI RETURNDATASIZE PUSH1 0x0 DUP1 RETURNDATACOPY RETURNDATASIZE PUSH1 0x0 REVERT JUMPDEST POP POP POP POP PUSH1 0x0 PUSH2 0x2278 PUSH1 0xF SLOAD PUSH2 0x226A PUSH1 0x7 SLOAD PUSH8 0xDE0B6B3A7640000 PUSH2 0x3BCF SWAP1 SWAP2 SWAP1 PUSH4 0xFFFFFFFF AND JUMP JUMPDEST PUSH2 0x3BCF SWAP1 SWAP2 SWAP1 PUSH4 0xFFFFFFFF AND JUMP JUMPDEST PUSH2 0x228D PUSH1 0x7 SLOAD DUP8 PUSH2 0x3B49 SWAP1 SWAP2 SWAP1 PUSH4 0xFFFFFFFF AND JUMP JUMPDEST DUP2 PUSH2 0x2294 JUMPI INVALID JUMPDEST DIV SWAP1 POP PUSH2 0x22AC DUP2 PUSH1 0x8 SLOAD PUSH2 0x3804 SWAP1 SWAP2 SWAP1 PUSH4 0xFFFFFFFF AND JUMP JUMPDEST PUSH1 0x8 DUP2 SWAP1 SSTORE POP PUSH1 0x0 PUSH2 0x22E5 PUSH1 0xF SLOAD PUSH2 0x22D7 PUSH1 0x7 SLOAD PUSH8 0xDE0B6B3A7640000 PUSH2 0x3BCF SWAP1 SWAP2 SWAP1 PUSH4 0xFFFFFFFF AND JUMP JUMPDEST PUSH2 0x3BCF SWAP1 SWAP2 SWAP1 PUSH4 0xFFFFFFFF AND JUMP JUMPDEST PUSH2 0x22FA PUSH1 0xF SLOAD DUP9 PUSH2 0x3B49 SWAP1 SWAP2 SWAP1 PUSH4 0xFFFFFFFF AND JUMP JUMPDEST DUP2 PUSH2 0x2301 JUMPI INVALID JUMPDEST DIV SWAP1 POP PUSH2 0x2319 DUP2 PUSH1 0x11 SLOAD PUSH2 0x3804 SWAP1 SWAP2 SWAP1 PUSH4 0xFFFFFFFF AND JUMP JUMPDEST PUSH1 0x11 DUP2 SWAP1 SSTORE POP PUSH1 0x0 PUSH2 0x2346 DUP3 PUSH2 0x2338 DUP6 DUP11 PUSH2 0x3804 SWAP1 SWAP2 SWAP1 PUSH4 0xFFFFFFFF AND JUMP JUMPDEST PUSH2 0x3804 SWAP1 SWAP2 SWAP1 PUSH4 0xFFFFFFFF AND JUMP JUMPDEST SWAP1 POP PUSH2 0x2351 DUP2 PUSH2 0x43AD JUMP JUMPDEST PUSH1 0x5 PUSH1 0x0 SWAP1 SLOAD SWAP1 PUSH2 0x100 EXP SWAP1 DIV PUSH20 0xFFFFFFFFFFFFFFFFFFFFFFFFFFFFFFFFFFFFFFFF AND PUSH20 0xFFFFFFFFFFFFFFFFFFFFFFFFFFFFFFFFFFFFFFFF AND PUSH4 0xA9059CBB CALLER DUP10 PUSH1 0x40 MLOAD DUP4 PUSH4 0xFFFFFFFF AND PUSH1 0xE0 SHL DUP2 MSTORE PUSH1 0x4 ADD DUP1 DUP4 PUSH20 0xFFFFFFFFFFFFFFFFFFFFFFFFFFFFFFFFFFFFFFFF AND PUSH20 0xFFFFFFFFFFFFFFFFFFFFFFFFFFFFFFFFFFFFFFFF AND DUP2 MSTORE PUSH1 0x20 ADD DUP3 DUP2 MSTORE PUSH1 0x20 ADD SWAP3 POP POP POP PUSH1 0x20 PUSH1 0x40 MLOAD DUP1 DUP4 SUB DUP2 PUSH1 0x0 DUP8 DUP1 EXTCODESIZE ISZERO DUP1 ISZERO PUSH2 0x23FA JUMPI PUSH1 0x0 DUP1 REVERT JUMPDEST POP GAS CALL ISZERO DUP1 ISZERO PUSH2 0x240E JUMPI RETURNDATASIZE PUSH1 0x0 DUP1 RETURNDATACOPY RETURNDATASIZE PUSH1 0x0 REVERT JUMPDEST POP POP POP POP PUSH1 0x40 MLOAD RETURNDATASIZE PUSH1 0x20 DUP2 LT ISZERO PUSH2 0x2424 JUMPI PUSH1 0x0 DUP1 REVERT JUMPDEST DUP2 ADD SWAP1 DUP1 DUP1 MLOAD SWAP1 PUSH1 0x20 ADD SWAP1 SWAP3 SWAP2 SWAP1 POP POP POP PUSH2 0x24A7 JUMPI PUSH1 0x40 MLOAD PUSH32 0x8C379A000000000000000000000000000000000000000000000000000000000 DUP2 MSTORE PUSH1 0x4 ADD DUP1 DUP1 PUSH1 0x20 ADD DUP3 DUP2 SUB DUP3 MSTORE PUSH1 0x16 DUP2 MSTORE PUSH1 0x20 ADD DUP1 PUSH32 0x72657475726E207472616E73666572206661696C656400000000000000000000 DUP2 MSTORE POP PUSH1 0x20 ADD SWAP2 POP POP PUSH1 0x40 MLOAD DUP1 SWAP2 SUB SWAP1 REVERT JUMPDEST DUP6 CALLER PUSH20 0xFFFFFFFFFFFFFFFFFFFFFFFFFFFFFFFFFFFFFFFF AND PUSH32 0xADCF2A240ED9300D681D9A3F5382B6C1BEED1B7E46643E0C7B42CBE6E2D766B4 DUP10 DUP7 DUP9 PUSH1 0x40 MLOAD DUP1 DUP5 DUP2 MSTORE PUSH1 0x20 ADD DUP4 DUP2 MSTORE PUSH1 0x20 ADD DUP3 DUP2 MSTORE PUSH1 0x20 ADD SWAP4 POP POP POP POP PUSH1 0x40 MLOAD DUP1 SWAP2 SUB SWAP1 LOG3 POP POP POP POP POP POP POP JUMP JUMPDEST PUSH1 0x0 DUP4 GT PUSH2 0x2585 JUMPI PUSH1 0x40 MLOAD PUSH32 0x8C379A000000000000000000000000000000000000000000000000000000000 DUP2 MSTORE PUSH1 0x4 ADD DUP1 DUP1 PUSH1 0x20 ADD DUP3 DUP2 SUB DUP3 MSTORE PUSH1 0x18 DUP2 MSTORE PUSH1 0x20 ADD DUP1 PUSH32 0x66756E64696E67206D757374206265206E6F6E2D7A65726F0000000000000000 DUP2 MSTORE POP PUSH1 0x20 ADD SWAP2 POP POP PUSH1 0x40 MLOAD DUP1 SWAP2 SUB SWAP1 REVERT JUMPDEST PUSH1 0x60 PUSH1 0xB DUP1 SLOAD SWAP1 POP PUSH1 0x40 MLOAD SWAP1 DUP1 DUP3 MSTORE DUP1 PUSH1 0x20 MUL PUSH1 0x20 ADD DUP3 ADD PUSH1 0x40 MSTORE DUP1 ISZERO PUSH2 0x25BB JUMPI DUP2 PUSH1 0x20 ADD PUSH1 0x20 DUP3 MUL DUP1 CODESIZE DUP4 CODECOPY DUP1 DUP3 ADD SWAP2 POP POP SWAP1 POP JUMPDEST POP SWAP1 POP PUSH1 0x0 PUSH2 0x25C8 PUSH2 0x1369 JUMP JUMPDEST SWAP1 POP PUSH1 0x0 DUP1 DUP3 GT ISZERO PUSH2 0x2724 JUMPI PUSH1 0x0 DUP6 DUP6 SWAP1 POP EQ PUSH2 0x2630 JUMPI PUSH1 0x40 MLOAD PUSH32 0x8C379A000000000000000000000000000000000000000000000000000000000 DUP2 MSTORE PUSH1 0x4 ADD DUP1 DUP1 PUSH1 0x20 ADD DUP3 DUP2 SUB DUP3 MSTORE PUSH1 0x32 DUP2 MSTORE PUSH1 0x20 ADD DUP1 PUSH2 0x4C85 PUSH1 0x32 SWAP2 CODECOPY PUSH1 0x40 ADD SWAP2 POP POP PUSH1 0x40 MLOAD DUP1 SWAP2 SUB SWAP1 REVERT JUMPDEST PUSH1 0x60 PUSH2 0x263A PUSH2 0x4101 JUMP JUMPDEST SWAP1 POP PUSH1 0x0 DUP1 SWAP1 POP PUSH1 0x0 DUP1 SWAP1 POP JUMPDEST DUP3 MLOAD DUP2 LT ISZERO PUSH2 0x2682 JUMPI PUSH1 0x0 DUP4 DUP3 DUP2 MLOAD DUP2 LT PUSH2 0x265E JUMPI INVALID JUMPDEST PUSH1 0x20 MUL PUSH1 0x20 ADD ADD MLOAD SWAP1 POP DUP1 DUP4 LT ISZERO PUSH2 0x2674 JUMPI DUP1 SWAP3 POP JUMPDEST POP DUP1 DUP1 PUSH1 0x1 ADD SWAP2 POP POP PUSH2 0x2647 JUMP JUMPDEST POP PUSH1 0x0 DUP1 SWAP1 POP JUMPDEST DUP3 MLOAD DUP2 LT ISZERO PUSH2 0x26FE JUMPI PUSH1 0x0 DUP3 PUSH2 0x26BB DUP6 DUP5 DUP2 MLOAD DUP2 LT PUSH2 0x26A4 JUMPI INVALID JUMPDEST PUSH1 0x20 MUL PUSH1 0x20 ADD ADD MLOAD DUP13 PUSH2 0x3B49 SWAP1 SWAP2 SWAP1 PUSH4 0xFFFFFFFF AND JUMP JUMPDEST DUP2 PUSH2 0x26C2 JUMPI INVALID JUMPDEST DIV SWAP1 POP PUSH2 0x26D8 DUP2 DUP12 PUSH2 0x3BCF SWAP1 SWAP2 SWAP1 PUSH4 0xFFFFFFFF AND JUMP JUMPDEST DUP8 DUP4 DUP2 MLOAD DUP2 LT PUSH2 0x26E4 JUMPI INVALID JUMPDEST PUSH1 0x20 MUL PUSH1 0x20 ADD ADD DUP2 DUP2 MSTORE POP POP POP DUP1 DUP1 PUSH1 0x1 ADD SWAP2 POP POP PUSH2 0x2689 JUMP JUMPDEST POP DUP1 PUSH2 0x2713 DUP6 DUP11 PUSH2 0x3B49 SWAP1 SWAP2 SWAP1 PUSH4 0xFFFFFFFF AND JUMP JUMPDEST DUP2 PUSH2 0x271A JUMPI INVALID JUMPDEST DIV SWAP3 POP POP POP PUSH2 0x28EE JUMP JUMPDEST PUSH1 0x0 DUP6 DUP6 SWAP1 POP GT ISZERO PUSH2 0x28EA JUMPI PUSH1 0xB DUP1 SLOAD SWAP1 POP DUP6 DUP6 SWAP1 POP EQ PUSH2 0x27AD JUMPI PUSH1 0x40 MLOAD PUSH32 0x8C379A000000000000000000000000000000000000000000000000000000000 DUP2 MSTORE PUSH1 0x4 ADD DUP1 DUP1 PUSH1 0x20 ADD DUP3 DUP2 SUB DUP3 MSTORE PUSH1 0xF DUP2 MSTORE PUSH1 0x20 ADD DUP1 PUSH32 0x68696E74206C656E677468206F66660000000000000000000000000000000000 DUP2 MSTORE POP PUSH1 0x20 ADD SWAP2 POP POP PUSH1 0x40 MLOAD DUP1 SWAP2 SUB SWAP1 REVERT JUMPDEST PUSH1 0x0 DUP1 SWAP1 POP PUSH1 0x0 DUP1 SWAP1 POP JUMPDEST DUP7 DUP7 SWAP1 POP DUP2 LT ISZERO PUSH2 0x27F4 JUMPI PUSH1 0x0 DUP8 DUP8 DUP4 DUP2 DUP2 LT PUSH2 0x27D1 JUMPI INVALID JUMPDEST SWAP1 POP PUSH1 0x20 MUL ADD CALLDATALOAD SWAP1 POP DUP1 DUP4 LT ISZERO PUSH2 0x27E6 JUMPI DUP1 SWAP3 POP JUMPDEST POP DUP1 DUP1 PUSH1 0x1 ADD SWAP2 POP POP PUSH2 0x27B8 JUMP JUMPDEST POP PUSH1 0x0 DUP1 SWAP1 POP JUMPDEST DUP7 DUP7 SWAP1 POP DUP2 LT ISZERO PUSH2 0x28E7 JUMPI PUSH1 0x0 DUP3 PUSH2 0x282E DUP10 DUP10 DUP6 DUP2 DUP2 LT PUSH2 0x2818 JUMPI INVALID JUMPDEST SWAP1 POP PUSH1 0x20 MUL ADD CALLDATALOAD DUP12 PUSH2 0x3B49 SWAP1 SWAP2 SWAP1 PUSH4 0xFFFFFFFF AND JUMP JUMPDEST DUP2 PUSH2 0x2835 JUMPI INVALID JUMPDEST DIV SWAP1 POP PUSH1 0x0 DUP2 GT PUSH2 0x28AE JUMPI PUSH1 0x40 MLOAD PUSH32 0x8C379A000000000000000000000000000000000000000000000000000000000 DUP2 MSTORE PUSH1 0x4 ADD DUP1 DUP1 PUSH1 0x20 ADD DUP3 DUP2 SUB DUP3 MSTORE PUSH1 0x1E DUP2 MSTORE PUSH1 0x20 ADD DUP1 PUSH32 0x6D7573742068696E7420612076616C696420646973747269627574696F6E0000 DUP2 MSTORE POP PUSH1 0x20 ADD SWAP2 POP POP PUSH1 0x40 MLOAD DUP1 SWAP2 SUB SWAP1 REVERT JUMPDEST PUSH2 0x28C1 DUP2 DUP11 PUSH2 0x3BCF SWAP1 SWAP2 SWAP1 PUSH4 0xFFFFFFFF AND JUMP JUMPDEST DUP7 DUP4 DUP2 MLOAD DUP2 LT PUSH2 0x28CD JUMPI INVALID JUMPDEST PUSH1 0x20 MUL PUSH1 0x20 ADD ADD DUP2 DUP2 MSTORE POP POP POP DUP1 DUP1 PUSH1 0x1 ADD SWAP2 POP POP PUSH2 0x27FB JUMP JUMPDEST POP POP JUMPDEST DUP6 SWAP1 POP JUMPDEST PUSH1 0x5 PUSH1 0x0 SWAP1 SLOAD SWAP1 PUSH2 0x100 EXP SWAP1 DIV PUSH20 0xFFFFFFFFFFFFFFFFFFFFFFFFFFFFFFFFFFFFFFFF AND PUSH20 0xFFFFFFFFFFFFFFFFFFFFFFFFFFFFFFFFFFFFFFFF AND PUSH4 0x23B872DD CALLER ADDRESS DUP10 PUSH1 0x40 MLOAD DUP5 PUSH4 0xFFFFFFFF AND PUSH1 0xE0 SHL DUP2 MSTORE PUSH1 0x4 ADD DUP1 DUP5 PUSH20 0xFFFFFFFFFFFFFFFFFFFFFFFFFFFFFFFFFFFFFFFF AND PUSH20 0xFFFFFFFFFFFFFFFFFFFFFFFFFFFFFFFFFFFFFFFF AND DUP2 MSTORE PUSH1 0x20 ADD DUP4 PUSH20 0xFFFFFFFFFFFFFFFFFFFFFFFFFFFFFFFFFFFFFFFF AND PUSH20 0xFFFFFFFFFFFFFFFFFFFFFFFFFFFFFFFFFFFFFFFF AND DUP2 MSTORE PUSH1 0x20 ADD DUP3 DUP2 MSTORE PUSH1 0x20 ADD SWAP4 POP POP POP POP PUSH1 0x20 PUSH1 0x40 MLOAD DUP1 DUP4 SUB DUP2 PUSH1 0x0 DUP8 DUP1 EXTCODESIZE ISZERO DUP1 ISZERO PUSH2 0x29CB JUMPI PUSH1 0x0 DUP1 REVERT JUMPDEST POP GAS CALL ISZERO DUP1 ISZERO PUSH2 0x29DF JUMPI RETURNDATASIZE PUSH1 0x0 DUP1 RETURNDATACOPY RETURNDATASIZE PUSH1 0x0 REVERT JUMPDEST POP POP POP POP PUSH1 0x40 MLOAD RETURNDATASIZE PUSH1 0x20 DUP2 LT ISZERO PUSH2 0x29F5 JUMPI PUSH1 0x0 DUP1 REVERT JUMPDEST DUP2 ADD SWAP1 DUP1 DUP1 MLOAD SWAP1 PUSH1 0x20 ADD SWAP1 SWAP3 SWAP2 SWAP1 POP POP POP PUSH2 0x2A78 JUMPI PUSH1 0x40 MLOAD PUSH32 0x8C379A000000000000000000000000000000000000000000000000000000000 DUP2 MSTORE PUSH1 0x4 ADD DUP1 DUP1 PUSH1 0x20 ADD DUP3 DUP2 SUB DUP3 MSTORE PUSH1 0x17 DUP2 MSTORE PUSH1 0x20 ADD DUP1 PUSH32 0x66756E64696E67207472616E73666572206661696C6564000000000000000000 DUP2 MSTORE POP PUSH1 0x20 ADD SWAP2 POP POP PUSH1 0x40 MLOAD DUP1 SWAP2 SUB SWAP1 REVERT JUMPDEST PUSH1 0x5 PUSH1 0x0 SWAP1 SLOAD SWAP1 PUSH2 0x100 EXP SWAP1 DIV PUSH20 0xFFFFFFFFFFFFFFFFFFFFFFFFFFFFFFFFFFFFFFFF AND PUSH20 0xFFFFFFFFFFFFFFFFFFFFFFFFFFFFFFFFFFFFFFFF AND PUSH4 0x95EA7B3 PUSH1 0x4 PUSH1 0x0 SWAP1 SLOAD SWAP1 PUSH2 0x100 EXP SWAP1 DIV PUSH20 0xFFFFFFFFFFFFFFFFFFFFFFFFFFFFFFFFFFFFFFFF AND DUP9 PUSH1 0x40 MLOAD DUP4 PUSH4 0xFFFFFFFF AND PUSH1 0xE0 SHL DUP2 MSTORE PUSH1 0x4 ADD DUP1 DUP4 PUSH20 0xFFFFFFFFFFFFFFFFFFFFFFFFFFFFFFFFFFFFFFFF AND PUSH20 0xFFFFFFFFFFFFFFFFFFFFFFFFFFFFFFFFFFFFFFFF AND DUP2 MSTORE PUSH1 0x20 ADD DUP3 DUP2 MSTORE PUSH1 0x20 ADD SWAP3 POP POP POP PUSH1 0x20 PUSH1 0x40 MLOAD DUP1 DUP4 SUB DUP2 PUSH1 0x0 DUP8 DUP1 EXTCODESIZE ISZERO DUP1 ISZERO PUSH2 0x2B43 JUMPI PUSH1 0x0 DUP1 REVERT JUMPDEST POP GAS CALL ISZERO DUP1 ISZERO PUSH2 0x2B57 JUMPI RETURNDATASIZE PUSH1 0x0 DUP1 RETURNDATACOPY RETURNDATASIZE PUSH1 0x0 REVERT JUMPDEST POP POP POP POP PUSH1 0x40 MLOAD RETURNDATASIZE PUSH1 0x20 DUP2 LT ISZERO PUSH2 0x2B6D JUMPI PUSH1 0x0 DUP1 REVERT JUMPDEST DUP2 ADD SWAP1 DUP1 DUP1 MLOAD SWAP1 PUSH1 0x20 ADD SWAP1 SWAP3 SWAP2 SWAP1 POP POP POP PUSH2 0x2BF0 JUMPI PUSH1 0x40 MLOAD PUSH32 0x8C379A000000000000000000000000000000000000000000000000000000000 DUP2 MSTORE PUSH1 0x4 ADD DUP1 DUP1 PUSH1 0x20 ADD DUP3 DUP2 SUB DUP3 MSTORE PUSH1 0x1A DUP2 MSTORE PUSH1 0x20 ADD DUP1 PUSH32 0x617070726F76616C20666F722073706C697473206661696C6564000000000000 DUP2 MSTORE POP PUSH1 0x20 ADD SWAP2 POP POP PUSH1 0x40 MLOAD DUP1 SWAP2 SUB SWAP1 REVERT JUMPDEST PUSH2 0x2BF9 DUP7 PUSH2 0x3EFF JUMP JUMPDEST PUSH2 0x2C03 CALLER DUP3 PUSH2 0x45AB JUMP JUMPDEST PUSH1 0x4 PUSH1 0x0 SWAP1 SLOAD SWAP1 PUSH2 0x100 EXP SWAP1 DIV PUSH20 0xFFFFFFFFFFFFFFFFFFFFFFFFFFFFFFFFFFFFFFFF AND PUSH20 0xFFFFFFFFFFFFFFFFFFFFFFFFFFFFFFFFFFFFFFFF AND PUSH4 0x2EB2C2D6 ADDRESS CALLER PUSH1 0xB DUP8 PUSH1 0x40 MLOAD DUP6 PUSH4 0xFFFFFFFF AND PUSH1 0xE0 SHL DUP2 MSTORE PUSH1 0x4 ADD DUP1 DUP6 PUSH20 0xFFFFFFFFFFFFFFFFFFFFFFFFFFFFFFFFFFFFFFFF AND PUSH20 0xFFFFFFFFFFFFFFFFFFFFFFFFFFFFFFFFFFFFFFFF AND DUP2 MSTORE PUSH1 0x20 ADD DUP5 PUSH20 0xFFFFFFFFFFFFFFFFFFFFFFFFFFFFFFFFFFFFFFFF AND PUSH20 0xFFFFFFFFFFFFFFFFFFFFFFFFFFFFFFFFFFFFFFFF AND DUP2 MSTORE PUSH1 0x20 ADD DUP1 PUSH1 0x20 ADD DUP1 PUSH1 0x20 ADD DUP1 PUSH1 0x20 ADD DUP5 DUP2 SUB DUP5 MSTORE DUP7 DUP2 DUP2 SLOAD DUP2 MSTORE PUSH1 0x20 ADD SWAP2 POP DUP1 SLOAD DUP1 ISZERO PUSH2 0x2D06 JUMPI PUSH1 0x20 MUL DUP3 ADD SWAP2 SWAP1 PUSH1 0x0 MSTORE PUSH1 0x20 PUSH1 0x0 KECCAK256 SWAP1 JUMPDEST DUP2 SLOAD DUP2 MSTORE PUSH1 0x20 ADD SWAP1 PUSH1 0x1 ADD SWAP1 DUP1 DUP4 GT PUSH2 0x2CF2 JUMPI JUMPDEST POP POP DUP5 DUP2 SUB DUP4 MSTORE DUP6 DUP2 DUP2 MLOAD DUP2 MSTORE PUSH1 0x20 ADD SWAP2 POP DUP1 MLOAD SWAP1 PUSH1 0x20 ADD SWAP1 PUSH1 0x20 MUL DUP1 DUP4 DUP4 PUSH1 0x0 JUMPDEST DUP4 DUP2 LT ISZERO PUSH2 0x2D43 JUMPI DUP1 DUP3 ADD MLOAD DUP2 DUP5 ADD MSTORE PUSH1 0x20 DUP2 ADD SWAP1 POP PUSH2 0x2D28 JUMP JUMPDEST POP POP POP POP SWAP1 POP ADD DUP5 DUP2 SUB DUP3 MSTORE PUSH1 0x0 DUP2 MSTORE PUSH1 0x20 ADD PUSH1 0x20 ADD SWAP8 POP POP POP POP POP POP POP POP PUSH1 0x0 PUSH1 0x40 MLOAD DUP1 DUP4 SUB DUP2 PUSH1 0x0 DUP8 DUP1 EXTCODESIZE ISZERO DUP1 ISZERO PUSH2 0x2D7C JUMPI PUSH1 0x0 DUP1 REVERT JUMPDEST POP GAS CALL ISZERO DUP1 ISZERO PUSH2 0x2D90 JUMPI RETURNDATASIZE PUSH1 0x0 DUP1 RETURNDATACOPY RETURNDATASIZE PUSH1 0x0 REVERT JUMPDEST POP POP POP POP PUSH1 0x0 DUP1 SWAP1 POP JUMPDEST DUP4 MLOAD DUP2 LT ISZERO PUSH2 0x2DEE JUMPI PUSH2 0x2DC9 DUP5 DUP3 DUP2 MLOAD DUP2 LT PUSH2 0x2DB2 JUMPI INVALID JUMPDEST PUSH1 0x20 MUL PUSH1 0x20 ADD ADD MLOAD DUP9 PUSH2 0x3BCF SWAP1 SWAP2 SWAP1 PUSH4 0xFFFFFFFF AND JUMP JUMPDEST DUP5 DUP3 DUP2 MLOAD DUP2 LT PUSH2 0x2DD5 JUMPI INVALID JUMPDEST PUSH1 0x20 MUL PUSH1 0x20 ADD ADD DUP2 DUP2 MSTORE POP POP DUP1 DUP1 PUSH1 0x1 ADD SWAP2 POP POP PUSH2 0x2D9A JUMP JUMPDEST POP CALLER PUSH20 0xFFFFFFFFFFFFFFFFFFFFFFFFFFFFFFFFFFFFFFFF AND PUSH32 0xEC2DC3E5A3BB9AA0A1DEB905D2BD23640D07F107E6CEB484024501AAD964A951 DUP5 DUP4 PUSH1 0x40 MLOAD DUP1 DUP1 PUSH1 0x20 ADD DUP4 DUP2 MSTORE PUSH1 0x20 ADD DUP3 DUP2 SUB DUP3 MSTORE DUP5 DUP2 DUP2 MLOAD DUP2 MSTORE PUSH1 0x20 ADD SWAP2 POP DUP1 MLOAD SWAP1 PUSH1 0x20 ADD SWAP1 PUSH1 0x20 MUL DUP1 DUP4 DUP4 PUSH1 0x0 JUMPDEST DUP4 DUP2 LT ISZERO PUSH2 0x2E72 JUMPI DUP1 DUP3 ADD MLOAD DUP2 DUP5 ADD MSTORE PUSH1 0x20 DUP2 ADD SWAP1 POP PUSH2 0x2E57 JUMP JUMPDEST POP POP POP POP SWAP1 POP ADD SWAP4 POP POP POP POP PUSH1 0x40 MLOAD DUP1 SWAP2 SUB SWAP1 LOG2 POP POP POP POP POP POP JUMP JUMPDEST PUSH1 0x6 DUP2 DUP2 SLOAD DUP2 LT PUSH2 0x2E9B JUMPI INVALID JUMPDEST SWAP1 PUSH1 0x0 MSTORE PUSH1 0x20 PUSH1 0x0 KECCAK256 ADD PUSH1 0x0 SWAP2 POP SWAP1 POP SLOAD DUP2 JUMP JUMPDEST PUSH1 0x0 PUSH1 0x1 PUSH1 0x0 DUP5 PUSH20 0xFFFFFFFFFFFFFFFFFFFFFFFFFFFFFFFFFFFFFFFF AND PUSH20 0xFFFFFFFFFFFFFFFFFFFFFFFFFFFFFFFFFFFFFFFF AND DUP2 MSTORE PUSH1 0x20 ADD SWAP1 DUP2 MSTORE PUSH1 0x20 ADD PUSH1 0x0 KECCAK256 PUSH1 0x0 DUP4 PUSH20 0xFFFFFFFFFFFFFFFFFFFFFFFFFFFFFFFFFFFFFFFF AND PUSH20 0xFFFFFFFFFFFFFFFFFFFFFFFFFFFFFFFFFFFFFFFF AND DUP2 MSTORE PUSH1 0x20 ADD SWAP1 DUP2 MSTORE PUSH1 0x20 ADD PUSH1 0x0 KECCAK256 SLOAD SWAP1 POP SWAP3 SWAP2 POP POP JUMP JUMPDEST PUSH1 0x7 SLOAD DUP2 JUMP JUMPDEST PUSH1 0x60 PUSH2 0x2F46 PUSH2 0x4101 JUMP JUMPDEST SWAP1 POP PUSH1 0x60 DUP2 MLOAD PUSH1 0x40 MLOAD SWAP1 DUP1 DUP3 MSTORE DUP1 PUSH1 0x20 MUL PUSH1 0x20 ADD DUP3 ADD PUSH1 0x40 MSTORE DUP1 ISZERO PUSH2 0x2F7A JUMPI DUP2 PUSH1 0x20 ADD PUSH1 0x20 DUP3 MUL DUP1 CODESIZE DUP4 CODECOPY DUP1 DUP3 ADD SWAP2 POP POP SWAP1 POP JUMPDEST POP SWAP1 POP PUSH1 0x0 PUSH2 0x2F87 PUSH2 0x1369 JUMP JUMPDEST SWAP1 POP PUSH1 0x0 DUP1 SWAP1 POP JUMPDEST DUP4 MLOAD DUP2 LT ISZERO PUSH2 0x2FEC JUMPI DUP2 PUSH2 0x2FBF DUP7 DUP7 DUP5 DUP2 MLOAD DUP2 LT PUSH2 0x2FA9 JUMPI INVALID JUMPDEST PUSH1 0x20 MUL PUSH1 0x20 ADD ADD MLOAD PUSH2 0x3B49 SWAP1 SWAP2 SWAP1 PUSH4 0xFFFFFFFF AND JUMP JUMPDEST DUP2 PUSH2 0x2FC6 JUMPI INVALID JUMPDEST DIV DUP4 DUP3 DUP2 MLOAD DUP2 LT PUSH2 0x2FD3 JUMPI INVALID JUMPDEST PUSH1 0x20 MUL PUSH1 0x20 ADD ADD DUP2 DUP2 MSTORE POP POP DUP1 DUP1 PUSH1 0x1 ADD SWAP2 POP POP PUSH2 0x2F8F JUMP JUMPDEST POP PUSH1 0x0 PUSH1 0x5 PUSH1 0x0 SWAP1 SLOAD SWAP1 PUSH2 0x100 EXP SWAP1 DIV PUSH20 0xFFFFFFFFFFFFFFFFFFFFFFFFFFFFFFFFFFFFFFFF AND PUSH20 0xFFFFFFFFFFFFFFFFFFFFFFFFFFFFFFFFFFFFFFFF AND PUSH4 0x70A08231 ADDRESS PUSH1 0x40 MLOAD DUP3 PUSH4 0xFFFFFFFF AND PUSH1 0xE0 SHL DUP2 MSTORE PUSH1 0x4 ADD DUP1 DUP3 PUSH20 0xFFFFFFFFFFFFFFFFFFFFFFFFFFFFFFFFFFFFFFFF AND PUSH20 0xFFFFFFFFFFFFFFFFFFFFFFFFFFFFFFFFFFFFFFFF AND DUP2 MSTORE PUSH1 0x20 ADD SWAP2 POP POP PUSH1 0x20 PUSH1 0x40 MLOAD DUP1 DUP4 SUB DUP2 DUP7 DUP1 EXTCODESIZE ISZERO DUP1 ISZERO PUSH2 0x308E JUMPI PUSH1 0x0 DUP1 REVERT JUMPDEST POP GAS STATICCALL ISZERO DUP1 ISZERO PUSH2 0x30A2 JUMPI RETURNDATASIZE PUSH1 0x0 DUP1 RETURNDATACOPY RETURNDATASIZE PUSH1 0x0 REVERT JUMPDEST POP POP POP POP PUSH1 0x40 MLOAD RETURNDATASIZE PUSH1 0x20 DUP2 LT ISZERO PUSH2 0x30B8 JUMPI PUSH1 0x0 DUP1 REVERT JUMPDEST DUP2 ADD SWAP1 DUP1 DUP1 MLOAD SWAP1 PUSH1 0x20 ADD SWAP1 SWAP3 SWAP2 SWAP1 POP POP POP SWAP1 POP PUSH2 0x30D5 CALLER DUP7 PUSH2 0x4772 JUMP JUMPDEST PUSH2 0x31C1 PUSH1 0x5 PUSH1 0x0 SWAP1 SLOAD SWAP1 PUSH2 0x100 EXP SWAP1 DIV PUSH20 0xFFFFFFFFFFFFFFFFFFFFFFFFFFFFFFFFFFFFFFFF AND PUSH20 0xFFFFFFFFFFFFFFFFFFFFFFFFFFFFFFFFFFFFFFFF AND PUSH4 0x70A08231 ADDRESS PUSH1 0x40 MLOAD DUP3 PUSH4 0xFFFFFFFF AND PUSH1 0xE0 SHL DUP2 MSTORE PUSH1 0x4 ADD DUP1 DUP3 PUSH20 0xFFFFFFFFFFFFFFFFFFFFFFFFFFFFFFFFFFFFFFFF AND PUSH20 0xFFFFFFFFFFFFFFFFFFFFFFFFFFFFFFFFFFFFFFFF AND DUP2 MSTORE PUSH1 0x20 ADD SWAP2 POP POP PUSH1 0x20 PUSH1 0x40 MLOAD DUP1 DUP4 SUB DUP2 DUP7 DUP1 EXTCODESIZE ISZERO DUP1 ISZERO PUSH2 0x3177 JUMPI PUSH1 0x0 DUP1 REVERT JUMPDEST POP GAS STATICCALL ISZERO DUP1 ISZERO PUSH2 0x318B JUMPI RETURNDATASIZE PUSH1 0x0 DUP1 RETURNDATACOPY RETURNDATASIZE PUSH1 0x0 REVERT JUMPDEST POP POP POP POP PUSH1 0x40 MLOAD RETURNDATASIZE PUSH1 0x20 DUP2 LT ISZERO PUSH2 0x31A1 JUMPI PUSH1 0x0 DUP1 REVERT JUMPDEST DUP2 ADD SWAP1 DUP1 DUP1 MLOAD SWAP1 PUSH1 0x20 ADD SWAP1 SWAP3 SWAP2 SWAP1 POP POP POP DUP3 PUSH2 0x3BCF SWAP1 SWAP2 SWAP1 PUSH4 0xFFFFFFFF AND JUMP JUMPDEST SWAP1 POP PUSH1 0x4 PUSH1 0x0 SWAP1 SLOAD SWAP1 PUSH2 0x100 EXP SWAP1 DIV PUSH20 0xFFFFFFFFFFFFFFFFFFFFFFFFFFFFFFFFFFFFFFFF AND PUSH20 0xFFFFFFFFFFFFFFFFFFFFFFFFFFFFFFFFFFFFFFFF AND PUSH4 0x2EB2C2D6 ADDRESS CALLER PUSH1 0xB DUP8 PUSH1 0x40 MLOAD DUP6 PUSH4 0xFFFFFFFF AND PUSH1 0xE0 SHL DUP2 MSTORE PUSH1 0x4 ADD DUP1 DUP6 PUSH20 0xFFFFFFFFFFFFFFFFFFFFFFFFFFFFFFFFFFFFFFFF AND PUSH20 0xFFFFFFFFFFFFFFFFFFFFFFFFFFFFFFFFFFFFFFFF AND DUP2 MSTORE PUSH1 0x20 ADD DUP5 PUSH20 0xFFFFFFFFFFFFFFFFFFFFFFFFFFFFFFFFFFFFFFFF AND PUSH20 0xFFFFFFFFFFFFFFFFFFFFFFFFFFFFFFFFFFFFFFFF AND DUP2 MSTORE PUSH1 0x20 ADD DUP1 PUSH1 0x20 ADD DUP1 PUSH1 0x20 ADD DUP1 PUSH1 0x20 ADD DUP5 DUP2 SUB DUP5 MSTORE DUP7 DUP2 DUP2 SLOAD DUP2 MSTORE PUSH1 0x20 ADD SWAP2 POP DUP1 SLOAD DUP1 ISZERO PUSH2 0x32C6 JUMPI PUSH1 0x20 MUL DUP3 ADD SWAP2 SWAP1 PUSH1 0x0 MSTORE PUSH1 0x20 PUSH1 0x0 KECCAK256 SWAP1 JUMPDEST DUP2 SLOAD DUP2 MSTORE PUSH1 0x20 ADD SWAP1 PUSH1 0x1 ADD SWAP1 DUP1 DUP4 GT PUSH2 0x32B2 JUMPI JUMPDEST POP POP DUP5 DUP2 SUB DUP4 MSTORE DUP6 DUP2 DUP2 MLOAD DUP2 MSTORE PUSH1 0x20 ADD SWAP2 POP DUP1 MLOAD SWAP1 PUSH1 0x20 ADD SWAP1 PUSH1 0x20 MUL DUP1 DUP4 DUP4 PUSH1 0x0 JUMPDEST DUP4 DUP2 LT ISZERO PUSH2 0x3303 JUMPI DUP1 DUP3 ADD MLOAD DUP2 DUP5 ADD MSTORE PUSH1 0x20 DUP2 ADD SWAP1 POP PUSH2 0x32E8 JUMP JUMPDEST POP POP POP POP SWAP1 POP ADD DUP5 DUP2 SUB DUP3 MSTORE PUSH1 0x0 DUP2 MSTORE PUSH1 0x20 ADD PUSH1 0x20 ADD SWAP8 POP POP POP POP POP POP POP POP PUSH1 0x0 PUSH1 0x40 MLOAD DUP1 DUP4 SUB DUP2 PUSH1 0x0 DUP8 DUP1 EXTCODESIZE ISZERO DUP1 ISZERO PUSH2 0x333C JUMPI PUSH1 0x0 DUP1 REVERT JUMPDEST POP GAS CALL ISZERO DUP1 ISZERO PUSH2 0x3350 JUMPI RETURNDATASIZE PUSH1 0x0 DUP1 RETURNDATACOPY RETURNDATASIZE PUSH1 0x0 REVERT JUMPDEST POP POP POP POP CALLER PUSH20 0xFFFFFFFFFFFFFFFFFFFFFFFFFFFFFFFFFFFFFFFF AND PUSH32 0x8B4B2C8EBD04C47FC8BCE136A85DF9B93FCB1F47C8AA296457D4391519D190E7 DUP5 DUP4 DUP9 PUSH1 0x40 MLOAD DUP1 DUP1 PUSH1 0x20 ADD DUP5 DUP2 MSTORE PUSH1 0x20 ADD DUP4 DUP2 MSTORE PUSH1 0x20 ADD DUP3 DUP2 SUB DUP3 MSTORE DUP6 DUP2 DUP2 MLOAD DUP2 MSTORE PUSH1 0x20 ADD SWAP2 POP DUP1 MLOAD SWAP1 PUSH1 0x20 ADD SWAP1 PUSH1 0x20 MUL DUP1 DUP4 DUP4 PUSH1 0x0 JUMPDEST DUP4 DUP2 LT ISZERO PUSH2 0x33DE JUMPI DUP1 DUP3 ADD MLOAD DUP2 DUP5 ADD MSTORE PUSH1 0x20 DUP2 ADD SWAP1 POP PUSH2 0x33C3 JUMP JUMPDEST POP POP POP POP SWAP1 POP ADD SWAP5 POP POP POP POP POP PUSH1 0x40 MLOAD DUP1 SWAP2 SUB SWAP1 LOG2 POP POP POP POP POP JUMP JUMPDEST PUSH1 0x0 PUSH1 0xF SLOAD EQ ISZERO PUSH2 0x3419 JUMPI PUSH1 0x0 PUSH1 0xF SLOAD EQ PUSH2 0x3414 JUMPI PUSH1 0x0 DUP1 REVERT JUMPDEST PUSH2 0x3422 JUMP JUMPDEST PUSH2 0x3421 PUSH2 0x375A JUMP JUMPDEST JUMPDEST DUP1 PUSH1 0xF DUP2 SWAP1 SSTORE POP POP JUMP JUMPDEST PUSH1 0x0 ADDRESS PUSH20 0xFFFFFFFFFFFFFFFFFFFFFFFFFFFFFFFFFFFFFFFF AND DUP8 PUSH20 0xFFFFFFFFFFFFFFFFFFFFFFFFFFFFFFFFFFFFFFFF AND EQ ISZERO PUSH2 0x3471 JUMPI PUSH4 0xF23A6E61 PUSH1 0xE0 SHL SWAP1 POP PUSH2 0x3479 JUMP JUMPDEST PUSH1 0x0 PUSH1 0xE0 SHL SWAP1 POP JUMPDEST SWAP7 SWAP6 POP POP POP POP POP POP JUMP JUMPDEST PUSH2 0x348B PUSH2 0x375A JUMP JUMPDEST PUSH1 0x0 PUSH20 0xFFFFFFFFFFFFFFFFFFFFFFFFFFFFFFFFFFFFFFFF AND DUP2 PUSH20 0xFFFFFFFFFFFFFFFFFFFFFFFFFFFFFFFFFFFFFFFF AND EQ ISZERO PUSH2 0x3511 JUMPI PUSH1 0x40 MLOAD PUSH32 0x8C379A000000000000000000000000000000000000000000000000000000000 DUP2 MSTORE PUSH1 0x4 ADD DUP1 DUP1 PUSH1 0x20 ADD DUP3 DUP2 SUB DUP3 MSTORE PUSH1 0x26 DUP2 MSTORE PUSH1 0x20 ADD DUP1 PUSH2 0x4C3D PUSH1 0x26 SWAP2 CODECOPY PUSH1 0x40 ADD SWAP2 POP POP PUSH1 0x40 MLOAD DUP1 SWAP2 SUB SWAP1 REVERT JUMPDEST PUSH2 0x351A DUP2 PUSH2 0x3A83 JUMP JUMPDEST POP JUMP JUMPDEST PUSH1 0x0 PUSH1 0xB DUP1 SLOAD SWAP1 POP DUP3 LT PUSH2 0x3599 JUMPI PUSH1 0x40 MLOAD PUSH32 0x8C379A000000000000000000000000000000000000000000000000000000000 DUP2 MSTORE PUSH1 0x4 ADD DUP1 DUP1 PUSH1 0x20 ADD DUP3 DUP2 SUB DUP3 MSTORE PUSH1 0x15 DUP2 MSTORE PUSH1 0x20 ADD DUP1 PUSH32 0x696E76616C6964206F7574636F6D6520696E6465780000000000000000000000 DUP2 MSTORE POP PUSH1 0x20 ADD SWAP2 POP POP PUSH1 0x40 MLOAD DUP1 SWAP2 SUB SWAP1 REVERT JUMPDEST PUSH1 0x60 PUSH2 0x35A3 PUSH2 0x4101 JUMP JUMPDEST SWAP1 POP PUSH1 0x0 PUSH2 0x35E3 PUSH8 0xDE0B6B3A7640000 PUSH2 0x35CC PUSH1 0xF SLOAD PUSH1 0x7 SLOAD ADD DUP9 PUSH2 0x3B49 SWAP1 SWAP2 SWAP1 PUSH4 0xFFFFFFFF AND JUMP JUMPDEST DUP2 PUSH2 0x35D3 JUMPI INVALID JUMPDEST DIV DUP7 PUSH2 0x3BCF SWAP1 SWAP2 SWAP1 PUSH4 0xFFFFFFFF AND JUMP JUMPDEST SWAP1 POP PUSH1 0x0 DUP3 DUP6 DUP2 MLOAD DUP2 LT PUSH2 0x35F3 JUMPI INVALID JUMPDEST PUSH1 0x20 MUL PUSH1 0x20 ADD ADD MLOAD SWAP1 POP PUSH1 0x0 PUSH2 0x361A PUSH8 0xDE0B6B3A7640000 DUP4 PUSH2 0x3B49 SWAP1 SWAP2 SWAP1 PUSH4 0xFFFFFFFF AND JUMP JUMPDEST SWAP1 POP PUSH1 0x0 DUP1 SWAP1 POP JUMPDEST DUP5 MLOAD DUP2 LT ISZERO PUSH2 0x3692 JUMPI DUP7 DUP2 EQ PUSH2 0x3685 JUMPI PUSH1 0x0 DUP6 DUP3 DUP2 MLOAD DUP2 LT PUSH2 0x3640 JUMPI INVALID JUMPDEST PUSH1 0x20 MUL PUSH1 0x20 ADD ADD MLOAD SWAP1 POP PUSH2 0x3681 PUSH2 0x3660 DUP7 DUP4 PUSH2 0x3804 SWAP1 SWAP2 SWAP1 PUSH4 0xFFFFFFFF AND JUMP JUMPDEST PUSH2 0x3673 DUP4 DUP7 PUSH2 0x3B49 SWAP1 SWAP2 SWAP1 PUSH4 0xFFFFFFFF AND JUMP JUMPDEST PUSH2 0x4379 SWAP1 SWAP2 SWAP1 PUSH4 0xFFFFFFFF AND JUMP JUMPDEST SWAP3 POP POP JUMPDEST DUP1 DUP1 PUSH1 0x1 ADD SWAP2 POP POP PUSH2 0x3622 JUMP JUMPDEST POP PUSH1 0x0 DUP2 GT PUSH2 0x3709 JUMPI PUSH1 0x40 MLOAD PUSH32 0x8C379A000000000000000000000000000000000000000000000000000000000 DUP2 MSTORE PUSH1 0x4 ADD DUP1 DUP1 PUSH1 0x20 ADD DUP3 DUP2 SUB DUP3 MSTORE PUSH1 0x1B DUP2 MSTORE PUSH1 0x20 ADD DUP1 PUSH32 0x6D7573742068617665206E6F6E2D7A65726F2062616C616E6365730000000000 DUP2 MSTORE POP PUSH1 0x20 ADD SWAP2 POP POP PUSH1 0x40 MLOAD DUP1 SWAP2 SUB SWAP1 REVERT JUMPDEST PUSH2 0x3748 PUSH2 0x3727 PUSH8 0xDE0B6B3A7640000 DUP4 PUSH2 0x4379 SWAP1 SWAP2 SWAP1 PUSH4 0xFFFFFFFF AND JUMP JUMPDEST PUSH2 0x373A DUP6 DUP6 PUSH2 0x3804 SWAP1 SWAP2 SWAP1 PUSH4 0xFFFFFFFF AND JUMP JUMPDEST PUSH2 0x3BCF SWAP1 SWAP2 SWAP1 PUSH4 0xFFFFFFFF AND JUMP JUMPDEST SWAP5 POP POP POP POP POP SWAP3 SWAP2 POP POP JUMP JUMPDEST PUSH1 0x11 SLOAD DUP2 JUMP JUMPDEST CALLER PUSH20 0xFFFFFFFFFFFFFFFFFFFFFFFFFFFFFFFFFFFFFFFF AND PUSH2 0x3779 PUSH2 0x1E61 JUMP JUMPDEST PUSH20 0xFFFFFFFFFFFFFFFFFFFFFFFFFFFFFFFFFFFFFFFF AND EQ PUSH2 0x3802 JUMPI PUSH1 0x40 MLOAD PUSH32 0x8C379A000000000000000000000000000000000000000000000000000000000 DUP2 MSTORE PUSH1 0x4 ADD DUP1 DUP1 PUSH1 0x20 ADD DUP3 DUP2 SUB DUP3 MSTORE PUSH1 0x20 DUP2 MSTORE PUSH1 0x20 ADD DUP1 PUSH32 0x4F776E61626C653A2063616C6C6572206973206E6F7420746865206F776E6572 DUP2 MSTORE POP PUSH1 0x20 ADD SWAP2 POP POP PUSH1 0x40 MLOAD DUP1 SWAP2 SUB SWAP1 REVERT JUMPDEST JUMP JUMPDEST PUSH1 0x0 DUP1 DUP3 DUP5 ADD SWAP1 POP DUP4 DUP2 LT ISZERO PUSH2 0x3882 JUMPI PUSH1 0x40 MLOAD PUSH32 0x8C379A000000000000000000000000000000000000000000000000000000000 DUP2 MSTORE PUSH1 0x4 ADD DUP1 DUP1 PUSH1 0x20 ADD DUP3 DUP2 SUB DUP3 MSTORE PUSH1 0x1B DUP2 MSTORE PUSH1 0x20 ADD DUP1 PUSH32 0x536166654D6174683A206164646974696F6E206F766572666C6F770000000000 DUP2 MSTORE POP PUSH1 0x20 ADD SWAP2 POP POP PUSH1 0x40 MLOAD DUP1 SWAP2 SUB SWAP1 REVERT JUMPDEST DUP1 SWAP2 POP POP SWAP3 SWAP2 POP POP JUMP JUMPDEST PUSH1 0x0 PUSH20 0xFFFFFFFFFFFFFFFFFFFFFFFFFFFFFFFFFFFFFFFF AND DUP4 PUSH20 0xFFFFFFFFFFFFFFFFFFFFFFFFFFFFFFFFFFFFFFFF AND EQ ISZERO PUSH2 0x3912 JUMPI PUSH1 0x40 MLOAD PUSH32 0x8C379A000000000000000000000000000000000000000000000000000000000 DUP2 MSTORE PUSH1 0x4 ADD DUP1 DUP1 PUSH1 0x20 ADD DUP3 DUP2 SUB DUP3 MSTORE PUSH1 0x24 DUP2 MSTORE PUSH1 0x20 ADD DUP1 PUSH2 0x4D1E PUSH1 0x24 SWAP2 CODECOPY PUSH1 0x40 ADD SWAP2 POP POP PUSH1 0x40 MLOAD DUP1 SWAP2 SUB SWAP1 REVERT JUMPDEST PUSH1 0x0 PUSH20 0xFFFFFFFFFFFFFFFFFFFFFFFFFFFFFFFFFFFFFFFF AND DUP3 PUSH20 0xFFFFFFFFFFFFFFFFFFFFFFFFFFFFFFFFFFFFFFFF AND EQ ISZERO PUSH2 0x3998 JUMPI PUSH1 0x40 MLOAD PUSH32 0x8C379A000000000000000000000000000000000000000000000000000000000 DUP2 MSTORE PUSH1 0x4 ADD DUP1 DUP1 PUSH1 0x20 ADD DUP3 DUP2 SUB DUP3 MSTORE PUSH1 0x22 DUP2 MSTORE PUSH1 0x20 ADD DUP1 PUSH2 0x4C63 PUSH1 0x22 SWAP2 CODECOPY PUSH1 0x40 ADD SWAP2 POP POP PUSH1 0x40 MLOAD DUP1 SWAP2 SUB SWAP1 REVERT JUMPDEST DUP1 PUSH1 0x1 PUSH1 0x0 DUP6 PUSH20 0xFFFFFFFFFFFFFFFFFFFFFFFFFFFFFFFFFFFFFFFF AND PUSH20 0xFFFFFFFFFFFFFFFFFFFFFFFFFFFFFFFFFFFFFFFF AND DUP2 MSTORE PUSH1 0x20 ADD SWAP1 DUP2 MSTORE PUSH1 0x20 ADD PUSH1 0x0 KECCAK256 PUSH1 0x0 DUP5 PUSH20 0xFFFFFFFFFFFFFFFFFFFFFFFFFFFFFFFFFFFFFFFF AND PUSH20 0xFFFFFFFFFFFFFFFFFFFFFFFFFFFFFFFFFFFFFFFF AND DUP2 MSTORE PUSH1 0x20 ADD SWAP1 DUP2 MSTORE PUSH1 0x20 ADD PUSH1 0x0 KECCAK256 DUP2 SWAP1 SSTORE POP DUP2 PUSH20 0xFFFFFFFFFFFFFFFFFFFFFFFFFFFFFFFFFFFFFFFF AND DUP4 PUSH20 0xFFFFFFFFFFFFFFFFFFFFFFFFFFFFFFFFFFFFFFFF AND PUSH32 0x8C5BE1E5EBEC7D5BD14F71427D1E84F3DD0314C0F7B2291E5B200AC8C7C3B925 DUP4 PUSH1 0x40 MLOAD DUP1 DUP3 DUP2 MSTORE PUSH1 0x20 ADD SWAP2 POP POP PUSH1 0x40 MLOAD DUP1 SWAP2 SUB SWAP1 LOG3 POP POP POP JUMP JUMPDEST PUSH1 0x0 PUSH1 0x12 PUSH1 0x0 SWAP1 SLOAD SWAP1 PUSH2 0x100 EXP SWAP1 DIV PUSH20 0xFFFFFFFFFFFFFFFFFFFFFFFFFFFFFFFFFFFFFFFF AND SWAP1 POP DUP2 PUSH1 0x12 PUSH1 0x0 PUSH2 0x100 EXP DUP2 SLOAD DUP2 PUSH20 0xFFFFFFFFFFFFFFFFFFFFFFFFFFFFFFFFFFFFFFFF MUL NOT AND SWAP1 DUP4 PUSH20 0xFFFFFFFFFFFFFFFFFFFFFFFFFFFFFFFFFFFFFFFF AND MUL OR SWAP1 SSTORE POP DUP2 PUSH20 0xFFFFFFFFFFFFFFFFFFFFFFFFFFFFFFFFFFFFFFFF AND DUP2 PUSH20 0xFFFFFFFFFFFFFFFFFFFFFFFFFFFFFFFFFFFFFFFF AND PUSH32 0x8BE0079C531659141344CD1FD0A4F28419497F9722A3DAAFE3B4186F6B6457E0 PUSH1 0x40 MLOAD PUSH1 0x40 MLOAD DUP1 SWAP2 SUB SWAP1 LOG3 POP POP JUMP JUMPDEST PUSH1 0x0 DUP1 DUP4 EQ ISZERO PUSH2 0x3B5C JUMPI PUSH1 0x0 SWAP1 POP PUSH2 0x3BC9 JUMP JUMPDEST PUSH1 0x0 DUP3 DUP5 MUL SWAP1 POP DUP3 DUP5 DUP3 DUP2 PUSH2 0x3B6D JUMPI INVALID JUMPDEST DIV EQ PUSH2 0x3BC4 JUMPI PUSH1 0x40 MLOAD PUSH32 0x8C379A000000000000000000000000000000000000000000000000000000000 DUP2 MSTORE PUSH1 0x4 ADD DUP1 DUP1 PUSH1 0x20 ADD DUP3 DUP2 SUB DUP3 MSTORE PUSH1 0x21 DUP2 MSTORE PUSH1 0x20 ADD DUP1 PUSH2 0x4CB7 PUSH1 0x21 SWAP2 CODECOPY PUSH1 0x40 ADD SWAP2 POP POP PUSH1 0x40 MLOAD DUP1 SWAP2 SUB SWAP1 REVERT JUMPDEST DUP1 SWAP2 POP POP JUMPDEST SWAP3 SWAP2 POP POP JUMP JUMPDEST PUSH1 0x0 DUP3 DUP3 GT ISZERO PUSH2 0x3C47 JUMPI PUSH1 0x40 MLOAD PUSH32 0x8C379A000000000000000000000000000000000000000000000000000000000 DUP2 MSTORE PUSH1 0x4 ADD DUP1 DUP1 PUSH1 0x20 ADD DUP3 DUP2 SUB DUP3 MSTORE PUSH1 0x1E DUP2 MSTORE PUSH1 0x20 ADD DUP1 PUSH32 0x536166654D6174683A207375627472616374696F6E206F766572666C6F770000 DUP2 MSTORE POP PUSH1 0x20 ADD SWAP2 POP POP PUSH1 0x40 MLOAD DUP1 SWAP2 SUB SWAP1 REVERT JUMPDEST PUSH1 0x0 DUP3 DUP5 SUB SWAP1 POP DUP1 SWAP2 POP POP SWAP3 SWAP2 POP POP JUMP JUMPDEST PUSH1 0x0 PUSH20 0xFFFFFFFFFFFFFFFFFFFFFFFFFFFFFFFFFFFFFFFF AND DUP4 PUSH20 0xFFFFFFFFFFFFFFFFFFFFFFFFFFFFFFFFFFFFFFFF AND EQ ISZERO PUSH2 0x3CDE JUMPI PUSH1 0x40 MLOAD PUSH32 0x8C379A000000000000000000000000000000000000000000000000000000000 DUP2 MSTORE PUSH1 0x4 ADD DUP1 DUP1 PUSH1 0x20 ADD DUP3 DUP2 SUB DUP3 MSTORE PUSH1 0x25 DUP2 MSTORE PUSH1 0x20 ADD DUP1 PUSH2 0x4CF9 PUSH1 0x25 SWAP2 CODECOPY PUSH1 0x40 ADD SWAP2 POP POP PUSH1 0x40 MLOAD DUP1 SWAP2 SUB SWAP1 REVERT JUMPDEST PUSH1 0x0 PUSH20 0xFFFFFFFFFFFFFFFFFFFFFFFFFFFFFFFFFFFFFFFF AND DUP3 PUSH20 0xFFFFFFFFFFFFFFFFFFFFFFFFFFFFFFFFFFFFFFFF AND EQ ISZERO PUSH2 0x3D64 JUMPI PUSH1 0x40 MLOAD PUSH32 0x8C379A000000000000000000000000000000000000000000000000000000000 DUP2 MSTORE PUSH1 0x4 ADD DUP1 DUP1 PUSH1 0x20 ADD DUP3 DUP2 SUB DUP3 MSTORE PUSH1 0x23 DUP2 MSTORE PUSH1 0x20 ADD DUP1 PUSH2 0x4C1A PUSH1 0x23 SWAP2 CODECOPY PUSH1 0x40 ADD SWAP2 POP POP PUSH1 0x40 MLOAD DUP1 SWAP2 SUB SWAP1 REVERT JUMPDEST PUSH2 0x3D6F DUP4 DUP4 DUP4 PUSH2 0x491C JUMP JUMPDEST PUSH2 0x3DC0 DUP2 PUSH1 0x0 DUP1 DUP7 PUSH20 0xFFFFFFFFFFFFFFFFFFFFFFFFFFFFFFFFFFFFFFFF AND PUSH20 0xFFFFFFFFFFFFFFFFFFFFFFFFFFFFFFFFFFFFFFFF AND DUP2 MSTORE PUSH1 0x20 ADD SWAP1 DUP2 MSTORE PUSH1 0x20 ADD PUSH1 0x0 KECCAK256 SLOAD PUSH2 0x3BCF SWAP1 SWAP2 SWAP1 PUSH4 0xFFFFFFFF AND JUMP JUMPDEST PUSH1 0x0 DUP1 DUP6 PUSH20 0xFFFFFFFFFFFFFFFFFFFFFFFFFFFFFFFFFFFFFFFF AND PUSH20 0xFFFFFFFFFFFFFFFFFFFFFFFFFFFFFFFFFFFFFFFF AND DUP2 MSTORE PUSH1 0x20 ADD SWAP1 DUP2 MSTORE PUSH1 0x20 ADD PUSH1 0x0 KECCAK256 DUP2 SWAP1 SSTORE POP PUSH2 0x3E53 DUP2 PUSH1 0x0 DUP1 DUP6 PUSH20 0xFFFFFFFFFFFFFFFFFFFFFFFFFFFFFFFFFFFFFFFF AND PUSH20 0xFFFFFFFFFFFFFFFFFFFFFFFFFFFFFFFFFFFFFFFF AND DUP2 MSTORE PUSH1 0x20 ADD SWAP1 DUP2 MSTORE PUSH1 0x20 ADD PUSH1 0x0 KECCAK256 SLOAD PUSH2 0x3804 SWAP1 SWAP2 SWAP1 PUSH4 0xFFFFFFFF AND JUMP JUMPDEST PUSH1 0x0 DUP1 DUP5 PUSH20 0xFFFFFFFFFFFFFFFFFFFFFFFFFFFFFFFFFFFFFFFF AND PUSH20 0xFFFFFFFFFFFFFFFFFFFFFFFFFFFFFFFFFFFFFFFF AND DUP2 MSTORE PUSH1 0x20 ADD SWAP1 DUP2 MSTORE PUSH1 0x20 ADD PUSH1 0x0 KECCAK256 DUP2 SWAP1 SSTORE POP DUP2 PUSH20 0xFFFFFFFFFFFFFFFFFFFFFFFFFFFFFFFFFFFFFFFF AND DUP4 PUSH20 0xFFFFFFFFFFFFFFFFFFFFFFFFFFFFFFFFFFFFFFFF AND PUSH32 0xDDF252AD1BE2C89B69C2B068FC378DAA952BA7F163C4A11628F55A4DF523B3EF DUP4 PUSH1 0x40 MLOAD DUP1 DUP3 DUP2 MSTORE PUSH1 0x20 ADD SWAP2 POP POP PUSH1 0x40 MLOAD DUP1 SWAP2 SUB SWAP1 LOG3 POP POP POP JUMP JUMPDEST PUSH1 0x0 PUSH1 0x1 PUSH1 0x6 DUP1 SLOAD SWAP1 POP SUB SWAP1 POP JUMPDEST PUSH1 0x0 DUP2 SLT PUSH2 0x40FD JUMPI PUSH1 0x60 PUSH2 0x3F37 PUSH1 0x9 DUP4 DUP2 SLOAD DUP2 LT PUSH2 0x3F27 JUMPI INVALID JUMPDEST SWAP1 PUSH1 0x0 MSTORE PUSH1 0x20 PUSH1 0x0 KECCAK256 ADD SLOAD PUSH2 0x4BA7 JUMP JUMPDEST SWAP1 POP PUSH1 0x0 DUP1 SWAP1 POP JUMPDEST PUSH1 0xA DUP4 DUP2 SLOAD DUP2 LT PUSH2 0x3F4C JUMPI INVALID JUMPDEST SWAP1 PUSH1 0x0 MSTORE PUSH1 0x20 PUSH1 0x0 KECCAK256 ADD DUP1 SLOAD SWAP1 POP DUP2 LT ISZERO PUSH2 0x40ED JUMPI PUSH1 0x4 PUSH1 0x0 SWAP1 SLOAD SWAP1 PUSH2 0x100 EXP SWAP1 DIV PUSH20 0xFFFFFFFFFFFFFFFFFFFFFFFFFFFFFFFFFFFFFFFF AND PUSH20 0xFFFFFFFFFFFFFFFFFFFFFFFFFFFFFFFFFFFFFFFF AND PUSH4 0x72CE4275 PUSH1 0x5 PUSH1 0x0 SWAP1 SLOAD SWAP1 PUSH2 0x100 EXP SWAP1 DIV PUSH20 0xFFFFFFFFFFFFFFFFFFFFFFFFFFFFFFFFFFFFFFFF AND PUSH1 0xA DUP7 DUP2 SLOAD DUP2 LT PUSH2 0x3FCF JUMPI INVALID JUMPDEST SWAP1 PUSH1 0x0 MSTORE PUSH1 0x20 PUSH1 0x0 KECCAK256 ADD DUP5 DUP2 SLOAD DUP2 LT PUSH2 0x3FE4 JUMPI INVALID JUMPDEST SWAP1 PUSH1 0x0 MSTORE PUSH1 0x20 PUSH1 0x0 KECCAK256 ADD SLOAD PUSH1 0x6 DUP8 DUP2 SLOAD DUP2 LT PUSH2 0x3FFC JUMPI INVALID JUMPDEST SWAP1 PUSH1 0x0 MSTORE PUSH1 0x20 PUSH1 0x0 KECCAK256 ADD SLOAD DUP7 DUP10 PUSH1 0x40 MLOAD DUP7 PUSH4 0xFFFFFFFF AND PUSH1 0xE0 SHL DUP2 MSTORE PUSH1 0x4 ADD DUP1 DUP7 PUSH20 0xFFFFFFFFFFFFFFFFFFFFFFFFFFFFFFFFFFFFFFFF AND PUSH20 0xFFFFFFFFFFFFFFFFFFFFFFFFFFFFFFFFFFFFFFFF AND DUP2 MSTORE PUSH1 0x20 ADD DUP6 DUP2 MSTORE PUSH1 0x20 ADD DUP5 DUP2 MSTORE PUSH1 0x20 ADD DUP1 PUSH1 0x20 ADD DUP4 DUP2 MSTORE PUSH1 0x20 ADD DUP3 DUP2 SUB DUP3 MSTORE DUP5 DUP2 DUP2 MLOAD DUP2 MSTORE PUSH1 0x20 ADD SWAP2 POP DUP1 MLOAD SWAP1 PUSH1 0x20 ADD SWAP1 PUSH1 0x20 MUL DUP1 DUP4 DUP4 PUSH1 0x0 JUMPDEST DUP4 DUP2 LT ISZERO PUSH2 0x409F JUMPI DUP1 DUP3 ADD MLOAD DUP2 DUP5 ADD MSTORE PUSH1 0x20 DUP2 ADD SWAP1 POP PUSH2 0x4084 JUMP JUMPDEST POP POP POP POP SWAP1 POP ADD SWAP7 POP POP POP POP POP POP POP PUSH1 0x0 PUSH1 0x40 MLOAD DUP1 DUP4 SUB DUP2 PUSH1 0x0 DUP8 DUP1 EXTCODESIZE ISZERO DUP1 ISZERO PUSH2 0x40C8 JUMPI PUSH1 0x0 DUP1 REVERT JUMPDEST POP GAS CALL ISZERO DUP1 ISZERO PUSH2 0x40DC JUMPI RETURNDATASIZE PUSH1 0x0 DUP1 RETURNDATACOPY RETURNDATASIZE PUSH1 0x0 REVERT JUMPDEST POP POP POP POP DUP1 DUP1 PUSH1 0x1 ADD SWAP2 POP POP PUSH2 0x3F3F JUMP JUMPDEST POP POP DUP1 DUP1 PUSH1 0x1 SWAP1 SUB SWAP2 POP POP PUSH2 0x3F0D JUMP JUMPDEST POP POP JUMP JUMPDEST PUSH1 0x60 DUP1 PUSH1 0xB DUP1 SLOAD SWAP1 POP PUSH1 0x40 MLOAD SWAP1 DUP1 DUP3 MSTORE DUP1 PUSH1 0x20 MUL PUSH1 0x20 ADD DUP3 ADD PUSH1 0x40 MSTORE DUP1 ISZERO PUSH2 0x4138 JUMPI DUP2 PUSH1 0x20 ADD PUSH1 0x20 DUP3 MUL DUP1 CODESIZE DUP4 CODECOPY DUP1 DUP3 ADD SWAP2 POP POP SWAP1 POP JUMPDEST POP SWAP1 POP PUSH1 0x0 DUP1 SWAP1 POP JUMPDEST PUSH1 0xB DUP1 SLOAD SWAP1 POP DUP2 LT ISZERO PUSH2 0x41A2 JUMPI ADDRESS DUP3 DUP3 DUP2 MLOAD DUP2 LT PUSH2 0x415B JUMPI INVALID JUMPDEST PUSH1 0x20 MUL PUSH1 0x20 ADD ADD SWAP1 PUSH20 0xFFFFFFFFFFFFFFFFFFFFFFFFFFFFFFFFFFFFFFFF AND SWAP1 DUP2 PUSH20 0xFFFFFFFFFFFFFFFFFFFFFFFFFFFFFFFFFFFFFFFF AND DUP2 MSTORE POP POP DUP1 DUP1 PUSH1 0x1 ADD SWAP2 POP POP PUSH2 0x4141 JUMP JUMPDEST POP PUSH1 0x4 PUSH1 0x0 SWAP1 SLOAD SWAP1 PUSH2 0x100 EXP SWAP1 DIV PUSH20 0xFFFFFFFFFFFFFFFFFFFFFFFFFFFFFFFFFFFFFFFF AND PUSH20 0xFFFFFFFFFFFFFFFFFFFFFFFFFFFFFFFFFFFFFFFF AND PUSH4 0x4E1273F4 DUP3 PUSH1 0xB PUSH1 0x40 MLOAD DUP4 PUSH4 0xFFFFFFFF AND PUSH1 0xE0 SHL DUP2 MSTORE PUSH1 0x4 ADD DUP1 DUP1 PUSH1 0x20 ADD DUP1 PUSH1 0x20 ADD DUP4 DUP2 SUB DUP4 MSTORE DUP6 DUP2 DUP2 MLOAD DUP2 MSTORE PUSH1 0x20 ADD SWAP2 POP DUP1 MLOAD SWAP1 PUSH1 0x20 ADD SWAP1 PUSH1 0x20 MUL DUP1 DUP4 DUP4 PUSH1 0x0 JUMPDEST DUP4 DUP2 LT ISZERO PUSH2 0x423A JUMPI DUP1 DUP3 ADD MLOAD DUP2 DUP5 ADD MSTORE PUSH1 0x20 DUP2 ADD SWAP1 POP PUSH2 0x421F JUMP JUMPDEST POP POP POP POP SWAP1 POP ADD DUP4 DUP2 SUB DUP3 MSTORE DUP5 DUP2 DUP2 SLOAD DUP2 MSTORE PUSH1 0x20 ADD SWAP2 POP DUP1 SLOAD DUP1 ISZERO PUSH2 0x427E JUMPI PUSH1 0x20 MUL DUP3 ADD SWAP2 SWAP1 PUSH1 0x0 MSTORE PUSH1 0x20 PUSH1 0x0 KECCAK256 SWAP1 JUMPDEST DUP2 SLOAD DUP2 MSTORE PUSH1 0x20 ADD SWAP1 PUSH1 0x1 ADD SWAP1 DUP1 DUP4 GT PUSH2 0x426A JUMPI JUMPDEST POP POP SWAP5 POP POP POP POP POP PUSH1 0x0 PUSH1 0x40 MLOAD DUP1 DUP4 SUB DUP2 DUP7 DUP1 EXTCODESIZE ISZERO DUP1 ISZERO PUSH2 0x429E JUMPI PUSH1 0x0 DUP1 REVERT JUMPDEST POP GAS STATICCALL ISZERO DUP1 ISZERO PUSH2 0x42B2 JUMPI RETURNDATASIZE PUSH1 0x0 DUP1 RETURNDATACOPY RETURNDATASIZE PUSH1 0x0 REVERT JUMPDEST POP POP POP POP PUSH1 0x40 MLOAD RETURNDATASIZE PUSH1 0x0 DUP3 RETURNDATACOPY RETURNDATASIZE PUSH1 0x1F NOT PUSH1 0x1F DUP3 ADD AND DUP3 ADD DUP1 PUSH1 0x40 MSTORE POP PUSH1 0x20 DUP2 LT ISZERO PUSH2 0x42DC JUMPI PUSH1 0x0 DUP1 REVERT JUMPDEST DUP2 ADD SWAP1 DUP1 DUP1 MLOAD PUSH1 0x40 MLOAD SWAP4 SWAP3 SWAP2 SWAP1 DUP5 PUSH5 0x100000000 DUP3 GT ISZERO PUSH2 0x42FC JUMPI PUSH1 0x0 DUP1 REVERT JUMPDEST DUP4 DUP3 ADD SWAP2 POP PUSH1 0x20 DUP3 ADD DUP6 DUP2 GT ISZERO PUSH2 0x4312 JUMPI PUSH1 0x0 DUP1 REVERT JUMPDEST DUP3 MLOAD DUP7 PUSH1 0x20 DUP3 MUL DUP4 ADD GT PUSH5 0x100000000 DUP3 GT OR ISZERO PUSH2 0x432F JUMPI PUSH1 0x0 DUP1 REVERT JUMPDEST DUP1 DUP4 MSTORE PUSH1 0x20 DUP4 ADD SWAP3 POP POP POP SWAP1 DUP1 MLOAD SWAP1 PUSH1 0x20 ADD SWAP1 PUSH1 0x20 MUL DUP1 DUP4 DUP4 PUSH1 0x0 JUMPDEST DUP4 DUP2 LT ISZERO PUSH2 0x4366 JUMPI DUP1 DUP3 ADD MLOAD DUP2 DUP5 ADD MSTORE PUSH1 0x20 DUP2 ADD SWAP1 POP PUSH2 0x434B JUMP JUMPDEST POP POP POP POP SWAP1 POP ADD PUSH1 0x40 MSTORE POP POP POP SWAP2 POP POP SWAP1 JUMP JUMPDEST PUSH1 0x0 DUP1 DUP4 GT ISZERO PUSH2 0x439A JUMPI PUSH1 0x1 DUP3 PUSH1 0x1 DUP6 SUB DUP2 PUSH2 0x4391 JUMPI INVALID JUMPDEST DIV ADD SWAP1 POP PUSH2 0x43A7 JUMP JUMPDEST DUP2 DUP4 DUP2 PUSH2 0x43A3 JUMPI INVALID JUMPDEST DIV SWAP1 POP JUMPDEST SWAP3 SWAP2 POP POP JUMP JUMPDEST PUSH1 0x0 DUP1 SWAP1 POP JUMPDEST PUSH1 0x6 DUP1 SLOAD SWAP1 POP DUP2 LT ISZERO PUSH2 0x45A7 JUMPI PUSH1 0x60 PUSH2 0x43E2 PUSH1 0x9 DUP4 DUP2 SLOAD DUP2 LT PUSH2 0x43D2 JUMPI INVALID JUMPDEST SWAP1 PUSH1 0x0 MSTORE PUSH1 0x20 PUSH1 0x0 KECCAK256 ADD SLOAD PUSH2 0x4BA7 JUMP JUMPDEST SWAP1 POP PUSH1 0x0 DUP1 SWAP1 POP JUMPDEST PUSH1 0xA DUP4 DUP2 SLOAD DUP2 LT PUSH2 0x43F7 JUMPI INVALID JUMPDEST SWAP1 PUSH1 0x0 MSTORE PUSH1 0x20 PUSH1 0x0 KECCAK256 ADD DUP1 SLOAD SWAP1 POP DUP2 LT ISZERO PUSH2 0x4598 JUMPI PUSH1 0x4 PUSH1 0x0 SWAP1 SLOAD SWAP1 PUSH2 0x100 EXP SWAP1 DIV PUSH20 0xFFFFFFFFFFFFFFFFFFFFFFFFFFFFFFFFFFFFFFFF AND PUSH20 0xFFFFFFFFFFFFFFFFFFFFFFFFFFFFFFFFFFFFFFFF AND PUSH4 0x9E7212AD PUSH1 0x5 PUSH1 0x0 SWAP1 SLOAD SWAP1 PUSH2 0x100 EXP SWAP1 DIV PUSH20 0xFFFFFFFFFFFFFFFFFFFFFFFFFFFFFFFFFFFFFFFF AND PUSH1 0xA DUP7 DUP2 SLOAD DUP2 LT PUSH2 0x447A JUMPI INVALID JUMPDEST SWAP1 PUSH1 0x0 MSTORE PUSH1 0x20 PUSH1 0x0 KECCAK256 ADD DUP5 DUP2 SLOAD DUP2 LT PUSH2 0x448F JUMPI INVALID JUMPDEST SWAP1 PUSH1 0x0 MSTORE PUSH1 0x20 PUSH1 0x0 KECCAK256 ADD SLOAD PUSH1 0x6 DUP8 DUP2 SLOAD DUP2 LT PUSH2 0x44A7 JUMPI INVALID JUMPDEST SWAP1 PUSH1 0x0 MSTORE PUSH1 0x20 PUSH1 0x0 KECCAK256 ADD SLOAD DUP7 DUP10 PUSH1 0x40 MLOAD DUP7 PUSH4 0xFFFFFFFF AND PUSH1 0xE0 SHL DUP2 MSTORE PUSH1 0x4 ADD DUP1 DUP7 PUSH20 0xFFFFFFFFFFFFFFFFFFFFFFFFFFFFFFFFFFFFFFFF AND PUSH20 0xFFFFFFFFFFFFFFFFFFFFFFFFFFFFFFFFFFFFFFFF AND DUP2 MSTORE PUSH1 0x20 ADD DUP6 DUP2 MSTORE PUSH1 0x20 ADD DUP5 DUP2 MSTORE PUSH1 0x20 ADD DUP1 PUSH1 0x20 ADD DUP4 DUP2 MSTORE PUSH1 0x20 ADD DUP3 DUP2 SUB DUP3 MSTORE DUP5 DUP2 DUP2 MLOAD DUP2 MSTORE PUSH1 0x20 ADD SWAP2 POP DUP1 MLOAD SWAP1 PUSH1 0x20 ADD SWAP1 PUSH1 0x20 MUL DUP1 DUP4 DUP4 PUSH1 0x0 JUMPDEST DUP4 DUP2 LT ISZERO PUSH2 0x454A JUMPI DUP1 DUP3 ADD MLOAD DUP2 DUP5 ADD MSTORE PUSH1 0x20 DUP2 ADD SWAP1 POP PUSH2 0x452F JUMP JUMPDEST POP POP POP POP SWAP1 POP ADD SWAP7 POP POP POP POP POP POP POP PUSH1 0x0 PUSH1 0x40 MLOAD DUP1 DUP4 SUB DUP2 PUSH1 0x0 DUP8 DUP1 EXTCODESIZE ISZERO DUP1 ISZERO PUSH2 0x4573 JUMPI PUSH1 0x0 DUP1 REVERT JUMPDEST POP GAS CALL ISZERO DUP1 ISZERO PUSH2 0x4587 JUMPI RETURNDATASIZE PUSH1 0x0 DUP1 RETURNDATACOPY RETURNDATASIZE PUSH1 0x0 REVERT JUMPDEST POP POP POP POP DUP1 DUP1 PUSH1 0x1 ADD SWAP2 POP POP PUSH2 0x43EA JUMP JUMPDEST POP POP DUP1 DUP1 PUSH1 0x1 ADD SWAP2 POP POP PUSH2 0x43B3 JUMP JUMPDEST POP POP JUMP JUMPDEST PUSH1 0x0 PUSH20 0xFFFFFFFFFFFFFFFFFFFFFFFFFFFFFFFFFFFFFFFF AND DUP3 PUSH20 0xFFFFFFFFFFFFFFFFFFFFFFFFFFFFFFFFFFFFFFFF AND EQ ISZERO PUSH2 0x464E JUMPI PUSH1 0x40 MLOAD PUSH32 0x8C379A000000000000000000000000000000000000000000000000000000000 DUP2 MSTORE PUSH1 0x4 ADD DUP1 DUP1 PUSH1 0x20 ADD DUP3 DUP2 SUB DUP3 MSTORE PUSH1 0x1F DUP2 MSTORE PUSH1 0x20 ADD DUP1 PUSH32 0x45524332303A206D696E7420746F20746865207A65726F206164647265737300 DUP2 MSTORE POP PUSH1 0x20 ADD SWAP2 POP POP PUSH1 0x40 MLOAD DUP1 SWAP2 SUB SWAP1 REVERT JUMPDEST PUSH2 0x465A PUSH1 0x0 DUP4 DUP4 PUSH2 0x491C JUMP JUMPDEST PUSH2 0x466F DUP2 PUSH1 0x2 SLOAD PUSH2 0x3804 SWAP1 SWAP2 SWAP1 PUSH4 0xFFFFFFFF AND JUMP JUMPDEST PUSH1 0x2 DUP2 SWAP1 SSTORE POP PUSH2 0x46C6 DUP2 PUSH1 0x0 DUP1 DUP6 PUSH20 0xFFFFFFFFFFFFFFFFFFFFFFFFFFFFFFFFFFFFFFFF AND PUSH20 0xFFFFFFFFFFFFFFFFFFFFFFFFFFFFFFFFFFFFFFFF AND DUP2 MSTORE PUSH1 0x20 ADD SWAP1 DUP2 MSTORE PUSH1 0x20 ADD PUSH1 0x0 KECCAK256 SLOAD PUSH2 0x3804 SWAP1 SWAP2 SWAP1 PUSH4 0xFFFFFFFF AND JUMP JUMPDEST PUSH1 0x0 DUP1 DUP5 PUSH20 0xFFFFFFFFFFFFFFFFFFFFFFFFFFFFFFFFFFFFFFFF AND PUSH20 0xFFFFFFFFFFFFFFFFFFFFFFFFFFFFFFFFFFFFFFFF AND DUP2 MSTORE PUSH1 0x20 ADD SWAP1 DUP2 MSTORE PUSH1 0x20 ADD PUSH1 0x0 KECCAK256 DUP2 SWAP1 SSTORE POP DUP2 PUSH20 0xFFFFFFFFFFFFFFFFFFFFFFFFFFFFFFFFFFFFFFFF AND PUSH1 0x0 PUSH20 0xFFFFFFFFFFFFFFFFFFFFFFFFFFFFFFFFFFFFFFFF AND PUSH32 0xDDF252AD1BE2C89B69C2B068FC378DAA952BA7F163C4A11628F55A4DF523B3EF DUP4 PUSH1 0x40 MLOAD DUP1 DUP3 DUP2 MSTORE PUSH1 0x20 ADD SWAP2 POP POP PUSH1 0x40 MLOAD DUP1 SWAP2 SUB SWAP1 LOG3 POP POP JUMP JUMPDEST PUSH1 0x0 PUSH20 0xFFFFFFFFFFFFFFFFFFFFFFFFFFFFFFFFFFFFFFFF AND DUP3 PUSH20 0xFFFFFFFFFFFFFFFFFFFFFFFFFFFFFFFFFFFFFFFF AND EQ ISZERO PUSH2 0x47F8 JUMPI PUSH1 0x40 MLOAD PUSH32 0x8C379A000000000000000000000000000000000000000000000000000000000 DUP2 MSTORE PUSH1 0x4 ADD DUP1 DUP1 PUSH1 0x20 ADD DUP3 DUP2 SUB DUP3 MSTORE PUSH1 0x21 DUP2 MSTORE PUSH1 0x20 ADD DUP1 PUSH2 0x4CD8 PUSH1 0x21 SWAP2 CODECOPY PUSH1 0x40 ADD SWAP2 POP POP PUSH1 0x40 MLOAD DUP1 SWAP2 SUB SWAP1 REVERT JUMPDEST PUSH2 0x4804 DUP3 PUSH1 0x0 DUP4 PUSH2 0x491C JUMP JUMPDEST PUSH2 0x4855 DUP2 PUSH1 0x0 DUP1 DUP6 PUSH20 0xFFFFFFFFFFFFFFFFFFFFFFFFFFFFFFFFFFFFFFFF AND PUSH20 0xFFFFFFFFFFFFFFFFFFFFFFFFFFFFFFFFFFFFFFFF AND DUP2 MSTORE PUSH1 0x20 ADD SWAP1 DUP2 MSTORE PUSH1 0x20 ADD PUSH1 0x0 KECCAK256 SLOAD PUSH2 0x3BCF SWAP1 SWAP2 SWAP1 PUSH4 0xFFFFFFFF AND JUMP JUMPDEST PUSH1 0x0 DUP1 DUP5 PUSH20 0xFFFFFFFFFFFFFFFFFFFFFFFFFFFFFFFFFFFFFFFF AND PUSH20 0xFFFFFFFFFFFFFFFFFFFFFFFFFFFFFFFFFFFFFFFF AND DUP2 MSTORE PUSH1 0x20 ADD SWAP1 DUP2 MSTORE PUSH1 0x20 ADD PUSH1 0x0 KECCAK256 DUP2 SWAP1 SSTORE POP PUSH2 0x48AC DUP2 PUSH1 0x2 SLOAD PUSH2 0x3BCF SWAP1 SWAP2 SWAP1 PUSH4 0xFFFFFFFF AND JUMP JUMPDEST PUSH1 0x2 DUP2 SWAP1 SSTORE POP PUSH1 0x0 PUSH20 0xFFFFFFFFFFFFFFFFFFFFFFFFFFFFFFFFFFFFFFFF AND DUP3 PUSH20 0xFFFFFFFFFFFFFFFFFFFFFFFFFFFFFFFFFFFFFFFF AND PUSH32 0xDDF252AD1BE2C89B69C2B068FC378DAA952BA7F163C4A11628F55A4DF523B3EF DUP4 PUSH1 0x40 MLOAD DUP1 DUP3 DUP2 MSTORE PUSH1 0x20 ADD SWAP2 POP POP PUSH1 0x40 MLOAD DUP1 SWAP2 SUB SWAP1 LOG3 POP POP JUMP JUMPDEST PUSH1 0x0 PUSH20 0xFFFFFFFFFFFFFFFFFFFFFFFFFFFFFFFFFFFFFFFF AND DUP4 PUSH20 0xFFFFFFFFFFFFFFFFFFFFFFFFFFFFFFFFFFFFFFFF AND EQ PUSH2 0x495A JUMPI PUSH2 0x4959 DUP4 PUSH2 0x1092 JUMP JUMPDEST JUMPDEST PUSH1 0x0 PUSH2 0x4964 PUSH2 0x1369 JUMP JUMPDEST SWAP1 POP PUSH1 0x0 DUP1 DUP3 EQ PUSH2 0x4992 JUMPI DUP2 PUSH2 0x4985 DUP5 PUSH1 0x8 SLOAD PUSH2 0x3B49 SWAP1 SWAP2 SWAP1 PUSH4 0xFFFFFFFF AND JUMP JUMPDEST DUP2 PUSH2 0x498C JUMPI INVALID JUMPDEST DIV PUSH2 0x4994 JUMP JUMPDEST DUP3 JUMPDEST SWAP1 POP PUSH1 0x0 PUSH20 0xFFFFFFFFFFFFFFFFFFFFFFFFFFFFFFFFFFFFFFFF AND DUP6 PUSH20 0xFFFFFFFFFFFFFFFFFFFFFFFFFFFFFFFFFFFFFFFF AND EQ PUSH2 0x4A7F JUMPI PUSH2 0x4A1C DUP2 PUSH1 0xC PUSH1 0x0 DUP9 PUSH20 0xFFFFFFFFFFFFFFFFFFFFFFFFFFFFFFFFFFFFFFFF AND PUSH20 0xFFFFFFFFFFFFFFFFFFFFFFFFFFFFFFFFFFFFFFFF AND DUP2 MSTORE PUSH1 0x20 ADD SWAP1 DUP2 MSTORE PUSH1 0x20 ADD PUSH1 0x0 KECCAK256 SLOAD PUSH2 0x3BCF SWAP1 SWAP2 SWAP1 PUSH4 0xFFFFFFFF AND JUMP JUMPDEST PUSH1 0xC PUSH1 0x0 DUP8 PUSH20 0xFFFFFFFFFFFFFFFFFFFFFFFFFFFFFFFFFFFFFFFF AND PUSH20 0xFFFFFFFFFFFFFFFFFFFFFFFFFFFFFFFFFFFFFFFF AND DUP2 MSTORE PUSH1 0x20 ADD SWAP1 DUP2 MSTORE PUSH1 0x20 ADD PUSH1 0x0 KECCAK256 DUP2 SWAP1 SSTORE POP PUSH2 0x4A74 DUP2 PUSH1 0xD SLOAD PUSH2 0x3BCF SWAP1 SWAP2 SWAP1 PUSH4 0xFFFFFFFF AND JUMP JUMPDEST PUSH1 0xD DUP2 SWAP1 SSTORE POP PUSH2 0x4A9B JUMP JUMPDEST PUSH2 0x4A94 DUP2 PUSH1 0x8 SLOAD PUSH2 0x3804 SWAP1 SWAP2 SWAP1 PUSH4 0xFFFFFFFF AND JUMP JUMPDEST PUSH1 0x8 DUP2 SWAP1 SSTORE POP JUMPDEST PUSH1 0x0 PUSH20 0xFFFFFFFFFFFFFFFFFFFFFFFFFFFFFFFFFFFFFFFF AND DUP5 PUSH20 0xFFFFFFFFFFFFFFFFFFFFFFFFFFFFFFFFFFFFFFFF AND EQ PUSH2 0x4B84 JUMPI PUSH2 0x4B21 DUP2 PUSH1 0xC PUSH1 0x0 DUP8 PUSH20 0xFFFFFFFFFFFFFFFFFFFFFFFFFFFFFFFFFFFFFFFF AND PUSH20 0xFFFFFFFFFFFFFFFFFFFFFFFFFFFFFFFFFFFFFFFF AND DUP2 MSTORE PUSH1 0x20 ADD SWAP1 DUP2 MSTORE PUSH1 0x20 ADD PUSH1 0x0 KECCAK256 SLOAD PUSH2 0x3804 SWAP1 SWAP2 SWAP1 PUSH4 0xFFFFFFFF AND JUMP JUMPDEST PUSH1 0xC PUSH1 0x0 DUP7 PUSH20 0xFFFFFFFFFFFFFFFFFFFFFFFFFFFFFFFFFFFFFFFF AND PUSH20 0xFFFFFFFFFFFFFFFFFFFFFFFFFFFFFFFFFFFFFFFF AND DUP2 MSTORE PUSH1 0x20 ADD SWAP1 DUP2 MSTORE PUSH1 0x20 ADD PUSH1 0x0 KECCAK256 DUP2 SWAP1 SSTORE POP PUSH2 0x4B79 DUP2 PUSH1 0xD SLOAD PUSH2 0x3804 SWAP1 SWAP2 SWAP1 PUSH4 0xFFFFFFFF AND JUMP JUMPDEST PUSH1 0xD DUP2 SWAP1 SSTORE POP PUSH2 0x4BA0 JUMP JUMPDEST PUSH2 0x4B99 DUP2 PUSH1 0x8 SLOAD PUSH2 0x3BCF SWAP1 SWAP2 SWAP1 PUSH4 0xFFFFFFFF AND JUMP JUMPDEST PUSH1 0x8 DUP2 SWAP1 SSTORE POP JUMPDEST POP POP POP POP POP JUMP JUMPDEST PUSH1 0x60 DUP2 PUSH1 0x40 MLOAD SWAP1 DUP1 DUP3 MSTORE DUP1 PUSH1 0x20 MUL PUSH1 0x20 ADD DUP3 ADD PUSH1 0x40 MSTORE DUP1 ISZERO PUSH2 0x4BD8 JUMPI DUP2 PUSH1 0x20 ADD PUSH1 0x20 DUP3 MUL DUP1 CODESIZE DUP4 CODECOPY DUP1 DUP3 ADD SWAP2 POP POP SWAP1 POP JUMPDEST POP SWAP1 POP PUSH1 0x0 DUP1 SWAP1 POP JUMPDEST DUP3 DUP2 LT ISZERO PUSH2 0x4C13 JUMPI DUP1 PUSH1 0x1 SWAP1 SHL DUP3 DUP3 DUP2 MLOAD DUP2 LT PUSH2 0x4BFA JUMPI INVALID JUMPDEST PUSH1 0x20 MUL PUSH1 0x20 ADD ADD DUP2 DUP2 MSTORE POP POP DUP1 DUP1 PUSH1 0x1 ADD SWAP2 POP POP PUSH2 0x4BE1 JUMP JUMPDEST POP SWAP2 SWAP1 POP JUMP INVALID GASLIMIT MSTORE NUMBER ORIGIN ADDRESS GASPRICE KECCAK256 PUSH21 0x72616E7366657220746F20746865207A65726F2061 PUSH5 0x6472657373 0x4F PUSH24 0x6E61626C653A206E6577206F776E65722069732074686520 PUSH27 0x65726F206164647265737345524332303A20617070726F76652074 PUSH16 0x20746865207A65726F20616464726573 PUSH20 0x63616E6E6F742075736520646973747269627574 PUSH10 0x6F6E2068696E74206166 PUSH21 0x657220696E697469616C2066756E64696E67536166 PUSH6 0x4D6174683A20 PUSH14 0x756C7469706C69636174696F6E20 PUSH16 0x766572666C6F7745524332303A206275 PUSH19 0x6E2066726F6D20746865207A65726F20616464 PUSH19 0x65737345524332303A207472616E7366657220 PUSH7 0x726F6D20746865 KECCAK256 PUSH27 0x65726F206164647265737345524332303A20617070726F76652066 PUSH19 0x6F6D20746865207A65726F2061646472657373 LOG2 PUSH6 0x627A7A723158 KECCAK256 0xE 0xAC OR REVERT SLOAD 0xC5 0xC4 0x26 0xDD GT SWAP15 0xE1 0xE9 REVERT MLOAD CALLVALUE 0x48 0xE6 0x24 CALLVALUE 0xD3 SWAP11 DUP13 0xDD 0xE1 PUSH31 0x5D1FC5586864736F6C634300051100320000000000000000000000000000 "
		},
		"gasEstimates": {
			"creation": {
				"codeDepositCost": "1810400",
				"executionCost": "infinite",
				"totalCost": "infinite"
			},
			"external": {
				"cloneConstructor(bytes)": "infinite",
				"createFixedProductMarketMaker(address,address,bytes32[],uint256,uint256,uint256)": "infinite",
				"implementationMaster()": "1054",
				"isOwner()": "1122",
				"owner()": "1083",
				"renounceOwnership()": "24297",
				"transferOwnership(address)": "infinite"
			},
			"internal": {
				"_recordCollectionIDsForAllConditions(uint256,bytes32)": "infinite"
			}
		},
		"methodIdentifiers": {
			"cloneConstructor(bytes)": "52e831dd",
			"createFixedProductMarketMaker(address,address,bytes32[],uint256,uint256,uint256)": "656a13a5",
			"implementationMaster()": "12b4d20c",
			"isOwner()": "8f32d59b",
			"owner()": "8da5cb5b",
			"renounceOwnership()": "715018a6",
			"transferOwnership(address)": "f2fde38b"
		}
	},
	"abi": [
		{
			"inputs": [],
			"payable": false,
			"stateMutability": "nonpayable",
			"type": "constructor"
		},
		{
			"anonymous": false,
			"inputs": [
				{
					"indexed": true,
					"internalType": "address",
					"name": "target",
					"type": "address"
				},
				{
					"indexed": false,
					"internalType": "address",
					"name": "clone",
					"type": "address"
				}
			],
			"name": "CloneCreated",
			"type": "event"
		},
		{
			"anonymous": false,
			"inputs": [
				{
					"indexed": true,
					"internalType": "address",
					"name": "buyer",
					"type": "address"
				},
				{
					"indexed": false,
					"internalType": "uint256",
					"name": "investmentAmount",
					"type": "uint256"
				},
				{
					"indexed": false,
					"internalType": "uint256",
					"name": "feeAmount",
					"type": "uint256"
				},
				{
					"indexed": true,
					"internalType": "uint256",
					"name": "outcomeIndex",
					"type": "uint256"
				},
				{
					"indexed": false,
					"internalType": "uint256",
					"name": "outcomeTokensBought",
					"type": "uint256"
				}
			],
			"name": "FPMMBuy",
			"type": "event"
		},
		{
			"anonymous": false,
			"inputs": [
				{
					"indexed": true,
					"internalType": "address",
					"name": "funder",
					"type": "address"
				},
				{
					"indexed": false,
					"internalType": "uint256[]",
					"name": "amountsAdded",
					"type": "uint256[]"
				},
				{
					"indexed": false,
					"internalType": "uint256",
					"name": "sharesMinted",
					"type": "uint256"
				}
			],
			"name": "FPMMFundingAdded",
			"type": "event"
		},
		{
			"anonymous": false,
			"inputs": [
				{
					"indexed": true,
					"internalType": "address",
					"name": "funder",
					"type": "address"
				},
				{
					"indexed": false,
					"internalType": "uint256[]",
					"name": "amountsRemoved",
					"type": "uint256[]"
				},
				{
					"indexed": false,
					"internalType": "uint256",
					"name": "collateralRemovedFromFeePool",
					"type": "uint256"
				},
				{
					"indexed": false,
					"internalType": "uint256",
					"name": "sharesBurnt",
					"type": "uint256"
				}
			],
			"name": "FPMMFundingRemoved",
			"type": "event"
		},
		{
			"anonymous": false,
			"inputs": [
				{
					"indexed": true,
					"internalType": "address",
					"name": "seller",
					"type": "address"
				},
				{
					"indexed": false,
					"internalType": "uint256",
					"name": "returnAmount",
					"type": "uint256"
				},
				{
					"indexed": false,
					"internalType": "uint256",
					"name": "feeAmount",
					"type": "uint256"
				},
				{
					"indexed": true,
					"internalType": "uint256",
					"name": "outcomeIndex",
					"type": "uint256"
				},
				{
					"indexed": false,
					"internalType": "uint256",
					"name": "outcomeTokensSold",
					"type": "uint256"
				}
			],
			"name": "FPMMSell",
			"type": "event"
		},
		{
			"anonymous": false,
			"inputs": [
				{
					"indexed": true,
					"internalType": "address",
					"name": "creator",
					"type": "address"
				},
				{
					"indexed": false,
					"internalType": "contract FPMM",
					"name": "fixedProductMarketMaker",
					"type": "address"
				},
				{
					"indexed": true,
					"internalType": "contract ConditionalTokens",
					"name": "conditionalTokens",
					"type": "address"
				},
				{
					"indexed": true,
					"internalType": "contract IERC20",
					"name": "collateralToken",
					"type": "address"
				},
				{
					"indexed": false,
					"internalType": "bytes32[]",
					"name": "conditionIds",
					"type": "bytes32[]"
				},
				{
					"indexed": false,
					"internalType": "uint256",
					"name": "fee",
					"type": "uint256"
				},
				{
					"indexed": false,
					"internalType": "uint256",
					"name": "closeTime",
					"type": "uint256"
				}
			],
			"name": "FixedProductMarketMakerCreation",
			"type": "event"
		},
		{
			"anonymous": false,
			"inputs": [
				{
					"indexed": true,
					"internalType": "address",
					"name": "previousOwner",
					"type": "address"
				},
				{
					"indexed": true,
					"internalType": "address",
					"name": "newOwner",
					"type": "address"
				}
			],
			"name": "OwnershipTransferred",
			"type": "event"
		},
		{
			"constant": false,
			"inputs": [
				{
					"internalType": "bytes",
					"name": "consData",
					"type": "bytes"
				}
			],
			"name": "cloneConstructor",
			"outputs": [],
			"payable": false,
			"stateMutability": "nonpayable",
			"type": "function"
		},
		{
			"constant": false,
			"inputs": [
				{
					"internalType": "contract ConditionalTokens",
					"name": "conditionalTokens",
					"type": "address"
				},
				{
					"internalType": "contract IERC20",
					"name": "collateralToken",
					"type": "address"
				},
				{
					"internalType": "bytes32[]",
					"name": "conditionIds",
					"type": "bytes32[]"
				},
				{
					"internalType": "uint256",
					"name": "fee",
					"type": "uint256"
				},
				{
					"internalType": "uint256",
					"name": "managerFee",
					"type": "uint256"
				},
				{
					"internalType": "uint256",
					"name": "closeTime",
					"type": "uint256"
				}
			],
			"name": "createFixedProductMarketMaker",
			"outputs": [
				{
					"internalType": "contract FPMM",
					"name": "",
					"type": "address"
				}
			],
			"payable": false,
			"stateMutability": "nonpayable",
			"type": "function"
		},
		{
			"constant": true,
			"inputs": [],
			"name": "implementationMaster",
			"outputs": [
				{
					"internalType": "contract FPMM",
					"name": "",
					"type": "address"
				}
			],
			"payable": false,
			"stateMutability": "view",
			"type": "function"
		},
		{
			"constant": true,
			"inputs": [],
			"name": "isOwner",
			"outputs": [
				{
					"internalType": "bool",
					"name": "",
					"type": "bool"
				}
			],
			"payable": false,
			"stateMutability": "view",
			"type": "function"
		},
		{
			"constant": true,
			"inputs": [],
			"name": "owner",
			"outputs": [
				{
					"internalType": "address",
					"name": "",
					"type": "address"
				}
			],
			"payable": false,
			"stateMutability": "view",
			"type": "function"
		},
		{
			"constant": false,
			"inputs": [],
			"name": "renounceOwnership",
			"outputs": [],
			"payable": false,
			"stateMutability": "nonpayable",
			"type": "function"
		},
		{
			"constant": false,
			"inputs": [
				{
					"internalType": "address",
					"name": "newOwner",
					"type": "address"
				}
			],
			"name": "transferOwnership",
			"outputs": [],
			"payable": false,
			"stateMutability": "nonpayable",
			"type": "function"
		}
	]
}